{
	"contracts/Twitter.sol": {
		"Twitter": {
			"abi": [
				{
					"inputs": [
						{
							"internalType": "address",
							"name": "_profileContract",
							"type": "address"
						}
					],
					"stateMutability": "nonpayable",
					"type": "constructor"
				},
				{
					"inputs": [
						{
							"internalType": "address",
							"name": "owner",
							"type": "address"
						}
					],
					"name": "OwnableInvalidOwner",
					"type": "error"
				},
				{
					"inputs": [
						{
							"internalType": "address",
							"name": "account",
							"type": "address"
						}
					],
					"name": "OwnableUnauthorizedAccount",
					"type": "error"
				},
				{
					"anonymous": false,
					"inputs": [
						{
							"indexed": true,
							"internalType": "address",
							"name": "previousOwner",
							"type": "address"
						},
						{
							"indexed": true,
							"internalType": "address",
							"name": "newOwner",
							"type": "address"
						}
					],
					"name": "OwnershipTransferred",
					"type": "event"
				},
				{
					"anonymous": false,
					"inputs": [
						{
							"indexed": false,
							"internalType": "uint256",
							"name": "id",
							"type": "uint256"
						},
						{
							"indexed": false,
							"internalType": "address",
							"name": "author",
							"type": "address"
						},
						{
							"indexed": false,
							"internalType": "string",
							"name": "content",
							"type": "string"
						},
						{
							"indexed": false,
							"internalType": "uint256",
							"name": "timestamp",
							"type": "uint256"
						}
					],
					"name": "TweetCreated",
					"type": "event"
				},
				{
					"anonymous": false,
					"inputs": [
						{
							"indexed": false,
							"internalType": "address",
							"name": "liker",
							"type": "address"
						},
						{
							"indexed": false,
							"internalType": "address",
							"name": "tweetAuthor",
							"type": "address"
						},
						{
							"indexed": false,
							"internalType": "uint256",
							"name": "id",
							"type": "uint256"
						},
						{
							"indexed": false,
							"internalType": "uint256",
							"name": "newLikedCount",
							"type": "uint256"
						}
					],
					"name": "TweetLiked",
					"type": "event"
				},
				{
					"anonymous": false,
					"inputs": [
						{
							"indexed": false,
							"internalType": "address",
							"name": "unliker",
							"type": "address"
						},
						{
							"indexed": false,
							"internalType": "address",
							"name": "tweetAuthor",
							"type": "address"
						},
						{
							"indexed": false,
							"internalType": "uint256",
							"name": "id",
							"type": "uint256"
						},
						{
							"indexed": false,
							"internalType": "uint256",
							"name": "newLikedCount",
							"type": "uint256"
						}
					],
					"name": "TweetUnliked",
					"type": "event"
				},
				{
					"inputs": [],
					"name": "MAX_TWEET_LENGTH",
					"outputs": [
						{
							"internalType": "uint32",
							"name": "",
							"type": "uint32"
						}
					],
					"stateMutability": "view",
					"type": "function"
				},
				{
					"inputs": [
						{
							"internalType": "uint16",
							"name": "newTweetLength",
							"type": "uint16"
						}
					],
					"name": "changeTweetLength",
					"outputs": [],
					"stateMutability": "nonpayable",
					"type": "function"
				},
				{
					"inputs": [
						{
							"internalType": "string",
							"name": "_tweet",
							"type": "string"
						}
					],
					"name": "createTweets",
					"outputs": [],
					"stateMutability": "nonpayable",
					"type": "function"
				},
				{
					"inputs": [
						{
							"internalType": "address",
							"name": "author",
							"type": "address"
						}
					],
					"name": "getAllLikes",
					"outputs": [
						{
							"internalType": "uint256",
							"name": "",
							"type": "uint256"
						}
					],
					"stateMutability": "view",
					"type": "function"
				},
				{
					"inputs": [
						{
							"internalType": "address",
							"name": "_owner",
							"type": "address"
						}
					],
					"name": "getAllTweets",
					"outputs": [
						{
							"components": [
								{
									"internalType": "uint256",
									"name": "id",
									"type": "uint256"
								},
								{
									"internalType": "address",
									"name": "author",
									"type": "address"
								},
								{
									"internalType": "string",
									"name": "content",
									"type": "string"
								},
								{
									"internalType": "uint256",
									"name": "timestamp",
									"type": "uint256"
								},
								{
									"internalType": "uint256",
									"name": "likes",
									"type": "uint256"
								}
							],
							"internalType": "struct Twitter.Tweet[]",
							"name": "",
							"type": "tuple[]"
						}
					],
					"stateMutability": "view",
					"type": "function"
				},
				{
					"inputs": [
						{
							"internalType": "uint256",
							"name": "_i",
							"type": "uint256"
						}
					],
					"name": "getTweet",
					"outputs": [
						{
							"components": [
								{
									"internalType": "uint256",
									"name": "id",
									"type": "uint256"
								},
								{
									"internalType": "address",
									"name": "author",
									"type": "address"
								},
								{
									"internalType": "string",
									"name": "content",
									"type": "string"
								},
								{
									"internalType": "uint256",
									"name": "timestamp",
									"type": "uint256"
								},
								{
									"internalType": "uint256",
									"name": "likes",
									"type": "uint256"
								}
							],
							"internalType": "struct Twitter.Tweet",
							"name": "",
							"type": "tuple"
						}
					],
					"stateMutability": "view",
					"type": "function"
				},
				{
					"inputs": [
						{
							"internalType": "address",
							"name": "author",
							"type": "address"
						},
						{
							"internalType": "uint256",
							"name": "id",
							"type": "uint256"
						}
					],
					"name": "likeTweet",
					"outputs": [],
					"stateMutability": "nonpayable",
					"type": "function"
				},
				{
					"inputs": [],
					"name": "owner",
					"outputs": [
						{
							"internalType": "address",
							"name": "",
							"type": "address"
						}
					],
					"stateMutability": "view",
					"type": "function"
				},
				{
					"inputs": [],
					"name": "renounceOwnership",
					"outputs": [],
					"stateMutability": "nonpayable",
					"type": "function"
				},
				{
					"inputs": [
						{
							"internalType": "address",
							"name": "newOwner",
							"type": "address"
						}
					],
					"name": "transferOwnership",
					"outputs": [],
					"stateMutability": "nonpayable",
					"type": "function"
				},
				{
					"inputs": [
						{
							"internalType": "address",
							"name": "",
							"type": "address"
						},
						{
							"internalType": "uint256",
							"name": "",
							"type": "uint256"
						}
					],
					"name": "tweets",
					"outputs": [
						{
							"internalType": "uint256",
							"name": "id",
							"type": "uint256"
						},
						{
							"internalType": "address",
							"name": "author",
							"type": "address"
						},
						{
							"internalType": "string",
							"name": "content",
							"type": "string"
						},
						{
							"internalType": "uint256",
							"name": "timestamp",
							"type": "uint256"
						},
						{
							"internalType": "uint256",
							"name": "likes",
							"type": "uint256"
						}
					],
					"stateMutability": "view",
					"type": "function"
				},
				{
					"inputs": [
						{
							"internalType": "address",
							"name": "author",
							"type": "address"
						},
						{
							"internalType": "uint256",
							"name": "id",
							"type": "uint256"
						}
					],
					"name": "unlikeTweet",
					"outputs": [],
					"stateMutability": "nonpayable",
					"type": "function"
				}
			],
			"devdoc": {
				"errors": {
					"OwnableInvalidOwner(address)": [
						{
							"details": "The owner is not a valid owner account. (eg. `address(0)`)"
						}
					],
					"OwnableUnauthorizedAccount(address)": [
						{
							"details": "The caller account is not authorized to perform an operation."
						}
					]
				},
				"kind": "dev",
				"methods": {
					"owner()": {
						"details": "Returns the address of the current owner."
					},
					"renounceOwnership()": {
						"details": "Leaves the contract without owner. It will not be possible to call `onlyOwner` functions. Can only be called by the current owner. NOTE: Renouncing ownership will leave the contract without an owner, thereby disabling any functionality that is only available to the owner."
					},
					"transferOwnership(address)": {
						"details": "Transfers ownership of the contract to a new account (`newOwner`). Can only be called by the current owner."
					}
				},
				"version": 1
			},
			"evm": {
				"assembly": "    /* \"contracts/Twitter.sol\":314:3051  contract Twitter is Ownable {... */\n  mstore(0x40, 0x80)\n    /* \"contracts/Twitter.sol\":676:679  380 */\n  0x017c\n    /* \"contracts/Twitter.sol\":643:679  uint32 public MAX_TWEET_LENGTH = 380 */\n  0x01\n  exp(0x0100, 0x14)\n  dup2\n  sload\n  dup2\n  0xffffffff\n  mul\n  not\n  and\n  swap1\n  dup4\n  0xffffffff\n  and\n  mul\n  or\n  swap1\n  sstore\n  pop\n    /* \"contracts/Twitter.sol\":508:629  constructor(address _profileContract) Ownable(msg.sender) {... */\n  callvalue\n  dup1\n  iszero\n  tag_1\n  jumpi\n  0x00\n  dup1\n  revert\ntag_1:\n  pop\n  mload(0x40)\n  sub(codesize, bytecodeSize)\n  dup1\n  bytecodeSize\n  dup4\n  codecopy\n  dup2\n  dup2\n  add\n  0x40\n  mstore\n  dup2\n  add\n  swap1\n  tag_2\n  swap2\n  swap1\n  tag_3\n  jump\t// in\ntag_2:\n    /* \"contracts/Twitter.sol\":554:564  msg.sender */\n  caller\n    /* \"@openzeppelin/contracts/access/Ownable.sol\":1297:1298  0 */\n  0x00\n    /* \"@openzeppelin/contracts/access/Ownable.sol\":1273:1299  initialOwner == address(0) */\n  0xffffffffffffffffffffffffffffffffffffffff\n  and\n    /* \"@openzeppelin/contracts/access/Ownable.sol\":1273:1285  initialOwner */\n  dup2\n    /* \"@openzeppelin/contracts/access/Ownable.sol\":1273:1299  initialOwner == address(0) */\n  0xffffffffffffffffffffffffffffffffffffffff\n  and\n  sub\n    /* \"@openzeppelin/contracts/access/Ownable.sol\":1269:1364  if (initialOwner == address(0)) {... */\n  tag_7\n  jumpi\n    /* \"@openzeppelin/contracts/access/Ownable.sol\":1350:1351  0 */\n  0x00\n    /* \"@openzeppelin/contracts/access/Ownable.sol\":1322:1353  OwnableInvalidOwner(address(0)) */\n  mload(0x40)\n  0x1e4fbdf700000000000000000000000000000000000000000000000000000000\n  dup2\n  mstore\n  0x04\n  add\n  tag_8\n  swap2\n  swap1\n  tag_9\n  jump\t// in\ntag_8:\n  mload(0x40)\n  dup1\n  swap2\n  sub\n  swap1\n  revert\n    /* \"@openzeppelin/contracts/access/Ownable.sol\":1269:1364  if (initialOwner == address(0)) {... */\ntag_7:\n    /* \"@openzeppelin/contracts/access/Ownable.sol\":1373:1405  _transferOwnership(initialOwner) */\n  tag_10\n    /* \"@openzeppelin/contracts/access/Ownable.sol\":1392:1404  initialOwner */\n  dup2\n    /* \"@openzeppelin/contracts/access/Ownable.sol\":1373:1391  _transferOwnership */\n  shl(0x20, tag_11)\n    /* \"@openzeppelin/contracts/access/Ownable.sol\":1373:1405  _transferOwnership(initialOwner) */\n  0x20\n  shr\n  jump\t// in\ntag_10:\n    /* \"@openzeppelin/contracts/access/Ownable.sol\":1225:1412  constructor(address initialOwner) {... */\n  pop\n    /* \"contracts/Twitter.sol\":604:620  _profileContract */\n  dup1\n    /* \"contracts/Twitter.sol\":577:592  profileContract */\n  0x01\n  0x00\n    /* \"contracts/Twitter.sol\":577:621  profileContract = IProfile(_profileContract) */\n  0x0100\n  exp\n  dup2\n  sload\n  dup2\n  0xffffffffffffffffffffffffffffffffffffffff\n  mul\n  not\n  and\n  swap1\n  dup4\n  0xffffffffffffffffffffffffffffffffffffffff\n  and\n  mul\n  or\n  swap1\n  sstore\n  pop\n    /* \"contracts/Twitter.sol\":508:629  constructor(address _profileContract) Ownable(msg.sender) {... */\n  pop\n    /* \"contracts/Twitter.sol\":314:3051  contract Twitter is Ownable {... */\n  jump(tag_13)\n    /* \"@openzeppelin/contracts/access/Ownable.sol\":2912:3099  function _transferOwnership(address newOwner) internal virtual {... */\ntag_11:\n    /* \"@openzeppelin/contracts/access/Ownable.sol\":2985:3001  address oldOwner */\n  0x00\n    /* \"@openzeppelin/contracts/access/Ownable.sol\":3004:3010  _owner */\n  dup1\n  0x00\n  swap1\n  sload\n  swap1\n  0x0100\n  exp\n  swap1\n  div\n  0xffffffffffffffffffffffffffffffffffffffff\n  and\n    /* \"@openzeppelin/contracts/access/Ownable.sol\":2985:3010  address oldOwner = _owner */\n  swap1\n  pop\n    /* \"@openzeppelin/contracts/access/Ownable.sol\":3029:3037  newOwner */\n  dup2\n    /* \"@openzeppelin/contracts/access/Ownable.sol\":3020:3026  _owner */\n  0x00\n  dup1\n    /* \"@openzeppelin/contracts/access/Ownable.sol\":3020:3037  _owner = newOwner */\n  0x0100\n  exp\n  dup2\n  sload\n  dup2\n  0xffffffffffffffffffffffffffffffffffffffff\n  mul\n  not\n  and\n  swap1\n  dup4\n  0xffffffffffffffffffffffffffffffffffffffff\n  and\n  mul\n  or\n  swap1\n  sstore\n  pop\n    /* \"@openzeppelin/contracts/access/Ownable.sol\":3083:3091  newOwner */\n  dup2\n    /* \"@openzeppelin/contracts/access/Ownable.sol\":3052:3092  OwnershipTransferred(oldOwner, newOwner) */\n  0xffffffffffffffffffffffffffffffffffffffff\n  and\n    /* \"@openzeppelin/contracts/access/Ownable.sol\":3073:3081  oldOwner */\n  dup2\n    /* \"@openzeppelin/contracts/access/Ownable.sol\":3052:3092  OwnershipTransferred(oldOwner, newOwner) */\n  0xffffffffffffffffffffffffffffffffffffffff\n  and\n  0x8be0079c531659141344cd1fd0a4f28419497f9722a3daafe3b4186f6b6457e0\n  mload(0x40)\n  mload(0x40)\n  dup1\n  swap2\n  sub\n  swap1\n  log3\n    /* \"@openzeppelin/contracts/access/Ownable.sol\":2975:3099  {... */\n  pop\n    /* \"@openzeppelin/contracts/access/Ownable.sol\":2912:3099  function _transferOwnership(address newOwner) internal virtual {... */\n  pop\n  jump\t// out\n    /* \"#utility.yul\":88:205   */\ntag_16:\n    /* \"#utility.yul\":197:198   */\n  0x00\n    /* \"#utility.yul\":194:195   */\n  dup1\n    /* \"#utility.yul\":187:199   */\n  revert\n    /* \"#utility.yul\":334:460   */\ntag_18:\n    /* \"#utility.yul\":371:378   */\n  0x00\n    /* \"#utility.yul\":411:453   */\n  0xffffffffffffffffffffffffffffffffffffffff\n    /* \"#utility.yul\":404:409   */\n  dup3\n    /* \"#utility.yul\":400:454   */\n  and\n    /* \"#utility.yul\":389:454   */\n  swap1\n  pop\n    /* \"#utility.yul\":334:460   */\n  swap2\n  swap1\n  pop\n  jump\t// out\n    /* \"#utility.yul\":466:562   */\ntag_19:\n    /* \"#utility.yul\":503:510   */\n  0x00\n    /* \"#utility.yul\":532:556   */\n  tag_29\n    /* \"#utility.yul\":550:555   */\n  dup3\n    /* \"#utility.yul\":532:556   */\n  tag_18\n  jump\t// in\ntag_29:\n    /* \"#utility.yul\":521:556   */\n  swap1\n  pop\n    /* \"#utility.yul\":466:562   */\n  swap2\n  swap1\n  pop\n  jump\t// out\n    /* \"#utility.yul\":568:690   */\ntag_20:\n    /* \"#utility.yul\":641:665   */\n  tag_31\n    /* \"#utility.yul\":659:664   */\n  dup2\n    /* \"#utility.yul\":641:665   */\n  tag_19\n  jump\t// in\ntag_31:\n    /* \"#utility.yul\":634:639   */\n  dup2\n    /* \"#utility.yul\":631:666   */\n  eq\n    /* \"#utility.yul\":621:684   */\n  tag_32\n  jumpi\n    /* \"#utility.yul\":680:681   */\n  0x00\n    /* \"#utility.yul\":677:678   */\n  dup1\n    /* \"#utility.yul\":670:682   */\n  revert\n    /* \"#utility.yul\":621:684   */\ntag_32:\n    /* \"#utility.yul\":568:690   */\n  pop\n  jump\t// out\n    /* \"#utility.yul\":696:839   */\ntag_21:\n    /* \"#utility.yul\":753:758   */\n  0x00\n    /* \"#utility.yul\":784:790   */\n  dup2\n    /* \"#utility.yul\":778:791   */\n  mload\n    /* \"#utility.yul\":769:791   */\n  swap1\n  pop\n    /* \"#utility.yul\":800:833   */\n  tag_34\n    /* \"#utility.yul\":827:832   */\n  dup2\n    /* \"#utility.yul\":800:833   */\n  tag_20\n  jump\t// in\ntag_34:\n    /* \"#utility.yul\":696:839   */\n  swap3\n  swap2\n  pop\n  pop\n  jump\t// out\n    /* \"#utility.yul\":845:1196   */\ntag_3:\n    /* \"#utility.yul\":915:921   */\n  0x00\n    /* \"#utility.yul\":964:966   */\n  0x20\n    /* \"#utility.yul\":952:961   */\n  dup3\n    /* \"#utility.yul\":943:950   */\n  dup5\n    /* \"#utility.yul\":939:962   */\n  sub\n    /* \"#utility.yul\":935:967   */\n  slt\n    /* \"#utility.yul\":932:1051   */\n  iszero\n  tag_36\n  jumpi\n    /* \"#utility.yul\":970:1049   */\n  tag_37\n  tag_16\n  jump\t// in\ntag_37:\n    /* \"#utility.yul\":932:1051   */\ntag_36:\n    /* \"#utility.yul\":1090:1091   */\n  0x00\n    /* \"#utility.yul\":1115:1179   */\n  tag_38\n    /* \"#utility.yul\":1171:1178   */\n  dup5\n    /* \"#utility.yul\":1162:1168   */\n  dup3\n    /* \"#utility.yul\":1151:1160   */\n  dup6\n    /* \"#utility.yul\":1147:1169   */\n  add\n    /* \"#utility.yul\":1115:1179   */\n  tag_21\n  jump\t// in\ntag_38:\n    /* \"#utility.yul\":1105:1179   */\n  swap2\n  pop\n    /* \"#utility.yul\":1061:1189   */\n  pop\n    /* \"#utility.yul\":845:1196   */\n  swap3\n  swap2\n  pop\n  pop\n  jump\t// out\n    /* \"#utility.yul\":1202:1320   */\ntag_22:\n    /* \"#utility.yul\":1289:1313   */\n  tag_40\n    /* \"#utility.yul\":1307:1312   */\n  dup2\n    /* \"#utility.yul\":1289:1313   */\n  tag_19\n  jump\t// in\ntag_40:\n    /* \"#utility.yul\":1284:1287   */\n  dup3\n    /* \"#utility.yul\":1277:1314   */\n  mstore\n    /* \"#utility.yul\":1202:1320   */\n  pop\n  pop\n  jump\t// out\n    /* \"#utility.yul\":1326:1548   */\ntag_9:\n    /* \"#utility.yul\":1419:1423   */\n  0x00\n    /* \"#utility.yul\":1457:1459   */\n  0x20\n    /* \"#utility.yul\":1446:1455   */\n  dup3\n    /* \"#utility.yul\":1442:1460   */\n  add\n    /* \"#utility.yul\":1434:1460   */\n  swap1\n  pop\n    /* \"#utility.yul\":1470:1541   */\n  tag_42\n    /* \"#utility.yul\":1538:1539   */\n  0x00\n    /* \"#utility.yul\":1527:1536   */\n  dup4\n    /* \"#utility.yul\":1523:1540   */\n  add\n    /* \"#utility.yul\":1514:1520   */\n  dup5\n    /* \"#utility.yul\":1470:1541   */\n  tag_22\n  jump\t// in\ntag_42:\n    /* \"#utility.yul\":1326:1548   */\n  swap3\n  swap2\n  pop\n  pop\n  jump\t// out\n    /* \"contracts/Twitter.sol\":314:3051  contract Twitter is Ownable {... */\ntag_13:\n  dataSize(sub_0)\n  dup1\n  dataOffset(sub_0)\n  0x00\n  codecopy\n  0x00\n  return\nstop\n\nsub_0: assembly {\n        /* \"contracts/Twitter.sol\":314:3051  contract Twitter is Ownable {... */\n      mstore(0x40, 0x80)\n      callvalue\n      dup1\n      iszero\n      tag_1\n      jumpi\n      0x00\n      dup1\n      revert\n    tag_1:\n      pop\n      jumpi(tag_2, lt(calldatasize, 0x04))\n      shr(0xe0, calldataload(0x00))\n      dup1\n      0x6eb10797\n      gt\n      tag_15\n      jumpi\n      dup1\n      0x6eb10797\n      eq\n      tag_9\n      jumpi\n      dup1\n      0x715018a6\n      eq\n      tag_10\n      jumpi\n      dup1\n      0x8da5cb5b\n      eq\n      tag_11\n      jumpi\n      dup1\n      0xc3ad5ecb\n      eq\n      tag_12\n      jumpi\n      dup1\n      0xe1549d85\n      eq\n      tag_13\n      jumpi\n      dup1\n      0xf2fde38b\n      eq\n      tag_14\n      jumpi\n      jump(tag_2)\n    tag_15:\n      dup1\n      0x05a1b4a9\n      eq\n      tag_3\n      jumpi\n      dup1\n      0x0a7aa8a1\n      eq\n      tag_4\n      jumpi\n      dup1\n      0x12e7ee1c\n      eq\n      tag_5\n      jumpi\n      dup1\n      0x3d9b569f\n      eq\n      tag_6\n      jumpi\n      dup1\n      0x58bfa4ab\n      eq\n      tag_7\n      jumpi\n      dup1\n      0x63378216\n      eq\n      tag_8\n      jumpi\n    tag_2:\n      0x00\n      dup1\n      revert\n        /* \"contracts/Twitter.sol\":686:727  mapping (address=>Tweet[]) public  tweets */\n    tag_3:\n      tag_16\n      0x04\n      dup1\n      calldatasize\n      sub\n      dup2\n      add\n      swap1\n      tag_17\n      swap2\n      swap1\n      tag_18\n      jump\t// in\n    tag_17:\n      tag_19\n      jump\t// in\n    tag_16:\n      mload(0x40)\n      tag_20\n      swap6\n      swap5\n      swap4\n      swap3\n      swap2\n      swap1\n      tag_21\n      jump\t// in\n    tag_20:\n      mload(0x40)\n      dup1\n      swap2\n      sub\n      swap1\n      return\n        /* \"contracts/Twitter.sol\":1379:1905  function createTweets(string memory _tweet) public onlyRregistered{... */\n    tag_4:\n      tag_22\n      0x04\n      dup1\n      calldatasize\n      sub\n      dup2\n      add\n      swap1\n      tag_23\n      swap2\n      swap1\n      tag_24\n      jump\t// in\n    tag_23:\n      tag_25\n      jump\t// in\n    tag_22:\n      stop\n        /* \"contracts/Twitter.sol\":2676:2790  function getAllTweets(address _owner) public  view returns(Tweet[] memory){... */\n    tag_5:\n      tag_26\n      0x04\n      dup1\n      calldatasize\n      sub\n      dup2\n      add\n      swap1\n      tag_27\n      swap2\n      swap1\n      tag_28\n      jump\t// in\n    tag_27:\n      tag_29\n      jump\t// in\n    tag_26:\n      mload(0x40)\n      tag_30\n      swap2\n      swap1\n      tag_31\n      jump\t// in\n    tag_30:\n      mload(0x40)\n      dup1\n      swap2\n      sub\n      swap1\n      return\n        /* \"contracts/Twitter.sol\":2196:2552  function unlikeTweet(address author, uint256 id) external onlyRregistered{... */\n    tag_6:\n      tag_32\n      0x04\n      dup1\n      calldatasize\n      sub\n      dup2\n      add\n      swap1\n      tag_33\n      swap2\n      swap1\n      tag_18\n      jump\t// in\n    tag_33:\n      tag_34\n      jump\t// in\n    tag_32:\n      stop\n        /* \"contracts/Twitter.sol\":1254:1373  function changeTweetLength(uint16 newTweetLength) public onlyOwner {... */\n    tag_7:\n      tag_35\n      0x04\n      dup1\n      calldatasize\n      sub\n      dup2\n      add\n      swap1\n      tag_36\n      swap2\n      swap1\n      tag_37\n      jump\t// in\n    tag_36:\n      tag_38\n      jump\t// in\n    tag_35:\n      stop\n        /* \"contracts/Twitter.sol\":1911:2190  function likeTweet(address author, uint256 id) external onlyRregistered{... */\n    tag_8:\n      tag_39\n      0x04\n      dup1\n      calldatasize\n      sub\n      dup2\n      add\n      swap1\n      tag_40\n      swap2\n      swap1\n      tag_18\n      jump\t// in\n    tag_40:\n      tag_41\n      jump\t// in\n    tag_39:\n      stop\n        /* \"contracts/Twitter.sol\":643:679  uint32 public MAX_TWEET_LENGTH = 380 */\n    tag_9:\n      tag_42\n      tag_43\n      jump\t// in\n    tag_42:\n      mload(0x40)\n      tag_44\n      swap2\n      swap1\n      tag_45\n      jump\t// in\n    tag_44:\n      mload(0x40)\n      dup1\n      swap2\n      sub\n      swap1\n      return\n        /* \"@openzeppelin/contracts/access/Ownable.sol\":2293:2394  function renounceOwnership() public virtual onlyOwner {... */\n    tag_10:\n      tag_46\n      tag_47\n      jump\t// in\n    tag_46:\n      stop\n        /* \"@openzeppelin/contracts/access/Ownable.sol\":1638:1723  function owner() public view virtual returns (address) {... */\n    tag_11:\n      tag_48\n      tag_49\n      jump\t// in\n    tag_48:\n      mload(0x40)\n      tag_50\n      swap2\n      swap1\n      tag_51\n      jump\t// in\n    tag_50:\n      mload(0x40)\n      dup1\n      swap2\n      sub\n      swap1\n      return\n        /* \"contracts/Twitter.sol\":2560:2670  function getTweet( uint _i) public view returns (Tweet memory){... */\n    tag_12:\n      tag_52\n      0x04\n      dup1\n      calldatasize\n      sub\n      dup2\n      add\n      swap1\n      tag_53\n      swap2\n      swap1\n      tag_54\n      jump\t// in\n    tag_53:\n      tag_55\n      jump\t// in\n    tag_52:\n      mload(0x40)\n      tag_56\n      swap2\n      swap1\n      tag_57\n      jump\t// in\n    tag_56:\n      mload(0x40)\n      dup1\n      swap2\n      sub\n      swap1\n      return\n        /* \"contracts/Twitter.sol\":2796:3048  function getAllLikes(address author)external view returns(uint){... */\n    tag_13:\n      tag_58\n      0x04\n      dup1\n      calldatasize\n      sub\n      dup2\n      add\n      swap1\n      tag_59\n      swap2\n      swap1\n      tag_28\n      jump\t// in\n    tag_59:\n      tag_60\n      jump\t// in\n    tag_58:\n      mload(0x40)\n      tag_61\n      swap2\n      swap1\n      tag_62\n      jump\t// in\n    tag_61:\n      mload(0x40)\n      dup1\n      swap2\n      sub\n      swap1\n      return\n        /* \"@openzeppelin/contracts/access/Ownable.sol\":2543:2758  function transferOwnership(address newOwner) public virtual onlyOwner {... */\n    tag_14:\n      tag_63\n      0x04\n      dup1\n      calldatasize\n      sub\n      dup2\n      add\n      swap1\n      tag_64\n      swap2\n      swap1\n      tag_28\n      jump\t// in\n    tag_64:\n      tag_65\n      jump\t// in\n    tag_63:\n      stop\n        /* \"contracts/Twitter.sol\":686:727  mapping (address=>Tweet[]) public  tweets */\n    tag_19:\n      mstore(0x20, 0x02)\n      dup2\n      0x00\n      mstore\n      keccak256(0x00, 0x40)\n      dup2\n      dup2\n      sload\n      dup2\n      lt\n      tag_66\n      jumpi\n      0x00\n      dup1\n      revert\n    tag_66:\n      swap1\n      0x00\n      mstore\n      keccak256(0x00, 0x20)\n      swap1\n      0x05\n      mul\n      add\n      0x00\n      swap2\n      pop\n      swap2\n      pop\n      pop\n      dup1\n      0x00\n      add\n      sload\n      swap1\n      dup1\n      0x01\n      add\n      0x00\n      swap1\n      sload\n      swap1\n      0x0100\n      exp\n      swap1\n      div\n      0xffffffffffffffffffffffffffffffffffffffff\n      and\n      swap1\n      dup1\n      0x02\n      add\n      dup1\n      sload\n      tag_68\n      swap1\n      tag_69\n      jump\t// in\n    tag_68:\n      dup1\n      0x1f\n      add\n      0x20\n      dup1\n      swap2\n      div\n      mul\n      0x20\n      add\n      mload(0x40)\n      swap1\n      dup2\n      add\n      0x40\n      mstore\n      dup1\n      swap3\n      swap2\n      swap1\n      dup2\n      dup2\n      mstore\n      0x20\n      add\n      dup3\n      dup1\n      sload\n      tag_70\n      swap1\n      tag_69\n      jump\t// in\n    tag_70:\n      dup1\n      iszero\n      tag_71\n      jumpi\n      dup1\n      0x1f\n      lt\n      tag_72\n      jumpi\n      0x0100\n      dup1\n      dup4\n      sload\n      div\n      mul\n      dup4\n      mstore\n      swap2\n      0x20\n      add\n      swap2\n      jump(tag_71)\n    tag_72:\n      dup3\n      add\n      swap2\n      swap1\n      0x00\n      mstore\n      keccak256(0x00, 0x20)\n      swap1\n    tag_73:\n      dup2\n      sload\n      dup2\n      mstore\n      swap1\n      0x01\n      add\n      swap1\n      0x20\n      add\n      dup1\n      dup4\n      gt\n      tag_73\n      jumpi\n      dup3\n      swap1\n      sub\n      0x1f\n      and\n      dup3\n      add\n      swap2\n    tag_71:\n      pop\n      pop\n      pop\n      pop\n      pop\n      swap1\n      dup1\n      0x03\n      add\n      sload\n      swap1\n      dup1\n      0x04\n      add\n      sload\n      swap1\n      pop\n      dup6\n      jump\t// out\n        /* \"contracts/Twitter.sol\":1379:1905  function createTweets(string memory _tweet) public onlyRregistered{... */\n    tag_25:\n        /* \"contracts/Twitter.sol\":1056:1099  IProfile.UserProfile memory userProfileTemp */\n      0x00\n        /* \"contracts/Twitter.sol\":1102:1117  profileContract */\n      0x01\n      0x00\n      swap1\n      sload\n      swap1\n      0x0100\n      exp\n      swap1\n      div\n      0xffffffffffffffffffffffffffffffffffffffff\n      and\n        /* \"contracts/Twitter.sol\":1102:1128  profileContract.getProfile */\n      0xffffffffffffffffffffffffffffffffffffffff\n      and\n      0x0f53a470\n        /* \"contracts/Twitter.sol\":1129:1139  msg.sender */\n      caller\n        /* \"contracts/Twitter.sol\":1102:1140  profileContract.getProfile(msg.sender) */\n      mload(0x40)\n      dup3\n      0xffffffff\n      and\n      0xe0\n      shl\n      dup2\n      mstore\n      0x04\n      add\n      tag_75\n      swap2\n      swap1\n      tag_51\n      jump\t// in\n    tag_75:\n      0x00\n      mload(0x40)\n      dup1\n      dup4\n      sub\n      dup2\n      dup7\n      gas\n      staticcall\n      iszero\n      dup1\n      iszero\n      tag_77\n      jumpi\n      returndatasize\n      0x00\n      dup1\n      returndatacopy\n      revert(0x00, returndatasize)\n    tag_77:\n      pop\n      pop\n      pop\n      pop\n      mload(0x40)\n      returndatasize\n      0x00\n      dup3\n      returndatacopy\n      returndatasize\n      not(0x1f)\n      0x1f\n      dup3\n      add\n      and\n      dup3\n      add\n      dup1\n      0x40\n      mstore\n      pop\n      dup2\n      add\n      swap1\n      tag_78\n      swap2\n      swap1\n      tag_79\n      jump\t// in\n    tag_78:\n        /* \"contracts/Twitter.sol\":1056:1140  IProfile.UserProfile memory userProfileTemp = profileContract.getProfile(msg.sender) */\n      swap1\n      pop\n        /* \"contracts/Twitter.sol\":1201:1202  0 */\n      0x00\n        /* \"contracts/Twitter.sol\":1165:1180  userProfileTemp */\n      dup2\n        /* \"contracts/Twitter.sol\":1165:1192  userProfileTemp.displayName */\n      0x00\n      add\n      mload\n        /* \"contracts/Twitter.sol\":1159:1200  bytes(userProfileTemp.displayName).length */\n      mload\n        /* \"contracts/Twitter.sol\":1159:1202  bytes(userProfileTemp.displayName).length>0 */\n      gt\n        /* \"contracts/Twitter.sol\":1151:1226  require(bytes(userProfileTemp.displayName).length>0, \"USER NOT REGISTERED\") */\n      tag_80\n      jumpi\n      mload(0x40)\n      0x08c379a000000000000000000000000000000000000000000000000000000000\n      dup2\n      mstore\n      0x04\n      add\n      tag_81\n      swap1\n      tag_82\n      jump\t// in\n    tag_81:\n      mload(0x40)\n      dup1\n      swap2\n      sub\n      swap1\n      revert\n    tag_80:\n        /* \"contracts/Twitter.sol\":1486:1502  MAX_TWEET_LENGTH */\n      0x01\n      0x14\n      swap1\n      sload\n      swap1\n      0x0100\n      exp\n      swap1\n      div\n      0xffffffff\n      and\n        /* \"contracts/Twitter.sol\":1464:1502  bytes(_tweet).length<=MAX_TWEET_LENGTH */\n      0xffffffff\n      and\n        /* \"contracts/Twitter.sol\":1470:1476  _tweet */\n      dup3\n        /* \"contracts/Twitter.sol\":1464:1484  bytes(_tweet).length */\n      mload\n        /* \"contracts/Twitter.sol\":1464:1502  bytes(_tweet).length<=MAX_TWEET_LENGTH */\n      gt\n      iszero\n        /* \"contracts/Twitter.sol\":1456:1524  require(bytes(_tweet).length<=MAX_TWEET_LENGTH, \"Tweet is too long\") */\n      tag_84\n      jumpi\n      mload(0x40)\n      0x08c379a000000000000000000000000000000000000000000000000000000000\n      dup2\n      mstore\n      0x04\n      add\n      tag_85\n      swap1\n      tag_86\n      jump\t// in\n    tag_85:\n      mload(0x40)\n      dup1\n      swap2\n      sub\n      swap1\n      revert\n    tag_84:\n        /* \"contracts/Twitter.sol\":1537:1559  Tweet memory newTweets */\n      0x00\n        /* \"contracts/Twitter.sol\":1562:1751  Tweet({... */\n      mload(0x40)\n      dup1\n      0xa0\n      add\n      0x40\n      mstore\n      dup1\n        /* \"contracts/Twitter.sol\":1587:1593  tweets */\n      0x02\n        /* \"contracts/Twitter.sol\":1587:1605  tweets[msg.sender] */\n      0x00\n        /* \"contracts/Twitter.sol\":1594:1604  msg.sender */\n      caller\n        /* \"contracts/Twitter.sol\":1587:1605  tweets[msg.sender] */\n      0xffffffffffffffffffffffffffffffffffffffff\n      and\n      0xffffffffffffffffffffffffffffffffffffffff\n      and\n      dup2\n      mstore\n      0x20\n      add\n      swap1\n      dup2\n      mstore\n      0x20\n      add\n      0x00\n      keccak256\n        /* \"contracts/Twitter.sol\":1587:1612  tweets[msg.sender].length */\n      dup1\n      sload\n      swap1\n      pop\n        /* \"contracts/Twitter.sol\":1562:1751  Tweet({... */\n      dup2\n      mstore\n      0x20\n      add\n        /* \"contracts/Twitter.sol\":1635:1645  msg.sender */\n      caller\n        /* \"contracts/Twitter.sol\":1562:1751  Tweet({... */\n      0xffffffffffffffffffffffffffffffffffffffff\n      and\n      dup2\n      mstore\n      0x20\n      add\n        /* \"contracts/Twitter.sol\":1669:1675  _tweet */\n      dup5\n        /* \"contracts/Twitter.sol\":1562:1751  Tweet({... */\n      dup2\n      mstore\n      0x20\n      add\n        /* \"contracts/Twitter.sol\":1701:1716  block.timestamp */\n      timestamp\n        /* \"contracts/Twitter.sol\":1562:1751  Tweet({... */\n      dup2\n      mstore\n      0x20\n      add\n        /* \"contracts/Twitter.sol\":1738:1739  0 */\n      0x00\n        /* \"contracts/Twitter.sol\":1562:1751  Tweet({... */\n      dup2\n      mstore\n      pop\n        /* \"contracts/Twitter.sol\":1537:1751  Tweet memory newTweets = Tweet({... */\n      swap1\n      pop\n        /* \"contracts/Twitter.sol\":1762:1768  tweets */\n      0x02\n        /* \"contracts/Twitter.sol\":1762:1780  tweets[msg.sender] */\n      0x00\n        /* \"contracts/Twitter.sol\":1769:1779  msg.sender */\n      caller\n        /* \"contracts/Twitter.sol\":1762:1780  tweets[msg.sender] */\n      0xffffffffffffffffffffffffffffffffffffffff\n      and\n      0xffffffffffffffffffffffffffffffffffffffff\n      and\n      dup2\n      mstore\n      0x20\n      add\n      swap1\n      dup2\n      mstore\n      0x20\n      add\n      0x00\n      keccak256\n        /* \"contracts/Twitter.sol\":1786:1795  newTweets */\n      dup2\n        /* \"contracts/Twitter.sol\":1762:1796  tweets[msg.sender].push(newTweets) */\n      swap1\n      dup1\n      0x01\n      dup2\n      sload\n      add\n      dup1\n      dup3\n      sstore\n      dup1\n      swap2\n      pop\n      pop\n      0x01\n      swap1\n      sub\n      swap1\n      0x00\n      mstore\n      keccak256(0x00, 0x20)\n      swap1\n      0x05\n      mul\n      add\n      0x00\n      swap1\n      swap2\n      swap1\n      swap2\n      swap1\n      swap2\n      pop\n      0x00\n      dup3\n      add\n      mload\n      dup2\n      0x00\n      add\n      sstore\n      0x20\n      dup3\n      add\n      mload\n      dup2\n      0x01\n      add\n      exp(0x0100, 0x00)\n      dup2\n      sload\n      dup2\n      0xffffffffffffffffffffffffffffffffffffffff\n      mul\n      not\n      and\n      swap1\n      dup4\n      0xffffffffffffffffffffffffffffffffffffffff\n      and\n      mul\n      or\n      swap1\n      sstore\n      pop\n      0x40\n      dup3\n      add\n      mload\n      dup2\n      0x02\n      add\n      swap1\n      dup2\n      tag_88\n      swap2\n      swap1\n      tag_89\n      jump\t// in\n    tag_88:\n      pop\n      0x60\n      dup3\n      add\n      mload\n      dup2\n      0x03\n      add\n      sstore\n      0x80\n      dup3\n      add\n      mload\n      dup2\n      0x04\n      add\n      sstore\n      pop\n      pop\n        /* \"contracts/Twitter.sol\":1814:1897  TweetCreated(newTweets.id, newTweets.author,newTweets.content, newTweets.timestamp) */\n      0x16fd3c13e9d46923e0a8bce11c7b473ec508a72e6c96cd2404b29ce972afc29e\n        /* \"contracts/Twitter.sol\":1827:1836  newTweets */\n      dup2\n        /* \"contracts/Twitter.sol\":1827:1839  newTweets.id */\n      0x00\n      add\n      mload\n        /* \"contracts/Twitter.sol\":1841:1850  newTweets */\n      dup3\n        /* \"contracts/Twitter.sol\":1841:1857  newTweets.author */\n      0x20\n      add\n      mload\n        /* \"contracts/Twitter.sol\":1858:1867  newTweets */\n      dup4\n        /* \"contracts/Twitter.sol\":1858:1875  newTweets.content */\n      0x40\n      add\n      mload\n        /* \"contracts/Twitter.sol\":1877:1886  newTweets */\n      dup5\n        /* \"contracts/Twitter.sol\":1877:1896  newTweets.timestamp */\n      0x60\n      add\n      mload\n        /* \"contracts/Twitter.sol\":1814:1897  TweetCreated(newTweets.id, newTweets.author,newTweets.content, newTweets.timestamp) */\n      mload(0x40)\n      tag_90\n      swap5\n      swap4\n      swap3\n      swap2\n      swap1\n      tag_91\n      jump\t// in\n    tag_90:\n      mload(0x40)\n      dup1\n      swap2\n      sub\n      swap1\n      log1\n        /* \"contracts/Twitter.sol\":1445:1905  {... */\n      pop\n        /* \"contracts/Twitter.sol\":1045:1246  {... */\n      pop\n        /* \"contracts/Twitter.sol\":1379:1905  function createTweets(string memory _tweet) public onlyRregistered{... */\n      pop\n      jump\t// out\n        /* \"contracts/Twitter.sol\":2676:2790  function getAllTweets(address _owner) public  view returns(Tweet[] memory){... */\n    tag_29:\n        /* \"contracts/Twitter.sol\":2735:2749  Tweet[] memory */\n      0x60\n        /* \"contracts/Twitter.sol\":2768:2774  tweets */\n      0x02\n        /* \"contracts/Twitter.sol\":2768:2782  tweets[_owner] */\n      0x00\n        /* \"contracts/Twitter.sol\":2775:2781  _owner */\n      dup4\n        /* \"contracts/Twitter.sol\":2768:2782  tweets[_owner] */\n      0xffffffffffffffffffffffffffffffffffffffff\n      and\n      0xffffffffffffffffffffffffffffffffffffffff\n      and\n      dup2\n      mstore\n      0x20\n      add\n      swap1\n      dup2\n      mstore\n      0x20\n      add\n      0x00\n      keccak256\n        /* \"contracts/Twitter.sol\":2761:2782  return tweets[_owner] */\n      dup1\n      sload\n      dup1\n      0x20\n      mul\n      0x20\n      add\n      mload(0x40)\n      swap1\n      dup2\n      add\n      0x40\n      mstore\n      dup1\n      swap3\n      swap2\n      swap1\n      dup2\n      dup2\n      mstore\n      0x20\n      add\n      0x00\n      swap1\n    tag_93:\n      dup3\n      dup3\n      lt\n      iszero\n      tag_94\n      jumpi\n      dup4\n      dup3\n      swap1\n      0x00\n      mstore\n      keccak256(0x00, 0x20)\n      swap1\n      0x05\n      mul\n      add\n      mload(0x40)\n      dup1\n      0xa0\n      add\n      0x40\n      mstore\n      swap1\n      dup2\n      0x00\n      dup3\n      add\n      sload\n      dup2\n      mstore\n      0x20\n      add\n      0x01\n      dup3\n      add\n      0x00\n      swap1\n      sload\n      swap1\n      0x0100\n      exp\n      swap1\n      div\n      0xffffffffffffffffffffffffffffffffffffffff\n      and\n      0xffffffffffffffffffffffffffffffffffffffff\n      and\n      0xffffffffffffffffffffffffffffffffffffffff\n      and\n      dup2\n      mstore\n      0x20\n      add\n      0x02\n      dup3\n      add\n      dup1\n      sload\n      tag_96\n      swap1\n      tag_69\n      jump\t// in\n    tag_96:\n      dup1\n      0x1f\n      add\n      0x20\n      dup1\n      swap2\n      div\n      mul\n      0x20\n      add\n      mload(0x40)\n      swap1\n      dup2\n      add\n      0x40\n      mstore\n      dup1\n      swap3\n      swap2\n      swap1\n      dup2\n      dup2\n      mstore\n      0x20\n      add\n      dup3\n      dup1\n      sload\n      tag_97\n      swap1\n      tag_69\n      jump\t// in\n    tag_97:\n      dup1\n      iszero\n      tag_98\n      jumpi\n      dup1\n      0x1f\n      lt\n      tag_99\n      jumpi\n      0x0100\n      dup1\n      dup4\n      sload\n      div\n      mul\n      dup4\n      mstore\n      swap2\n      0x20\n      add\n      swap2\n      jump(tag_98)\n    tag_99:\n      dup3\n      add\n      swap2\n      swap1\n      0x00\n      mstore\n      keccak256(0x00, 0x20)\n      swap1\n    tag_100:\n      dup2\n      sload\n      dup2\n      mstore\n      swap1\n      0x01\n      add\n      swap1\n      0x20\n      add\n      dup1\n      dup4\n      gt\n      tag_100\n      jumpi\n      dup3\n      swap1\n      sub\n      0x1f\n      and\n      dup3\n      add\n      swap2\n    tag_98:\n      pop\n      pop\n      pop\n      pop\n      pop\n      dup2\n      mstore\n      0x20\n      add\n      0x03\n      dup3\n      add\n      sload\n      dup2\n      mstore\n      0x20\n      add\n      0x04\n      dup3\n      add\n      sload\n      dup2\n      mstore\n      pop\n      pop\n      dup2\n      mstore\n      0x20\n      add\n      swap1\n      0x01\n      add\n      swap1\n      jump(tag_93)\n    tag_94:\n      pop\n      pop\n      pop\n      pop\n      swap1\n      pop\n        /* \"contracts/Twitter.sol\":2676:2790  function getAllTweets(address _owner) public  view returns(Tweet[] memory){... */\n      swap2\n      swap1\n      pop\n      jump\t// out\n        /* \"contracts/Twitter.sol\":2196:2552  function unlikeTweet(address author, uint256 id) external onlyRregistered{... */\n    tag_34:\n        /* \"contracts/Twitter.sol\":1056:1099  IProfile.UserProfile memory userProfileTemp */\n      0x00\n        /* \"contracts/Twitter.sol\":1102:1117  profileContract */\n      0x01\n      0x00\n      swap1\n      sload\n      swap1\n      0x0100\n      exp\n      swap1\n      div\n      0xffffffffffffffffffffffffffffffffffffffff\n      and\n        /* \"contracts/Twitter.sol\":1102:1128  profileContract.getProfile */\n      0xffffffffffffffffffffffffffffffffffffffff\n      and\n      0x0f53a470\n        /* \"contracts/Twitter.sol\":1129:1139  msg.sender */\n      caller\n        /* \"contracts/Twitter.sol\":1102:1140  profileContract.getProfile(msg.sender) */\n      mload(0x40)\n      dup3\n      0xffffffff\n      and\n      0xe0\n      shl\n      dup2\n      mstore\n      0x04\n      add\n      tag_102\n      swap2\n      swap1\n      tag_51\n      jump\t// in\n    tag_102:\n      0x00\n      mload(0x40)\n      dup1\n      dup4\n      sub\n      dup2\n      dup7\n      gas\n      staticcall\n      iszero\n      dup1\n      iszero\n      tag_104\n      jumpi\n      returndatasize\n      0x00\n      dup1\n      returndatacopy\n      revert(0x00, returndatasize)\n    tag_104:\n      pop\n      pop\n      pop\n      pop\n      mload(0x40)\n      returndatasize\n      0x00\n      dup3\n      returndatacopy\n      returndatasize\n      not(0x1f)\n      0x1f\n      dup3\n      add\n      and\n      dup3\n      add\n      dup1\n      0x40\n      mstore\n      pop\n      dup2\n      add\n      swap1\n      tag_105\n      swap2\n      swap1\n      tag_79\n      jump\t// in\n    tag_105:\n        /* \"contracts/Twitter.sol\":1056:1140  IProfile.UserProfile memory userProfileTemp = profileContract.getProfile(msg.sender) */\n      swap1\n      pop\n        /* \"contracts/Twitter.sol\":1201:1202  0 */\n      0x00\n        /* \"contracts/Twitter.sol\":1165:1180  userProfileTemp */\n      dup2\n        /* \"contracts/Twitter.sol\":1165:1192  userProfileTemp.displayName */\n      0x00\n      add\n      mload\n        /* \"contracts/Twitter.sol\":1159:1200  bytes(userProfileTemp.displayName).length */\n      mload\n        /* \"contracts/Twitter.sol\":1159:1202  bytes(userProfileTemp.displayName).length>0 */\n      gt\n        /* \"contracts/Twitter.sol\":1151:1226  require(bytes(userProfileTemp.displayName).length>0, \"USER NOT REGISTERED\") */\n      tag_106\n      jumpi\n      mload(0x40)\n      0x08c379a000000000000000000000000000000000000000000000000000000000\n      dup2\n      mstore\n      0x04\n      add\n      tag_107\n      swap1\n      tag_82\n      jump\t// in\n    tag_107:\n      mload(0x40)\n      dup1\n      swap2\n      sub\n      swap1\n      revert\n    tag_106:\n        /* \"contracts/Twitter.sol\":2313:2315  id */\n      dup2\n        /* \"contracts/Twitter.sol\":2288:2294  tweets */\n      0x02\n        /* \"contracts/Twitter.sol\":2288:2302  tweets[author] */\n      0x00\n        /* \"contracts/Twitter.sol\":2295:2301  author */\n      dup6\n        /* \"contracts/Twitter.sol\":2288:2302  tweets[author] */\n      0xffffffffffffffffffffffffffffffffffffffff\n      and\n      0xffffffffffffffffffffffffffffffffffffffff\n      and\n      dup2\n      mstore\n      0x20\n      add\n      swap1\n      dup2\n      mstore\n      0x20\n      add\n      0x00\n      keccak256\n        /* \"contracts/Twitter.sol\":2303:2305  id */\n      dup4\n        /* \"contracts/Twitter.sol\":2288:2306  tweets[author][id] */\n      dup2\n      sload\n      dup2\n      lt\n      tag_109\n      jumpi\n      tag_110\n      tag_111\n      jump\t// in\n    tag_110:\n    tag_109:\n      swap1\n      0x00\n      mstore\n      keccak256(0x00, 0x20)\n      swap1\n      0x05\n      mul\n      add\n        /* \"contracts/Twitter.sol\":2288:2309  tweets[author][id].id */\n      0x00\n      add\n      sload\n        /* \"contracts/Twitter.sol\":2288:2315  tweets[author][id].id == id */\n      eq\n        /* \"contracts/Twitter.sol\":2280:2357  require(tweets[author][id].id == id, \"There is no tweets exist with this id\") */\n      tag_113\n      jumpi\n      mload(0x40)\n      0x08c379a000000000000000000000000000000000000000000000000000000000\n      dup2\n      mstore\n      0x04\n      add\n      tag_114\n      swap1\n      tag_115\n      jump\t// in\n    tag_114:\n      mload(0x40)\n      dup1\n      swap2\n      sub\n      swap1\n      revert\n    tag_113:\n        /* \"contracts/Twitter.sol\":2401:2402  0 */\n      0x00\n        /* \"contracts/Twitter.sol\":2376:2382  tweets */\n      0x02\n        /* \"contracts/Twitter.sol\":2376:2390  tweets[author] */\n      0x00\n        /* \"contracts/Twitter.sol\":2383:2389  author */\n      dup6\n        /* \"contracts/Twitter.sol\":2376:2390  tweets[author] */\n      0xffffffffffffffffffffffffffffffffffffffff\n      and\n      0xffffffffffffffffffffffffffffffffffffffff\n      and\n      dup2\n      mstore\n      0x20\n      add\n      swap1\n      dup2\n      mstore\n      0x20\n      add\n      0x00\n      keccak256\n        /* \"contracts/Twitter.sol\":2391:2393  id */\n      dup4\n        /* \"contracts/Twitter.sol\":2376:2394  tweets[author][id] */\n      dup2\n      sload\n      dup2\n      lt\n      tag_116\n      jumpi\n      tag_117\n      tag_111\n      jump\t// in\n    tag_117:\n    tag_116:\n      swap1\n      0x00\n      mstore\n      keccak256(0x00, 0x20)\n      swap1\n      0x05\n      mul\n      add\n        /* \"contracts/Twitter.sol\":2376:2400  tweets[author][id].likes */\n      0x04\n      add\n      sload\n        /* \"contracts/Twitter.sol\":2376:2402  tweets[author][id].likes>0 */\n      gt\n        /* \"contracts/Twitter.sol\":2368:2429  require(tweets[author][id].likes>0, \"This post has no likes\") */\n      tag_119\n      jumpi\n      mload(0x40)\n      0x08c379a000000000000000000000000000000000000000000000000000000000\n      dup2\n      mstore\n      0x04\n      add\n      tag_120\n      swap1\n      tag_121\n      jump\t// in\n    tag_120:\n      mload(0x40)\n      dup1\n      swap2\n      sub\n      swap1\n      revert\n    tag_119:\n        /* \"contracts/Twitter.sol\":2440:2446  tweets */\n      0x02\n        /* \"contracts/Twitter.sol\":2440:2454  tweets[author] */\n      0x00\n        /* \"contracts/Twitter.sol\":2447:2453  author */\n      dup5\n        /* \"contracts/Twitter.sol\":2440:2454  tweets[author] */\n      0xffffffffffffffffffffffffffffffffffffffff\n      and\n      0xffffffffffffffffffffffffffffffffffffffff\n      and\n      dup2\n      mstore\n      0x20\n      add\n      swap1\n      dup2\n      mstore\n      0x20\n      add\n      0x00\n      keccak256\n        /* \"contracts/Twitter.sol\":2455:2457  id */\n      dup3\n        /* \"contracts/Twitter.sol\":2440:2458  tweets[author][id] */\n      dup2\n      sload\n      dup2\n      lt\n      tag_122\n      jumpi\n      tag_123\n      tag_111\n      jump\t// in\n    tag_123:\n    tag_122:\n      swap1\n      0x00\n      mstore\n      keccak256(0x00, 0x20)\n      swap1\n      0x05\n      mul\n      add\n        /* \"contracts/Twitter.sol\":2440:2464  tweets[author][id].likes */\n      0x04\n      add\n      0x00\n        /* \"contracts/Twitter.sol\":2440:2466  tweets[author][id].likes-- */\n      dup2\n      sload\n      dup1\n      swap3\n      swap2\n      swap1\n      tag_125\n      swap1\n      tag_126\n      jump\t// in\n    tag_125:\n      swap2\n      swap1\n      pop\n      sstore\n      pop\n        /* \"contracts/Twitter.sol\":2482:2544  TweetUnliked(msg.sender, author, id, tweets[author][id].likes) */\n      0x762c2616349603ac16eba0de8e6141b79129a07ab63bd99e0a80b3a471716943\n        /* \"contracts/Twitter.sol\":2495:2505  msg.sender */\n      caller\n        /* \"contracts/Twitter.sol\":2507:2513  author */\n      dup5\n        /* \"contracts/Twitter.sol\":2515:2517  id */\n      dup5\n        /* \"contracts/Twitter.sol\":2519:2525  tweets */\n      0x02\n        /* \"contracts/Twitter.sol\":2519:2533  tweets[author] */\n      0x00\n        /* \"contracts/Twitter.sol\":2526:2532  author */\n      dup9\n        /* \"contracts/Twitter.sol\":2519:2533  tweets[author] */\n      0xffffffffffffffffffffffffffffffffffffffff\n      and\n      0xffffffffffffffffffffffffffffffffffffffff\n      and\n      dup2\n      mstore\n      0x20\n      add\n      swap1\n      dup2\n      mstore\n      0x20\n      add\n      0x00\n      keccak256\n        /* \"contracts/Twitter.sol\":2534:2536  id */\n      dup7\n        /* \"contracts/Twitter.sol\":2519:2537  tweets[author][id] */\n      dup2\n      sload\n      dup2\n      lt\n      tag_127\n      jumpi\n      tag_128\n      tag_111\n      jump\t// in\n    tag_128:\n    tag_127:\n      swap1\n      0x00\n      mstore\n      keccak256(0x00, 0x20)\n      swap1\n      0x05\n      mul\n      add\n        /* \"contracts/Twitter.sol\":2519:2543  tweets[author][id].likes */\n      0x04\n      add\n      sload\n        /* \"contracts/Twitter.sol\":2482:2544  TweetUnliked(msg.sender, author, id, tweets[author][id].likes) */\n      mload(0x40)\n      tag_130\n      swap5\n      swap4\n      swap3\n      swap2\n      swap1\n      tag_131\n      jump\t// in\n    tag_130:\n      mload(0x40)\n      dup1\n      swap2\n      sub\n      swap1\n      log1\n        /* \"contracts/Twitter.sol\":1045:1246  {... */\n      pop\n        /* \"contracts/Twitter.sol\":2196:2552  function unlikeTweet(address author, uint256 id) external onlyRregistered{... */\n      pop\n      pop\n      jump\t// out\n        /* \"contracts/Twitter.sol\":1254:1373  function changeTweetLength(uint16 newTweetLength) public onlyOwner {... */\n    tag_38:\n        /* \"@openzeppelin/contracts/access/Ownable.sol\":1531:1544  _checkOwner() */\n      tag_133\n        /* \"@openzeppelin/contracts/access/Ownable.sol\":1531:1542  _checkOwner */\n      tag_134\n        /* \"@openzeppelin/contracts/access/Ownable.sol\":1531:1544  _checkOwner() */\n      jump\t// in\n    tag_133:\n        /* \"contracts/Twitter.sol\":1351:1365  newTweetLength */\n      dup1\n        /* \"contracts/Twitter.sol\":1332:1365  MAX_TWEET_LENGTH = newTweetLength */\n      0xffff\n      and\n        /* \"contracts/Twitter.sol\":1332:1348  MAX_TWEET_LENGTH */\n      0x01\n      0x14\n        /* \"contracts/Twitter.sol\":1332:1365  MAX_TWEET_LENGTH = newTweetLength */\n      0x0100\n      exp\n      dup2\n      sload\n      dup2\n      0xffffffff\n      mul\n      not\n      and\n      swap1\n      dup4\n      0xffffffff\n      and\n      mul\n      or\n      swap1\n      sstore\n      pop\n        /* \"contracts/Twitter.sol\":1254:1373  function changeTweetLength(uint16 newTweetLength) public onlyOwner {... */\n      pop\n      jump\t// out\n        /* \"contracts/Twitter.sol\":1911:2190  function likeTweet(address author, uint256 id) external onlyRregistered{... */\n    tag_41:\n        /* \"contracts/Twitter.sol\":1056:1099  IProfile.UserProfile memory userProfileTemp */\n      0x00\n        /* \"contracts/Twitter.sol\":1102:1117  profileContract */\n      0x01\n      0x00\n      swap1\n      sload\n      swap1\n      0x0100\n      exp\n      swap1\n      div\n      0xffffffffffffffffffffffffffffffffffffffff\n      and\n        /* \"contracts/Twitter.sol\":1102:1128  profileContract.getProfile */\n      0xffffffffffffffffffffffffffffffffffffffff\n      and\n      0x0f53a470\n        /* \"contracts/Twitter.sol\":1129:1139  msg.sender */\n      caller\n        /* \"contracts/Twitter.sol\":1102:1140  profileContract.getProfile(msg.sender) */\n      mload(0x40)\n      dup3\n      0xffffffff\n      and\n      0xe0\n      shl\n      dup2\n      mstore\n      0x04\n      add\n      tag_137\n      swap2\n      swap1\n      tag_51\n      jump\t// in\n    tag_137:\n      0x00\n      mload(0x40)\n      dup1\n      dup4\n      sub\n      dup2\n      dup7\n      gas\n      staticcall\n      iszero\n      dup1\n      iszero\n      tag_139\n      jumpi\n      returndatasize\n      0x00\n      dup1\n      returndatacopy\n      revert(0x00, returndatasize)\n    tag_139:\n      pop\n      pop\n      pop\n      pop\n      mload(0x40)\n      returndatasize\n      0x00\n      dup3\n      returndatacopy\n      returndatasize\n      not(0x1f)\n      0x1f\n      dup3\n      add\n      and\n      dup3\n      add\n      dup1\n      0x40\n      mstore\n      pop\n      dup2\n      add\n      swap1\n      tag_140\n      swap2\n      swap1\n      tag_79\n      jump\t// in\n    tag_140:\n        /* \"contracts/Twitter.sol\":1056:1140  IProfile.UserProfile memory userProfileTemp = profileContract.getProfile(msg.sender) */\n      swap1\n      pop\n        /* \"contracts/Twitter.sol\":1201:1202  0 */\n      0x00\n        /* \"contracts/Twitter.sol\":1165:1180  userProfileTemp */\n      dup2\n        /* \"contracts/Twitter.sol\":1165:1192  userProfileTemp.displayName */\n      0x00\n      add\n      mload\n        /* \"contracts/Twitter.sol\":1159:1200  bytes(userProfileTemp.displayName).length */\n      mload\n        /* \"contracts/Twitter.sol\":1159:1202  bytes(userProfileTemp.displayName).length>0 */\n      gt\n        /* \"contracts/Twitter.sol\":1151:1226  require(bytes(userProfileTemp.displayName).length>0, \"USER NOT REGISTERED\") */\n      tag_141\n      jumpi\n      mload(0x40)\n      0x08c379a000000000000000000000000000000000000000000000000000000000\n      dup2\n      mstore\n      0x04\n      add\n      tag_142\n      swap1\n      tag_82\n      jump\t// in\n    tag_142:\n      mload(0x40)\n      dup1\n      swap2\n      sub\n      swap1\n      revert\n    tag_141:\n        /* \"contracts/Twitter.sol\":2026:2028  id */\n      dup2\n        /* \"contracts/Twitter.sol\":2001:2007  tweets */\n      0x02\n        /* \"contracts/Twitter.sol\":2001:2015  tweets[author] */\n      0x00\n        /* \"contracts/Twitter.sol\":2008:2014  author */\n      dup6\n        /* \"contracts/Twitter.sol\":2001:2015  tweets[author] */\n      0xffffffffffffffffffffffffffffffffffffffff\n      and\n      0xffffffffffffffffffffffffffffffffffffffff\n      and\n      dup2\n      mstore\n      0x20\n      add\n      swap1\n      dup2\n      mstore\n      0x20\n      add\n      0x00\n      keccak256\n        /* \"contracts/Twitter.sol\":2016:2018  id */\n      dup4\n        /* \"contracts/Twitter.sol\":2001:2019  tweets[author][id] */\n      dup2\n      sload\n      dup2\n      lt\n      tag_144\n      jumpi\n      tag_145\n      tag_111\n      jump\t// in\n    tag_145:\n    tag_144:\n      swap1\n      0x00\n      mstore\n      keccak256(0x00, 0x20)\n      swap1\n      0x05\n      mul\n      add\n        /* \"contracts/Twitter.sol\":2001:2022  tweets[author][id].id */\n      0x00\n      add\n      sload\n        /* \"contracts/Twitter.sol\":2001:2028  tweets[author][id].id == id */\n      eq\n        /* \"contracts/Twitter.sol\":1993:2069  require(tweets[author][id].id == id, \"There is no tweet exist with this id\") */\n      tag_147\n      jumpi\n      mload(0x40)\n      0x08c379a000000000000000000000000000000000000000000000000000000000\n      dup2\n      mstore\n      0x04\n      add\n      tag_148\n      swap1\n      tag_149\n      jump\t// in\n    tag_148:\n      mload(0x40)\n      dup1\n      swap2\n      sub\n      swap1\n      revert\n    tag_147:\n        /* \"contracts/Twitter.sol\":2080:2086  tweets */\n      0x02\n        /* \"contracts/Twitter.sol\":2080:2094  tweets[author] */\n      0x00\n        /* \"contracts/Twitter.sol\":2087:2093  author */\n      dup5\n        /* \"contracts/Twitter.sol\":2080:2094  tweets[author] */\n      0xffffffffffffffffffffffffffffffffffffffff\n      and\n      0xffffffffffffffffffffffffffffffffffffffff\n      and\n      dup2\n      mstore\n      0x20\n      add\n      swap1\n      dup2\n      mstore\n      0x20\n      add\n      0x00\n      keccak256\n        /* \"contracts/Twitter.sol\":2095:2097  id */\n      dup3\n        /* \"contracts/Twitter.sol\":2080:2098  tweets[author][id] */\n      dup2\n      sload\n      dup2\n      lt\n      tag_150\n      jumpi\n      tag_151\n      tag_111\n      jump\t// in\n    tag_151:\n    tag_150:\n      swap1\n      0x00\n      mstore\n      keccak256(0x00, 0x20)\n      swap1\n      0x05\n      mul\n      add\n        /* \"contracts/Twitter.sol\":2080:2104  tweets[author][id].likes */\n      0x04\n      add\n      0x00\n        /* \"contracts/Twitter.sol\":2080:2106  tweets[author][id].likes++ */\n      dup2\n      sload\n      dup1\n      swap3\n      swap2\n      swap1\n      tag_153\n      swap1\n      tag_154\n      jump\t// in\n    tag_153:\n      swap2\n      swap1\n      pop\n      sstore\n      pop\n        /* \"contracts/Twitter.sol\":2122:2182  TweetLiked(msg.sender, author, id, tweets[author][id].likes) */\n      0xe8a76fc0f16d11a00d1e93b689b63d76cf60af914dd3d915375dc41d01a0c3c8\n        /* \"contracts/Twitter.sol\":2133:2143  msg.sender */\n      caller\n        /* \"contracts/Twitter.sol\":2145:2151  author */\n      dup5\n        /* \"contracts/Twitter.sol\":2153:2155  id */\n      dup5\n        /* \"contracts/Twitter.sol\":2157:2163  tweets */\n      0x02\n        /* \"contracts/Twitter.sol\":2157:2171  tweets[author] */\n      0x00\n        /* \"contracts/Twitter.sol\":2164:2170  author */\n      dup9\n        /* \"contracts/Twitter.sol\":2157:2171  tweets[author] */\n      0xffffffffffffffffffffffffffffffffffffffff\n      and\n      0xffffffffffffffffffffffffffffffffffffffff\n      and\n      dup2\n      mstore\n      0x20\n      add\n      swap1\n      dup2\n      mstore\n      0x20\n      add\n      0x00\n      keccak256\n        /* \"contracts/Twitter.sol\":2172:2174  id */\n      dup7\n        /* \"contracts/Twitter.sol\":2157:2175  tweets[author][id] */\n      dup2\n      sload\n      dup2\n      lt\n      tag_155\n      jumpi\n      tag_156\n      tag_111\n      jump\t// in\n    tag_156:\n    tag_155:\n      swap1\n      0x00\n      mstore\n      keccak256(0x00, 0x20)\n      swap1\n      0x05\n      mul\n      add\n        /* \"contracts/Twitter.sol\":2157:2181  tweets[author][id].likes */\n      0x04\n      add\n      sload\n        /* \"contracts/Twitter.sol\":2122:2182  TweetLiked(msg.sender, author, id, tweets[author][id].likes) */\n      mload(0x40)\n      tag_158\n      swap5\n      swap4\n      swap3\n      swap2\n      swap1\n      tag_131\n      jump\t// in\n    tag_158:\n      mload(0x40)\n      dup1\n      swap2\n      sub\n      swap1\n      log1\n        /* \"contracts/Twitter.sol\":1045:1246  {... */\n      pop\n        /* \"contracts/Twitter.sol\":1911:2190  function likeTweet(address author, uint256 id) external onlyRregistered{... */\n      pop\n      pop\n      jump\t// out\n        /* \"contracts/Twitter.sol\":643:679  uint32 public MAX_TWEET_LENGTH = 380 */\n    tag_43:\n      0x01\n      0x14\n      swap1\n      sload\n      swap1\n      0x0100\n      exp\n      swap1\n      div\n      0xffffffff\n      and\n      dup2\n      jump\t// out\n        /* \"@openzeppelin/contracts/access/Ownable.sol\":2293:2394  function renounceOwnership() public virtual onlyOwner {... */\n    tag_47:\n        /* \"@openzeppelin/contracts/access/Ownable.sol\":1531:1544  _checkOwner() */\n      tag_160\n        /* \"@openzeppelin/contracts/access/Ownable.sol\":1531:1542  _checkOwner */\n      tag_134\n        /* \"@openzeppelin/contracts/access/Ownable.sol\":1531:1544  _checkOwner() */\n      jump\t// in\n    tag_160:\n        /* \"@openzeppelin/contracts/access/Ownable.sol\":2357:2387  _transferOwnership(address(0)) */\n      tag_162\n        /* \"@openzeppelin/contracts/access/Ownable.sol\":2384:2385  0 */\n      0x00\n        /* \"@openzeppelin/contracts/access/Ownable.sol\":2357:2375  _transferOwnership */\n      tag_163\n        /* \"@openzeppelin/contracts/access/Ownable.sol\":2357:2387  _transferOwnership(address(0)) */\n      jump\t// in\n    tag_162:\n        /* \"@openzeppelin/contracts/access/Ownable.sol\":2293:2394  function renounceOwnership() public virtual onlyOwner {... */\n      jump\t// out\n        /* \"@openzeppelin/contracts/access/Ownable.sol\":1638:1723  function owner() public view virtual returns (address) {... */\n    tag_49:\n        /* \"@openzeppelin/contracts/access/Ownable.sol\":1684:1691  address */\n      0x00\n        /* \"@openzeppelin/contracts/access/Ownable.sol\":1710:1716  _owner */\n      dup1\n      0x00\n      swap1\n      sload\n      swap1\n      0x0100\n      exp\n      swap1\n      div\n      0xffffffffffffffffffffffffffffffffffffffff\n      and\n        /* \"@openzeppelin/contracts/access/Ownable.sol\":1703:1716  return _owner */\n      swap1\n      pop\n        /* \"@openzeppelin/contracts/access/Ownable.sol\":1638:1723  function owner() public view virtual returns (address) {... */\n      swap1\n      jump\t// out\n        /* \"contracts/Twitter.sol\":2560:2670  function getTweet( uint _i) public view returns (Tweet memory){... */\n    tag_55:\n        /* \"contracts/Twitter.sol\":2609:2621  Tweet memory */\n      tag_165\n      tag_166\n      jump\t// in\n    tag_165:\n        /* \"contracts/Twitter.sol\":2640:2646  tweets */\n      0x02\n        /* \"contracts/Twitter.sol\":2640:2658  tweets[msg.sender] */\n      0x00\n        /* \"contracts/Twitter.sol\":2647:2657  msg.sender */\n      caller\n        /* \"contracts/Twitter.sol\":2640:2658  tweets[msg.sender] */\n      0xffffffffffffffffffffffffffffffffffffffff\n      and\n      0xffffffffffffffffffffffffffffffffffffffff\n      and\n      dup2\n      mstore\n      0x20\n      add\n      swap1\n      dup2\n      mstore\n      0x20\n      add\n      0x00\n      keccak256\n        /* \"contracts/Twitter.sol\":2659:2661  _i */\n      dup3\n        /* \"contracts/Twitter.sol\":2640:2662  tweets[msg.sender][_i] */\n      dup2\n      sload\n      dup2\n      lt\n      tag_168\n      jumpi\n      tag_169\n      tag_111\n      jump\t// in\n    tag_169:\n    tag_168:\n      swap1\n      0x00\n      mstore\n      keccak256(0x00, 0x20)\n      swap1\n      0x05\n      mul\n      add\n        /* \"contracts/Twitter.sol\":2633:2662  return tweets[msg.sender][_i] */\n      mload(0x40)\n      dup1\n      0xa0\n      add\n      0x40\n      mstore\n      swap1\n      dup2\n      0x00\n      dup3\n      add\n      sload\n      dup2\n      mstore\n      0x20\n      add\n      0x01\n      dup3\n      add\n      0x00\n      swap1\n      sload\n      swap1\n      0x0100\n      exp\n      swap1\n      div\n      0xffffffffffffffffffffffffffffffffffffffff\n      and\n      0xffffffffffffffffffffffffffffffffffffffff\n      and\n      0xffffffffffffffffffffffffffffffffffffffff\n      and\n      dup2\n      mstore\n      0x20\n      add\n      0x02\n      dup3\n      add\n      dup1\n      sload\n      tag_171\n      swap1\n      tag_69\n      jump\t// in\n    tag_171:\n      dup1\n      0x1f\n      add\n      0x20\n      dup1\n      swap2\n      div\n      mul\n      0x20\n      add\n      mload(0x40)\n      swap1\n      dup2\n      add\n      0x40\n      mstore\n      dup1\n      swap3\n      swap2\n      swap1\n      dup2\n      dup2\n      mstore\n      0x20\n      add\n      dup3\n      dup1\n      sload\n      tag_172\n      swap1\n      tag_69\n      jump\t// in\n    tag_172:\n      dup1\n      iszero\n      tag_173\n      jumpi\n      dup1\n      0x1f\n      lt\n      tag_174\n      jumpi\n      0x0100\n      dup1\n      dup4\n      sload\n      div\n      mul\n      dup4\n      mstore\n      swap2\n      0x20\n      add\n      swap2\n      jump(tag_173)\n    tag_174:\n      dup3\n      add\n      swap2\n      swap1\n      0x00\n      mstore\n      keccak256(0x00, 0x20)\n      swap1\n    tag_175:\n      dup2\n      sload\n      dup2\n      mstore\n      swap1\n      0x01\n      add\n      swap1\n      0x20\n      add\n      dup1\n      dup4\n      gt\n      tag_175\n      jumpi\n      dup3\n      swap1\n      sub\n      0x1f\n      and\n      dup3\n      add\n      swap2\n    tag_173:\n      pop\n      pop\n      pop\n      pop\n      pop\n      dup2\n      mstore\n      0x20\n      add\n      0x03\n      dup3\n      add\n      sload\n      dup2\n      mstore\n      0x20\n      add\n      0x04\n      dup3\n      add\n      sload\n      dup2\n      mstore\n      pop\n      pop\n      swap1\n      pop\n        /* \"contracts/Twitter.sol\":2560:2670  function getTweet( uint _i) public view returns (Tweet memory){... */\n      swap2\n      swap1\n      pop\n      jump\t// out\n        /* \"contracts/Twitter.sol\":2796:3048  function getAllLikes(address author)external view returns(uint){... */\n    tag_60:\n        /* \"contracts/Twitter.sol\":2854:2858  uint */\n      0x00\n        /* \"contracts/Twitter.sol\":2870:2888  uint256 totalLikes */\n      dup1\n        /* \"contracts/Twitter.sol\":2891:2892  0 */\n      0x00\n        /* \"contracts/Twitter.sol\":2870:2892  uint256 totalLikes = 0 */\n      swap1\n      pop\n        /* \"contracts/Twitter.sol\":2907:2913  uint i */\n      0x00\n        /* \"contracts/Twitter.sol\":2903:3012  for(uint i = 0; i<tweets[author].length; i++){... */\n    tag_177:\n        /* \"contracts/Twitter.sol\":2921:2927  tweets */\n      0x02\n        /* \"contracts/Twitter.sol\":2921:2935  tweets[author] */\n      0x00\n        /* \"contracts/Twitter.sol\":2928:2934  author */\n      dup6\n        /* \"contracts/Twitter.sol\":2921:2935  tweets[author] */\n      0xffffffffffffffffffffffffffffffffffffffff\n      and\n      0xffffffffffffffffffffffffffffffffffffffff\n      and\n      dup2\n      mstore\n      0x20\n      add\n      swap1\n      dup2\n      mstore\n      0x20\n      add\n      0x00\n      keccak256\n        /* \"contracts/Twitter.sol\":2921:2942  tweets[author].length */\n      dup1\n      sload\n      swap1\n      pop\n        /* \"contracts/Twitter.sol\":2919:2920  i */\n      dup2\n        /* \"contracts/Twitter.sol\":2919:2942  i<tweets[author].length */\n      lt\n        /* \"contracts/Twitter.sol\":2903:3012  for(uint i = 0; i<tweets[author].length; i++){... */\n      iszero\n      tag_178\n      jumpi\n        /* \"contracts/Twitter.sol\":2977:2983  tweets */\n      0x02\n        /* \"contracts/Twitter.sol\":2977:2991  tweets[author] */\n      0x00\n        /* \"contracts/Twitter.sol\":2984:2990  author */\n      dup6\n        /* \"contracts/Twitter.sol\":2977:2991  tweets[author] */\n      0xffffffffffffffffffffffffffffffffffffffff\n      and\n      0xffffffffffffffffffffffffffffffffffffffff\n      and\n      dup2\n      mstore\n      0x20\n      add\n      swap1\n      dup2\n      mstore\n      0x20\n      add\n      0x00\n      keccak256\n        /* \"contracts/Twitter.sol\":2992:2993  i */\n      dup2\n        /* \"contracts/Twitter.sol\":2977:2994  tweets[author][i] */\n      dup2\n      sload\n      dup2\n      lt\n      tag_180\n      jumpi\n      tag_181\n      tag_111\n      jump\t// in\n    tag_181:\n    tag_180:\n      swap1\n      0x00\n      mstore\n      keccak256(0x00, 0x20)\n      swap1\n      0x05\n      mul\n      add\n        /* \"contracts/Twitter.sol\":2977:3000  tweets[author][i].likes */\n      0x04\n      add\n      sload\n        /* \"contracts/Twitter.sol\":2963:3000  totalLikes += tweets[author][i].likes */\n      dup3\n      tag_183\n      swap2\n      swap1\n      tag_184\n      jump\t// in\n    tag_183:\n      swap2\n      pop\n        /* \"contracts/Twitter.sol\":2944:2947  i++ */\n      dup1\n      dup1\n      0x01\n      add\n      swap2\n      pop\n      pop\n        /* \"contracts/Twitter.sol\":2903:3012  for(uint i = 0; i<tweets[author].length; i++){... */\n      jump(tag_177)\n    tag_178:\n      pop\n        /* \"contracts/Twitter.sol\":3030:3040  totalLikes */\n      dup1\n        /* \"contracts/Twitter.sol\":3022:3040  return  totalLikes */\n      swap2\n      pop\n      pop\n        /* \"contracts/Twitter.sol\":2796:3048  function getAllLikes(address author)external view returns(uint){... */\n      swap2\n      swap1\n      pop\n      jump\t// out\n        /* \"@openzeppelin/contracts/access/Ownable.sol\":2543:2758  function transferOwnership(address newOwner) public virtual onlyOwner {... */\n    tag_65:\n        /* \"@openzeppelin/contracts/access/Ownable.sol\":1531:1544  _checkOwner() */\n      tag_186\n        /* \"@openzeppelin/contracts/access/Ownable.sol\":1531:1542  _checkOwner */\n      tag_134\n        /* \"@openzeppelin/contracts/access/Ownable.sol\":1531:1544  _checkOwner() */\n      jump\t// in\n    tag_186:\n        /* \"@openzeppelin/contracts/access/Ownable.sol\":2647:2648  0 */\n      0x00\n        /* \"@openzeppelin/contracts/access/Ownable.sol\":2627:2649  newOwner == address(0) */\n      0xffffffffffffffffffffffffffffffffffffffff\n      and\n        /* \"@openzeppelin/contracts/access/Ownable.sol\":2627:2635  newOwner */\n      dup2\n        /* \"@openzeppelin/contracts/access/Ownable.sol\":2627:2649  newOwner == address(0) */\n      0xffffffffffffffffffffffffffffffffffffffff\n      and\n      sub\n        /* \"@openzeppelin/contracts/access/Ownable.sol\":2623:2714  if (newOwner == address(0)) {... */\n      tag_188\n      jumpi\n        /* \"@openzeppelin/contracts/access/Ownable.sol\":2700:2701  0 */\n      0x00\n        /* \"@openzeppelin/contracts/access/Ownable.sol\":2672:2703  OwnableInvalidOwner(address(0)) */\n      mload(0x40)\n      0x1e4fbdf700000000000000000000000000000000000000000000000000000000\n      dup2\n      mstore\n      0x04\n      add\n      tag_189\n      swap2\n      swap1\n      tag_51\n      jump\t// in\n    tag_189:\n      mload(0x40)\n      dup1\n      swap2\n      sub\n      swap1\n      revert\n        /* \"@openzeppelin/contracts/access/Ownable.sol\":2623:2714  if (newOwner == address(0)) {... */\n    tag_188:\n        /* \"@openzeppelin/contracts/access/Ownable.sol\":2723:2751  _transferOwnership(newOwner) */\n      tag_190\n        /* \"@openzeppelin/contracts/access/Ownable.sol\":2742:2750  newOwner */\n      dup2\n        /* \"@openzeppelin/contracts/access/Ownable.sol\":2723:2741  _transferOwnership */\n      tag_163\n        /* \"@openzeppelin/contracts/access/Ownable.sol\":2723:2751  _transferOwnership(newOwner) */\n      jump\t// in\n    tag_190:\n        /* \"@openzeppelin/contracts/access/Ownable.sol\":2543:2758  function transferOwnership(address newOwner) public virtual onlyOwner {... */\n      pop\n      jump\t// out\n        /* \"@openzeppelin/contracts/access/Ownable.sol\":1796:1958  function _checkOwner() internal view virtual {... */\n    tag_134:\n        /* \"@openzeppelin/contracts/access/Ownable.sol\":1866:1878  _msgSender() */\n      tag_192\n        /* \"@openzeppelin/contracts/access/Ownable.sol\":1866:1876  _msgSender */\n      tag_193\n        /* \"@openzeppelin/contracts/access/Ownable.sol\":1866:1878  _msgSender() */\n      jump\t// in\n    tag_192:\n        /* \"@openzeppelin/contracts/access/Ownable.sol\":1855:1878  owner() != _msgSender() */\n      0xffffffffffffffffffffffffffffffffffffffff\n      and\n        /* \"@openzeppelin/contracts/access/Ownable.sol\":1855:1862  owner() */\n      tag_194\n        /* \"@openzeppelin/contracts/access/Ownable.sol\":1855:1860  owner */\n      tag_49\n        /* \"@openzeppelin/contracts/access/Ownable.sol\":1855:1862  owner() */\n      jump\t// in\n    tag_194:\n        /* \"@openzeppelin/contracts/access/Ownable.sol\":1855:1878  owner() != _msgSender() */\n      0xffffffffffffffffffffffffffffffffffffffff\n      and\n      eq\n        /* \"@openzeppelin/contracts/access/Ownable.sol\":1851:1952  if (owner() != _msgSender()) {... */\n      tag_195\n      jumpi\n        /* \"@openzeppelin/contracts/access/Ownable.sol\":1928:1940  _msgSender() */\n      tag_196\n        /* \"@openzeppelin/contracts/access/Ownable.sol\":1928:1938  _msgSender */\n      tag_193\n        /* \"@openzeppelin/contracts/access/Ownable.sol\":1928:1940  _msgSender() */\n      jump\t// in\n    tag_196:\n        /* \"@openzeppelin/contracts/access/Ownable.sol\":1901:1941  OwnableUnauthorizedAccount(_msgSender()) */\n      mload(0x40)\n      0x118cdaa700000000000000000000000000000000000000000000000000000000\n      dup2\n      mstore\n      0x04\n      add\n      tag_197\n      swap2\n      swap1\n      tag_51\n      jump\t// in\n    tag_197:\n      mload(0x40)\n      dup1\n      swap2\n      sub\n      swap1\n      revert\n        /* \"@openzeppelin/contracts/access/Ownable.sol\":1851:1952  if (owner() != _msgSender()) {... */\n    tag_195:\n        /* \"@openzeppelin/contracts/access/Ownable.sol\":1796:1958  function _checkOwner() internal view virtual {... */\n      jump\t// out\n        /* \"@openzeppelin/contracts/access/Ownable.sol\":2912:3099  function _transferOwnership(address newOwner) internal virtual {... */\n    tag_163:\n        /* \"@openzeppelin/contracts/access/Ownable.sol\":2985:3001  address oldOwner */\n      0x00\n        /* \"@openzeppelin/contracts/access/Ownable.sol\":3004:3010  _owner */\n      dup1\n      0x00\n      swap1\n      sload\n      swap1\n      0x0100\n      exp\n      swap1\n      div\n      0xffffffffffffffffffffffffffffffffffffffff\n      and\n        /* \"@openzeppelin/contracts/access/Ownable.sol\":2985:3010  address oldOwner = _owner */\n      swap1\n      pop\n        /* \"@openzeppelin/contracts/access/Ownable.sol\":3029:3037  newOwner */\n      dup2\n        /* \"@openzeppelin/contracts/access/Ownable.sol\":3020:3026  _owner */\n      0x00\n      dup1\n        /* \"@openzeppelin/contracts/access/Ownable.sol\":3020:3037  _owner = newOwner */\n      0x0100\n      exp\n      dup2\n      sload\n      dup2\n      0xffffffffffffffffffffffffffffffffffffffff\n      mul\n      not\n      and\n      swap1\n      dup4\n      0xffffffffffffffffffffffffffffffffffffffff\n      and\n      mul\n      or\n      swap1\n      sstore\n      pop\n        /* \"@openzeppelin/contracts/access/Ownable.sol\":3083:3091  newOwner */\n      dup2\n        /* \"@openzeppelin/contracts/access/Ownable.sol\":3052:3092  OwnershipTransferred(oldOwner, newOwner) */\n      0xffffffffffffffffffffffffffffffffffffffff\n      and\n        /* \"@openzeppelin/contracts/access/Ownable.sol\":3073:3081  oldOwner */\n      dup2\n        /* \"@openzeppelin/contracts/access/Ownable.sol\":3052:3092  OwnershipTransferred(oldOwner, newOwner) */\n      0xffffffffffffffffffffffffffffffffffffffff\n      and\n      0x8be0079c531659141344cd1fd0a4f28419497f9722a3daafe3b4186f6b6457e0\n      mload(0x40)\n      mload(0x40)\n      dup1\n      swap2\n      sub\n      swap1\n      log3\n        /* \"@openzeppelin/contracts/access/Ownable.sol\":2975:3099  {... */\n      pop\n        /* \"@openzeppelin/contracts/access/Ownable.sol\":2912:3099  function _transferOwnership(address newOwner) internal virtual {... */\n      pop\n      jump\t// out\n        /* \"@openzeppelin/contracts/utils/Context.sol\":656:752  function _msgSender() internal view virtual returns (address) {... */\n    tag_193:\n        /* \"@openzeppelin/contracts/utils/Context.sol\":709:716  address */\n      0x00\n        /* \"@openzeppelin/contracts/utils/Context.sol\":735:745  msg.sender */\n      caller\n        /* \"@openzeppelin/contracts/utils/Context.sol\":728:745  return msg.sender */\n      swap1\n      pop\n        /* \"@openzeppelin/contracts/utils/Context.sol\":656:752  function _msgSender() internal view virtual returns (address) {... */\n      swap1\n      jump\t// out\n    tag_166:\n      mload(0x40)\n      dup1\n      0xa0\n      add\n      0x40\n      mstore\n      dup1\n      0x00\n      dup2\n      mstore\n      0x20\n      add\n      and(0xffffffffffffffffffffffffffffffffffffffff, 0x00)\n      dup2\n      mstore\n      0x20\n      add\n      0x60\n      dup2\n      mstore\n      0x20\n      add\n      0x00\n      dup2\n      mstore\n      0x20\n      add\n      0x00\n      dup2\n      mstore\n      pop\n      swap1\n      jump\t// out\n        /* \"#utility.yul\":7:82   */\n    tag_200:\n        /* \"#utility.yul\":40:46   */\n      0x00\n        /* \"#utility.yul\":73:75   */\n      0x40\n        /* \"#utility.yul\":67:76   */\n      mload\n        /* \"#utility.yul\":57:76   */\n      swap1\n      pop\n        /* \"#utility.yul\":7:82   */\n      swap1\n      jump\t// out\n        /* \"#utility.yul\":88:205   */\n    tag_201:\n        /* \"#utility.yul\":197:198   */\n      0x00\n        /* \"#utility.yul\":194:195   */\n      dup1\n        /* \"#utility.yul\":187:199   */\n      revert\n        /* \"#utility.yul\":211:328   */\n    tag_202:\n        /* \"#utility.yul\":320:321   */\n      0x00\n        /* \"#utility.yul\":317:318   */\n      dup1\n        /* \"#utility.yul\":310:322   */\n      revert\n        /* \"#utility.yul\":334:460   */\n    tag_203:\n        /* \"#utility.yul\":371:378   */\n      0x00\n        /* \"#utility.yul\":411:453   */\n      0xffffffffffffffffffffffffffffffffffffffff\n        /* \"#utility.yul\":404:409   */\n      dup3\n        /* \"#utility.yul\":400:454   */\n      and\n        /* \"#utility.yul\":389:454   */\n      swap1\n      pop\n        /* \"#utility.yul\":334:460   */\n      swap2\n      swap1\n      pop\n      jump\t// out\n        /* \"#utility.yul\":466:562   */\n    tag_204:\n        /* \"#utility.yul\":503:510   */\n      0x00\n        /* \"#utility.yul\":532:556   */\n      tag_281\n        /* \"#utility.yul\":550:555   */\n      dup3\n        /* \"#utility.yul\":532:556   */\n      tag_203\n      jump\t// in\n    tag_281:\n        /* \"#utility.yul\":521:556   */\n      swap1\n      pop\n        /* \"#utility.yul\":466:562   */\n      swap2\n      swap1\n      pop\n      jump\t// out\n        /* \"#utility.yul\":568:690   */\n    tag_205:\n        /* \"#utility.yul\":641:665   */\n      tag_283\n        /* \"#utility.yul\":659:664   */\n      dup2\n        /* \"#utility.yul\":641:665   */\n      tag_204\n      jump\t// in\n    tag_283:\n        /* \"#utility.yul\":634:639   */\n      dup2\n        /* \"#utility.yul\":631:666   */\n      eq\n        /* \"#utility.yul\":621:684   */\n      tag_284\n      jumpi\n        /* \"#utility.yul\":680:681   */\n      0x00\n        /* \"#utility.yul\":677:678   */\n      dup1\n        /* \"#utility.yul\":670:682   */\n      revert\n        /* \"#utility.yul\":621:684   */\n    tag_284:\n        /* \"#utility.yul\":568:690   */\n      pop\n      jump\t// out\n        /* \"#utility.yul\":696:835   */\n    tag_206:\n        /* \"#utility.yul\":742:747   */\n      0x00\n        /* \"#utility.yul\":780:786   */\n      dup2\n        /* \"#utility.yul\":767:787   */\n      calldataload\n        /* \"#utility.yul\":758:787   */\n      swap1\n      pop\n        /* \"#utility.yul\":796:829   */\n      tag_286\n        /* \"#utility.yul\":823:828   */\n      dup2\n        /* \"#utility.yul\":796:829   */\n      tag_205\n      jump\t// in\n    tag_286:\n        /* \"#utility.yul\":696:835   */\n      swap3\n      swap2\n      pop\n      pop\n      jump\t// out\n        /* \"#utility.yul\":841:918   */\n    tag_207:\n        /* \"#utility.yul\":878:885   */\n      0x00\n        /* \"#utility.yul\":907:912   */\n      dup2\n        /* \"#utility.yul\":896:912   */\n      swap1\n      pop\n        /* \"#utility.yul\":841:918   */\n      swap2\n      swap1\n      pop\n      jump\t// out\n        /* \"#utility.yul\":924:1046   */\n    tag_208:\n        /* \"#utility.yul\":997:1021   */\n      tag_289\n        /* \"#utility.yul\":1015:1020   */\n      dup2\n        /* \"#utility.yul\":997:1021   */\n      tag_207\n      jump\t// in\n    tag_289:\n        /* \"#utility.yul\":990:995   */\n      dup2\n        /* \"#utility.yul\":987:1022   */\n      eq\n        /* \"#utility.yul\":977:1040   */\n      tag_290\n      jumpi\n        /* \"#utility.yul\":1036:1037   */\n      0x00\n        /* \"#utility.yul\":1033:1034   */\n      dup1\n        /* \"#utility.yul\":1026:1038   */\n      revert\n        /* \"#utility.yul\":977:1040   */\n    tag_290:\n        /* \"#utility.yul\":924:1046   */\n      pop\n      jump\t// out\n        /* \"#utility.yul\":1052:1191   */\n    tag_209:\n        /* \"#utility.yul\":1098:1103   */\n      0x00\n        /* \"#utility.yul\":1136:1142   */\n      dup2\n        /* \"#utility.yul\":1123:1143   */\n      calldataload\n        /* \"#utility.yul\":1114:1143   */\n      swap1\n      pop\n        /* \"#utility.yul\":1152:1185   */\n      tag_292\n        /* \"#utility.yul\":1179:1184   */\n      dup2\n        /* \"#utility.yul\":1152:1185   */\n      tag_208\n      jump\t// in\n    tag_292:\n        /* \"#utility.yul\":1052:1191   */\n      swap3\n      swap2\n      pop\n      pop\n      jump\t// out\n        /* \"#utility.yul\":1197:1671   */\n    tag_18:\n        /* \"#utility.yul\":1265:1271   */\n      0x00\n        /* \"#utility.yul\":1273:1279   */\n      dup1\n        /* \"#utility.yul\":1322:1324   */\n      0x40\n        /* \"#utility.yul\":1310:1319   */\n      dup4\n        /* \"#utility.yul\":1301:1308   */\n      dup6\n        /* \"#utility.yul\":1297:1320   */\n      sub\n        /* \"#utility.yul\":1293:1325   */\n      slt\n        /* \"#utility.yul\":1290:1409   */\n      iszero\n      tag_294\n      jumpi\n        /* \"#utility.yul\":1328:1407   */\n      tag_295\n      tag_201\n      jump\t// in\n    tag_295:\n        /* \"#utility.yul\":1290:1409   */\n    tag_294:\n        /* \"#utility.yul\":1448:1449   */\n      0x00\n        /* \"#utility.yul\":1473:1526   */\n      tag_296\n        /* \"#utility.yul\":1518:1525   */\n      dup6\n        /* \"#utility.yul\":1509:1515   */\n      dup3\n        /* \"#utility.yul\":1498:1507   */\n      dup7\n        /* \"#utility.yul\":1494:1516   */\n      add\n        /* \"#utility.yul\":1473:1526   */\n      tag_206\n      jump\t// in\n    tag_296:\n        /* \"#utility.yul\":1463:1526   */\n      swap3\n      pop\n        /* \"#utility.yul\":1419:1536   */\n      pop\n        /* \"#utility.yul\":1575:1577   */\n      0x20\n        /* \"#utility.yul\":1601:1654   */\n      tag_297\n        /* \"#utility.yul\":1646:1653   */\n      dup6\n        /* \"#utility.yul\":1637:1643   */\n      dup3\n        /* \"#utility.yul\":1626:1635   */\n      dup7\n        /* \"#utility.yul\":1622:1644   */\n      add\n        /* \"#utility.yul\":1601:1654   */\n      tag_209\n      jump\t// in\n    tag_297:\n        /* \"#utility.yul\":1591:1654   */\n      swap2\n      pop\n        /* \"#utility.yul\":1546:1664   */\n      pop\n        /* \"#utility.yul\":1197:1671   */\n      swap3\n      pop\n      swap3\n      swap1\n      pop\n      jump\t// out\n        /* \"#utility.yul\":1677:1795   */\n    tag_210:\n        /* \"#utility.yul\":1764:1788   */\n      tag_299\n        /* \"#utility.yul\":1782:1787   */\n      dup2\n        /* \"#utility.yul\":1764:1788   */\n      tag_207\n      jump\t// in\n    tag_299:\n        /* \"#utility.yul\":1759:1762   */\n      dup3\n        /* \"#utility.yul\":1752:1789   */\n      mstore\n        /* \"#utility.yul\":1677:1795   */\n      pop\n      pop\n      jump\t// out\n        /* \"#utility.yul\":1801:1919   */\n    tag_211:\n        /* \"#utility.yul\":1888:1912   */\n      tag_301\n        /* \"#utility.yul\":1906:1911   */\n      dup2\n        /* \"#utility.yul\":1888:1912   */\n      tag_204\n      jump\t// in\n    tag_301:\n        /* \"#utility.yul\":1883:1886   */\n      dup3\n        /* \"#utility.yul\":1876:1913   */\n      mstore\n        /* \"#utility.yul\":1801:1919   */\n      pop\n      pop\n      jump\t// out\n        /* \"#utility.yul\":1925:2024   */\n    tag_212:\n        /* \"#utility.yul\":1977:1983   */\n      0x00\n        /* \"#utility.yul\":2011:2016   */\n      dup2\n        /* \"#utility.yul\":2005:2017   */\n      mload\n        /* \"#utility.yul\":1995:2017   */\n      swap1\n      pop\n        /* \"#utility.yul\":1925:2024   */\n      swap2\n      swap1\n      pop\n      jump\t// out\n        /* \"#utility.yul\":2030:2199   */\n    tag_213:\n        /* \"#utility.yul\":2114:2125   */\n      0x00\n        /* \"#utility.yul\":2148:2154   */\n      dup3\n        /* \"#utility.yul\":2143:2146   */\n      dup3\n        /* \"#utility.yul\":2136:2155   */\n      mstore\n        /* \"#utility.yul\":2188:2192   */\n      0x20\n        /* \"#utility.yul\":2183:2186   */\n      dup3\n        /* \"#utility.yul\":2179:2193   */\n      add\n        /* \"#utility.yul\":2164:2193   */\n      swap1\n      pop\n        /* \"#utility.yul\":2030:2199   */\n      swap3\n      swap2\n      pop\n      pop\n      jump\t// out\n        /* \"#utility.yul\":2205:2344   */\n    tag_214:\n        /* \"#utility.yul\":2294:2300   */\n      dup3\n        /* \"#utility.yul\":2289:2292   */\n      dup2\n        /* \"#utility.yul\":2284:2287   */\n      dup4\n        /* \"#utility.yul\":2278:2301   */\n      mcopy\n        /* \"#utility.yul\":2335:2336   */\n      0x00\n        /* \"#utility.yul\":2326:2332   */\n      dup4\n        /* \"#utility.yul\":2321:2324   */\n      dup4\n        /* \"#utility.yul\":2317:2333   */\n      add\n        /* \"#utility.yul\":2310:2337   */\n      mstore\n        /* \"#utility.yul\":2205:2344   */\n      pop\n      pop\n      pop\n      jump\t// out\n        /* \"#utility.yul\":2350:2452   */\n    tag_215:\n        /* \"#utility.yul\":2391:2397   */\n      0x00\n        /* \"#utility.yul\":2442:2444   */\n      0x1f\n        /* \"#utility.yul\":2438:2445   */\n      not\n        /* \"#utility.yul\":2433:2435   */\n      0x1f\n        /* \"#utility.yul\":2426:2431   */\n      dup4\n        /* \"#utility.yul\":2422:2436   */\n      add\n        /* \"#utility.yul\":2418:2446   */\n      and\n        /* \"#utility.yul\":2408:2446   */\n      swap1\n      pop\n        /* \"#utility.yul\":2350:2452   */\n      swap2\n      swap1\n      pop\n      jump\t// out\n        /* \"#utility.yul\":2458:2835   */\n    tag_216:\n        /* \"#utility.yul\":2546:2549   */\n      0x00\n        /* \"#utility.yul\":2574:2613   */\n      tag_307\n        /* \"#utility.yul\":2607:2612   */\n      dup3\n        /* \"#utility.yul\":2574:2613   */\n      tag_212\n      jump\t// in\n    tag_307:\n        /* \"#utility.yul\":2629:2700   */\n      tag_308\n        /* \"#utility.yul\":2693:2699   */\n      dup2\n        /* \"#utility.yul\":2688:2691   */\n      dup6\n        /* \"#utility.yul\":2629:2700   */\n      tag_213\n      jump\t// in\n    tag_308:\n        /* \"#utility.yul\":2622:2700   */\n      swap4\n      pop\n        /* \"#utility.yul\":2709:2774   */\n      tag_309\n        /* \"#utility.yul\":2767:2773   */\n      dup2\n        /* \"#utility.yul\":2762:2765   */\n      dup6\n        /* \"#utility.yul\":2755:2759   */\n      0x20\n        /* \"#utility.yul\":2748:2753   */\n      dup7\n        /* \"#utility.yul\":2744:2760   */\n      add\n        /* \"#utility.yul\":2709:2774   */\n      tag_214\n      jump\t// in\n    tag_309:\n        /* \"#utility.yul\":2799:2828   */\n      tag_310\n        /* \"#utility.yul\":2821:2827   */\n      dup2\n        /* \"#utility.yul\":2799:2828   */\n      tag_215\n      jump\t// in\n    tag_310:\n        /* \"#utility.yul\":2794:2797   */\n      dup5\n        /* \"#utility.yul\":2790:2829   */\n      add\n        /* \"#utility.yul\":2783:2829   */\n      swap2\n      pop\n        /* \"#utility.yul\":2550:2835   */\n      pop\n        /* \"#utility.yul\":2458:2835   */\n      swap3\n      swap2\n      pop\n      pop\n      jump\t// out\n        /* \"#utility.yul\":2841:3596   */\n    tag_21:\n        /* \"#utility.yul\":3066:3070   */\n      0x00\n        /* \"#utility.yul\":3104:3107   */\n      0xa0\n        /* \"#utility.yul\":3093:3102   */\n      dup3\n        /* \"#utility.yul\":3089:3108   */\n      add\n        /* \"#utility.yul\":3081:3108   */\n      swap1\n      pop\n        /* \"#utility.yul\":3118:3189   */\n      tag_312\n        /* \"#utility.yul\":3186:3187   */\n      0x00\n        /* \"#utility.yul\":3175:3184   */\n      dup4\n        /* \"#utility.yul\":3171:3188   */\n      add\n        /* \"#utility.yul\":3162:3168   */\n      dup9\n        /* \"#utility.yul\":3118:3189   */\n      tag_210\n      jump\t// in\n    tag_312:\n        /* \"#utility.yul\":3199:3271   */\n      tag_313\n        /* \"#utility.yul\":3267:3269   */\n      0x20\n        /* \"#utility.yul\":3256:3265   */\n      dup4\n        /* \"#utility.yul\":3252:3270   */\n      add\n        /* \"#utility.yul\":3243:3249   */\n      dup8\n        /* \"#utility.yul\":3199:3271   */\n      tag_211\n      jump\t// in\n    tag_313:\n        /* \"#utility.yul\":3318:3327   */\n      dup2\n        /* \"#utility.yul\":3312:3316   */\n      dup2\n        /* \"#utility.yul\":3308:3328   */\n      sub\n        /* \"#utility.yul\":3303:3305   */\n      0x40\n        /* \"#utility.yul\":3292:3301   */\n      dup4\n        /* \"#utility.yul\":3288:3306   */\n      add\n        /* \"#utility.yul\":3281:3329   */\n      mstore\n        /* \"#utility.yul\":3346:3424   */\n      tag_314\n        /* \"#utility.yul\":3419:3423   */\n      dup2\n        /* \"#utility.yul\":3410:3416   */\n      dup7\n        /* \"#utility.yul\":3346:3424   */\n      tag_216\n      jump\t// in\n    tag_314:\n        /* \"#utility.yul\":3338:3424   */\n      swap1\n      pop\n        /* \"#utility.yul\":3434:3506   */\n      tag_315\n        /* \"#utility.yul\":3502:3504   */\n      0x60\n        /* \"#utility.yul\":3491:3500   */\n      dup4\n        /* \"#utility.yul\":3487:3505   */\n      add\n        /* \"#utility.yul\":3478:3484   */\n      dup6\n        /* \"#utility.yul\":3434:3506   */\n      tag_210\n      jump\t// in\n    tag_315:\n        /* \"#utility.yul\":3516:3589   */\n      tag_316\n        /* \"#utility.yul\":3584:3587   */\n      0x80\n        /* \"#utility.yul\":3573:3582   */\n      dup4\n        /* \"#utility.yul\":3569:3588   */\n      add\n        /* \"#utility.yul\":3560:3566   */\n      dup5\n        /* \"#utility.yul\":3516:3589   */\n      tag_210\n      jump\t// in\n    tag_316:\n        /* \"#utility.yul\":2841:3596   */\n      swap7\n      swap6\n      pop\n      pop\n      pop\n      pop\n      pop\n      pop\n      jump\t// out\n        /* \"#utility.yul\":3602:3719   */\n    tag_217:\n        /* \"#utility.yul\":3711:3712   */\n      0x00\n        /* \"#utility.yul\":3708:3709   */\n      dup1\n        /* \"#utility.yul\":3701:3713   */\n      revert\n        /* \"#utility.yul\":3725:3842   */\n    tag_218:\n        /* \"#utility.yul\":3834:3835   */\n      0x00\n        /* \"#utility.yul\":3831:3832   */\n      dup1\n        /* \"#utility.yul\":3824:3836   */\n      revert\n        /* \"#utility.yul\":3848:4028   */\n    tag_219:\n        /* \"#utility.yul\":3896:3973   */\n      0x4e487b7100000000000000000000000000000000000000000000000000000000\n        /* \"#utility.yul\":3893:3894   */\n      0x00\n        /* \"#utility.yul\":3886:3974   */\n      mstore\n        /* \"#utility.yul\":3993:3997   */\n      0x41\n        /* \"#utility.yul\":3990:3991   */\n      0x04\n        /* \"#utility.yul\":3983:3998   */\n      mstore\n        /* \"#utility.yul\":4017:4021   */\n      0x24\n        /* \"#utility.yul\":4014:4015   */\n      0x00\n        /* \"#utility.yul\":4007:4022   */\n      revert\n        /* \"#utility.yul\":4034:4315   */\n    tag_220:\n        /* \"#utility.yul\":4117:4144   */\n      tag_321\n        /* \"#utility.yul\":4139:4143   */\n      dup3\n        /* \"#utility.yul\":4117:4144   */\n      tag_215\n      jump\t// in\n    tag_321:\n        /* \"#utility.yul\":4109:4115   */\n      dup2\n        /* \"#utility.yul\":4105:4145   */\n      add\n        /* \"#utility.yul\":4247:4253   */\n      dup2\n        /* \"#utility.yul\":4235:4245   */\n      dup2\n        /* \"#utility.yul\":4232:4254   */\n      lt\n        /* \"#utility.yul\":4211:4229   */\n      0xffffffffffffffff\n        /* \"#utility.yul\":4199:4209   */\n      dup3\n        /* \"#utility.yul\":4196:4230   */\n      gt\n        /* \"#utility.yul\":4193:4255   */\n      or\n        /* \"#utility.yul\":4190:4278   */\n      iszero\n      tag_322\n      jumpi\n        /* \"#utility.yul\":4258:4276   */\n      tag_323\n      tag_219\n      jump\t// in\n    tag_323:\n        /* \"#utility.yul\":4190:4278   */\n    tag_322:\n        /* \"#utility.yul\":4298:4308   */\n      dup1\n        /* \"#utility.yul\":4294:4296   */\n      0x40\n        /* \"#utility.yul\":4287:4309   */\n      mstore\n        /* \"#utility.yul\":4077:4315   */\n      pop\n        /* \"#utility.yul\":4034:4315   */\n      pop\n      pop\n      jump\t// out\n        /* \"#utility.yul\":4321:4450   */\n    tag_221:\n        /* \"#utility.yul\":4355:4361   */\n      0x00\n        /* \"#utility.yul\":4382:4402   */\n      tag_325\n      tag_200\n      jump\t// in\n    tag_325:\n        /* \"#utility.yul\":4372:4402   */\n      swap1\n      pop\n        /* \"#utility.yul\":4411:4444   */\n      tag_326\n        /* \"#utility.yul\":4439:4443   */\n      dup3\n        /* \"#utility.yul\":4431:4437   */\n      dup3\n        /* \"#utility.yul\":4411:4444   */\n      tag_220\n      jump\t// in\n    tag_326:\n        /* \"#utility.yul\":4321:4450   */\n      swap2\n      swap1\n      pop\n      jump\t// out\n        /* \"#utility.yul\":4456:4764   */\n    tag_222:\n        /* \"#utility.yul\":4518:4522   */\n      0x00\n        /* \"#utility.yul\":4608:4626   */\n      0xffffffffffffffff\n        /* \"#utility.yul\":4600:4606   */\n      dup3\n        /* \"#utility.yul\":4597:4627   */\n      gt\n        /* \"#utility.yul\":4594:4650   */\n      iszero\n      tag_328\n      jumpi\n        /* \"#utility.yul\":4630:4648   */\n      tag_329\n      tag_219\n      jump\t// in\n    tag_329:\n        /* \"#utility.yul\":4594:4650   */\n    tag_328:\n        /* \"#utility.yul\":4668:4697   */\n      tag_330\n        /* \"#utility.yul\":4690:4696   */\n      dup3\n        /* \"#utility.yul\":4668:4697   */\n      tag_215\n      jump\t// in\n    tag_330:\n        /* \"#utility.yul\":4660:4697   */\n      swap1\n      pop\n        /* \"#utility.yul\":4752:4756   */\n      0x20\n        /* \"#utility.yul\":4746:4750   */\n      dup2\n        /* \"#utility.yul\":4742:4757   */\n      add\n        /* \"#utility.yul\":4734:4757   */\n      swap1\n      pop\n        /* \"#utility.yul\":4456:4764   */\n      swap2\n      swap1\n      pop\n      jump\t// out\n        /* \"#utility.yul\":4770:4918   */\n    tag_223:\n        /* \"#utility.yul\":4868:4874   */\n      dup3\n        /* \"#utility.yul\":4863:4866   */\n      dup2\n        /* \"#utility.yul\":4858:4861   */\n      dup4\n        /* \"#utility.yul\":4845:4875   */\n      calldatacopy\n        /* \"#utility.yul\":4909:4910   */\n      0x00\n        /* \"#utility.yul\":4900:4906   */\n      dup4\n        /* \"#utility.yul\":4895:4898   */\n      dup4\n        /* \"#utility.yul\":4891:4907   */\n      add\n        /* \"#utility.yul\":4884:4911   */\n      mstore\n        /* \"#utility.yul\":4770:4918   */\n      pop\n      pop\n      pop\n      jump\t// out\n        /* \"#utility.yul\":4924:5349   */\n    tag_224:\n        /* \"#utility.yul\":5002:5007   */\n      0x00\n        /* \"#utility.yul\":5027:5093   */\n      tag_333\n        /* \"#utility.yul\":5043:5092   */\n      tag_334\n        /* \"#utility.yul\":5085:5091   */\n      dup5\n        /* \"#utility.yul\":5043:5092   */\n      tag_222\n      jump\t// in\n    tag_334:\n        /* \"#utility.yul\":5027:5093   */\n      tag_221\n      jump\t// in\n    tag_333:\n        /* \"#utility.yul\":5018:5093   */\n      swap1\n      pop\n        /* \"#utility.yul\":5116:5122   */\n      dup3\n        /* \"#utility.yul\":5109:5114   */\n      dup2\n        /* \"#utility.yul\":5102:5123   */\n      mstore\n        /* \"#utility.yul\":5154:5158   */\n      0x20\n        /* \"#utility.yul\":5147:5152   */\n      dup2\n        /* \"#utility.yul\":5143:5159   */\n      add\n        /* \"#utility.yul\":5192:5195   */\n      dup5\n        /* \"#utility.yul\":5183:5189   */\n      dup5\n        /* \"#utility.yul\":5178:5181   */\n      dup5\n        /* \"#utility.yul\":5174:5190   */\n      add\n        /* \"#utility.yul\":5171:5196   */\n      gt\n        /* \"#utility.yul\":5168:5280   */\n      iszero\n      tag_335\n      jumpi\n        /* \"#utility.yul\":5199:5278   */\n      tag_336\n      tag_218\n      jump\t// in\n    tag_336:\n        /* \"#utility.yul\":5168:5280   */\n    tag_335:\n        /* \"#utility.yul\":5289:5343   */\n      tag_337\n        /* \"#utility.yul\":5336:5342   */\n      dup5\n        /* \"#utility.yul\":5331:5334   */\n      dup3\n        /* \"#utility.yul\":5326:5329   */\n      dup6\n        /* \"#utility.yul\":5289:5343   */\n      tag_223\n      jump\t// in\n    tag_337:\n        /* \"#utility.yul\":5008:5349   */\n      pop\n        /* \"#utility.yul\":4924:5349   */\n      swap4\n      swap3\n      pop\n      pop\n      pop\n      jump\t// out\n        /* \"#utility.yul\":5369:5709   */\n    tag_225:\n        /* \"#utility.yul\":5425:5430   */\n      0x00\n        /* \"#utility.yul\":5474:5477   */\n      dup3\n        /* \"#utility.yul\":5467:5471   */\n      0x1f\n        /* \"#utility.yul\":5459:5465   */\n      dup4\n        /* \"#utility.yul\":5455:5472   */\n      add\n        /* \"#utility.yul\":5451:5478   */\n      slt\n        /* \"#utility.yul\":5441:5563   */\n      tag_339\n      jumpi\n        /* \"#utility.yul\":5482:5561   */\n      tag_340\n      tag_217\n      jump\t// in\n    tag_340:\n        /* \"#utility.yul\":5441:5563   */\n    tag_339:\n        /* \"#utility.yul\":5599:5605   */\n      dup2\n        /* \"#utility.yul\":5586:5606   */\n      calldataload\n        /* \"#utility.yul\":5624:5703   */\n      tag_341\n        /* \"#utility.yul\":5699:5702   */\n      dup5\n        /* \"#utility.yul\":5691:5697   */\n      dup3\n        /* \"#utility.yul\":5684:5688   */\n      0x20\n        /* \"#utility.yul\":5676:5682   */\n      dup7\n        /* \"#utility.yul\":5672:5689   */\n      add\n        /* \"#utility.yul\":5624:5703   */\n      tag_224\n      jump\t// in\n    tag_341:\n        /* \"#utility.yul\":5615:5703   */\n      swap2\n      pop\n        /* \"#utility.yul\":5431:5709   */\n      pop\n        /* \"#utility.yul\":5369:5709   */\n      swap3\n      swap2\n      pop\n      pop\n      jump\t// out\n        /* \"#utility.yul\":5715:6224   */\n    tag_24:\n        /* \"#utility.yul\":5784:5790   */\n      0x00\n        /* \"#utility.yul\":5833:5835   */\n      0x20\n        /* \"#utility.yul\":5821:5830   */\n      dup3\n        /* \"#utility.yul\":5812:5819   */\n      dup5\n        /* \"#utility.yul\":5808:5831   */\n      sub\n        /* \"#utility.yul\":5804:5836   */\n      slt\n        /* \"#utility.yul\":5801:5920   */\n      iszero\n      tag_343\n      jumpi\n        /* \"#utility.yul\":5839:5918   */\n      tag_344\n      tag_201\n      jump\t// in\n    tag_344:\n        /* \"#utility.yul\":5801:5920   */\n    tag_343:\n        /* \"#utility.yul\":5987:5988   */\n      0x00\n        /* \"#utility.yul\":5976:5985   */\n      dup3\n        /* \"#utility.yul\":5972:5989   */\n      add\n        /* \"#utility.yul\":5959:5990   */\n      calldataload\n        /* \"#utility.yul\":6017:6035   */\n      0xffffffffffffffff\n        /* \"#utility.yul\":6009:6015   */\n      dup2\n        /* \"#utility.yul\":6006:6036   */\n      gt\n        /* \"#utility.yul\":6003:6120   */\n      iszero\n      tag_345\n      jumpi\n        /* \"#utility.yul\":6039:6118   */\n      tag_346\n      tag_202\n      jump\t// in\n    tag_346:\n        /* \"#utility.yul\":6003:6120   */\n    tag_345:\n        /* \"#utility.yul\":6144:6207   */\n      tag_347\n        /* \"#utility.yul\":6199:6206   */\n      dup5\n        /* \"#utility.yul\":6190:6196   */\n      dup3\n        /* \"#utility.yul\":6179:6188   */\n      dup6\n        /* \"#utility.yul\":6175:6197   */\n      add\n        /* \"#utility.yul\":6144:6207   */\n      tag_225\n      jump\t// in\n    tag_347:\n        /* \"#utility.yul\":6134:6207   */\n      swap2\n      pop\n        /* \"#utility.yul\":5930:6217   */\n      pop\n        /* \"#utility.yul\":5715:6224   */\n      swap3\n      swap2\n      pop\n      pop\n      jump\t// out\n        /* \"#utility.yul\":6230:6559   */\n    tag_28:\n        /* \"#utility.yul\":6289:6295   */\n      0x00\n        /* \"#utility.yul\":6338:6340   */\n      0x20\n        /* \"#utility.yul\":6326:6335   */\n      dup3\n        /* \"#utility.yul\":6317:6324   */\n      dup5\n        /* \"#utility.yul\":6313:6336   */\n      sub\n        /* \"#utility.yul\":6309:6341   */\n      slt\n        /* \"#utility.yul\":6306:6425   */\n      iszero\n      tag_349\n      jumpi\n        /* \"#utility.yul\":6344:6423   */\n      tag_350\n      tag_201\n      jump\t// in\n    tag_350:\n        /* \"#utility.yul\":6306:6425   */\n    tag_349:\n        /* \"#utility.yul\":6464:6465   */\n      0x00\n        /* \"#utility.yul\":6489:6542   */\n      tag_351\n        /* \"#utility.yul\":6534:6541   */\n      dup5\n        /* \"#utility.yul\":6525:6531   */\n      dup3\n        /* \"#utility.yul\":6514:6523   */\n      dup6\n        /* \"#utility.yul\":6510:6532   */\n      add\n        /* \"#utility.yul\":6489:6542   */\n      tag_206\n      jump\t// in\n    tag_351:\n        /* \"#utility.yul\":6479:6542   */\n      swap2\n      pop\n        /* \"#utility.yul\":6435:6552   */\n      pop\n        /* \"#utility.yul\":6230:6559   */\n      swap3\n      swap2\n      pop\n      pop\n      jump\t// out\n        /* \"#utility.yul\":6565:6701   */\n    tag_226:\n        /* \"#utility.yul\":6654:6660   */\n      0x00\n        /* \"#utility.yul\":6688:6693   */\n      dup2\n        /* \"#utility.yul\":6682:6694   */\n      mload\n        /* \"#utility.yul\":6672:6694   */\n      swap1\n      pop\n        /* \"#utility.yul\":6565:6701   */\n      swap2\n      swap1\n      pop\n      jump\t// out\n        /* \"#utility.yul\":6707:6913   */\n    tag_227:\n        /* \"#utility.yul\":6828:6839   */\n      0x00\n        /* \"#utility.yul\":6862:6868   */\n      dup3\n        /* \"#utility.yul\":6857:6860   */\n      dup3\n        /* \"#utility.yul\":6850:6869   */\n      mstore\n        /* \"#utility.yul\":6902:6906   */\n      0x20\n        /* \"#utility.yul\":6897:6900   */\n      dup3\n        /* \"#utility.yul\":6893:6907   */\n      add\n        /* \"#utility.yul\":6878:6907   */\n      swap1\n      pop\n        /* \"#utility.yul\":6707:6913   */\n      swap3\n      swap2\n      pop\n      pop\n      jump\t// out\n        /* \"#utility.yul\":6919:7073   */\n    tag_228:\n        /* \"#utility.yul\":7008:7012   */\n      0x00\n        /* \"#utility.yul\":7031:7034   */\n      dup2\n        /* \"#utility.yul\":7023:7034   */\n      swap1\n      pop\n        /* \"#utility.yul\":7061:7065   */\n      0x20\n        /* \"#utility.yul\":7056:7059   */\n      dup3\n        /* \"#utility.yul\":7052:7066   */\n      add\n        /* \"#utility.yul\":7044:7066   */\n      swap1\n      pop\n        /* \"#utility.yul\":6919:7073   */\n      swap2\n      swap1\n      pop\n      jump\t// out\n        /* \"#utility.yul\":7079:7187   */\n    tag_229:\n        /* \"#utility.yul\":7156:7180   */\n      tag_356\n        /* \"#utility.yul\":7174:7179   */\n      dup2\n        /* \"#utility.yul\":7156:7180   */\n      tag_207\n      jump\t// in\n    tag_356:\n        /* \"#utility.yul\":7151:7154   */\n      dup3\n        /* \"#utility.yul\":7144:7181   */\n      mstore\n        /* \"#utility.yul\":7079:7187   */\n      pop\n      pop\n      jump\t// out\n        /* \"#utility.yul\":7193:7301   */\n    tag_230:\n        /* \"#utility.yul\":7270:7294   */\n      tag_358\n        /* \"#utility.yul\":7288:7293   */\n      dup2\n        /* \"#utility.yul\":7270:7294   */\n      tag_204\n      jump\t// in\n    tag_358:\n        /* \"#utility.yul\":7265:7268   */\n      dup3\n        /* \"#utility.yul\":7258:7295   */\n      mstore\n        /* \"#utility.yul\":7193:7301   */\n      pop\n      pop\n      jump\t// out\n        /* \"#utility.yul\":7307:7466   */\n    tag_231:\n        /* \"#utility.yul\":7381:7392   */\n      0x00\n        /* \"#utility.yul\":7415:7421   */\n      dup3\n        /* \"#utility.yul\":7410:7413   */\n      dup3\n        /* \"#utility.yul\":7403:7422   */\n      mstore\n        /* \"#utility.yul\":7455:7459   */\n      0x20\n        /* \"#utility.yul\":7450:7453   */\n      dup3\n        /* \"#utility.yul\":7446:7460   */\n      add\n        /* \"#utility.yul\":7431:7460   */\n      swap1\n      pop\n        /* \"#utility.yul\":7307:7466   */\n      swap3\n      swap2\n      pop\n      pop\n      jump\t// out\n        /* \"#utility.yul\":7472:7829   */\n    tag_232:\n        /* \"#utility.yul\":7550:7553   */\n      0x00\n        /* \"#utility.yul\":7578:7617   */\n      tag_361\n        /* \"#utility.yul\":7611:7616   */\n      dup3\n        /* \"#utility.yul\":7578:7617   */\n      tag_212\n      jump\t// in\n    tag_361:\n        /* \"#utility.yul\":7633:7694   */\n      tag_362\n        /* \"#utility.yul\":7687:7693   */\n      dup2\n        /* \"#utility.yul\":7682:7685   */\n      dup6\n        /* \"#utility.yul\":7633:7694   */\n      tag_231\n      jump\t// in\n    tag_362:\n        /* \"#utility.yul\":7626:7694   */\n      swap4\n      pop\n        /* \"#utility.yul\":7703:7768   */\n      tag_363\n        /* \"#utility.yul\":7761:7767   */\n      dup2\n        /* \"#utility.yul\":7756:7759   */\n      dup6\n        /* \"#utility.yul\":7749:7753   */\n      0x20\n        /* \"#utility.yul\":7742:7747   */\n      dup7\n        /* \"#utility.yul\":7738:7754   */\n      add\n        /* \"#utility.yul\":7703:7768   */\n      tag_214\n      jump\t// in\n    tag_363:\n        /* \"#utility.yul\":7793:7822   */\n      tag_364\n        /* \"#utility.yul\":7815:7821   */\n      dup2\n        /* \"#utility.yul\":7793:7822   */\n      tag_215\n      jump\t// in\n    tag_364:\n        /* \"#utility.yul\":7788:7791   */\n      dup5\n        /* \"#utility.yul\":7784:7823   */\n      add\n        /* \"#utility.yul\":7777:7823   */\n      swap2\n      pop\n        /* \"#utility.yul\":7554:7829   */\n      pop\n        /* \"#utility.yul\":7472:7829   */\n      swap3\n      swap2\n      pop\n      pop\n      jump\t// out\n        /* \"#utility.yul\":7887:9008   */\n    tag_233:\n        /* \"#utility.yul\":7990:7993   */\n      0x00\n        /* \"#utility.yul\":8026:8030   */\n      0xa0\n        /* \"#utility.yul\":8021:8024   */\n      dup4\n        /* \"#utility.yul\":8017:8031   */\n      add\n        /* \"#utility.yul\":8111:8115   */\n      0x00\n        /* \"#utility.yul\":8104:8109   */\n      dup4\n        /* \"#utility.yul\":8100:8116   */\n      add\n        /* \"#utility.yul\":8094:8117   */\n      mload\n        /* \"#utility.yul\":8130:8193   */\n      tag_366\n        /* \"#utility.yul\":8187:8191   */\n      0x00\n        /* \"#utility.yul\":8182:8185   */\n      dup7\n        /* \"#utility.yul\":8178:8192   */\n      add\n        /* \"#utility.yul\":8164:8176   */\n      dup3\n        /* \"#utility.yul\":8130:8193   */\n      tag_229\n      jump\t// in\n    tag_366:\n        /* \"#utility.yul\":8041:8203   */\n      pop\n        /* \"#utility.yul\":8287:8291   */\n      0x20\n        /* \"#utility.yul\":8280:8285   */\n      dup4\n        /* \"#utility.yul\":8276:8292   */\n      add\n        /* \"#utility.yul\":8270:8293   */\n      mload\n        /* \"#utility.yul\":8306:8369   */\n      tag_367\n        /* \"#utility.yul\":8363:8367   */\n      0x20\n        /* \"#utility.yul\":8358:8361   */\n      dup7\n        /* \"#utility.yul\":8354:8368   */\n      add\n        /* \"#utility.yul\":8340:8352   */\n      dup3\n        /* \"#utility.yul\":8306:8369   */\n      tag_230\n      jump\t// in\n    tag_367:\n        /* \"#utility.yul\":8213:8379   */\n      pop\n        /* \"#utility.yul\":8464:8468   */\n      0x40\n        /* \"#utility.yul\":8457:8462   */\n      dup4\n        /* \"#utility.yul\":8453:8469   */\n      add\n        /* \"#utility.yul\":8447:8470   */\n      mload\n        /* \"#utility.yul\":8517:8520   */\n      dup5\n        /* \"#utility.yul\":8511:8515   */\n      dup3\n        /* \"#utility.yul\":8507:8521   */\n      sub\n        /* \"#utility.yul\":8500:8504   */\n      0x40\n        /* \"#utility.yul\":8495:8498   */\n      dup7\n        /* \"#utility.yul\":8491:8505   */\n      add\n        /* \"#utility.yul\":8484:8522   */\n      mstore\n        /* \"#utility.yul\":8543:8616   */\n      tag_368\n        /* \"#utility.yul\":8611:8615   */\n      dup3\n        /* \"#utility.yul\":8597:8609   */\n      dup3\n        /* \"#utility.yul\":8543:8616   */\n      tag_232\n      jump\t// in\n    tag_368:\n        /* \"#utility.yul\":8535:8616   */\n      swap2\n      pop\n        /* \"#utility.yul\":8389:8627   */\n      pop\n        /* \"#utility.yul\":8714:8718   */\n      0x60\n        /* \"#utility.yul\":8707:8712   */\n      dup4\n        /* \"#utility.yul\":8703:8719   */\n      add\n        /* \"#utility.yul\":8697:8720   */\n      mload\n        /* \"#utility.yul\":8733:8796   */\n      tag_369\n        /* \"#utility.yul\":8790:8794   */\n      0x60\n        /* \"#utility.yul\":8785:8788   */\n      dup7\n        /* \"#utility.yul\":8781:8795   */\n      add\n        /* \"#utility.yul\":8767:8779   */\n      dup3\n        /* \"#utility.yul\":8733:8796   */\n      tag_229\n      jump\t// in\n    tag_369:\n        /* \"#utility.yul\":8637:8806   */\n      pop\n        /* \"#utility.yul\":8889:8893   */\n      0x80\n        /* \"#utility.yul\":8882:8887   */\n      dup4\n        /* \"#utility.yul\":8878:8894   */\n      add\n        /* \"#utility.yul\":8872:8895   */\n      mload\n        /* \"#utility.yul\":8908:8971   */\n      tag_370\n        /* \"#utility.yul\":8965:8969   */\n      0x80\n        /* \"#utility.yul\":8960:8963   */\n      dup7\n        /* \"#utility.yul\":8956:8970   */\n      add\n        /* \"#utility.yul\":8942:8954   */\n      dup3\n        /* \"#utility.yul\":8908:8971   */\n      tag_229\n      jump\t// in\n    tag_370:\n        /* \"#utility.yul\":8816:8981   */\n      pop\n        /* \"#utility.yul\":8998:9002   */\n      dup1\n        /* \"#utility.yul\":8991:9002   */\n      swap2\n      pop\n        /* \"#utility.yul\":7995:9008   */\n      pop\n        /* \"#utility.yul\":7887:9008   */\n      swap3\n      swap2\n      pop\n      pop\n      jump\t// out\n        /* \"#utility.yul\":9014:9258   */\n    tag_234:\n        /* \"#utility.yul\":9127:9137   */\n      0x00\n        /* \"#utility.yul\":9162:9252   */\n      tag_372\n        /* \"#utility.yul\":9248:9251   */\n      dup4\n        /* \"#utility.yul\":9240:9246   */\n      dup4\n        /* \"#utility.yul\":9162:9252   */\n      tag_233\n      jump\t// in\n    tag_372:\n        /* \"#utility.yul\":9148:9252   */\n      swap1\n      pop\n        /* \"#utility.yul\":9014:9258   */\n      swap3\n      swap2\n      pop\n      pop\n      jump\t// out\n        /* \"#utility.yul\":9264:9399   */\n    tag_235:\n        /* \"#utility.yul\":9356:9360   */\n      0x00\n        /* \"#utility.yul\":9388:9392   */\n      0x20\n        /* \"#utility.yul\":9383:9386   */\n      dup3\n        /* \"#utility.yul\":9379:9393   */\n      add\n        /* \"#utility.yul\":9371:9393   */\n      swap1\n      pop\n        /* \"#utility.yul\":9264:9399   */\n      swap2\n      swap1\n      pop\n      jump\t// out\n        /* \"#utility.yul\":9461:10548   */\n    tag_236:\n        /* \"#utility.yul\":9624:9627   */\n      0x00\n        /* \"#utility.yul\":9653:9729   */\n      tag_375\n        /* \"#utility.yul\":9723:9728   */\n      dup3\n        /* \"#utility.yul\":9653:9729   */\n      tag_226\n      jump\t// in\n    tag_375:\n        /* \"#utility.yul\":9745:9853   */\n      tag_376\n        /* \"#utility.yul\":9846:9852   */\n      dup2\n        /* \"#utility.yul\":9841:9844   */\n      dup6\n        /* \"#utility.yul\":9745:9853   */\n      tag_227\n      jump\t// in\n    tag_376:\n        /* \"#utility.yul\":9738:9853   */\n      swap4\n      pop\n        /* \"#utility.yul\":9879:9882   */\n      dup4\n        /* \"#utility.yul\":9924:9928   */\n      0x20\n        /* \"#utility.yul\":9916:9922   */\n      dup3\n        /* \"#utility.yul\":9912:9929   */\n      mul\n        /* \"#utility.yul\":9907:9910   */\n      dup6\n        /* \"#utility.yul\":9903:9930   */\n      add\n        /* \"#utility.yul\":9954:10032   */\n      tag_377\n        /* \"#utility.yul\":10026:10031   */\n      dup6\n        /* \"#utility.yul\":9954:10032   */\n      tag_228\n      jump\t// in\n    tag_377:\n        /* \"#utility.yul\":10055:10062   */\n      dup1\n        /* \"#utility.yul\":10086:10087   */\n      0x00\n        /* \"#utility.yul\":10071:10503   */\n    tag_378:\n        /* \"#utility.yul\":10096:10102   */\n      dup6\n        /* \"#utility.yul\":10093:10094   */\n      dup2\n        /* \"#utility.yul\":10090:10103   */\n      lt\n        /* \"#utility.yul\":10071:10503   */\n      iszero\n      tag_380\n      jumpi\n        /* \"#utility.yul\":10167:10176   */\n      dup5\n        /* \"#utility.yul\":10161:10165   */\n      dup5\n        /* \"#utility.yul\":10157:10177   */\n      sub\n        /* \"#utility.yul\":10152:10155   */\n      dup10\n        /* \"#utility.yul\":10145:10178   */\n      mstore\n        /* \"#utility.yul\":10218:10224   */\n      dup2\n        /* \"#utility.yul\":10212:10225   */\n      mload\n        /* \"#utility.yul\":10246:10354   */\n      tag_381\n        /* \"#utility.yul\":10349:10353   */\n      dup6\n        /* \"#utility.yul\":10334:10347   */\n      dup3\n        /* \"#utility.yul\":10246:10354   */\n      tag_234\n      jump\t// in\n    tag_381:\n        /* \"#utility.yul\":10238:10354   */\n      swap5\n      pop\n        /* \"#utility.yul\":10377:10459   */\n      tag_382\n        /* \"#utility.yul\":10452:10458   */\n      dup4\n        /* \"#utility.yul\":10377:10459   */\n      tag_235\n      jump\t// in\n    tag_382:\n        /* \"#utility.yul\":10367:10459   */\n      swap3\n      pop\n        /* \"#utility.yul\":10488:10492   */\n      0x20\n        /* \"#utility.yul\":10483:10486   */\n      dup11\n        /* \"#utility.yul\":10479:10493   */\n      add\n        /* \"#utility.yul\":10472:10493   */\n      swap10\n      pop\n        /* \"#utility.yul\":10131:10503   */\n      pop\n        /* \"#utility.yul\":10118:10119   */\n      0x01\n        /* \"#utility.yul\":10115:10116   */\n      dup2\n        /* \"#utility.yul\":10111:10120   */\n      add\n        /* \"#utility.yul\":10106:10120   */\n      swap1\n      pop\n        /* \"#utility.yul\":10071:10503   */\n      jump(tag_378)\n    tag_380:\n        /* \"#utility.yul\":10075:10089   */\n      pop\n        /* \"#utility.yul\":10519:10523   */\n      dup3\n        /* \"#utility.yul\":10512:10523   */\n      swap8\n      pop\n        /* \"#utility.yul\":10539:10542   */\n      dup8\n        /* \"#utility.yul\":10532:10542   */\n      swap6\n      pop\n        /* \"#utility.yul\":9629:10548   */\n      pop\n      pop\n      pop\n      pop\n      pop\n        /* \"#utility.yul\":9461:10548   */\n      swap3\n      swap2\n      pop\n      pop\n      jump\t// out\n        /* \"#utility.yul\":10554:11015   */\n    tag_31:\n        /* \"#utility.yul\":10741:10745   */\n      0x00\n        /* \"#utility.yul\":10779:10781   */\n      0x20\n        /* \"#utility.yul\":10768:10777   */\n      dup3\n        /* \"#utility.yul\":10764:10782   */\n      add\n        /* \"#utility.yul\":10756:10782   */\n      swap1\n      pop\n        /* \"#utility.yul\":10828:10837   */\n      dup2\n        /* \"#utility.yul\":10822:10826   */\n      dup2\n        /* \"#utility.yul\":10818:10838   */\n      sub\n        /* \"#utility.yul\":10814:10815   */\n      0x00\n        /* \"#utility.yul\":10803:10812   */\n      dup4\n        /* \"#utility.yul\":10799:10816   */\n      add\n        /* \"#utility.yul\":10792:10839   */\n      mstore\n        /* \"#utility.yul\":10856:11008   */\n      tag_384\n        /* \"#utility.yul\":11003:11007   */\n      dup2\n        /* \"#utility.yul\":10994:11000   */\n      dup5\n        /* \"#utility.yul\":10856:11008   */\n      tag_236\n      jump\t// in\n    tag_384:\n        /* \"#utility.yul\":10848:11008   */\n      swap1\n      pop\n        /* \"#utility.yul\":10554:11015   */\n      swap3\n      swap2\n      pop\n      pop\n      jump\t// out\n        /* \"#utility.yul\":11021:11110   */\n    tag_237:\n        /* \"#utility.yul\":11057:11064   */\n      0x00\n        /* \"#utility.yul\":11097:11103   */\n      0xffff\n        /* \"#utility.yul\":11090:11095   */\n      dup3\n        /* \"#utility.yul\":11086:11104   */\n      and\n        /* \"#utility.yul\":11075:11104   */\n      swap1\n      pop\n        /* \"#utility.yul\":11021:11110   */\n      swap2\n      swap1\n      pop\n      jump\t// out\n        /* \"#utility.yul\":11116:11236   */\n    tag_238:\n        /* \"#utility.yul\":11188:11211   */\n      tag_387\n        /* \"#utility.yul\":11205:11210   */\n      dup2\n        /* \"#utility.yul\":11188:11211   */\n      tag_237\n      jump\t// in\n    tag_387:\n        /* \"#utility.yul\":11181:11186   */\n      dup2\n        /* \"#utility.yul\":11178:11212   */\n      eq\n        /* \"#utility.yul\":11168:11230   */\n      tag_388\n      jumpi\n        /* \"#utility.yul\":11226:11227   */\n      0x00\n        /* \"#utility.yul\":11223:11224   */\n      dup1\n        /* \"#utility.yul\":11216:11228   */\n      revert\n        /* \"#utility.yul\":11168:11230   */\n    tag_388:\n        /* \"#utility.yul\":11116:11236   */\n      pop\n      jump\t// out\n        /* \"#utility.yul\":11242:11379   */\n    tag_239:\n        /* \"#utility.yul\":11287:11292   */\n      0x00\n        /* \"#utility.yul\":11325:11331   */\n      dup2\n        /* \"#utility.yul\":11312:11332   */\n      calldataload\n        /* \"#utility.yul\":11303:11332   */\n      swap1\n      pop\n        /* \"#utility.yul\":11341:11373   */\n      tag_390\n        /* \"#utility.yul\":11367:11372   */\n      dup2\n        /* \"#utility.yul\":11341:11373   */\n      tag_238\n      jump\t// in\n    tag_390:\n        /* \"#utility.yul\":11242:11379   */\n      swap3\n      swap2\n      pop\n      pop\n      jump\t// out\n        /* \"#utility.yul\":11385:11712   */\n    tag_37:\n        /* \"#utility.yul\":11443:11449   */\n      0x00\n        /* \"#utility.yul\":11492:11494   */\n      0x20\n        /* \"#utility.yul\":11480:11489   */\n      dup3\n        /* \"#utility.yul\":11471:11478   */\n      dup5\n        /* \"#utility.yul\":11467:11490   */\n      sub\n        /* \"#utility.yul\":11463:11495   */\n      slt\n        /* \"#utility.yul\":11460:11579   */\n      iszero\n      tag_392\n      jumpi\n        /* \"#utility.yul\":11498:11577   */\n      tag_393\n      tag_201\n      jump\t// in\n    tag_393:\n        /* \"#utility.yul\":11460:11579   */\n    tag_392:\n        /* \"#utility.yul\":11618:11619   */\n      0x00\n        /* \"#utility.yul\":11643:11695   */\n      tag_394\n        /* \"#utility.yul\":11687:11694   */\n      dup5\n        /* \"#utility.yul\":11678:11684   */\n      dup3\n        /* \"#utility.yul\":11667:11676   */\n      dup6\n        /* \"#utility.yul\":11663:11685   */\n      add\n        /* \"#utility.yul\":11643:11695   */\n      tag_239\n      jump\t// in\n    tag_394:\n        /* \"#utility.yul\":11633:11695   */\n      swap2\n      pop\n        /* \"#utility.yul\":11589:11705   */\n      pop\n        /* \"#utility.yul\":11385:11712   */\n      swap3\n      swap2\n      pop\n      pop\n      jump\t// out\n        /* \"#utility.yul\":11718:11811   */\n    tag_240:\n        /* \"#utility.yul\":11754:11761   */\n      0x00\n        /* \"#utility.yul\":11794:11804   */\n      0xffffffff\n        /* \"#utility.yul\":11787:11792   */\n      dup3\n        /* \"#utility.yul\":11783:11805   */\n      and\n        /* \"#utility.yul\":11772:11805   */\n      swap1\n      pop\n        /* \"#utility.yul\":11718:11811   */\n      swap2\n      swap1\n      pop\n      jump\t// out\n        /* \"#utility.yul\":11817:11932   */\n    tag_241:\n        /* \"#utility.yul\":11902:11925   */\n      tag_397\n        /* \"#utility.yul\":11919:11924   */\n      dup2\n        /* \"#utility.yul\":11902:11925   */\n      tag_240\n      jump\t// in\n    tag_397:\n        /* \"#utility.yul\":11897:11900   */\n      dup3\n        /* \"#utility.yul\":11890:11926   */\n      mstore\n        /* \"#utility.yul\":11817:11932   */\n      pop\n      pop\n      jump\t// out\n        /* \"#utility.yul\":11938:12156   */\n    tag_45:\n        /* \"#utility.yul\":12029:12033   */\n      0x00\n        /* \"#utility.yul\":12067:12069   */\n      0x20\n        /* \"#utility.yul\":12056:12065   */\n      dup3\n        /* \"#utility.yul\":12052:12070   */\n      add\n        /* \"#utility.yul\":12044:12070   */\n      swap1\n      pop\n        /* \"#utility.yul\":12080:12149   */\n      tag_399\n        /* \"#utility.yul\":12146:12147   */\n      0x00\n        /* \"#utility.yul\":12135:12144   */\n      dup4\n        /* \"#utility.yul\":12131:12148   */\n      add\n        /* \"#utility.yul\":12122:12128   */\n      dup5\n        /* \"#utility.yul\":12080:12149   */\n      tag_241\n      jump\t// in\n    tag_399:\n        /* \"#utility.yul\":11938:12156   */\n      swap3\n      swap2\n      pop\n      pop\n      jump\t// out\n        /* \"#utility.yul\":12162:12384   */\n    tag_51:\n        /* \"#utility.yul\":12255:12259   */\n      0x00\n        /* \"#utility.yul\":12293:12295   */\n      0x20\n        /* \"#utility.yul\":12282:12291   */\n      dup3\n        /* \"#utility.yul\":12278:12296   */\n      add\n        /* \"#utility.yul\":12270:12296   */\n      swap1\n      pop\n        /* \"#utility.yul\":12306:12377   */\n      tag_401\n        /* \"#utility.yul\":12374:12375   */\n      0x00\n        /* \"#utility.yul\":12363:12372   */\n      dup4\n        /* \"#utility.yul\":12359:12376   */\n      add\n        /* \"#utility.yul\":12350:12356   */\n      dup5\n        /* \"#utility.yul\":12306:12377   */\n      tag_211\n      jump\t// in\n    tag_401:\n        /* \"#utility.yul\":12162:12384   */\n      swap3\n      swap2\n      pop\n      pop\n      jump\t// out\n        /* \"#utility.yul\":12390:12719   */\n    tag_54:\n        /* \"#utility.yul\":12449:12455   */\n      0x00\n        /* \"#utility.yul\":12498:12500   */\n      0x20\n        /* \"#utility.yul\":12486:12495   */\n      dup3\n        /* \"#utility.yul\":12477:12484   */\n      dup5\n        /* \"#utility.yul\":12473:12496   */\n      sub\n        /* \"#utility.yul\":12469:12501   */\n      slt\n        /* \"#utility.yul\":12466:12585   */\n      iszero\n      tag_403\n      jumpi\n        /* \"#utility.yul\":12504:12583   */\n      tag_404\n      tag_201\n      jump\t// in\n    tag_404:\n        /* \"#utility.yul\":12466:12585   */\n    tag_403:\n        /* \"#utility.yul\":12624:12625   */\n      0x00\n        /* \"#utility.yul\":12649:12702   */\n      tag_405\n        /* \"#utility.yul\":12694:12701   */\n      dup5\n        /* \"#utility.yul\":12685:12691   */\n      dup3\n        /* \"#utility.yul\":12674:12683   */\n      dup6\n        /* \"#utility.yul\":12670:12692   */\n      add\n        /* \"#utility.yul\":12649:12702   */\n      tag_209\n      jump\t// in\n    tag_405:\n        /* \"#utility.yul\":12639:12702   */\n      swap2\n      pop\n        /* \"#utility.yul\":12595:12712   */\n      pop\n        /* \"#utility.yul\":12390:12719   */\n      swap3\n      swap2\n      pop\n      pop\n      jump\t// out\n        /* \"#utility.yul\":12777:13908   */\n    tag_242:\n        /* \"#utility.yul\":12890:12893   */\n      0x00\n        /* \"#utility.yul\":12926:12930   */\n      0xa0\n        /* \"#utility.yul\":12921:12924   */\n      dup4\n        /* \"#utility.yul\":12917:12931   */\n      add\n        /* \"#utility.yul\":13011:13015   */\n      0x00\n        /* \"#utility.yul\":13004:13009   */\n      dup4\n        /* \"#utility.yul\":13000:13016   */\n      add\n        /* \"#utility.yul\":12994:13017   */\n      mload\n        /* \"#utility.yul\":13030:13093   */\n      tag_407\n        /* \"#utility.yul\":13087:13091   */\n      0x00\n        /* \"#utility.yul\":13082:13085   */\n      dup7\n        /* \"#utility.yul\":13078:13092   */\n      add\n        /* \"#utility.yul\":13064:13076   */\n      dup3\n        /* \"#utility.yul\":13030:13093   */\n      tag_229\n      jump\t// in\n    tag_407:\n        /* \"#utility.yul\":12941:13103   */\n      pop\n        /* \"#utility.yul\":13187:13191   */\n      0x20\n        /* \"#utility.yul\":13180:13185   */\n      dup4\n        /* \"#utility.yul\":13176:13192   */\n      add\n        /* \"#utility.yul\":13170:13193   */\n      mload\n        /* \"#utility.yul\":13206:13269   */\n      tag_408\n        /* \"#utility.yul\":13263:13267   */\n      0x20\n        /* \"#utility.yul\":13258:13261   */\n      dup7\n        /* \"#utility.yul\":13254:13268   */\n      add\n        /* \"#utility.yul\":13240:13252   */\n      dup3\n        /* \"#utility.yul\":13206:13269   */\n      tag_230\n      jump\t// in\n    tag_408:\n        /* \"#utility.yul\":13113:13279   */\n      pop\n        /* \"#utility.yul\":13364:13368   */\n      0x40\n        /* \"#utility.yul\":13357:13362   */\n      dup4\n        /* \"#utility.yul\":13353:13369   */\n      add\n        /* \"#utility.yul\":13347:13370   */\n      mload\n        /* \"#utility.yul\":13417:13420   */\n      dup5\n        /* \"#utility.yul\":13411:13415   */\n      dup3\n        /* \"#utility.yul\":13407:13421   */\n      sub\n        /* \"#utility.yul\":13400:13404   */\n      0x40\n        /* \"#utility.yul\":13395:13398   */\n      dup7\n        /* \"#utility.yul\":13391:13405   */\n      add\n        /* \"#utility.yul\":13384:13422   */\n      mstore\n        /* \"#utility.yul\":13443:13516   */\n      tag_409\n        /* \"#utility.yul\":13511:13515   */\n      dup3\n        /* \"#utility.yul\":13497:13509   */\n      dup3\n        /* \"#utility.yul\":13443:13516   */\n      tag_232\n      jump\t// in\n    tag_409:\n        /* \"#utility.yul\":13435:13516   */\n      swap2\n      pop\n        /* \"#utility.yul\":13289:13527   */\n      pop\n        /* \"#utility.yul\":13614:13618   */\n      0x60\n        /* \"#utility.yul\":13607:13612   */\n      dup4\n        /* \"#utility.yul\":13603:13619   */\n      add\n        /* \"#utility.yul\":13597:13620   */\n      mload\n        /* \"#utility.yul\":13633:13696   */\n      tag_410\n        /* \"#utility.yul\":13690:13694   */\n      0x60\n        /* \"#utility.yul\":13685:13688   */\n      dup7\n        /* \"#utility.yul\":13681:13695   */\n      add\n        /* \"#utility.yul\":13667:13679   */\n      dup3\n        /* \"#utility.yul\":13633:13696   */\n      tag_229\n      jump\t// in\n    tag_410:\n        /* \"#utility.yul\":13537:13706   */\n      pop\n        /* \"#utility.yul\":13789:13793   */\n      0x80\n        /* \"#utility.yul\":13782:13787   */\n      dup4\n        /* \"#utility.yul\":13778:13794   */\n      add\n        /* \"#utility.yul\":13772:13795   */\n      mload\n        /* \"#utility.yul\":13808:13871   */\n      tag_411\n        /* \"#utility.yul\":13865:13869   */\n      0x80\n        /* \"#utility.yul\":13860:13863   */\n      dup7\n        /* \"#utility.yul\":13856:13870   */\n      add\n        /* \"#utility.yul\":13842:13854   */\n      dup3\n        /* \"#utility.yul\":13808:13871   */\n      tag_229\n      jump\t// in\n    tag_411:\n        /* \"#utility.yul\":13716:13881   */\n      pop\n        /* \"#utility.yul\":13898:13902   */\n      dup1\n        /* \"#utility.yul\":13891:13902   */\n      swap2\n      pop\n        /* \"#utility.yul\":12895:13908   */\n      pop\n        /* \"#utility.yul\":12777:13908   */\n      swap3\n      swap2\n      pop\n      pop\n      jump\t// out\n        /* \"#utility.yul\":13914:14275   */\n    tag_57:\n        /* \"#utility.yul\":14051:14055   */\n      0x00\n        /* \"#utility.yul\":14089:14091   */\n      0x20\n        /* \"#utility.yul\":14078:14087   */\n      dup3\n        /* \"#utility.yul\":14074:14092   */\n      add\n        /* \"#utility.yul\":14066:14092   */\n      swap1\n      pop\n        /* \"#utility.yul\":14138:14147   */\n      dup2\n        /* \"#utility.yul\":14132:14136   */\n      dup2\n        /* \"#utility.yul\":14128:14148   */\n      sub\n        /* \"#utility.yul\":14124:14125   */\n      0x00\n        /* \"#utility.yul\":14113:14122   */\n      dup4\n        /* \"#utility.yul\":14109:14126   */\n      add\n        /* \"#utility.yul\":14102:14149   */\n      mstore\n        /* \"#utility.yul\":14166:14268   */\n      tag_413\n        /* \"#utility.yul\":14263:14267   */\n      dup2\n        /* \"#utility.yul\":14254:14260   */\n      dup5\n        /* \"#utility.yul\":14166:14268   */\n      tag_242\n      jump\t// in\n    tag_413:\n        /* \"#utility.yul\":14158:14268   */\n      swap1\n      pop\n        /* \"#utility.yul\":13914:14275   */\n      swap3\n      swap2\n      pop\n      pop\n      jump\t// out\n        /* \"#utility.yul\":14281:14503   */\n    tag_62:\n        /* \"#utility.yul\":14374:14378   */\n      0x00\n        /* \"#utility.yul\":14412:14414   */\n      0x20\n        /* \"#utility.yul\":14401:14410   */\n      dup3\n        /* \"#utility.yul\":14397:14415   */\n      add\n        /* \"#utility.yul\":14389:14415   */\n      swap1\n      pop\n        /* \"#utility.yul\":14425:14496   */\n      tag_415\n        /* \"#utility.yul\":14493:14494   */\n      0x00\n        /* \"#utility.yul\":14482:14491   */\n      dup4\n        /* \"#utility.yul\":14478:14495   */\n      add\n        /* \"#utility.yul\":14469:14475   */\n      dup5\n        /* \"#utility.yul\":14425:14496   */\n      tag_210\n      jump\t// in\n    tag_415:\n        /* \"#utility.yul\":14281:14503   */\n      swap3\n      swap2\n      pop\n      pop\n      jump\t// out\n        /* \"#utility.yul\":14509:14689   */\n    tag_243:\n        /* \"#utility.yul\":14557:14634   */\n      0x4e487b7100000000000000000000000000000000000000000000000000000000\n        /* \"#utility.yul\":14554:14555   */\n      0x00\n        /* \"#utility.yul\":14547:14635   */\n      mstore\n        /* \"#utility.yul\":14654:14658   */\n      0x22\n        /* \"#utility.yul\":14651:14652   */\n      0x04\n        /* \"#utility.yul\":14644:14659   */\n      mstore\n        /* \"#utility.yul\":14678:14682   */\n      0x24\n        /* \"#utility.yul\":14675:14676   */\n      0x00\n        /* \"#utility.yul\":14668:14683   */\n      revert\n        /* \"#utility.yul\":14695:15015   */\n    tag_69:\n        /* \"#utility.yul\":14739:14745   */\n      0x00\n        /* \"#utility.yul\":14776:14777   */\n      0x02\n        /* \"#utility.yul\":14770:14774   */\n      dup3\n        /* \"#utility.yul\":14766:14778   */\n      div\n        /* \"#utility.yul\":14756:14778   */\n      swap1\n      pop\n        /* \"#utility.yul\":14823:14824   */\n      0x01\n        /* \"#utility.yul\":14817:14821   */\n      dup3\n        /* \"#utility.yul\":14813:14825   */\n      and\n        /* \"#utility.yul\":14844:14862   */\n      dup1\n        /* \"#utility.yul\":14834:14915   */\n      tag_418\n      jumpi\n        /* \"#utility.yul\":14900:14904   */\n      0x7f\n        /* \"#utility.yul\":14892:14898   */\n      dup3\n        /* \"#utility.yul\":14888:14905   */\n      and\n        /* \"#utility.yul\":14878:14905   */\n      swap2\n      pop\n        /* \"#utility.yul\":14834:14915   */\n    tag_418:\n        /* \"#utility.yul\":14962:14964   */\n      0x20\n        /* \"#utility.yul\":14954:14960   */\n      dup3\n        /* \"#utility.yul\":14951:14965   */\n      lt\n        /* \"#utility.yul\":14931:14949   */\n      dup2\n        /* \"#utility.yul\":14928:14966   */\n      sub\n        /* \"#utility.yul\":14925:15009   */\n      tag_419\n      jumpi\n        /* \"#utility.yul\":14981:14999   */\n      tag_420\n      tag_243\n      jump\t// in\n    tag_420:\n        /* \"#utility.yul\":14925:15009   */\n    tag_419:\n        /* \"#utility.yul\":14746:15015   */\n      pop\n        /* \"#utility.yul\":14695:15015   */\n      swap2\n      swap1\n      pop\n      jump\t// out\n        /* \"#utility.yul\":15021:15138   */\n    tag_244:\n        /* \"#utility.yul\":15130:15131   */\n      0x00\n        /* \"#utility.yul\":15127:15128   */\n      dup1\n        /* \"#utility.yul\":15120:15132   */\n      revert\n        /* \"#utility.yul\":15144:15261   */\n    tag_245:\n        /* \"#utility.yul\":15253:15254   */\n      0x00\n        /* \"#utility.yul\":15250:15251   */\n      dup1\n        /* \"#utility.yul\":15243:15255   */\n      revert\n        /* \"#utility.yul\":15267:15701   */\n    tag_246:\n        /* \"#utility.yul\":15356:15361   */\n      0x00\n        /* \"#utility.yul\":15381:15447   */\n      tag_424\n        /* \"#utility.yul\":15397:15446   */\n      tag_425\n        /* \"#utility.yul\":15439:15445   */\n      dup5\n        /* \"#utility.yul\":15397:15446   */\n      tag_222\n      jump\t// in\n    tag_425:\n        /* \"#utility.yul\":15381:15447   */\n      tag_221\n      jump\t// in\n    tag_424:\n        /* \"#utility.yul\":15372:15447   */\n      swap1\n      pop\n        /* \"#utility.yul\":15470:15476   */\n      dup3\n        /* \"#utility.yul\":15463:15468   */\n      dup2\n        /* \"#utility.yul\":15456:15477   */\n      mstore\n        /* \"#utility.yul\":15508:15512   */\n      0x20\n        /* \"#utility.yul\":15501:15506   */\n      dup2\n        /* \"#utility.yul\":15497:15513   */\n      add\n        /* \"#utility.yul\":15546:15549   */\n      dup5\n        /* \"#utility.yul\":15537:15543   */\n      dup5\n        /* \"#utility.yul\":15532:15535   */\n      dup5\n        /* \"#utility.yul\":15528:15544   */\n      add\n        /* \"#utility.yul\":15525:15550   */\n      gt\n        /* \"#utility.yul\":15522:15634   */\n      iszero\n      tag_426\n      jumpi\n        /* \"#utility.yul\":15553:15632   */\n      tag_427\n      tag_218\n      jump\t// in\n    tag_427:\n        /* \"#utility.yul\":15522:15634   */\n    tag_426:\n        /* \"#utility.yul\":15643:15695   */\n      tag_428\n        /* \"#utility.yul\":15688:15694   */\n      dup5\n        /* \"#utility.yul\":15683:15686   */\n      dup3\n        /* \"#utility.yul\":15678:15681   */\n      dup6\n        /* \"#utility.yul\":15643:15695   */\n      tag_214\n      jump\t// in\n    tag_428:\n        /* \"#utility.yul\":15362:15701   */\n      pop\n        /* \"#utility.yul\":15267:15701   */\n      swap4\n      swap3\n      pop\n      pop\n      pop\n      jump\t// out\n        /* \"#utility.yul\":15721:16076   */\n    tag_247:\n        /* \"#utility.yul\":15788:15793   */\n      0x00\n        /* \"#utility.yul\":15837:15840   */\n      dup3\n        /* \"#utility.yul\":15830:15834   */\n      0x1f\n        /* \"#utility.yul\":15822:15828   */\n      dup4\n        /* \"#utility.yul\":15818:15835   */\n      add\n        /* \"#utility.yul\":15814:15841   */\n      slt\n        /* \"#utility.yul\":15804:15926   */\n      tag_430\n      jumpi\n        /* \"#utility.yul\":15845:15924   */\n      tag_431\n      tag_217\n      jump\t// in\n    tag_431:\n        /* \"#utility.yul\":15804:15926   */\n    tag_430:\n        /* \"#utility.yul\":15955:15961   */\n      dup2\n        /* \"#utility.yul\":15949:15962   */\n      mload\n        /* \"#utility.yul\":15980:16070   */\n      tag_432\n        /* \"#utility.yul\":16066:16069   */\n      dup5\n        /* \"#utility.yul\":16058:16064   */\n      dup3\n        /* \"#utility.yul\":16051:16055   */\n      0x20\n        /* \"#utility.yul\":16043:16049   */\n      dup7\n        /* \"#utility.yul\":16039:16056   */\n      add\n        /* \"#utility.yul\":15980:16070   */\n      tag_246\n      jump\t// in\n    tag_432:\n        /* \"#utility.yul\":15971:16070   */\n      swap2\n      pop\n        /* \"#utility.yul\":15794:16076   */\n      pop\n        /* \"#utility.yul\":15721:16076   */\n      swap3\n      swap2\n      pop\n      pop\n      jump\t// out\n        /* \"#utility.yul\":16117:17059   */\n    tag_248:\n        /* \"#utility.yul\":16205:16210   */\n      0x00\n        /* \"#utility.yul\":16249:16253   */\n      0x40\n        /* \"#utility.yul\":16237:16246   */\n      dup3\n        /* \"#utility.yul\":16232:16235   */\n      dup5\n        /* \"#utility.yul\":16228:16247   */\n      sub\n        /* \"#utility.yul\":16224:16254   */\n      slt\n        /* \"#utility.yul\":16221:16338   */\n      iszero\n      tag_434\n      jumpi\n        /* \"#utility.yul\":16257:16336   */\n      tag_435\n      tag_244\n      jump\t// in\n    tag_435:\n        /* \"#utility.yul\":16221:16338   */\n    tag_434:\n        /* \"#utility.yul\":16356:16377   */\n      tag_436\n        /* \"#utility.yul\":16372:16376   */\n      0x40\n        /* \"#utility.yul\":16356:16377   */\n      tag_221\n      jump\t// in\n    tag_436:\n        /* \"#utility.yul\":16347:16377   */\n      swap1\n      pop\n        /* \"#utility.yul\":16464:16465   */\n      0x00\n        /* \"#utility.yul\":16453:16462   */\n      dup3\n        /* \"#utility.yul\":16449:16466   */\n      add\n        /* \"#utility.yul\":16443:16467   */\n      mload\n        /* \"#utility.yul\":16494:16512   */\n      0xffffffffffffffff\n        /* \"#utility.yul\":16486:16492   */\n      dup2\n        /* \"#utility.yul\":16483:16513   */\n      gt\n        /* \"#utility.yul\":16480:16597   */\n      iszero\n      tag_437\n      jumpi\n        /* \"#utility.yul\":16516:16595   */\n      tag_438\n      tag_245\n      jump\t// in\n    tag_438:\n        /* \"#utility.yul\":16480:16597   */\n    tag_437:\n        /* \"#utility.yul\":16636:16706   */\n      tag_439\n        /* \"#utility.yul\":16702:16705   */\n      dup5\n        /* \"#utility.yul\":16693:16699   */\n      dup3\n        /* \"#utility.yul\":16682:16691   */\n      dup6\n        /* \"#utility.yul\":16678:16700   */\n      add\n        /* \"#utility.yul\":16636:16706   */\n      tag_247\n      jump\t// in\n    tag_439:\n        /* \"#utility.yul\":16629:16633   */\n      0x00\n        /* \"#utility.yul\":16622:16627   */\n      dup4\n        /* \"#utility.yul\":16618:16634   */\n      add\n        /* \"#utility.yul\":16611:16707   */\n      mstore\n        /* \"#utility.yul\":16387:16718   */\n      pop\n        /* \"#utility.yul\":16797:16799   */\n      0x20\n        /* \"#utility.yul\":16786:16795   */\n      dup3\n        /* \"#utility.yul\":16782:16800   */\n      add\n        /* \"#utility.yul\":16776:16801   */\n      mload\n        /* \"#utility.yul\":16828:16846   */\n      0xffffffffffffffff\n        /* \"#utility.yul\":16820:16826   */\n      dup2\n        /* \"#utility.yul\":16817:16847   */\n      gt\n        /* \"#utility.yul\":16814:16931   */\n      iszero\n      tag_440\n      jumpi\n        /* \"#utility.yul\":16850:16929   */\n      tag_441\n      tag_245\n      jump\t// in\n    tag_441:\n        /* \"#utility.yul\":16814:16931   */\n    tag_440:\n        /* \"#utility.yul\":16970:17040   */\n      tag_442\n        /* \"#utility.yul\":17036:17039   */\n      dup5\n        /* \"#utility.yul\":17027:17033   */\n      dup3\n        /* \"#utility.yul\":17016:17025   */\n      dup6\n        /* \"#utility.yul\":17012:17034   */\n      add\n        /* \"#utility.yul\":16970:17040   */\n      tag_247\n      jump\t// in\n    tag_442:\n        /* \"#utility.yul\":16963:16967   */\n      0x20\n        /* \"#utility.yul\":16956:16961   */\n      dup4\n        /* \"#utility.yul\":16952:16968   */\n      add\n        /* \"#utility.yul\":16945:17041   */\n      mstore\n        /* \"#utility.yul\":16728:17052   */\n      pop\n        /* \"#utility.yul\":16117:17059   */\n      swap3\n      swap2\n      pop\n      pop\n      jump\t// out\n        /* \"#utility.yul\":17065:17625   */\n    tag_79:\n        /* \"#utility.yul\":17163:17169   */\n      0x00\n        /* \"#utility.yul\":17212:17214   */\n      0x20\n        /* \"#utility.yul\":17200:17209   */\n      dup3\n        /* \"#utility.yul\":17191:17198   */\n      dup5\n        /* \"#utility.yul\":17187:17210   */\n      sub\n        /* \"#utility.yul\":17183:17215   */\n      slt\n        /* \"#utility.yul\":17180:17299   */\n      iszero\n      tag_444\n      jumpi\n        /* \"#utility.yul\":17218:17297   */\n      tag_445\n      tag_201\n      jump\t// in\n    tag_445:\n        /* \"#utility.yul\":17180:17299   */\n    tag_444:\n        /* \"#utility.yul\":17359:17360   */\n      0x00\n        /* \"#utility.yul\":17348:17357   */\n      dup3\n        /* \"#utility.yul\":17344:17361   */\n      add\n        /* \"#utility.yul\":17338:17362   */\n      mload\n        /* \"#utility.yul\":17389:17407   */\n      0xffffffffffffffff\n        /* \"#utility.yul\":17381:17387   */\n      dup2\n        /* \"#utility.yul\":17378:17408   */\n      gt\n        /* \"#utility.yul\":17375:17492   */\n      iszero\n      tag_446\n      jumpi\n        /* \"#utility.yul\":17411:17490   */\n      tag_447\n      tag_202\n      jump\t// in\n    tag_447:\n        /* \"#utility.yul\":17375:17492   */\n    tag_446:\n        /* \"#utility.yul\":17516:17608   */\n      tag_448\n        /* \"#utility.yul\":17600:17607   */\n      dup5\n        /* \"#utility.yul\":17591:17597   */\n      dup3\n        /* \"#utility.yul\":17580:17589   */\n      dup6\n        /* \"#utility.yul\":17576:17598   */\n      add\n        /* \"#utility.yul\":17516:17608   */\n      tag_248\n      jump\t// in\n    tag_448:\n        /* \"#utility.yul\":17506:17608   */\n      swap2\n      pop\n        /* \"#utility.yul\":17309:17618   */\n      pop\n        /* \"#utility.yul\":17065:17625   */\n      swap3\n      swap2\n      pop\n      pop\n      jump\t// out\n        /* \"#utility.yul\":17631:17800   */\n    tag_249:\n        /* \"#utility.yul\":17771:17792   */\n      0x55534552204e4f54205245474953544552454400000000000000000000000000\n        /* \"#utility.yul\":17767:17768   */\n      0x00\n        /* \"#utility.yul\":17759:17765   */\n      dup3\n        /* \"#utility.yul\":17755:17769   */\n      add\n        /* \"#utility.yul\":17748:17793   */\n      mstore\n        /* \"#utility.yul\":17631:17800   */\n      pop\n      jump\t// out\n        /* \"#utility.yul\":17806:18172   */\n    tag_250:\n        /* \"#utility.yul\":17948:17951   */\n      0x00\n        /* \"#utility.yul\":17969:18036   */\n      tag_451\n        /* \"#utility.yul\":18033:18035   */\n      0x13\n        /* \"#utility.yul\":18028:18031   */\n      dup4\n        /* \"#utility.yul\":17969:18036   */\n      tag_213\n      jump\t// in\n    tag_451:\n        /* \"#utility.yul\":17962:18036   */\n      swap2\n      pop\n        /* \"#utility.yul\":18045:18138   */\n      tag_452\n        /* \"#utility.yul\":18134:18137   */\n      dup3\n        /* \"#utility.yul\":18045:18138   */\n      tag_249\n      jump\t// in\n    tag_452:\n        /* \"#utility.yul\":18163:18165   */\n      0x20\n        /* \"#utility.yul\":18158:18161   */\n      dup3\n        /* \"#utility.yul\":18154:18166   */\n      add\n        /* \"#utility.yul\":18147:18166   */\n      swap1\n      pop\n        /* \"#utility.yul\":17806:18172   */\n      swap2\n      swap1\n      pop\n      jump\t// out\n        /* \"#utility.yul\":18178:18597   */\n    tag_82:\n        /* \"#utility.yul\":18344:18348   */\n      0x00\n        /* \"#utility.yul\":18382:18384   */\n      0x20\n        /* \"#utility.yul\":18371:18380   */\n      dup3\n        /* \"#utility.yul\":18367:18385   */\n      add\n        /* \"#utility.yul\":18359:18385   */\n      swap1\n      pop\n        /* \"#utility.yul\":18431:18440   */\n      dup2\n        /* \"#utility.yul\":18425:18429   */\n      dup2\n        /* \"#utility.yul\":18421:18441   */\n      sub\n        /* \"#utility.yul\":18417:18418   */\n      0x00\n        /* \"#utility.yul\":18406:18415   */\n      dup4\n        /* \"#utility.yul\":18402:18419   */\n      add\n        /* \"#utility.yul\":18395:18442   */\n      mstore\n        /* \"#utility.yul\":18459:18590   */\n      tag_454\n        /* \"#utility.yul\":18585:18589   */\n      dup2\n        /* \"#utility.yul\":18459:18590   */\n      tag_250\n      jump\t// in\n    tag_454:\n        /* \"#utility.yul\":18451:18590   */\n      swap1\n      pop\n        /* \"#utility.yul\":18178:18597   */\n      swap2\n      swap1\n      pop\n      jump\t// out\n        /* \"#utility.yul\":18603:18770   */\n    tag_251:\n        /* \"#utility.yul\":18743:18762   */\n      0x547765657420697320746f6f206c6f6e67000000000000000000000000000000\n        /* \"#utility.yul\":18739:18740   */\n      0x00\n        /* \"#utility.yul\":18731:18737   */\n      dup3\n        /* \"#utility.yul\":18727:18741   */\n      add\n        /* \"#utility.yul\":18720:18763   */\n      mstore\n        /* \"#utility.yul\":18603:18770   */\n      pop\n      jump\t// out\n        /* \"#utility.yul\":18776:19142   */\n    tag_252:\n        /* \"#utility.yul\":18918:18921   */\n      0x00\n        /* \"#utility.yul\":18939:19006   */\n      tag_457\n        /* \"#utility.yul\":19003:19005   */\n      0x11\n        /* \"#utility.yul\":18998:19001   */\n      dup4\n        /* \"#utility.yul\":18939:19006   */\n      tag_213\n      jump\t// in\n    tag_457:\n        /* \"#utility.yul\":18932:19006   */\n      swap2\n      pop\n        /* \"#utility.yul\":19015:19108   */\n      tag_458\n        /* \"#utility.yul\":19104:19107   */\n      dup3\n        /* \"#utility.yul\":19015:19108   */\n      tag_251\n      jump\t// in\n    tag_458:\n        /* \"#utility.yul\":19133:19135   */\n      0x20\n        /* \"#utility.yul\":19128:19131   */\n      dup3\n        /* \"#utility.yul\":19124:19136   */\n      add\n        /* \"#utility.yul\":19117:19136   */\n      swap1\n      pop\n        /* \"#utility.yul\":18776:19142   */\n      swap2\n      swap1\n      pop\n      jump\t// out\n        /* \"#utility.yul\":19148:19567   */\n    tag_86:\n        /* \"#utility.yul\":19314:19318   */\n      0x00\n        /* \"#utility.yul\":19352:19354   */\n      0x20\n        /* \"#utility.yul\":19341:19350   */\n      dup3\n        /* \"#utility.yul\":19337:19355   */\n      add\n        /* \"#utility.yul\":19329:19355   */\n      swap1\n      pop\n        /* \"#utility.yul\":19401:19410   */\n      dup2\n        /* \"#utility.yul\":19395:19399   */\n      dup2\n        /* \"#utility.yul\":19391:19411   */\n      sub\n        /* \"#utility.yul\":19387:19388   */\n      0x00\n        /* \"#utility.yul\":19376:19385   */\n      dup4\n        /* \"#utility.yul\":19372:19389   */\n      add\n        /* \"#utility.yul\":19365:19412   */\n      mstore\n        /* \"#utility.yul\":19429:19560   */\n      tag_460\n        /* \"#utility.yul\":19555:19559   */\n      dup2\n        /* \"#utility.yul\":19429:19560   */\n      tag_252\n      jump\t// in\n    tag_460:\n        /* \"#utility.yul\":19421:19560   */\n      swap1\n      pop\n        /* \"#utility.yul\":19148:19567   */\n      swap2\n      swap1\n      pop\n      jump\t// out\n        /* \"#utility.yul\":19573:19714   */\n    tag_253:\n        /* \"#utility.yul\":19622:19626   */\n      0x00\n        /* \"#utility.yul\":19645:19648   */\n      dup2\n        /* \"#utility.yul\":19637:19648   */\n      swap1\n      pop\n        /* \"#utility.yul\":19668:19671   */\n      dup2\n        /* \"#utility.yul\":19665:19666   */\n      0x00\n        /* \"#utility.yul\":19658:19672   */\n      mstore\n        /* \"#utility.yul\":19702:19706   */\n      0x20\n        /* \"#utility.yul\":19699:19700   */\n      0x00\n        /* \"#utility.yul\":19689:19707   */\n      keccak256\n        /* \"#utility.yul\":19681:19707   */\n      swap1\n      pop\n        /* \"#utility.yul\":19573:19714   */\n      swap2\n      swap1\n      pop\n      jump\t// out\n        /* \"#utility.yul\":19720:19813   */\n    tag_254:\n        /* \"#utility.yul\":19757:19763   */\n      0x00\n        /* \"#utility.yul\":19804:19806   */\n      0x20\n        /* \"#utility.yul\":19799:19801   */\n      0x1f\n        /* \"#utility.yul\":19792:19797   */\n      dup4\n        /* \"#utility.yul\":19788:19802   */\n      add\n        /* \"#utility.yul\":19784:19807   */\n      div\n        /* \"#utility.yul\":19774:19807   */\n      swap1\n      pop\n        /* \"#utility.yul\":19720:19813   */\n      swap2\n      swap1\n      pop\n      jump\t// out\n        /* \"#utility.yul\":19819:19926   */\n    tag_255:\n        /* \"#utility.yul\":19863:19871   */\n      0x00\n        /* \"#utility.yul\":19913:19918   */\n      dup3\n        /* \"#utility.yul\":19907:19911   */\n      dup3\n        /* \"#utility.yul\":19903:19919   */\n      shl\n        /* \"#utility.yul\":19882:19919   */\n      swap1\n      pop\n        /* \"#utility.yul\":19819:19926   */\n      swap3\n      swap2\n      pop\n      pop\n      jump\t// out\n        /* \"#utility.yul\":19932:20325   */\n    tag_256:\n        /* \"#utility.yul\":20001:20007   */\n      0x00\n        /* \"#utility.yul\":20051:20052   */\n      0x08\n        /* \"#utility.yul\":20039:20049   */\n      dup4\n        /* \"#utility.yul\":20035:20053   */\n      mul\n        /* \"#utility.yul\":20074:20171   */\n      tag_465\n        /* \"#utility.yul\":20104:20170   */\n      0xffffffffffffffffffffffffffffffffffffffffffffffffffffffffffffffff\n        /* \"#utility.yul\":20093:20102   */\n      dup3\n        /* \"#utility.yul\":20074:20171   */\n      tag_255\n      jump\t// in\n    tag_465:\n        /* \"#utility.yul\":20192:20231   */\n      tag_466\n        /* \"#utility.yul\":20222:20230   */\n      dup7\n        /* \"#utility.yul\":20211:20220   */\n      dup4\n        /* \"#utility.yul\":20192:20231   */\n      tag_255\n      jump\t// in\n    tag_466:\n        /* \"#utility.yul\":20180:20231   */\n      swap6\n      pop\n        /* \"#utility.yul\":20264:20268   */\n      dup1\n        /* \"#utility.yul\":20260:20269   */\n      not\n        /* \"#utility.yul\":20253:20258   */\n      dup5\n        /* \"#utility.yul\":20249:20270   */\n      and\n        /* \"#utility.yul\":20240:20270   */\n      swap4\n      pop\n        /* \"#utility.yul\":20313:20317   */\n      dup1\n        /* \"#utility.yul\":20303:20311   */\n      dup7\n        /* \"#utility.yul\":20299:20318   */\n      and\n        /* \"#utility.yul\":20292:20297   */\n      dup5\n        /* \"#utility.yul\":20289:20319   */\n      or\n        /* \"#utility.yul\":20279:20319   */\n      swap3\n      pop\n        /* \"#utility.yul\":20008:20325   */\n      pop\n      pop\n        /* \"#utility.yul\":19932:20325   */\n      swap4\n      swap3\n      pop\n      pop\n      pop\n      jump\t// out\n        /* \"#utility.yul\":20331:20391   */\n    tag_257:\n        /* \"#utility.yul\":20359:20362   */\n      0x00\n        /* \"#utility.yul\":20380:20385   */\n      dup2\n        /* \"#utility.yul\":20373:20385   */\n      swap1\n      pop\n        /* \"#utility.yul\":20331:20391   */\n      swap2\n      swap1\n      pop\n      jump\t// out\n        /* \"#utility.yul\":20397:20539   */\n    tag_258:\n        /* \"#utility.yul\":20447:20456   */\n      0x00\n        /* \"#utility.yul\":20480:20533   */\n      tag_469\n        /* \"#utility.yul\":20498:20532   */\n      tag_470\n        /* \"#utility.yul\":20507:20531   */\n      tag_471\n        /* \"#utility.yul\":20525:20530   */\n      dup5\n        /* \"#utility.yul\":20507:20531   */\n      tag_207\n      jump\t// in\n    tag_471:\n        /* \"#utility.yul\":20498:20532   */\n      tag_257\n      jump\t// in\n    tag_470:\n        /* \"#utility.yul\":20480:20533   */\n      tag_207\n      jump\t// in\n    tag_469:\n        /* \"#utility.yul\":20467:20533   */\n      swap1\n      pop\n        /* \"#utility.yul\":20397:20539   */\n      swap2\n      swap1\n      pop\n      jump\t// out\n        /* \"#utility.yul\":20545:20620   */\n    tag_259:\n        /* \"#utility.yul\":20588:20591   */\n      0x00\n        /* \"#utility.yul\":20609:20614   */\n      dup2\n        /* \"#utility.yul\":20602:20614   */\n      swap1\n      pop\n        /* \"#utility.yul\":20545:20620   */\n      swap2\n      swap1\n      pop\n      jump\t// out\n        /* \"#utility.yul\":20626:20895   */\n    tag_260:\n        /* \"#utility.yul\":20736:20775   */\n      tag_474\n        /* \"#utility.yul\":20767:20774   */\n      dup4\n        /* \"#utility.yul\":20736:20775   */\n      tag_258\n      jump\t// in\n    tag_474:\n        /* \"#utility.yul\":20797:20888   */\n      tag_475\n        /* \"#utility.yul\":20846:20887   */\n      tag_476\n        /* \"#utility.yul\":20870:20886   */\n      dup3\n        /* \"#utility.yul\":20846:20887   */\n      tag_259\n      jump\t// in\n    tag_476:\n        /* \"#utility.yul\":20838:20844   */\n      dup5\n        /* \"#utility.yul\":20831:20835   */\n      dup5\n        /* \"#utility.yul\":20825:20836   */\n      sload\n        /* \"#utility.yul\":20797:20888   */\n      tag_256\n      jump\t// in\n    tag_475:\n        /* \"#utility.yul\":20791:20795   */\n      dup3\n        /* \"#utility.yul\":20784:20889   */\n      sstore\n        /* \"#utility.yul\":20702:20895   */\n      pop\n        /* \"#utility.yul\":20626:20895   */\n      pop\n      pop\n      pop\n      jump\t// out\n        /* \"#utility.yul\":20901:20974   */\n    tag_261:\n        /* \"#utility.yul\":20946:20949   */\n      0x00\n        /* \"#utility.yul\":20901:20974   */\n      swap1\n      jump\t// out\n        /* \"#utility.yul\":20980:21169   */\n    tag_262:\n        /* \"#utility.yul\":21057:21089   */\n      tag_479\n      tag_261\n      jump\t// in\n    tag_479:\n        /* \"#utility.yul\":21098:21163   */\n      tag_480\n        /* \"#utility.yul\":21156:21162   */\n      dup2\n        /* \"#utility.yul\":21148:21154   */\n      dup5\n        /* \"#utility.yul\":21142:21146   */\n      dup5\n        /* \"#utility.yul\":21098:21163   */\n      tag_260\n      jump\t// in\n    tag_480:\n        /* \"#utility.yul\":21033:21169   */\n      pop\n        /* \"#utility.yul\":20980:21169   */\n      pop\n      pop\n      jump\t// out\n        /* \"#utility.yul\":21175:21361   */\n    tag_263:\n        /* \"#utility.yul\":21235:21355   */\n    tag_482:\n        /* \"#utility.yul\":21252:21255   */\n      dup2\n        /* \"#utility.yul\":21245:21250   */\n      dup2\n        /* \"#utility.yul\":21242:21256   */\n      lt\n        /* \"#utility.yul\":21235:21355   */\n      iszero\n      tag_484\n      jumpi\n        /* \"#utility.yul\":21306:21345   */\n      tag_485\n        /* \"#utility.yul\":21343:21344   */\n      0x00\n        /* \"#utility.yul\":21336:21341   */\n      dup3\n        /* \"#utility.yul\":21306:21345   */\n      tag_262\n      jump\t// in\n    tag_485:\n        /* \"#utility.yul\":21279:21280   */\n      0x01\n        /* \"#utility.yul\":21272:21277   */\n      dup2\n        /* \"#utility.yul\":21268:21281   */\n      add\n        /* \"#utility.yul\":21259:21281   */\n      swap1\n      pop\n        /* \"#utility.yul\":21235:21355   */\n      jump(tag_482)\n    tag_484:\n        /* \"#utility.yul\":21175:21361   */\n      pop\n      pop\n      jump\t// out\n        /* \"#utility.yul\":21367:21910   */\n    tag_264:\n        /* \"#utility.yul\":21468:21470   */\n      0x1f\n        /* \"#utility.yul\":21463:21466   */\n      dup3\n        /* \"#utility.yul\":21460:21471   */\n      gt\n        /* \"#utility.yul\":21457:21903   */\n      iszero\n      tag_487\n      jumpi\n        /* \"#utility.yul\":21502:21540   */\n      tag_488\n        /* \"#utility.yul\":21534:21539   */\n      dup2\n        /* \"#utility.yul\":21502:21540   */\n      tag_253\n      jump\t// in\n    tag_488:\n        /* \"#utility.yul\":21586:21615   */\n      tag_489\n        /* \"#utility.yul\":21604:21614   */\n      dup5\n        /* \"#utility.yul\":21586:21615   */\n      tag_254\n      jump\t// in\n    tag_489:\n        /* \"#utility.yul\":21576:21584   */\n      dup2\n        /* \"#utility.yul\":21572:21616   */\n      add\n        /* \"#utility.yul\":21769:21771   */\n      0x20\n        /* \"#utility.yul\":21757:21767   */\n      dup6\n        /* \"#utility.yul\":21754:21772   */\n      lt\n        /* \"#utility.yul\":21751:21800   */\n      iszero\n      tag_490\n      jumpi\n        /* \"#utility.yul\":21790:21798   */\n      dup2\n        /* \"#utility.yul\":21775:21798   */\n      swap1\n      pop\n        /* \"#utility.yul\":21751:21800   */\n    tag_490:\n        /* \"#utility.yul\":21813:21893   */\n      tag_491\n        /* \"#utility.yul\":21869:21891   */\n      tag_492\n        /* \"#utility.yul\":21887:21890   */\n      dup6\n        /* \"#utility.yul\":21869:21891   */\n      tag_254\n      jump\t// in\n    tag_492:\n        /* \"#utility.yul\":21859:21867   */\n      dup4\n        /* \"#utility.yul\":21855:21892   */\n      add\n        /* \"#utility.yul\":21842:21853   */\n      dup3\n        /* \"#utility.yul\":21813:21893   */\n      tag_263\n      jump\t// in\n    tag_491:\n        /* \"#utility.yul\":21472:21903   */\n      pop\n      pop\n        /* \"#utility.yul\":21457:21903   */\n    tag_487:\n        /* \"#utility.yul\":21367:21910   */\n      pop\n      pop\n      pop\n      jump\t// out\n        /* \"#utility.yul\":21916:22033   */\n    tag_265:\n        /* \"#utility.yul\":21970:21978   */\n      0x00\n        /* \"#utility.yul\":22020:22025   */\n      dup3\n        /* \"#utility.yul\":22014:22018   */\n      dup3\n        /* \"#utility.yul\":22010:22026   */\n      shr\n        /* \"#utility.yul\":21989:22026   */\n      swap1\n      pop\n        /* \"#utility.yul\":21916:22033   */\n      swap3\n      swap2\n      pop\n      pop\n      jump\t// out\n        /* \"#utility.yul\":22039:22208   */\n    tag_266:\n        /* \"#utility.yul\":22083:22089   */\n      0x00\n        /* \"#utility.yul\":22116:22167   */\n      tag_495\n        /* \"#utility.yul\":22164:22165   */\n      0x00\n        /* \"#utility.yul\":22160:22166   */\n      not\n        /* \"#utility.yul\":22152:22157   */\n      dup5\n        /* \"#utility.yul\":22149:22150   */\n      0x08\n        /* \"#utility.yul\":22145:22158   */\n      mul\n        /* \"#utility.yul\":22116:22167   */\n      tag_265\n      jump\t// in\n    tag_495:\n        /* \"#utility.yul\":22112:22168   */\n      not\n        /* \"#utility.yul\":22197:22201   */\n      dup1\n        /* \"#utility.yul\":22191:22195   */\n      dup4\n        /* \"#utility.yul\":22187:22202   */\n      and\n        /* \"#utility.yul\":22177:22202   */\n      swap2\n      pop\n        /* \"#utility.yul\":22090:22208   */\n      pop\n        /* \"#utility.yul\":22039:22208   */\n      swap3\n      swap2\n      pop\n      pop\n      jump\t// out\n        /* \"#utility.yul\":22213:22508   */\n    tag_267:\n        /* \"#utility.yul\":22289:22293   */\n      0x00\n        /* \"#utility.yul\":22435:22464   */\n      tag_497\n        /* \"#utility.yul\":22460:22463   */\n      dup4\n        /* \"#utility.yul\":22454:22458   */\n      dup4\n        /* \"#utility.yul\":22435:22464   */\n      tag_266\n      jump\t// in\n    tag_497:\n        /* \"#utility.yul\":22427:22464   */\n      swap2\n      pop\n        /* \"#utility.yul\":22497:22500   */\n      dup3\n        /* \"#utility.yul\":22494:22495   */\n      0x02\n        /* \"#utility.yul\":22490:22501   */\n      mul\n        /* \"#utility.yul\":22484:22488   */\n      dup3\n        /* \"#utility.yul\":22481:22502   */\n      or\n        /* \"#utility.yul\":22473:22502   */\n      swap1\n      pop\n        /* \"#utility.yul\":22213:22508   */\n      swap3\n      swap2\n      pop\n      pop\n      jump\t// out\n        /* \"#utility.yul\":22513:23908   */\n    tag_89:\n        /* \"#utility.yul\":22630:22667   */\n      tag_499\n        /* \"#utility.yul\":22663:22666   */\n      dup3\n        /* \"#utility.yul\":22630:22667   */\n      tag_212\n      jump\t// in\n    tag_499:\n        /* \"#utility.yul\":22732:22750   */\n      0xffffffffffffffff\n        /* \"#utility.yul\":22724:22730   */\n      dup2\n        /* \"#utility.yul\":22721:22751   */\n      gt\n        /* \"#utility.yul\":22718:22774   */\n      iszero\n      tag_500\n      jumpi\n        /* \"#utility.yul\":22754:22772   */\n      tag_501\n      tag_219\n      jump\t// in\n    tag_501:\n        /* \"#utility.yul\":22718:22774   */\n    tag_500:\n        /* \"#utility.yul\":22798:22836   */\n      tag_502\n        /* \"#utility.yul\":22830:22834   */\n      dup3\n        /* \"#utility.yul\":22824:22835   */\n      sload\n        /* \"#utility.yul\":22798:22836   */\n      tag_69\n      jump\t// in\n    tag_502:\n        /* \"#utility.yul\":22883:22950   */\n      tag_503\n        /* \"#utility.yul\":22943:22949   */\n      dup3\n        /* \"#utility.yul\":22935:22941   */\n      dup3\n        /* \"#utility.yul\":22929:22933   */\n      dup6\n        /* \"#utility.yul\":22883:22950   */\n      tag_264\n      jump\t// in\n    tag_503:\n        /* \"#utility.yul\":22977:22978   */\n      0x00\n        /* \"#utility.yul\":23001:23005   */\n      0x20\n        /* \"#utility.yul\":22988:23005   */\n      swap1\n      pop\n        /* \"#utility.yul\":23033:23035   */\n      0x1f\n        /* \"#utility.yul\":23025:23031   */\n      dup4\n        /* \"#utility.yul\":23022:23036   */\n      gt\n        /* \"#utility.yul\":23050:23051   */\n      0x01\n        /* \"#utility.yul\":23045:23663   */\n      dup2\n      eq\n      tag_505\n      jumpi\n        /* \"#utility.yul\":23707:23708   */\n      0x00\n        /* \"#utility.yul\":23724:23730   */\n      dup5\n        /* \"#utility.yul\":23721:23798   */\n      iszero\n      tag_506\n      jumpi\n        /* \"#utility.yul\":23773:23782   */\n      dup3\n        /* \"#utility.yul\":23768:23771   */\n      dup8\n        /* \"#utility.yul\":23764:23783   */\n      add\n        /* \"#utility.yul\":23758:23784   */\n      mload\n        /* \"#utility.yul\":23749:23784   */\n      swap1\n      pop\n        /* \"#utility.yul\":23721:23798   */\n    tag_506:\n        /* \"#utility.yul\":23824:23891   */\n      tag_507\n        /* \"#utility.yul\":23884:23890   */\n      dup6\n        /* \"#utility.yul\":23877:23882   */\n      dup3\n        /* \"#utility.yul\":23824:23891   */\n      tag_267\n      jump\t// in\n    tag_507:\n        /* \"#utility.yul\":23818:23822   */\n      dup7\n        /* \"#utility.yul\":23811:23892   */\n      sstore\n        /* \"#utility.yul\":23680:23902   */\n      pop\n        /* \"#utility.yul\":23015:23902   */\n      jump(tag_504)\n        /* \"#utility.yul\":23045:23663   */\n    tag_505:\n        /* \"#utility.yul\":23097:23101   */\n      0x1f\n        /* \"#utility.yul\":23093:23102   */\n      not\n        /* \"#utility.yul\":23085:23091   */\n      dup5\n        /* \"#utility.yul\":23081:23103   */\n      and\n        /* \"#utility.yul\":23131:23168   */\n      tag_508\n        /* \"#utility.yul\":23163:23167   */\n      dup7\n        /* \"#utility.yul\":23131:23168   */\n      tag_253\n      jump\t// in\n    tag_508:\n        /* \"#utility.yul\":23190:23191   */\n      0x00\n        /* \"#utility.yul\":23204:23412   */\n    tag_509:\n        /* \"#utility.yul\":23218:23225   */\n      dup3\n        /* \"#utility.yul\":23215:23216   */\n      dup2\n        /* \"#utility.yul\":23212:23226   */\n      lt\n        /* \"#utility.yul\":23204:23412   */\n      iszero\n      tag_511\n      jumpi\n        /* \"#utility.yul\":23297:23306   */\n      dup5\n        /* \"#utility.yul\":23292:23295   */\n      dup10\n        /* \"#utility.yul\":23288:23307   */\n      add\n        /* \"#utility.yul\":23282:23308   */\n      mload\n        /* \"#utility.yul\":23274:23280   */\n      dup3\n        /* \"#utility.yul\":23267:23309   */\n      sstore\n        /* \"#utility.yul\":23348:23349   */\n      0x01\n        /* \"#utility.yul\":23340:23346   */\n      dup3\n        /* \"#utility.yul\":23336:23350   */\n      add\n        /* \"#utility.yul\":23326:23350   */\n      swap2\n      pop\n        /* \"#utility.yul\":23395:23397   */\n      0x20\n        /* \"#utility.yul\":23384:23393   */\n      dup6\n        /* \"#utility.yul\":23380:23398   */\n      add\n        /* \"#utility.yul\":23367:23398   */\n      swap5\n      pop\n        /* \"#utility.yul\":23241:23245   */\n      0x20\n        /* \"#utility.yul\":23238:23239   */\n      dup2\n        /* \"#utility.yul\":23234:23246   */\n      add\n        /* \"#utility.yul\":23229:23246   */\n      swap1\n      pop\n        /* \"#utility.yul\":23204:23412   */\n      jump(tag_509)\n    tag_511:\n        /* \"#utility.yul\":23440:23446   */\n      dup7\n        /* \"#utility.yul\":23431:23438   */\n      dup4\n        /* \"#utility.yul\":23428:23447   */\n      lt\n        /* \"#utility.yul\":23425:23604   */\n      iszero\n      tag_512\n      jumpi\n        /* \"#utility.yul\":23498:23507   */\n      dup5\n        /* \"#utility.yul\":23493:23496   */\n      dup10\n        /* \"#utility.yul\":23489:23508   */\n      add\n        /* \"#utility.yul\":23483:23509   */\n      mload\n        /* \"#utility.yul\":23541:23589   */\n      tag_513\n        /* \"#utility.yul\":23583:23587   */\n      0x1f\n        /* \"#utility.yul\":23575:23581   */\n      dup10\n        /* \"#utility.yul\":23571:23588   */\n      and\n        /* \"#utility.yul\":23560:23569   */\n      dup3\n        /* \"#utility.yul\":23541:23589   */\n      tag_266\n      jump\t// in\n    tag_513:\n        /* \"#utility.yul\":23533:23539   */\n      dup4\n        /* \"#utility.yul\":23526:23590   */\n      sstore\n        /* \"#utility.yul\":23448:23604   */\n      pop\n        /* \"#utility.yul\":23425:23604   */\n    tag_512:\n        /* \"#utility.yul\":23650:23651   */\n      0x01\n        /* \"#utility.yul\":23646:23647   */\n      0x02\n        /* \"#utility.yul\":23638:23644   */\n      dup9\n        /* \"#utility.yul\":23634:23648   */\n      mul\n        /* \"#utility.yul\":23630:23652   */\n      add\n        /* \"#utility.yul\":23624:23628   */\n      dup9\n        /* \"#utility.yul\":23617:23653   */\n      sstore\n        /* \"#utility.yul\":23052:23663   */\n      pop\n      pop\n      pop\n        /* \"#utility.yul\":23015:23902   */\n    tag_504:\n      pop\n        /* \"#utility.yul\":22605:23908   */\n      pop\n      pop\n      pop\n        /* \"#utility.yul\":22513:23908   */\n      pop\n      pop\n      jump\t// out\n        /* \"#utility.yul\":23914:24558   */\n    tag_91:\n        /* \"#utility.yul\":24111:24115   */\n      0x00\n        /* \"#utility.yul\":24149:24152   */\n      0x80\n        /* \"#utility.yul\":24138:24147   */\n      dup3\n        /* \"#utility.yul\":24134:24153   */\n      add\n        /* \"#utility.yul\":24126:24153   */\n      swap1\n      pop\n        /* \"#utility.yul\":24163:24234   */\n      tag_515\n        /* \"#utility.yul\":24231:24232   */\n      0x00\n        /* \"#utility.yul\":24220:24229   */\n      dup4\n        /* \"#utility.yul\":24216:24233   */\n      add\n        /* \"#utility.yul\":24207:24213   */\n      dup8\n        /* \"#utility.yul\":24163:24234   */\n      tag_210\n      jump\t// in\n    tag_515:\n        /* \"#utility.yul\":24244:24316   */\n      tag_516\n        /* \"#utility.yul\":24312:24314   */\n      0x20\n        /* \"#utility.yul\":24301:24310   */\n      dup4\n        /* \"#utility.yul\":24297:24315   */\n      add\n        /* \"#utility.yul\":24288:24294   */\n      dup7\n        /* \"#utility.yul\":24244:24316   */\n      tag_211\n      jump\t// in\n    tag_516:\n        /* \"#utility.yul\":24363:24372   */\n      dup2\n        /* \"#utility.yul\":24357:24361   */\n      dup2\n        /* \"#utility.yul\":24353:24373   */\n      sub\n        /* \"#utility.yul\":24348:24350   */\n      0x40\n        /* \"#utility.yul\":24337:24346   */\n      dup4\n        /* \"#utility.yul\":24333:24351   */\n      add\n        /* \"#utility.yul\":24326:24374   */\n      mstore\n        /* \"#utility.yul\":24391:24469   */\n      tag_517\n        /* \"#utility.yul\":24464:24468   */\n      dup2\n        /* \"#utility.yul\":24455:24461   */\n      dup6\n        /* \"#utility.yul\":24391:24469   */\n      tag_216\n      jump\t// in\n    tag_517:\n        /* \"#utility.yul\":24383:24469   */\n      swap1\n      pop\n        /* \"#utility.yul\":24479:24551   */\n      tag_518\n        /* \"#utility.yul\":24547:24549   */\n      0x60\n        /* \"#utility.yul\":24536:24545   */\n      dup4\n        /* \"#utility.yul\":24532:24550   */\n      add\n        /* \"#utility.yul\":24523:24529   */\n      dup5\n        /* \"#utility.yul\":24479:24551   */\n      tag_210\n      jump\t// in\n    tag_518:\n        /* \"#utility.yul\":23914:24558   */\n      swap6\n      swap5\n      pop\n      pop\n      pop\n      pop\n      pop\n      jump\t// out\n        /* \"#utility.yul\":24564:24744   */\n    tag_111:\n        /* \"#utility.yul\":24612:24689   */\n      0x4e487b7100000000000000000000000000000000000000000000000000000000\n        /* \"#utility.yul\":24609:24610   */\n      0x00\n        /* \"#utility.yul\":24602:24690   */\n      mstore\n        /* \"#utility.yul\":24709:24713   */\n      0x32\n        /* \"#utility.yul\":24706:24707   */\n      0x04\n        /* \"#utility.yul\":24699:24714   */\n      mstore\n        /* \"#utility.yul\":24733:24737   */\n      0x24\n        /* \"#utility.yul\":24730:24731   */\n      0x00\n        /* \"#utility.yul\":24723:24738   */\n      revert\n        /* \"#utility.yul\":24750:24974   */\n    tag_268:\n        /* \"#utility.yul\":24890:24924   */\n      0x5468657265206973206e6f207477656574732065786973742077697468207468\n        /* \"#utility.yul\":24886:24887   */\n      0x00\n        /* \"#utility.yul\":24878:24884   */\n      dup3\n        /* \"#utility.yul\":24874:24888   */\n      add\n        /* \"#utility.yul\":24867:24925   */\n      mstore\n        /* \"#utility.yul\":24959:24966   */\n      0x6973206964000000000000000000000000000000000000000000000000000000\n        /* \"#utility.yul\":24954:24956   */\n      0x20\n        /* \"#utility.yul\":24946:24952   */\n      dup3\n        /* \"#utility.yul\":24942:24957   */\n      add\n        /* \"#utility.yul\":24935:24967   */\n      mstore\n        /* \"#utility.yul\":24750:24974   */\n      pop\n      jump\t// out\n        /* \"#utility.yul\":24980:25346   */\n    tag_269:\n        /* \"#utility.yul\":25122:25125   */\n      0x00\n        /* \"#utility.yul\":25143:25210   */\n      tag_522\n        /* \"#utility.yul\":25207:25209   */\n      0x25\n        /* \"#utility.yul\":25202:25205   */\n      dup4\n        /* \"#utility.yul\":25143:25210   */\n      tag_213\n      jump\t// in\n    tag_522:\n        /* \"#utility.yul\":25136:25210   */\n      swap2\n      pop\n        /* \"#utility.yul\":25219:25312   */\n      tag_523\n        /* \"#utility.yul\":25308:25311   */\n      dup3\n        /* \"#utility.yul\":25219:25312   */\n      tag_268\n      jump\t// in\n    tag_523:\n        /* \"#utility.yul\":25337:25339   */\n      0x40\n        /* \"#utility.yul\":25332:25335   */\n      dup3\n        /* \"#utility.yul\":25328:25340   */\n      add\n        /* \"#utility.yul\":25321:25340   */\n      swap1\n      pop\n        /* \"#utility.yul\":24980:25346   */\n      swap2\n      swap1\n      pop\n      jump\t// out\n        /* \"#utility.yul\":25352:25771   */\n    tag_115:\n        /* \"#utility.yul\":25518:25522   */\n      0x00\n        /* \"#utility.yul\":25556:25558   */\n      0x20\n        /* \"#utility.yul\":25545:25554   */\n      dup3\n        /* \"#utility.yul\":25541:25559   */\n      add\n        /* \"#utility.yul\":25533:25559   */\n      swap1\n      pop\n        /* \"#utility.yul\":25605:25614   */\n      dup2\n        /* \"#utility.yul\":25599:25603   */\n      dup2\n        /* \"#utility.yul\":25595:25615   */\n      sub\n        /* \"#utility.yul\":25591:25592   */\n      0x00\n        /* \"#utility.yul\":25580:25589   */\n      dup4\n        /* \"#utility.yul\":25576:25593   */\n      add\n        /* \"#utility.yul\":25569:25616   */\n      mstore\n        /* \"#utility.yul\":25633:25764   */\n      tag_525\n        /* \"#utility.yul\":25759:25763   */\n      dup2\n        /* \"#utility.yul\":25633:25764   */\n      tag_269\n      jump\t// in\n    tag_525:\n        /* \"#utility.yul\":25625:25764   */\n      swap1\n      pop\n        /* \"#utility.yul\":25352:25771   */\n      swap2\n      swap1\n      pop\n      jump\t// out\n        /* \"#utility.yul\":25777:25949   */\n    tag_270:\n        /* \"#utility.yul\":25917:25941   */\n      0x5468697320706f737420686173206e6f206c696b657300000000000000000000\n        /* \"#utility.yul\":25913:25914   */\n      0x00\n        /* \"#utility.yul\":25905:25911   */\n      dup3\n        /* \"#utility.yul\":25901:25915   */\n      add\n        /* \"#utility.yul\":25894:25942   */\n      mstore\n        /* \"#utility.yul\":25777:25949   */\n      pop\n      jump\t// out\n        /* \"#utility.yul\":25955:26321   */\n    tag_271:\n        /* \"#utility.yul\":26097:26100   */\n      0x00\n        /* \"#utility.yul\":26118:26185   */\n      tag_528\n        /* \"#utility.yul\":26182:26184   */\n      0x16\n        /* \"#utility.yul\":26177:26180   */\n      dup4\n        /* \"#utility.yul\":26118:26185   */\n      tag_213\n      jump\t// in\n    tag_528:\n        /* \"#utility.yul\":26111:26185   */\n      swap2\n      pop\n        /* \"#utility.yul\":26194:26287   */\n      tag_529\n        /* \"#utility.yul\":26283:26286   */\n      dup3\n        /* \"#utility.yul\":26194:26287   */\n      tag_270\n      jump\t// in\n    tag_529:\n        /* \"#utility.yul\":26312:26314   */\n      0x20\n        /* \"#utility.yul\":26307:26310   */\n      dup3\n        /* \"#utility.yul\":26303:26315   */\n      add\n        /* \"#utility.yul\":26296:26315   */\n      swap1\n      pop\n        /* \"#utility.yul\":25955:26321   */\n      swap2\n      swap1\n      pop\n      jump\t// out\n        /* \"#utility.yul\":26327:26746   */\n    tag_121:\n        /* \"#utility.yul\":26493:26497   */\n      0x00\n        /* \"#utility.yul\":26531:26533   */\n      0x20\n        /* \"#utility.yul\":26520:26529   */\n      dup3\n        /* \"#utility.yul\":26516:26534   */\n      add\n        /* \"#utility.yul\":26508:26534   */\n      swap1\n      pop\n        /* \"#utility.yul\":26580:26589   */\n      dup2\n        /* \"#utility.yul\":26574:26578   */\n      dup2\n        /* \"#utility.yul\":26570:26590   */\n      sub\n        /* \"#utility.yul\":26566:26567   */\n      0x00\n        /* \"#utility.yul\":26555:26564   */\n      dup4\n        /* \"#utility.yul\":26551:26568   */\n      add\n        /* \"#utility.yul\":26544:26591   */\n      mstore\n        /* \"#utility.yul\":26608:26739   */\n      tag_531\n        /* \"#utility.yul\":26734:26738   */\n      dup2\n        /* \"#utility.yul\":26608:26739   */\n      tag_271\n      jump\t// in\n    tag_531:\n        /* \"#utility.yul\":26600:26739   */\n      swap1\n      pop\n        /* \"#utility.yul\":26327:26746   */\n      swap2\n      swap1\n      pop\n      jump\t// out\n        /* \"#utility.yul\":26752:26932   */\n    tag_272:\n        /* \"#utility.yul\":26800:26877   */\n      0x4e487b7100000000000000000000000000000000000000000000000000000000\n        /* \"#utility.yul\":26797:26798   */\n      0x00\n        /* \"#utility.yul\":26790:26878   */\n      mstore\n        /* \"#utility.yul\":26897:26901   */\n      0x11\n        /* \"#utility.yul\":26894:26895   */\n      0x04\n        /* \"#utility.yul\":26887:26902   */\n      mstore\n        /* \"#utility.yul\":26921:26925   */\n      0x24\n        /* \"#utility.yul\":26918:26919   */\n      0x00\n        /* \"#utility.yul\":26911:26926   */\n      revert\n        /* \"#utility.yul\":26938:27109   */\n    tag_126:\n        /* \"#utility.yul\":26977:26980   */\n      0x00\n        /* \"#utility.yul\":27000:27024   */\n      tag_534\n        /* \"#utility.yul\":27018:27023   */\n      dup3\n        /* \"#utility.yul\":27000:27024   */\n      tag_207\n      jump\t// in\n    tag_534:\n        /* \"#utility.yul\":26991:27024   */\n      swap2\n      pop\n        /* \"#utility.yul\":27046:27050   */\n      0x00\n        /* \"#utility.yul\":27039:27044   */\n      dup3\n        /* \"#utility.yul\":27036:27051   */\n      sub\n        /* \"#utility.yul\":27033:27074   */\n      tag_535\n      jumpi\n        /* \"#utility.yul\":27054:27072   */\n      tag_536\n      tag_272\n      jump\t// in\n    tag_536:\n        /* \"#utility.yul\":27033:27074   */\n    tag_535:\n        /* \"#utility.yul\":27101:27102   */\n      0x01\n        /* \"#utility.yul\":27094:27099   */\n      dup3\n        /* \"#utility.yul\":27090:27103   */\n      sub\n        /* \"#utility.yul\":27083:27103   */\n      swap1\n      pop\n        /* \"#utility.yul\":26938:27109   */\n      swap2\n      swap1\n      pop\n      jump\t// out\n        /* \"#utility.yul\":27115:27668   */\n    tag_131:\n        /* \"#utility.yul\":27292:27296   */\n      0x00\n        /* \"#utility.yul\":27330:27333   */\n      0x80\n        /* \"#utility.yul\":27319:27328   */\n      dup3\n        /* \"#utility.yul\":27315:27334   */\n      add\n        /* \"#utility.yul\":27307:27334   */\n      swap1\n      pop\n        /* \"#utility.yul\":27344:27415   */\n      tag_538\n        /* \"#utility.yul\":27412:27413   */\n      0x00\n        /* \"#utility.yul\":27401:27410   */\n      dup4\n        /* \"#utility.yul\":27397:27414   */\n      add\n        /* \"#utility.yul\":27388:27394   */\n      dup8\n        /* \"#utility.yul\":27344:27415   */\n      tag_211\n      jump\t// in\n    tag_538:\n        /* \"#utility.yul\":27425:27497   */\n      tag_539\n        /* \"#utility.yul\":27493:27495   */\n      0x20\n        /* \"#utility.yul\":27482:27491   */\n      dup4\n        /* \"#utility.yul\":27478:27496   */\n      add\n        /* \"#utility.yul\":27469:27475   */\n      dup7\n        /* \"#utility.yul\":27425:27497   */\n      tag_211\n      jump\t// in\n    tag_539:\n        /* \"#utility.yul\":27507:27579   */\n      tag_540\n        /* \"#utility.yul\":27575:27577   */\n      0x40\n        /* \"#utility.yul\":27564:27573   */\n      dup4\n        /* \"#utility.yul\":27560:27578   */\n      add\n        /* \"#utility.yul\":27551:27557   */\n      dup6\n        /* \"#utility.yul\":27507:27579   */\n      tag_210\n      jump\t// in\n    tag_540:\n        /* \"#utility.yul\":27589:27661   */\n      tag_541\n        /* \"#utility.yul\":27657:27659   */\n      0x60\n        /* \"#utility.yul\":27646:27655   */\n      dup4\n        /* \"#utility.yul\":27642:27660   */\n      add\n        /* \"#utility.yul\":27633:27639   */\n      dup5\n        /* \"#utility.yul\":27589:27661   */\n      tag_210\n      jump\t// in\n    tag_541:\n        /* \"#utility.yul\":27115:27668   */\n      swap6\n      swap5\n      pop\n      pop\n      pop\n      pop\n      pop\n      jump\t// out\n        /* \"#utility.yul\":27674:27897   */\n    tag_273:\n        /* \"#utility.yul\":27814:27848   */\n      0x5468657265206973206e6f207477656574206578697374207769746820746869\n        /* \"#utility.yul\":27810:27811   */\n      0x00\n        /* \"#utility.yul\":27802:27808   */\n      dup3\n        /* \"#utility.yul\":27798:27812   */\n      add\n        /* \"#utility.yul\":27791:27849   */\n      mstore\n        /* \"#utility.yul\":27883:27889   */\n      0x7320696400000000000000000000000000000000000000000000000000000000\n        /* \"#utility.yul\":27878:27880   */\n      0x20\n        /* \"#utility.yul\":27870:27876   */\n      dup3\n        /* \"#utility.yul\":27866:27881   */\n      add\n        /* \"#utility.yul\":27859:27890   */\n      mstore\n        /* \"#utility.yul\":27674:27897   */\n      pop\n      jump\t// out\n        /* \"#utility.yul\":27903:28269   */\n    tag_274:\n        /* \"#utility.yul\":28045:28048   */\n      0x00\n        /* \"#utility.yul\":28066:28133   */\n      tag_544\n        /* \"#utility.yul\":28130:28132   */\n      0x24\n        /* \"#utility.yul\":28125:28128   */\n      dup4\n        /* \"#utility.yul\":28066:28133   */\n      tag_213\n      jump\t// in\n    tag_544:\n        /* \"#utility.yul\":28059:28133   */\n      swap2\n      pop\n        /* \"#utility.yul\":28142:28235   */\n      tag_545\n        /* \"#utility.yul\":28231:28234   */\n      dup3\n        /* \"#utility.yul\":28142:28235   */\n      tag_273\n      jump\t// in\n    tag_545:\n        /* \"#utility.yul\":28260:28262   */\n      0x40\n        /* \"#utility.yul\":28255:28258   */\n      dup3\n        /* \"#utility.yul\":28251:28263   */\n      add\n        /* \"#utility.yul\":28244:28263   */\n      swap1\n      pop\n        /* \"#utility.yul\":27903:28269   */\n      swap2\n      swap1\n      pop\n      jump\t// out\n        /* \"#utility.yul\":28275:28694   */\n    tag_149:\n        /* \"#utility.yul\":28441:28445   */\n      0x00\n        /* \"#utility.yul\":28479:28481   */\n      0x20\n        /* \"#utility.yul\":28468:28477   */\n      dup3\n        /* \"#utility.yul\":28464:28482   */\n      add\n        /* \"#utility.yul\":28456:28482   */\n      swap1\n      pop\n        /* \"#utility.yul\":28528:28537   */\n      dup2\n        /* \"#utility.yul\":28522:28526   */\n      dup2\n        /* \"#utility.yul\":28518:28538   */\n      sub\n        /* \"#utility.yul\":28514:28515   */\n      0x00\n        /* \"#utility.yul\":28503:28512   */\n      dup4\n        /* \"#utility.yul\":28499:28516   */\n      add\n        /* \"#utility.yul\":28492:28539   */\n      mstore\n        /* \"#utility.yul\":28556:28687   */\n      tag_547\n        /* \"#utility.yul\":28682:28686   */\n      dup2\n        /* \"#utility.yul\":28556:28687   */\n      tag_274\n      jump\t// in\n    tag_547:\n        /* \"#utility.yul\":28548:28687   */\n      swap1\n      pop\n        /* \"#utility.yul\":28275:28694   */\n      swap2\n      swap1\n      pop\n      jump\t// out\n        /* \"#utility.yul\":28700:28933   */\n    tag_154:\n        /* \"#utility.yul\":28739:28742   */\n      0x00\n        /* \"#utility.yul\":28762:28786   */\n      tag_549\n        /* \"#utility.yul\":28780:28785   */\n      dup3\n        /* \"#utility.yul\":28762:28786   */\n      tag_207\n      jump\t// in\n    tag_549:\n        /* \"#utility.yul\":28753:28786   */\n      swap2\n      pop\n        /* \"#utility.yul\":28808:28874   */\n      0xffffffffffffffffffffffffffffffffffffffffffffffffffffffffffffffff\n        /* \"#utility.yul\":28801:28806   */\n      dup3\n        /* \"#utility.yul\":28798:28875   */\n      sub\n        /* \"#utility.yul\":28795:28898   */\n      tag_550\n      jumpi\n        /* \"#utility.yul\":28878:28896   */\n      tag_551\n      tag_272\n      jump\t// in\n    tag_551:\n        /* \"#utility.yul\":28795:28898   */\n    tag_550:\n        /* \"#utility.yul\":28925:28926   */\n      0x01\n        /* \"#utility.yul\":28918:28923   */\n      dup3\n        /* \"#utility.yul\":28914:28927   */\n      add\n        /* \"#utility.yul\":28907:28927   */\n      swap1\n      pop\n        /* \"#utility.yul\":28700:28933   */\n      swap2\n      swap1\n      pop\n      jump\t// out\n        /* \"#utility.yul\":28939:29130   */\n    tag_184:\n        /* \"#utility.yul\":28979:28982   */\n      0x00\n        /* \"#utility.yul\":28998:29018   */\n      tag_553\n        /* \"#utility.yul\":29016:29017   */\n      dup3\n        /* \"#utility.yul\":28998:29018   */\n      tag_207\n      jump\t// in\n    tag_553:\n        /* \"#utility.yul\":28993:29018   */\n      swap2\n      pop\n        /* \"#utility.yul\":29032:29052   */\n      tag_554\n        /* \"#utility.yul\":29050:29051   */\n      dup4\n        /* \"#utility.yul\":29032:29052   */\n      tag_207\n      jump\t// in\n    tag_554:\n        /* \"#utility.yul\":29027:29052   */\n      swap3\n      pop\n        /* \"#utility.yul\":29075:29076   */\n      dup3\n        /* \"#utility.yul\":29072:29073   */\n      dup3\n        /* \"#utility.yul\":29068:29077   */\n      add\n        /* \"#utility.yul\":29061:29077   */\n      swap1\n      pop\n        /* \"#utility.yul\":29096:29099   */\n      dup1\n        /* \"#utility.yul\":29093:29094   */\n      dup3\n        /* \"#utility.yul\":29090:29100   */\n      gt\n        /* \"#utility.yul\":29087:29123   */\n      iszero\n      tag_555\n      jumpi\n        /* \"#utility.yul\":29103:29121   */\n      tag_556\n      tag_272\n      jump\t// in\n    tag_556:\n        /* \"#utility.yul\":29087:29123   */\n    tag_555:\n        /* \"#utility.yul\":28939:29130   */\n      swap3\n      swap2\n      pop\n      pop\n      jump\t// out\n\n    auxdata: 0xa26469706673582212205f4273565653589da56b32ce0ac50989d04b626f457f53f86a1848f55c7faac864736f6c634300081a0033\n}\n",
				"bytecode": {
					"linkReferences": {},
					"object": "608060405261017c600160146101000a81548163ffffffff021916908363ffffffff160217905550348015610032575f80fd5b506040516123c73803806123c78339818101604052810190610054919061023a565b335f73ffffffffffffffffffffffffffffffffffffffff168173ffffffffffffffffffffffffffffffffffffffff16036100c5575f6040517f1e4fbdf70000000000000000000000000000000000000000000000000000000081526004016100bc9190610274565b60405180910390fd5b6100d48161011b60201b60201c565b508060015f6101000a81548173ffffffffffffffffffffffffffffffffffffffff021916908373ffffffffffffffffffffffffffffffffffffffff1602179055505061028d565b5f805f9054906101000a900473ffffffffffffffffffffffffffffffffffffffff169050815f806101000a81548173ffffffffffffffffffffffffffffffffffffffff021916908373ffffffffffffffffffffffffffffffffffffffff1602179055508173ffffffffffffffffffffffffffffffffffffffff168173ffffffffffffffffffffffffffffffffffffffff167f8be0079c531659141344cd1fd0a4f28419497f9722a3daafe3b4186f6b6457e060405160405180910390a35050565b5f80fd5b5f73ffffffffffffffffffffffffffffffffffffffff82169050919050565b5f610209826101e0565b9050919050565b610219816101ff565b8114610223575f80fd5b50565b5f8151905061023481610210565b92915050565b5f6020828403121561024f5761024e6101dc565b5b5f61025c84828501610226565b91505092915050565b61026e816101ff565b82525050565b5f6020820190506102875f830184610265565b92915050565b61212d8061029a5f395ff3fe608060405234801561000f575f80fd5b50600436106100b2575f3560e01c80636eb107971161006f5780636eb107971461018a578063715018a6146101a85780638da5cb5b146101b2578063c3ad5ecb146101d0578063e1549d8514610200578063f2fde38b14610230576100b2565b806305a1b4a9146100b65780630a7aa8a1146100ea57806312e7ee1c146101065780633d9b569f1461013657806358bfa4ab14610152578063633782161461016e575b5f80fd5b6100d060048036038101906100cb9190611311565b61024c565b6040516100e19594939291906113dd565b60405180910390f35b61010460048036038101906100ff9190611561565b61033d565b005b610120600480360381019061011b91906115a8565b61062d565b60405161012d9190611767565b60405180910390f35b610150600480360381019061014b9190611311565b6107c8565b005b61016c600480360381019061016791906117be565b610aff565b005b61018860048036038101906101839190611311565b610b2f565b005b610192610dc6565b60405161019f9190611807565b60405180910390f35b6101b0610ddc565b005b6101ba610def565b6040516101c79190611820565b60405180910390f35b6101ea60048036038101906101e59190611839565b610e16565b6040516101f791906118d7565b60405180910390f35b61021a600480360381019061021591906115a8565b610f8d565b60405161022791906118f7565b60405180910390f35b61024a600480360381019061024591906115a8565b61105f565b005b6002602052815f5260405f208181548110610265575f80fd5b905f5260205f2090600502015f9150915050805f015490806001015f9054906101000a900473ffffffffffffffffffffffffffffffffffffffff16908060020180546102b09061193d565b80601f01602080910402602001604051908101604052809291908181526020018280546102dc9061193d565b80156103275780601f106102fe57610100808354040283529160200191610327565b820191905f5260205f20905b81548152906001019060200180831161030a57829003601f168201915b5050505050908060030154908060040154905085565b5f60015f9054906101000a900473ffffffffffffffffffffffffffffffffffffffff1673ffffffffffffffffffffffffffffffffffffffff16630f53a470336040518263ffffffff1660e01b81526004016103989190611820565b5f60405180830381865afa1580156103b2573d5f803e3d5ffd5b505050506040513d5f823e3d601f19601f820116820180604052508101906103da9190611a68565b90505f815f01515111610422576040517f08c379a000000000000000000000000000000000000000000000000000000000815260040161041990611af9565b60405180910390fd5b600160149054906101000a900463ffffffff1663ffffffff168251111561047e576040517f08c379a000000000000000000000000000000000000000000000000000000000815260040161047590611b61565b60405180910390fd5b5f6040518060a0016040528060025f3373ffffffffffffffffffffffffffffffffffffffff1673ffffffffffffffffffffffffffffffffffffffff1681526020019081526020015f208054905081526020013373ffffffffffffffffffffffffffffffffffffffff1681526020018481526020014281526020015f815250905060025f3373ffffffffffffffffffffffffffffffffffffffff1673ffffffffffffffffffffffffffffffffffffffff1681526020019081526020015f2081908060018154018082558091505060019003905f5260205f2090600502015f909190919091505f820151815f01556020820151816001015f6101000a81548173ffffffffffffffffffffffffffffffffffffffff021916908373ffffffffffffffffffffffffffffffffffffffff16021790555060408201518160020190816105c59190611d1c565b50606082015181600301556080820151816004015550507f16fd3c13e9d46923e0a8bce11c7b473ec508a72e6c96cd2404b29ce972afc29e815f01518260200151836040015184606001516040516106209493929190611deb565b60405180910390a1505050565b606060025f8373ffffffffffffffffffffffffffffffffffffffff1673ffffffffffffffffffffffffffffffffffffffff1681526020019081526020015f20805480602002602001604051908101604052809291908181526020015f905b828210156107bd578382905f5260205f2090600502016040518060a00160405290815f8201548152602001600182015f9054906101000a900473ffffffffffffffffffffffffffffffffffffffff1673ffffffffffffffffffffffffffffffffffffffff1673ffffffffffffffffffffffffffffffffffffffff16815260200160028201805461071a9061193d565b80601f01602080910402602001604051908101604052809291908181526020018280546107469061193d565b80156107915780601f1061076857610100808354040283529160200191610791565b820191905f5260205f20905b81548152906001019060200180831161077457829003601f168201915b50505050508152602001600382015481526020016004820154815250508152602001906001019061068b565b505050509050919050565b5f60015f9054906101000a900473ffffffffffffffffffffffffffffffffffffffff1673ffffffffffffffffffffffffffffffffffffffff16630f53a470336040518263ffffffff1660e01b81526004016108239190611820565b5f60405180830381865afa15801561083d573d5f803e3d5ffd5b505050506040513d5f823e3d601f19601f820116820180604052508101906108659190611a68565b90505f815f015151116108ad576040517f08c379a00000000000000000000000000000000000000000000000000000000081526004016108a490611af9565b60405180910390fd5b8160025f8573ffffffffffffffffffffffffffffffffffffffff1673ffffffffffffffffffffffffffffffffffffffff1681526020019081526020015f2083815481106108fd576108fc611e35565b5b905f5260205f2090600502015f01541461094c576040517f08c379a000000000000000000000000000000000000000000000000000000000815260040161094390611ed2565b60405180910390fd5b5f60025f8573ffffffffffffffffffffffffffffffffffffffff1673ffffffffffffffffffffffffffffffffffffffff1681526020019081526020015f20838154811061099c5761099b611e35565b5b905f5260205f20906005020160040154116109ec576040517f08c379a00000000000000000000000000000000000000000000000000000000081526004016109e390611f3a565b60405180910390fd5b60025f8473ffffffffffffffffffffffffffffffffffffffff1673ffffffffffffffffffffffffffffffffffffffff1681526020019081526020015f208281548110610a3b57610a3a611e35565b5b905f5260205f2090600502016004015f815480929190610a5a90611f85565b91905055507f762c2616349603ac16eba0de8e6141b79129a07ab63bd99e0a80b3a47171694333848460025f8873ffffffffffffffffffffffffffffffffffffffff1673ffffffffffffffffffffffffffffffffffffffff1681526020019081526020015f208681548110610ad257610ad1611e35565b5b905f5260205f20906005020160040154604051610af29493929190611fac565b60405180910390a1505050565b610b076110e3565b8061ffff16600160146101000a81548163ffffffff021916908363ffffffff16021790555050565b5f60015f9054906101000a900473ffffffffffffffffffffffffffffffffffffffff1673ffffffffffffffffffffffffffffffffffffffff16630f53a470336040518263ffffffff1660e01b8152600401610b8a9190611820565b5f60405180830381865afa158015610ba4573d5f803e3d5ffd5b505050506040513d5f823e3d601f19601f82011682018060405250810190610bcc9190611a68565b90505f815f01515111610c14576040517f08c379a0000000000000000000000000000000000000000000000000000000008152600401610c0b90611af9565b60405180910390fd5b8160025f8573ffffffffffffffffffffffffffffffffffffffff1673ffffffffffffffffffffffffffffffffffffffff1681526020019081526020015f208381548110610c6457610c63611e35565b5b905f5260205f2090600502015f015414610cb3576040517f08c379a0000000000000000000000000000000000000000000000000000000008152600401610caa9061205f565b60405180910390fd5b60025f8473ffffffffffffffffffffffffffffffffffffffff1673ffffffffffffffffffffffffffffffffffffffff1681526020019081526020015f208281548110610d0257610d01611e35565b5b905f5260205f2090600502016004015f815480929190610d219061207d565b91905055507fe8a76fc0f16d11a00d1e93b689b63d76cf60af914dd3d915375dc41d01a0c3c833848460025f8873ffffffffffffffffffffffffffffffffffffffff1673ffffffffffffffffffffffffffffffffffffffff1681526020019081526020015f208681548110610d9957610d98611e35565b5b905f5260205f20906005020160040154604051610db99493929190611fac565b60405180910390a1505050565b600160149054906101000a900463ffffffff1681565b610de46110e3565b610ded5f61116a565b565b5f805f9054906101000a900473ffffffffffffffffffffffffffffffffffffffff16905090565b610e1e611232565b60025f3373ffffffffffffffffffffffffffffffffffffffff1673ffffffffffffffffffffffffffffffffffffffff1681526020019081526020015f208281548110610e6d57610e6c611e35565b5b905f5260205f2090600502016040518060a00160405290815f8201548152602001600182015f9054906101000a900473ffffffffffffffffffffffffffffffffffffffff1673ffffffffffffffffffffffffffffffffffffffff1673ffffffffffffffffffffffffffffffffffffffff168152602001600282018054610ef29061193d565b80601f0160208091040260200160405190810160405280929190818152602001828054610f1e9061193d565b8015610f695780601f10610f4057610100808354040283529160200191610f69565b820191905f5260205f20905b815481529060010190602001808311610f4c57829003601f168201915b50505050508152602001600382015481526020016004820154815250509050919050565b5f805f90505f5b60025f8573ffffffffffffffffffffffffffffffffffffffff1673ffffffffffffffffffffffffffffffffffffffff1681526020019081526020015f20805490508110156110555760025f8573ffffffffffffffffffffffffffffffffffffffff1673ffffffffffffffffffffffffffffffffffffffff1681526020019081526020015f20818154811061102b5761102a611e35565b5b905f5260205f209060050201600401548261104691906120c4565b91508080600101915050610f94565b5080915050919050565b6110676110e3565b5f73ffffffffffffffffffffffffffffffffffffffff168173ffffffffffffffffffffffffffffffffffffffff16036110d7575f6040517f1e4fbdf70000000000000000000000000000000000000000000000000000000081526004016110ce9190611820565b60405180910390fd5b6110e08161116a565b50565b6110eb61122b565b73ffffffffffffffffffffffffffffffffffffffff16611109610def565b73ffffffffffffffffffffffffffffffffffffffff16146111685761112c61122b565b6040517f118cdaa700000000000000000000000000000000000000000000000000000000815260040161115f9190611820565b60405180910390fd5b565b5f805f9054906101000a900473ffffffffffffffffffffffffffffffffffffffff169050815f806101000a81548173ffffffffffffffffffffffffffffffffffffffff021916908373ffffffffffffffffffffffffffffffffffffffff1602179055508173ffffffffffffffffffffffffffffffffffffffff168173ffffffffffffffffffffffffffffffffffffffff167f8be0079c531659141344cd1fd0a4f28419497f9722a3daafe3b4186f6b6457e060405160405180910390a35050565b5f33905090565b6040518060a001604052805f81526020015f73ffffffffffffffffffffffffffffffffffffffff168152602001606081526020015f81526020015f81525090565b5f604051905090565b5f80fd5b5f80fd5b5f73ffffffffffffffffffffffffffffffffffffffff82169050919050565b5f6112ad82611284565b9050919050565b6112bd816112a3565b81146112c7575f80fd5b50565b5f813590506112d8816112b4565b92915050565b5f819050919050565b6112f0816112de565b81146112fa575f80fd5b50565b5f8135905061130b816112e7565b92915050565b5f80604083850312156113275761132661127c565b5b5f611334858286016112ca565b9250506020611345858286016112fd565b9150509250929050565b611358816112de565b82525050565b611367816112a3565b82525050565b5f81519050919050565b5f82825260208201905092915050565b8281835e5f83830152505050565b5f601f19601f8301169050919050565b5f6113af8261136d565b6113b98185611377565b93506113c9818560208601611387565b6113d281611395565b840191505092915050565b5f60a0820190506113f05f83018861134f565b6113fd602083018761135e565b818103604083015261140f81866113a5565b905061141e606083018561134f565b61142b608083018461134f565b9695505050505050565b5f80fd5b5f80fd5b7f4e487b71000000000000000000000000000000000000000000000000000000005f52604160045260245ffd5b61147382611395565b810181811067ffffffffffffffff821117156114925761149161143d565b5b80604052505050565b5f6114a4611273565b90506114b0828261146a565b919050565b5f67ffffffffffffffff8211156114cf576114ce61143d565b5b6114d882611395565b9050602081019050919050565b828183375f83830152505050565b5f611505611500846114b5565b61149b565b90508281526020810184848401111561152157611520611439565b5b61152c8482856114e5565b509392505050565b5f82601f83011261154857611547611435565b5b81356115588482602086016114f3565b91505092915050565b5f602082840312156115765761157561127c565b5b5f82013567ffffffffffffffff81111561159357611592611280565b5b61159f84828501611534565b91505092915050565b5f602082840312156115bd576115bc61127c565b5b5f6115ca848285016112ca565b91505092915050565b5f81519050919050565b5f82825260208201905092915050565b5f819050602082019050919050565b611605816112de565b82525050565b611614816112a3565b82525050565b5f82825260208201905092915050565b5f6116348261136d565b61163e818561161a565b935061164e818560208601611387565b61165781611395565b840191505092915050565b5f60a083015f8301516116775f8601826115fc565b50602083015161168a602086018261160b565b50604083015184820360408601526116a2828261162a565b91505060608301516116b760608601826115fc565b5060808301516116ca60808601826115fc565b508091505092915050565b5f6116e08383611662565b905092915050565b5f602082019050919050565b5f6116fe826115d3565b61170881856115dd565b93508360208202850161171a856115ed565b805f5b85811015611755578484038952815161173685826116d5565b9450611741836116e8565b925060208a0199505060018101905061171d565b50829750879550505050505092915050565b5f6020820190508181035f83015261177f81846116f4565b905092915050565b5f61ffff82169050919050565b61179d81611787565b81146117a7575f80fd5b50565b5f813590506117b881611794565b92915050565b5f602082840312156117d3576117d261127c565b5b5f6117e0848285016117aa565b91505092915050565b5f63ffffffff82169050919050565b611801816117e9565b82525050565b5f60208201905061181a5f8301846117f8565b92915050565b5f6020820190506118335f83018461135e565b92915050565b5f6020828403121561184e5761184d61127c565b5b5f61185b848285016112fd565b91505092915050565b5f60a083015f8301516118795f8601826115fc565b50602083015161188c602086018261160b565b50604083015184820360408601526118a4828261162a565b91505060608301516118b960608601826115fc565b5060808301516118cc60808601826115fc565b508091505092915050565b5f6020820190508181035f8301526118ef8184611864565b905092915050565b5f60208201905061190a5f83018461134f565b92915050565b7f4e487b71000000000000000000000000000000000000000000000000000000005f52602260045260245ffd5b5f600282049050600182168061195457607f821691505b60208210810361196757611966611910565b5b50919050565b5f80fd5b5f80fd5b5f611987611982846114b5565b61149b565b9050828152602081018484840111156119a3576119a2611439565b5b6119ae848285611387565b509392505050565b5f82601f8301126119ca576119c9611435565b5b81516119da848260208601611975565b91505092915050565b5f604082840312156119f8576119f761196d565b5b611a02604061149b565b90505f82015167ffffffffffffffff811115611a2157611a20611971565b5b611a2d848285016119b6565b5f83015250602082015167ffffffffffffffff811115611a5057611a4f611971565b5b611a5c848285016119b6565b60208301525092915050565b5f60208284031215611a7d57611a7c61127c565b5b5f82015167ffffffffffffffff811115611a9a57611a99611280565b5b611aa6848285016119e3565b91505092915050565b7f55534552204e4f542052454749535445524544000000000000000000000000005f82015250565b5f611ae3601383611377565b9150611aee82611aaf565b602082019050919050565b5f6020820190508181035f830152611b1081611ad7565b9050919050565b7f547765657420697320746f6f206c6f6e670000000000000000000000000000005f82015250565b5f611b4b601183611377565b9150611b5682611b17565b602082019050919050565b5f6020820190508181035f830152611b7881611b3f565b9050919050565b5f819050815f5260205f209050919050565b5f6020601f8301049050919050565b5f82821b905092915050565b5f60088302611bdb7fffffffffffffffffffffffffffffffffffffffffffffffffffffffffffffffff82611ba0565b611be58683611ba0565b95508019841693508086168417925050509392505050565b5f819050919050565b5f611c20611c1b611c16846112de565b611bfd565b6112de565b9050919050565b5f819050919050565b611c3983611c06565b611c4d611c4582611c27565b848454611bac565b825550505050565b5f90565b611c61611c55565b611c6c818484611c30565b505050565b5b81811015611c8f57611c845f82611c59565b600181019050611c72565b5050565b601f821115611cd457611ca581611b7f565b611cae84611b91565b81016020851015611cbd578190505b611cd1611cc985611b91565b830182611c71565b50505b505050565b5f82821c905092915050565b5f611cf45f1984600802611cd9565b1980831691505092915050565b5f611d0c8383611ce5565b9150826002028217905092915050565b611d258261136d565b67ffffffffffffffff811115611d3e57611d3d61143d565b5b611d48825461193d565b611d53828285611c93565b5f60209050601f831160018114611d84575f8415611d72578287015190505b611d7c8582611d01565b865550611de3565b601f198416611d9286611b7f565b5f5b82811015611db957848901518255600182019150602085019450602081019050611d94565b86831015611dd65784890151611dd2601f891682611ce5565b8355505b6001600288020188555050505b505050505050565b5f608082019050611dfe5f83018761134f565b611e0b602083018661135e565b8181036040830152611e1d81856113a5565b9050611e2c606083018461134f565b95945050505050565b7f4e487b71000000000000000000000000000000000000000000000000000000005f52603260045260245ffd5b7f5468657265206973206e6f2074776565747320657869737420776974682074685f8201527f6973206964000000000000000000000000000000000000000000000000000000602082015250565b5f611ebc602583611377565b9150611ec782611e62565b604082019050919050565b5f6020820190508181035f830152611ee981611eb0565b9050919050565b7f5468697320706f737420686173206e6f206c696b6573000000000000000000005f82015250565b5f611f24601683611377565b9150611f2f82611ef0565b602082019050919050565b5f6020820190508181035f830152611f5181611f18565b9050919050565b7f4e487b71000000000000000000000000000000000000000000000000000000005f52601160045260245ffd5b5f611f8f826112de565b91505f8203611fa157611fa0611f58565b5b600182039050919050565b5f608082019050611fbf5f83018761135e565b611fcc602083018661135e565b611fd9604083018561134f565b611fe6606083018461134f565b95945050505050565b7f5468657265206973206e6f2074776565742065786973742077697468207468695f8201527f7320696400000000000000000000000000000000000000000000000000000000602082015250565b5f612049602483611377565b915061205482611fef565b604082019050919050565b5f6020820190508181035f8301526120768161203d565b9050919050565b5f612087826112de565b91507fffffffffffffffffffffffffffffffffffffffffffffffffffffffffffffffff82036120b9576120b8611f58565b5b600182019050919050565b5f6120ce826112de565b91506120d9836112de565b92508282019050808211156120f1576120f0611f58565b5b9291505056fea26469706673582212205f4273565653589da56b32ce0ac50989d04b626f457f53f86a1848f55c7faac864736f6c634300081a0033",
					"opcodes": "PUSH1 0x80 PUSH1 0x40 MSTORE PUSH2 0x17C PUSH1 0x1 PUSH1 0x14 PUSH2 0x100 EXP DUP2 SLOAD DUP2 PUSH4 0xFFFFFFFF MUL NOT AND SWAP1 DUP4 PUSH4 0xFFFFFFFF AND MUL OR SWAP1 SSTORE POP CALLVALUE DUP1 ISZERO PUSH2 0x32 JUMPI PUSH0 DUP1 REVERT JUMPDEST POP PUSH1 0x40 MLOAD PUSH2 0x23C7 CODESIZE SUB DUP1 PUSH2 0x23C7 DUP4 CODECOPY DUP2 DUP2 ADD PUSH1 0x40 MSTORE DUP2 ADD SWAP1 PUSH2 0x54 SWAP2 SWAP1 PUSH2 0x23A JUMP JUMPDEST CALLER PUSH0 PUSH20 0xFFFFFFFFFFFFFFFFFFFFFFFFFFFFFFFFFFFFFFFF AND DUP2 PUSH20 0xFFFFFFFFFFFFFFFFFFFFFFFFFFFFFFFFFFFFFFFF AND SUB PUSH2 0xC5 JUMPI PUSH0 PUSH1 0x40 MLOAD PUSH32 0x1E4FBDF700000000000000000000000000000000000000000000000000000000 DUP2 MSTORE PUSH1 0x4 ADD PUSH2 0xBC SWAP2 SWAP1 PUSH2 0x274 JUMP JUMPDEST PUSH1 0x40 MLOAD DUP1 SWAP2 SUB SWAP1 REVERT JUMPDEST PUSH2 0xD4 DUP2 PUSH2 0x11B PUSH1 0x20 SHL PUSH1 0x20 SHR JUMP JUMPDEST POP DUP1 PUSH1 0x1 PUSH0 PUSH2 0x100 EXP DUP2 SLOAD DUP2 PUSH20 0xFFFFFFFFFFFFFFFFFFFFFFFFFFFFFFFFFFFFFFFF MUL NOT AND SWAP1 DUP4 PUSH20 0xFFFFFFFFFFFFFFFFFFFFFFFFFFFFFFFFFFFFFFFF AND MUL OR SWAP1 SSTORE POP POP PUSH2 0x28D JUMP JUMPDEST PUSH0 DUP1 PUSH0 SWAP1 SLOAD SWAP1 PUSH2 0x100 EXP SWAP1 DIV PUSH20 0xFFFFFFFFFFFFFFFFFFFFFFFFFFFFFFFFFFFFFFFF AND SWAP1 POP DUP2 PUSH0 DUP1 PUSH2 0x100 EXP DUP2 SLOAD DUP2 PUSH20 0xFFFFFFFFFFFFFFFFFFFFFFFFFFFFFFFFFFFFFFFF MUL NOT AND SWAP1 DUP4 PUSH20 0xFFFFFFFFFFFFFFFFFFFFFFFFFFFFFFFFFFFFFFFF AND MUL OR SWAP1 SSTORE POP DUP2 PUSH20 0xFFFFFFFFFFFFFFFFFFFFFFFFFFFFFFFFFFFFFFFF AND DUP2 PUSH20 0xFFFFFFFFFFFFFFFFFFFFFFFFFFFFFFFFFFFFFFFF AND PUSH32 0x8BE0079C531659141344CD1FD0A4F28419497F9722A3DAAFE3B4186F6B6457E0 PUSH1 0x40 MLOAD PUSH1 0x40 MLOAD DUP1 SWAP2 SUB SWAP1 LOG3 POP POP JUMP JUMPDEST PUSH0 DUP1 REVERT JUMPDEST PUSH0 PUSH20 0xFFFFFFFFFFFFFFFFFFFFFFFFFFFFFFFFFFFFFFFF DUP3 AND SWAP1 POP SWAP2 SWAP1 POP JUMP JUMPDEST PUSH0 PUSH2 0x209 DUP3 PUSH2 0x1E0 JUMP JUMPDEST SWAP1 POP SWAP2 SWAP1 POP JUMP JUMPDEST PUSH2 0x219 DUP2 PUSH2 0x1FF JUMP JUMPDEST DUP2 EQ PUSH2 0x223 JUMPI PUSH0 DUP1 REVERT JUMPDEST POP JUMP JUMPDEST PUSH0 DUP2 MLOAD SWAP1 POP PUSH2 0x234 DUP2 PUSH2 0x210 JUMP JUMPDEST SWAP3 SWAP2 POP POP JUMP JUMPDEST PUSH0 PUSH1 0x20 DUP3 DUP5 SUB SLT ISZERO PUSH2 0x24F JUMPI PUSH2 0x24E PUSH2 0x1DC JUMP JUMPDEST JUMPDEST PUSH0 PUSH2 0x25C DUP5 DUP3 DUP6 ADD PUSH2 0x226 JUMP JUMPDEST SWAP2 POP POP SWAP3 SWAP2 POP POP JUMP JUMPDEST PUSH2 0x26E DUP2 PUSH2 0x1FF JUMP JUMPDEST DUP3 MSTORE POP POP JUMP JUMPDEST PUSH0 PUSH1 0x20 DUP3 ADD SWAP1 POP PUSH2 0x287 PUSH0 DUP4 ADD DUP5 PUSH2 0x265 JUMP JUMPDEST SWAP3 SWAP2 POP POP JUMP JUMPDEST PUSH2 0x212D DUP1 PUSH2 0x29A PUSH0 CODECOPY PUSH0 RETURN INVALID PUSH1 0x80 PUSH1 0x40 MSTORE CALLVALUE DUP1 ISZERO PUSH2 0xF JUMPI PUSH0 DUP1 REVERT JUMPDEST POP PUSH1 0x4 CALLDATASIZE LT PUSH2 0xB2 JUMPI PUSH0 CALLDATALOAD PUSH1 0xE0 SHR DUP1 PUSH4 0x6EB10797 GT PUSH2 0x6F JUMPI DUP1 PUSH4 0x6EB10797 EQ PUSH2 0x18A JUMPI DUP1 PUSH4 0x715018A6 EQ PUSH2 0x1A8 JUMPI DUP1 PUSH4 0x8DA5CB5B EQ PUSH2 0x1B2 JUMPI DUP1 PUSH4 0xC3AD5ECB EQ PUSH2 0x1D0 JUMPI DUP1 PUSH4 0xE1549D85 EQ PUSH2 0x200 JUMPI DUP1 PUSH4 0xF2FDE38B EQ PUSH2 0x230 JUMPI PUSH2 0xB2 JUMP JUMPDEST DUP1 PUSH4 0x5A1B4A9 EQ PUSH2 0xB6 JUMPI DUP1 PUSH4 0xA7AA8A1 EQ PUSH2 0xEA JUMPI DUP1 PUSH4 0x12E7EE1C EQ PUSH2 0x106 JUMPI DUP1 PUSH4 0x3D9B569F EQ PUSH2 0x136 JUMPI DUP1 PUSH4 0x58BFA4AB EQ PUSH2 0x152 JUMPI DUP1 PUSH4 0x63378216 EQ PUSH2 0x16E JUMPI JUMPDEST PUSH0 DUP1 REVERT JUMPDEST PUSH2 0xD0 PUSH1 0x4 DUP1 CALLDATASIZE SUB DUP2 ADD SWAP1 PUSH2 0xCB SWAP2 SWAP1 PUSH2 0x1311 JUMP JUMPDEST PUSH2 0x24C JUMP JUMPDEST PUSH1 0x40 MLOAD PUSH2 0xE1 SWAP6 SWAP5 SWAP4 SWAP3 SWAP2 SWAP1 PUSH2 0x13DD JUMP JUMPDEST PUSH1 0x40 MLOAD DUP1 SWAP2 SUB SWAP1 RETURN JUMPDEST PUSH2 0x104 PUSH1 0x4 DUP1 CALLDATASIZE SUB DUP2 ADD SWAP1 PUSH2 0xFF SWAP2 SWAP1 PUSH2 0x1561 JUMP JUMPDEST PUSH2 0x33D JUMP JUMPDEST STOP JUMPDEST PUSH2 0x120 PUSH1 0x4 DUP1 CALLDATASIZE SUB DUP2 ADD SWAP1 PUSH2 0x11B SWAP2 SWAP1 PUSH2 0x15A8 JUMP JUMPDEST PUSH2 0x62D JUMP JUMPDEST PUSH1 0x40 MLOAD PUSH2 0x12D SWAP2 SWAP1 PUSH2 0x1767 JUMP JUMPDEST PUSH1 0x40 MLOAD DUP1 SWAP2 SUB SWAP1 RETURN JUMPDEST PUSH2 0x150 PUSH1 0x4 DUP1 CALLDATASIZE SUB DUP2 ADD SWAP1 PUSH2 0x14B SWAP2 SWAP1 PUSH2 0x1311 JUMP JUMPDEST PUSH2 0x7C8 JUMP JUMPDEST STOP JUMPDEST PUSH2 0x16C PUSH1 0x4 DUP1 CALLDATASIZE SUB DUP2 ADD SWAP1 PUSH2 0x167 SWAP2 SWAP1 PUSH2 0x17BE JUMP JUMPDEST PUSH2 0xAFF JUMP JUMPDEST STOP JUMPDEST PUSH2 0x188 PUSH1 0x4 DUP1 CALLDATASIZE SUB DUP2 ADD SWAP1 PUSH2 0x183 SWAP2 SWAP1 PUSH2 0x1311 JUMP JUMPDEST PUSH2 0xB2F JUMP JUMPDEST STOP JUMPDEST PUSH2 0x192 PUSH2 0xDC6 JUMP JUMPDEST PUSH1 0x40 MLOAD PUSH2 0x19F SWAP2 SWAP1 PUSH2 0x1807 JUMP JUMPDEST PUSH1 0x40 MLOAD DUP1 SWAP2 SUB SWAP1 RETURN JUMPDEST PUSH2 0x1B0 PUSH2 0xDDC JUMP JUMPDEST STOP JUMPDEST PUSH2 0x1BA PUSH2 0xDEF JUMP JUMPDEST PUSH1 0x40 MLOAD PUSH2 0x1C7 SWAP2 SWAP1 PUSH2 0x1820 JUMP JUMPDEST PUSH1 0x40 MLOAD DUP1 SWAP2 SUB SWAP1 RETURN JUMPDEST PUSH2 0x1EA PUSH1 0x4 DUP1 CALLDATASIZE SUB DUP2 ADD SWAP1 PUSH2 0x1E5 SWAP2 SWAP1 PUSH2 0x1839 JUMP JUMPDEST PUSH2 0xE16 JUMP JUMPDEST PUSH1 0x40 MLOAD PUSH2 0x1F7 SWAP2 SWAP1 PUSH2 0x18D7 JUMP JUMPDEST PUSH1 0x40 MLOAD DUP1 SWAP2 SUB SWAP1 RETURN JUMPDEST PUSH2 0x21A PUSH1 0x4 DUP1 CALLDATASIZE SUB DUP2 ADD SWAP1 PUSH2 0x215 SWAP2 SWAP1 PUSH2 0x15A8 JUMP JUMPDEST PUSH2 0xF8D JUMP JUMPDEST PUSH1 0x40 MLOAD PUSH2 0x227 SWAP2 SWAP1 PUSH2 0x18F7 JUMP JUMPDEST PUSH1 0x40 MLOAD DUP1 SWAP2 SUB SWAP1 RETURN JUMPDEST PUSH2 0x24A PUSH1 0x4 DUP1 CALLDATASIZE SUB DUP2 ADD SWAP1 PUSH2 0x245 SWAP2 SWAP1 PUSH2 0x15A8 JUMP JUMPDEST PUSH2 0x105F JUMP JUMPDEST STOP JUMPDEST PUSH1 0x2 PUSH1 0x20 MSTORE DUP2 PUSH0 MSTORE PUSH1 0x40 PUSH0 KECCAK256 DUP2 DUP2 SLOAD DUP2 LT PUSH2 0x265 JUMPI PUSH0 DUP1 REVERT JUMPDEST SWAP1 PUSH0 MSTORE PUSH1 0x20 PUSH0 KECCAK256 SWAP1 PUSH1 0x5 MUL ADD PUSH0 SWAP2 POP SWAP2 POP POP DUP1 PUSH0 ADD SLOAD SWAP1 DUP1 PUSH1 0x1 ADD PUSH0 SWAP1 SLOAD SWAP1 PUSH2 0x100 EXP SWAP1 DIV PUSH20 0xFFFFFFFFFFFFFFFFFFFFFFFFFFFFFFFFFFFFFFFF AND SWAP1 DUP1 PUSH1 0x2 ADD DUP1 SLOAD PUSH2 0x2B0 SWAP1 PUSH2 0x193D JUMP JUMPDEST DUP1 PUSH1 0x1F ADD PUSH1 0x20 DUP1 SWAP2 DIV MUL PUSH1 0x20 ADD PUSH1 0x40 MLOAD SWAP1 DUP2 ADD PUSH1 0x40 MSTORE DUP1 SWAP3 SWAP2 SWAP1 DUP2 DUP2 MSTORE PUSH1 0x20 ADD DUP3 DUP1 SLOAD PUSH2 0x2DC SWAP1 PUSH2 0x193D JUMP JUMPDEST DUP1 ISZERO PUSH2 0x327 JUMPI DUP1 PUSH1 0x1F LT PUSH2 0x2FE JUMPI PUSH2 0x100 DUP1 DUP4 SLOAD DIV MUL DUP4 MSTORE SWAP2 PUSH1 0x20 ADD SWAP2 PUSH2 0x327 JUMP JUMPDEST DUP3 ADD SWAP2 SWAP1 PUSH0 MSTORE PUSH1 0x20 PUSH0 KECCAK256 SWAP1 JUMPDEST DUP2 SLOAD DUP2 MSTORE SWAP1 PUSH1 0x1 ADD SWAP1 PUSH1 0x20 ADD DUP1 DUP4 GT PUSH2 0x30A JUMPI DUP3 SWAP1 SUB PUSH1 0x1F AND DUP3 ADD SWAP2 JUMPDEST POP POP POP POP POP SWAP1 DUP1 PUSH1 0x3 ADD SLOAD SWAP1 DUP1 PUSH1 0x4 ADD SLOAD SWAP1 POP DUP6 JUMP JUMPDEST PUSH0 PUSH1 0x1 PUSH0 SWAP1 SLOAD SWAP1 PUSH2 0x100 EXP SWAP1 DIV PUSH20 0xFFFFFFFFFFFFFFFFFFFFFFFFFFFFFFFFFFFFFFFF AND PUSH20 0xFFFFFFFFFFFFFFFFFFFFFFFFFFFFFFFFFFFFFFFF AND PUSH4 0xF53A470 CALLER PUSH1 0x40 MLOAD DUP3 PUSH4 0xFFFFFFFF AND PUSH1 0xE0 SHL DUP2 MSTORE PUSH1 0x4 ADD PUSH2 0x398 SWAP2 SWAP1 PUSH2 0x1820 JUMP JUMPDEST PUSH0 PUSH1 0x40 MLOAD DUP1 DUP4 SUB DUP2 DUP7 GAS STATICCALL ISZERO DUP1 ISZERO PUSH2 0x3B2 JUMPI RETURNDATASIZE PUSH0 DUP1 RETURNDATACOPY RETURNDATASIZE PUSH0 REVERT JUMPDEST POP POP POP POP PUSH1 0x40 MLOAD RETURNDATASIZE PUSH0 DUP3 RETURNDATACOPY RETURNDATASIZE PUSH1 0x1F NOT PUSH1 0x1F DUP3 ADD AND DUP3 ADD DUP1 PUSH1 0x40 MSTORE POP DUP2 ADD SWAP1 PUSH2 0x3DA SWAP2 SWAP1 PUSH2 0x1A68 JUMP JUMPDEST SWAP1 POP PUSH0 DUP2 PUSH0 ADD MLOAD MLOAD GT PUSH2 0x422 JUMPI PUSH1 0x40 MLOAD PUSH32 0x8C379A000000000000000000000000000000000000000000000000000000000 DUP2 MSTORE PUSH1 0x4 ADD PUSH2 0x419 SWAP1 PUSH2 0x1AF9 JUMP JUMPDEST PUSH1 0x40 MLOAD DUP1 SWAP2 SUB SWAP1 REVERT JUMPDEST PUSH1 0x1 PUSH1 0x14 SWAP1 SLOAD SWAP1 PUSH2 0x100 EXP SWAP1 DIV PUSH4 0xFFFFFFFF AND PUSH4 0xFFFFFFFF AND DUP3 MLOAD GT ISZERO PUSH2 0x47E JUMPI PUSH1 0x40 MLOAD PUSH32 0x8C379A000000000000000000000000000000000000000000000000000000000 DUP2 MSTORE PUSH1 0x4 ADD PUSH2 0x475 SWAP1 PUSH2 0x1B61 JUMP JUMPDEST PUSH1 0x40 MLOAD DUP1 SWAP2 SUB SWAP1 REVERT JUMPDEST PUSH0 PUSH1 0x40 MLOAD DUP1 PUSH1 0xA0 ADD PUSH1 0x40 MSTORE DUP1 PUSH1 0x2 PUSH0 CALLER PUSH20 0xFFFFFFFFFFFFFFFFFFFFFFFFFFFFFFFFFFFFFFFF AND PUSH20 0xFFFFFFFFFFFFFFFFFFFFFFFFFFFFFFFFFFFFFFFF AND DUP2 MSTORE PUSH1 0x20 ADD SWAP1 DUP2 MSTORE PUSH1 0x20 ADD PUSH0 KECCAK256 DUP1 SLOAD SWAP1 POP DUP2 MSTORE PUSH1 0x20 ADD CALLER PUSH20 0xFFFFFFFFFFFFFFFFFFFFFFFFFFFFFFFFFFFFFFFF AND DUP2 MSTORE PUSH1 0x20 ADD DUP5 DUP2 MSTORE PUSH1 0x20 ADD TIMESTAMP DUP2 MSTORE PUSH1 0x20 ADD PUSH0 DUP2 MSTORE POP SWAP1 POP PUSH1 0x2 PUSH0 CALLER PUSH20 0xFFFFFFFFFFFFFFFFFFFFFFFFFFFFFFFFFFFFFFFF AND PUSH20 0xFFFFFFFFFFFFFFFFFFFFFFFFFFFFFFFFFFFFFFFF AND DUP2 MSTORE PUSH1 0x20 ADD SWAP1 DUP2 MSTORE PUSH1 0x20 ADD PUSH0 KECCAK256 DUP2 SWAP1 DUP1 PUSH1 0x1 DUP2 SLOAD ADD DUP1 DUP3 SSTORE DUP1 SWAP2 POP POP PUSH1 0x1 SWAP1 SUB SWAP1 PUSH0 MSTORE PUSH1 0x20 PUSH0 KECCAK256 SWAP1 PUSH1 0x5 MUL ADD PUSH0 SWAP1 SWAP2 SWAP1 SWAP2 SWAP1 SWAP2 POP PUSH0 DUP3 ADD MLOAD DUP2 PUSH0 ADD SSTORE PUSH1 0x20 DUP3 ADD MLOAD DUP2 PUSH1 0x1 ADD PUSH0 PUSH2 0x100 EXP DUP2 SLOAD DUP2 PUSH20 0xFFFFFFFFFFFFFFFFFFFFFFFFFFFFFFFFFFFFFFFF MUL NOT AND SWAP1 DUP4 PUSH20 0xFFFFFFFFFFFFFFFFFFFFFFFFFFFFFFFFFFFFFFFF AND MUL OR SWAP1 SSTORE POP PUSH1 0x40 DUP3 ADD MLOAD DUP2 PUSH1 0x2 ADD SWAP1 DUP2 PUSH2 0x5C5 SWAP2 SWAP1 PUSH2 0x1D1C JUMP JUMPDEST POP PUSH1 0x60 DUP3 ADD MLOAD DUP2 PUSH1 0x3 ADD SSTORE PUSH1 0x80 DUP3 ADD MLOAD DUP2 PUSH1 0x4 ADD SSTORE POP POP PUSH32 0x16FD3C13E9D46923E0A8BCE11C7B473EC508A72E6C96CD2404B29CE972AFC29E DUP2 PUSH0 ADD MLOAD DUP3 PUSH1 0x20 ADD MLOAD DUP4 PUSH1 0x40 ADD MLOAD DUP5 PUSH1 0x60 ADD MLOAD PUSH1 0x40 MLOAD PUSH2 0x620 SWAP5 SWAP4 SWAP3 SWAP2 SWAP1 PUSH2 0x1DEB JUMP JUMPDEST PUSH1 0x40 MLOAD DUP1 SWAP2 SUB SWAP1 LOG1 POP POP POP JUMP JUMPDEST PUSH1 0x60 PUSH1 0x2 PUSH0 DUP4 PUSH20 0xFFFFFFFFFFFFFFFFFFFFFFFFFFFFFFFFFFFFFFFF AND PUSH20 0xFFFFFFFFFFFFFFFFFFFFFFFFFFFFFFFFFFFFFFFF AND DUP2 MSTORE PUSH1 0x20 ADD SWAP1 DUP2 MSTORE PUSH1 0x20 ADD PUSH0 KECCAK256 DUP1 SLOAD DUP1 PUSH1 0x20 MUL PUSH1 0x20 ADD PUSH1 0x40 MLOAD SWAP1 DUP2 ADD PUSH1 0x40 MSTORE DUP1 SWAP3 SWAP2 SWAP1 DUP2 DUP2 MSTORE PUSH1 0x20 ADD PUSH0 SWAP1 JUMPDEST DUP3 DUP3 LT ISZERO PUSH2 0x7BD JUMPI DUP4 DUP3 SWAP1 PUSH0 MSTORE PUSH1 0x20 PUSH0 KECCAK256 SWAP1 PUSH1 0x5 MUL ADD PUSH1 0x40 MLOAD DUP1 PUSH1 0xA0 ADD PUSH1 0x40 MSTORE SWAP1 DUP2 PUSH0 DUP3 ADD SLOAD DUP2 MSTORE PUSH1 0x20 ADD PUSH1 0x1 DUP3 ADD PUSH0 SWAP1 SLOAD SWAP1 PUSH2 0x100 EXP SWAP1 DIV PUSH20 0xFFFFFFFFFFFFFFFFFFFFFFFFFFFFFFFFFFFFFFFF AND PUSH20 0xFFFFFFFFFFFFFFFFFFFFFFFFFFFFFFFFFFFFFFFF AND PUSH20 0xFFFFFFFFFFFFFFFFFFFFFFFFFFFFFFFFFFFFFFFF AND DUP2 MSTORE PUSH1 0x20 ADD PUSH1 0x2 DUP3 ADD DUP1 SLOAD PUSH2 0x71A SWAP1 PUSH2 0x193D JUMP JUMPDEST DUP1 PUSH1 0x1F ADD PUSH1 0x20 DUP1 SWAP2 DIV MUL PUSH1 0x20 ADD PUSH1 0x40 MLOAD SWAP1 DUP2 ADD PUSH1 0x40 MSTORE DUP1 SWAP3 SWAP2 SWAP1 DUP2 DUP2 MSTORE PUSH1 0x20 ADD DUP3 DUP1 SLOAD PUSH2 0x746 SWAP1 PUSH2 0x193D JUMP JUMPDEST DUP1 ISZERO PUSH2 0x791 JUMPI DUP1 PUSH1 0x1F LT PUSH2 0x768 JUMPI PUSH2 0x100 DUP1 DUP4 SLOAD DIV MUL DUP4 MSTORE SWAP2 PUSH1 0x20 ADD SWAP2 PUSH2 0x791 JUMP JUMPDEST DUP3 ADD SWAP2 SWAP1 PUSH0 MSTORE PUSH1 0x20 PUSH0 KECCAK256 SWAP1 JUMPDEST DUP2 SLOAD DUP2 MSTORE SWAP1 PUSH1 0x1 ADD SWAP1 PUSH1 0x20 ADD DUP1 DUP4 GT PUSH2 0x774 JUMPI DUP3 SWAP1 SUB PUSH1 0x1F AND DUP3 ADD SWAP2 JUMPDEST POP POP POP POP POP DUP2 MSTORE PUSH1 0x20 ADD PUSH1 0x3 DUP3 ADD SLOAD DUP2 MSTORE PUSH1 0x20 ADD PUSH1 0x4 DUP3 ADD SLOAD DUP2 MSTORE POP POP DUP2 MSTORE PUSH1 0x20 ADD SWAP1 PUSH1 0x1 ADD SWAP1 PUSH2 0x68B JUMP JUMPDEST POP POP POP POP SWAP1 POP SWAP2 SWAP1 POP JUMP JUMPDEST PUSH0 PUSH1 0x1 PUSH0 SWAP1 SLOAD SWAP1 PUSH2 0x100 EXP SWAP1 DIV PUSH20 0xFFFFFFFFFFFFFFFFFFFFFFFFFFFFFFFFFFFFFFFF AND PUSH20 0xFFFFFFFFFFFFFFFFFFFFFFFFFFFFFFFFFFFFFFFF AND PUSH4 0xF53A470 CALLER PUSH1 0x40 MLOAD DUP3 PUSH4 0xFFFFFFFF AND PUSH1 0xE0 SHL DUP2 MSTORE PUSH1 0x4 ADD PUSH2 0x823 SWAP2 SWAP1 PUSH2 0x1820 JUMP JUMPDEST PUSH0 PUSH1 0x40 MLOAD DUP1 DUP4 SUB DUP2 DUP7 GAS STATICCALL ISZERO DUP1 ISZERO PUSH2 0x83D JUMPI RETURNDATASIZE PUSH0 DUP1 RETURNDATACOPY RETURNDATASIZE PUSH0 REVERT JUMPDEST POP POP POP POP PUSH1 0x40 MLOAD RETURNDATASIZE PUSH0 DUP3 RETURNDATACOPY RETURNDATASIZE PUSH1 0x1F NOT PUSH1 0x1F DUP3 ADD AND DUP3 ADD DUP1 PUSH1 0x40 MSTORE POP DUP2 ADD SWAP1 PUSH2 0x865 SWAP2 SWAP1 PUSH2 0x1A68 JUMP JUMPDEST SWAP1 POP PUSH0 DUP2 PUSH0 ADD MLOAD MLOAD GT PUSH2 0x8AD JUMPI PUSH1 0x40 MLOAD PUSH32 0x8C379A000000000000000000000000000000000000000000000000000000000 DUP2 MSTORE PUSH1 0x4 ADD PUSH2 0x8A4 SWAP1 PUSH2 0x1AF9 JUMP JUMPDEST PUSH1 0x40 MLOAD DUP1 SWAP2 SUB SWAP1 REVERT JUMPDEST DUP2 PUSH1 0x2 PUSH0 DUP6 PUSH20 0xFFFFFFFFFFFFFFFFFFFFFFFFFFFFFFFFFFFFFFFF AND PUSH20 0xFFFFFFFFFFFFFFFFFFFFFFFFFFFFFFFFFFFFFFFF AND DUP2 MSTORE PUSH1 0x20 ADD SWAP1 DUP2 MSTORE PUSH1 0x20 ADD PUSH0 KECCAK256 DUP4 DUP2 SLOAD DUP2 LT PUSH2 0x8FD JUMPI PUSH2 0x8FC PUSH2 0x1E35 JUMP JUMPDEST JUMPDEST SWAP1 PUSH0 MSTORE PUSH1 0x20 PUSH0 KECCAK256 SWAP1 PUSH1 0x5 MUL ADD PUSH0 ADD SLOAD EQ PUSH2 0x94C JUMPI PUSH1 0x40 MLOAD PUSH32 0x8C379A000000000000000000000000000000000000000000000000000000000 DUP2 MSTORE PUSH1 0x4 ADD PUSH2 0x943 SWAP1 PUSH2 0x1ED2 JUMP JUMPDEST PUSH1 0x40 MLOAD DUP1 SWAP2 SUB SWAP1 REVERT JUMPDEST PUSH0 PUSH1 0x2 PUSH0 DUP6 PUSH20 0xFFFFFFFFFFFFFFFFFFFFFFFFFFFFFFFFFFFFFFFF AND PUSH20 0xFFFFFFFFFFFFFFFFFFFFFFFFFFFFFFFFFFFFFFFF AND DUP2 MSTORE PUSH1 0x20 ADD SWAP1 DUP2 MSTORE PUSH1 0x20 ADD PUSH0 KECCAK256 DUP4 DUP2 SLOAD DUP2 LT PUSH2 0x99C JUMPI PUSH2 0x99B PUSH2 0x1E35 JUMP JUMPDEST JUMPDEST SWAP1 PUSH0 MSTORE PUSH1 0x20 PUSH0 KECCAK256 SWAP1 PUSH1 0x5 MUL ADD PUSH1 0x4 ADD SLOAD GT PUSH2 0x9EC JUMPI PUSH1 0x40 MLOAD PUSH32 0x8C379A000000000000000000000000000000000000000000000000000000000 DUP2 MSTORE PUSH1 0x4 ADD PUSH2 0x9E3 SWAP1 PUSH2 0x1F3A JUMP JUMPDEST PUSH1 0x40 MLOAD DUP1 SWAP2 SUB SWAP1 REVERT JUMPDEST PUSH1 0x2 PUSH0 DUP5 PUSH20 0xFFFFFFFFFFFFFFFFFFFFFFFFFFFFFFFFFFFFFFFF AND PUSH20 0xFFFFFFFFFFFFFFFFFFFFFFFFFFFFFFFFFFFFFFFF AND DUP2 MSTORE PUSH1 0x20 ADD SWAP1 DUP2 MSTORE PUSH1 0x20 ADD PUSH0 KECCAK256 DUP3 DUP2 SLOAD DUP2 LT PUSH2 0xA3B JUMPI PUSH2 0xA3A PUSH2 0x1E35 JUMP JUMPDEST JUMPDEST SWAP1 PUSH0 MSTORE PUSH1 0x20 PUSH0 KECCAK256 SWAP1 PUSH1 0x5 MUL ADD PUSH1 0x4 ADD PUSH0 DUP2 SLOAD DUP1 SWAP3 SWAP2 SWAP1 PUSH2 0xA5A SWAP1 PUSH2 0x1F85 JUMP JUMPDEST SWAP2 SWAP1 POP SSTORE POP PUSH32 0x762C2616349603AC16EBA0DE8E6141B79129A07AB63BD99E0A80B3A471716943 CALLER DUP5 DUP5 PUSH1 0x2 PUSH0 DUP9 PUSH20 0xFFFFFFFFFFFFFFFFFFFFFFFFFFFFFFFFFFFFFFFF AND PUSH20 0xFFFFFFFFFFFFFFFFFFFFFFFFFFFFFFFFFFFFFFFF AND DUP2 MSTORE PUSH1 0x20 ADD SWAP1 DUP2 MSTORE PUSH1 0x20 ADD PUSH0 KECCAK256 DUP7 DUP2 SLOAD DUP2 LT PUSH2 0xAD2 JUMPI PUSH2 0xAD1 PUSH2 0x1E35 JUMP JUMPDEST JUMPDEST SWAP1 PUSH0 MSTORE PUSH1 0x20 PUSH0 KECCAK256 SWAP1 PUSH1 0x5 MUL ADD PUSH1 0x4 ADD SLOAD PUSH1 0x40 MLOAD PUSH2 0xAF2 SWAP5 SWAP4 SWAP3 SWAP2 SWAP1 PUSH2 0x1FAC JUMP JUMPDEST PUSH1 0x40 MLOAD DUP1 SWAP2 SUB SWAP1 LOG1 POP POP POP JUMP JUMPDEST PUSH2 0xB07 PUSH2 0x10E3 JUMP JUMPDEST DUP1 PUSH2 0xFFFF AND PUSH1 0x1 PUSH1 0x14 PUSH2 0x100 EXP DUP2 SLOAD DUP2 PUSH4 0xFFFFFFFF MUL NOT AND SWAP1 DUP4 PUSH4 0xFFFFFFFF AND MUL OR SWAP1 SSTORE POP POP JUMP JUMPDEST PUSH0 PUSH1 0x1 PUSH0 SWAP1 SLOAD SWAP1 PUSH2 0x100 EXP SWAP1 DIV PUSH20 0xFFFFFFFFFFFFFFFFFFFFFFFFFFFFFFFFFFFFFFFF AND PUSH20 0xFFFFFFFFFFFFFFFFFFFFFFFFFFFFFFFFFFFFFFFF AND PUSH4 0xF53A470 CALLER PUSH1 0x40 MLOAD DUP3 PUSH4 0xFFFFFFFF AND PUSH1 0xE0 SHL DUP2 MSTORE PUSH1 0x4 ADD PUSH2 0xB8A SWAP2 SWAP1 PUSH2 0x1820 JUMP JUMPDEST PUSH0 PUSH1 0x40 MLOAD DUP1 DUP4 SUB DUP2 DUP7 GAS STATICCALL ISZERO DUP1 ISZERO PUSH2 0xBA4 JUMPI RETURNDATASIZE PUSH0 DUP1 RETURNDATACOPY RETURNDATASIZE PUSH0 REVERT JUMPDEST POP POP POP POP PUSH1 0x40 MLOAD RETURNDATASIZE PUSH0 DUP3 RETURNDATACOPY RETURNDATASIZE PUSH1 0x1F NOT PUSH1 0x1F DUP3 ADD AND DUP3 ADD DUP1 PUSH1 0x40 MSTORE POP DUP2 ADD SWAP1 PUSH2 0xBCC SWAP2 SWAP1 PUSH2 0x1A68 JUMP JUMPDEST SWAP1 POP PUSH0 DUP2 PUSH0 ADD MLOAD MLOAD GT PUSH2 0xC14 JUMPI PUSH1 0x40 MLOAD PUSH32 0x8C379A000000000000000000000000000000000000000000000000000000000 DUP2 MSTORE PUSH1 0x4 ADD PUSH2 0xC0B SWAP1 PUSH2 0x1AF9 JUMP JUMPDEST PUSH1 0x40 MLOAD DUP1 SWAP2 SUB SWAP1 REVERT JUMPDEST DUP2 PUSH1 0x2 PUSH0 DUP6 PUSH20 0xFFFFFFFFFFFFFFFFFFFFFFFFFFFFFFFFFFFFFFFF AND PUSH20 0xFFFFFFFFFFFFFFFFFFFFFFFFFFFFFFFFFFFFFFFF AND DUP2 MSTORE PUSH1 0x20 ADD SWAP1 DUP2 MSTORE PUSH1 0x20 ADD PUSH0 KECCAK256 DUP4 DUP2 SLOAD DUP2 LT PUSH2 0xC64 JUMPI PUSH2 0xC63 PUSH2 0x1E35 JUMP JUMPDEST JUMPDEST SWAP1 PUSH0 MSTORE PUSH1 0x20 PUSH0 KECCAK256 SWAP1 PUSH1 0x5 MUL ADD PUSH0 ADD SLOAD EQ PUSH2 0xCB3 JUMPI PUSH1 0x40 MLOAD PUSH32 0x8C379A000000000000000000000000000000000000000000000000000000000 DUP2 MSTORE PUSH1 0x4 ADD PUSH2 0xCAA SWAP1 PUSH2 0x205F JUMP JUMPDEST PUSH1 0x40 MLOAD DUP1 SWAP2 SUB SWAP1 REVERT JUMPDEST PUSH1 0x2 PUSH0 DUP5 PUSH20 0xFFFFFFFFFFFFFFFFFFFFFFFFFFFFFFFFFFFFFFFF AND PUSH20 0xFFFFFFFFFFFFFFFFFFFFFFFFFFFFFFFFFFFFFFFF AND DUP2 MSTORE PUSH1 0x20 ADD SWAP1 DUP2 MSTORE PUSH1 0x20 ADD PUSH0 KECCAK256 DUP3 DUP2 SLOAD DUP2 LT PUSH2 0xD02 JUMPI PUSH2 0xD01 PUSH2 0x1E35 JUMP JUMPDEST JUMPDEST SWAP1 PUSH0 MSTORE PUSH1 0x20 PUSH0 KECCAK256 SWAP1 PUSH1 0x5 MUL ADD PUSH1 0x4 ADD PUSH0 DUP2 SLOAD DUP1 SWAP3 SWAP2 SWAP1 PUSH2 0xD21 SWAP1 PUSH2 0x207D JUMP JUMPDEST SWAP2 SWAP1 POP SSTORE POP PUSH32 0xE8A76FC0F16D11A00D1E93B689B63D76CF60AF914DD3D915375DC41D01A0C3C8 CALLER DUP5 DUP5 PUSH1 0x2 PUSH0 DUP9 PUSH20 0xFFFFFFFFFFFFFFFFFFFFFFFFFFFFFFFFFFFFFFFF AND PUSH20 0xFFFFFFFFFFFFFFFFFFFFFFFFFFFFFFFFFFFFFFFF AND DUP2 MSTORE PUSH1 0x20 ADD SWAP1 DUP2 MSTORE PUSH1 0x20 ADD PUSH0 KECCAK256 DUP7 DUP2 SLOAD DUP2 LT PUSH2 0xD99 JUMPI PUSH2 0xD98 PUSH2 0x1E35 JUMP JUMPDEST JUMPDEST SWAP1 PUSH0 MSTORE PUSH1 0x20 PUSH0 KECCAK256 SWAP1 PUSH1 0x5 MUL ADD PUSH1 0x4 ADD SLOAD PUSH1 0x40 MLOAD PUSH2 0xDB9 SWAP5 SWAP4 SWAP3 SWAP2 SWAP1 PUSH2 0x1FAC JUMP JUMPDEST PUSH1 0x40 MLOAD DUP1 SWAP2 SUB SWAP1 LOG1 POP POP POP JUMP JUMPDEST PUSH1 0x1 PUSH1 0x14 SWAP1 SLOAD SWAP1 PUSH2 0x100 EXP SWAP1 DIV PUSH4 0xFFFFFFFF AND DUP2 JUMP JUMPDEST PUSH2 0xDE4 PUSH2 0x10E3 JUMP JUMPDEST PUSH2 0xDED PUSH0 PUSH2 0x116A JUMP JUMPDEST JUMP JUMPDEST PUSH0 DUP1 PUSH0 SWAP1 SLOAD SWAP1 PUSH2 0x100 EXP SWAP1 DIV PUSH20 0xFFFFFFFFFFFFFFFFFFFFFFFFFFFFFFFFFFFFFFFF AND SWAP1 POP SWAP1 JUMP JUMPDEST PUSH2 0xE1E PUSH2 0x1232 JUMP JUMPDEST PUSH1 0x2 PUSH0 CALLER PUSH20 0xFFFFFFFFFFFFFFFFFFFFFFFFFFFFFFFFFFFFFFFF AND PUSH20 0xFFFFFFFFFFFFFFFFFFFFFFFFFFFFFFFFFFFFFFFF AND DUP2 MSTORE PUSH1 0x20 ADD SWAP1 DUP2 MSTORE PUSH1 0x20 ADD PUSH0 KECCAK256 DUP3 DUP2 SLOAD DUP2 LT PUSH2 0xE6D JUMPI PUSH2 0xE6C PUSH2 0x1E35 JUMP JUMPDEST JUMPDEST SWAP1 PUSH0 MSTORE PUSH1 0x20 PUSH0 KECCAK256 SWAP1 PUSH1 0x5 MUL ADD PUSH1 0x40 MLOAD DUP1 PUSH1 0xA0 ADD PUSH1 0x40 MSTORE SWAP1 DUP2 PUSH0 DUP3 ADD SLOAD DUP2 MSTORE PUSH1 0x20 ADD PUSH1 0x1 DUP3 ADD PUSH0 SWAP1 SLOAD SWAP1 PUSH2 0x100 EXP SWAP1 DIV PUSH20 0xFFFFFFFFFFFFFFFFFFFFFFFFFFFFFFFFFFFFFFFF AND PUSH20 0xFFFFFFFFFFFFFFFFFFFFFFFFFFFFFFFFFFFFFFFF AND PUSH20 0xFFFFFFFFFFFFFFFFFFFFFFFFFFFFFFFFFFFFFFFF AND DUP2 MSTORE PUSH1 0x20 ADD PUSH1 0x2 DUP3 ADD DUP1 SLOAD PUSH2 0xEF2 SWAP1 PUSH2 0x193D JUMP JUMPDEST DUP1 PUSH1 0x1F ADD PUSH1 0x20 DUP1 SWAP2 DIV MUL PUSH1 0x20 ADD PUSH1 0x40 MLOAD SWAP1 DUP2 ADD PUSH1 0x40 MSTORE DUP1 SWAP3 SWAP2 SWAP1 DUP2 DUP2 MSTORE PUSH1 0x20 ADD DUP3 DUP1 SLOAD PUSH2 0xF1E SWAP1 PUSH2 0x193D JUMP JUMPDEST DUP1 ISZERO PUSH2 0xF69 JUMPI DUP1 PUSH1 0x1F LT PUSH2 0xF40 JUMPI PUSH2 0x100 DUP1 DUP4 SLOAD DIV MUL DUP4 MSTORE SWAP2 PUSH1 0x20 ADD SWAP2 PUSH2 0xF69 JUMP JUMPDEST DUP3 ADD SWAP2 SWAP1 PUSH0 MSTORE PUSH1 0x20 PUSH0 KECCAK256 SWAP1 JUMPDEST DUP2 SLOAD DUP2 MSTORE SWAP1 PUSH1 0x1 ADD SWAP1 PUSH1 0x20 ADD DUP1 DUP4 GT PUSH2 0xF4C JUMPI DUP3 SWAP1 SUB PUSH1 0x1F AND DUP3 ADD SWAP2 JUMPDEST POP POP POP POP POP DUP2 MSTORE PUSH1 0x20 ADD PUSH1 0x3 DUP3 ADD SLOAD DUP2 MSTORE PUSH1 0x20 ADD PUSH1 0x4 DUP3 ADD SLOAD DUP2 MSTORE POP POP SWAP1 POP SWAP2 SWAP1 POP JUMP JUMPDEST PUSH0 DUP1 PUSH0 SWAP1 POP PUSH0 JUMPDEST PUSH1 0x2 PUSH0 DUP6 PUSH20 0xFFFFFFFFFFFFFFFFFFFFFFFFFFFFFFFFFFFFFFFF AND PUSH20 0xFFFFFFFFFFFFFFFFFFFFFFFFFFFFFFFFFFFFFFFF AND DUP2 MSTORE PUSH1 0x20 ADD SWAP1 DUP2 MSTORE PUSH1 0x20 ADD PUSH0 KECCAK256 DUP1 SLOAD SWAP1 POP DUP2 LT ISZERO PUSH2 0x1055 JUMPI PUSH1 0x2 PUSH0 DUP6 PUSH20 0xFFFFFFFFFFFFFFFFFFFFFFFFFFFFFFFFFFFFFFFF AND PUSH20 0xFFFFFFFFFFFFFFFFFFFFFFFFFFFFFFFFFFFFFFFF AND DUP2 MSTORE PUSH1 0x20 ADD SWAP1 DUP2 MSTORE PUSH1 0x20 ADD PUSH0 KECCAK256 DUP2 DUP2 SLOAD DUP2 LT PUSH2 0x102B JUMPI PUSH2 0x102A PUSH2 0x1E35 JUMP JUMPDEST JUMPDEST SWAP1 PUSH0 MSTORE PUSH1 0x20 PUSH0 KECCAK256 SWAP1 PUSH1 0x5 MUL ADD PUSH1 0x4 ADD SLOAD DUP3 PUSH2 0x1046 SWAP2 SWAP1 PUSH2 0x20C4 JUMP JUMPDEST SWAP2 POP DUP1 DUP1 PUSH1 0x1 ADD SWAP2 POP POP PUSH2 0xF94 JUMP JUMPDEST POP DUP1 SWAP2 POP POP SWAP2 SWAP1 POP JUMP JUMPDEST PUSH2 0x1067 PUSH2 0x10E3 JUMP JUMPDEST PUSH0 PUSH20 0xFFFFFFFFFFFFFFFFFFFFFFFFFFFFFFFFFFFFFFFF AND DUP2 PUSH20 0xFFFFFFFFFFFFFFFFFFFFFFFFFFFFFFFFFFFFFFFF AND SUB PUSH2 0x10D7 JUMPI PUSH0 PUSH1 0x40 MLOAD PUSH32 0x1E4FBDF700000000000000000000000000000000000000000000000000000000 DUP2 MSTORE PUSH1 0x4 ADD PUSH2 0x10CE SWAP2 SWAP1 PUSH2 0x1820 JUMP JUMPDEST PUSH1 0x40 MLOAD DUP1 SWAP2 SUB SWAP1 REVERT JUMPDEST PUSH2 0x10E0 DUP2 PUSH2 0x116A JUMP JUMPDEST POP JUMP JUMPDEST PUSH2 0x10EB PUSH2 0x122B JUMP JUMPDEST PUSH20 0xFFFFFFFFFFFFFFFFFFFFFFFFFFFFFFFFFFFFFFFF AND PUSH2 0x1109 PUSH2 0xDEF JUMP JUMPDEST PUSH20 0xFFFFFFFFFFFFFFFFFFFFFFFFFFFFFFFFFFFFFFFF AND EQ PUSH2 0x1168 JUMPI PUSH2 0x112C PUSH2 0x122B JUMP JUMPDEST PUSH1 0x40 MLOAD PUSH32 0x118CDAA700000000000000000000000000000000000000000000000000000000 DUP2 MSTORE PUSH1 0x4 ADD PUSH2 0x115F SWAP2 SWAP1 PUSH2 0x1820 JUMP JUMPDEST PUSH1 0x40 MLOAD DUP1 SWAP2 SUB SWAP1 REVERT JUMPDEST JUMP JUMPDEST PUSH0 DUP1 PUSH0 SWAP1 SLOAD SWAP1 PUSH2 0x100 EXP SWAP1 DIV PUSH20 0xFFFFFFFFFFFFFFFFFFFFFFFFFFFFFFFFFFFFFFFF AND SWAP1 POP DUP2 PUSH0 DUP1 PUSH2 0x100 EXP DUP2 SLOAD DUP2 PUSH20 0xFFFFFFFFFFFFFFFFFFFFFFFFFFFFFFFFFFFFFFFF MUL NOT AND SWAP1 DUP4 PUSH20 0xFFFFFFFFFFFFFFFFFFFFFFFFFFFFFFFFFFFFFFFF AND MUL OR SWAP1 SSTORE POP DUP2 PUSH20 0xFFFFFFFFFFFFFFFFFFFFFFFFFFFFFFFFFFFFFFFF AND DUP2 PUSH20 0xFFFFFFFFFFFFFFFFFFFFFFFFFFFFFFFFFFFFFFFF AND PUSH32 0x8BE0079C531659141344CD1FD0A4F28419497F9722A3DAAFE3B4186F6B6457E0 PUSH1 0x40 MLOAD PUSH1 0x40 MLOAD DUP1 SWAP2 SUB SWAP1 LOG3 POP POP JUMP JUMPDEST PUSH0 CALLER SWAP1 POP SWAP1 JUMP JUMPDEST PUSH1 0x40 MLOAD DUP1 PUSH1 0xA0 ADD PUSH1 0x40 MSTORE DUP1 PUSH0 DUP2 MSTORE PUSH1 0x20 ADD PUSH0 PUSH20 0xFFFFFFFFFFFFFFFFFFFFFFFFFFFFFFFFFFFFFFFF AND DUP2 MSTORE PUSH1 0x20 ADD PUSH1 0x60 DUP2 MSTORE PUSH1 0x20 ADD PUSH0 DUP2 MSTORE PUSH1 0x20 ADD PUSH0 DUP2 MSTORE POP SWAP1 JUMP JUMPDEST PUSH0 PUSH1 0x40 MLOAD SWAP1 POP SWAP1 JUMP JUMPDEST PUSH0 DUP1 REVERT JUMPDEST PUSH0 DUP1 REVERT JUMPDEST PUSH0 PUSH20 0xFFFFFFFFFFFFFFFFFFFFFFFFFFFFFFFFFFFFFFFF DUP3 AND SWAP1 POP SWAP2 SWAP1 POP JUMP JUMPDEST PUSH0 PUSH2 0x12AD DUP3 PUSH2 0x1284 JUMP JUMPDEST SWAP1 POP SWAP2 SWAP1 POP JUMP JUMPDEST PUSH2 0x12BD DUP2 PUSH2 0x12A3 JUMP JUMPDEST DUP2 EQ PUSH2 0x12C7 JUMPI PUSH0 DUP1 REVERT JUMPDEST POP JUMP JUMPDEST PUSH0 DUP2 CALLDATALOAD SWAP1 POP PUSH2 0x12D8 DUP2 PUSH2 0x12B4 JUMP JUMPDEST SWAP3 SWAP2 POP POP JUMP JUMPDEST PUSH0 DUP2 SWAP1 POP SWAP2 SWAP1 POP JUMP JUMPDEST PUSH2 0x12F0 DUP2 PUSH2 0x12DE JUMP JUMPDEST DUP2 EQ PUSH2 0x12FA JUMPI PUSH0 DUP1 REVERT JUMPDEST POP JUMP JUMPDEST PUSH0 DUP2 CALLDATALOAD SWAP1 POP PUSH2 0x130B DUP2 PUSH2 0x12E7 JUMP JUMPDEST SWAP3 SWAP2 POP POP JUMP JUMPDEST PUSH0 DUP1 PUSH1 0x40 DUP4 DUP6 SUB SLT ISZERO PUSH2 0x1327 JUMPI PUSH2 0x1326 PUSH2 0x127C JUMP JUMPDEST JUMPDEST PUSH0 PUSH2 0x1334 DUP6 DUP3 DUP7 ADD PUSH2 0x12CA JUMP JUMPDEST SWAP3 POP POP PUSH1 0x20 PUSH2 0x1345 DUP6 DUP3 DUP7 ADD PUSH2 0x12FD JUMP JUMPDEST SWAP2 POP POP SWAP3 POP SWAP3 SWAP1 POP JUMP JUMPDEST PUSH2 0x1358 DUP2 PUSH2 0x12DE JUMP JUMPDEST DUP3 MSTORE POP POP JUMP JUMPDEST PUSH2 0x1367 DUP2 PUSH2 0x12A3 JUMP JUMPDEST DUP3 MSTORE POP POP JUMP JUMPDEST PUSH0 DUP2 MLOAD SWAP1 POP SWAP2 SWAP1 POP JUMP JUMPDEST PUSH0 DUP3 DUP3 MSTORE PUSH1 0x20 DUP3 ADD SWAP1 POP SWAP3 SWAP2 POP POP JUMP JUMPDEST DUP3 DUP2 DUP4 MCOPY PUSH0 DUP4 DUP4 ADD MSTORE POP POP POP JUMP JUMPDEST PUSH0 PUSH1 0x1F NOT PUSH1 0x1F DUP4 ADD AND SWAP1 POP SWAP2 SWAP1 POP JUMP JUMPDEST PUSH0 PUSH2 0x13AF DUP3 PUSH2 0x136D JUMP JUMPDEST PUSH2 0x13B9 DUP2 DUP6 PUSH2 0x1377 JUMP JUMPDEST SWAP4 POP PUSH2 0x13C9 DUP2 DUP6 PUSH1 0x20 DUP7 ADD PUSH2 0x1387 JUMP JUMPDEST PUSH2 0x13D2 DUP2 PUSH2 0x1395 JUMP JUMPDEST DUP5 ADD SWAP2 POP POP SWAP3 SWAP2 POP POP JUMP JUMPDEST PUSH0 PUSH1 0xA0 DUP3 ADD SWAP1 POP PUSH2 0x13F0 PUSH0 DUP4 ADD DUP9 PUSH2 0x134F JUMP JUMPDEST PUSH2 0x13FD PUSH1 0x20 DUP4 ADD DUP8 PUSH2 0x135E JUMP JUMPDEST DUP2 DUP2 SUB PUSH1 0x40 DUP4 ADD MSTORE PUSH2 0x140F DUP2 DUP7 PUSH2 0x13A5 JUMP JUMPDEST SWAP1 POP PUSH2 0x141E PUSH1 0x60 DUP4 ADD DUP6 PUSH2 0x134F JUMP JUMPDEST PUSH2 0x142B PUSH1 0x80 DUP4 ADD DUP5 PUSH2 0x134F JUMP JUMPDEST SWAP7 SWAP6 POP POP POP POP POP POP JUMP JUMPDEST PUSH0 DUP1 REVERT JUMPDEST PUSH0 DUP1 REVERT JUMPDEST PUSH32 0x4E487B7100000000000000000000000000000000000000000000000000000000 PUSH0 MSTORE PUSH1 0x41 PUSH1 0x4 MSTORE PUSH1 0x24 PUSH0 REVERT JUMPDEST PUSH2 0x1473 DUP3 PUSH2 0x1395 JUMP JUMPDEST DUP2 ADD DUP2 DUP2 LT PUSH8 0xFFFFFFFFFFFFFFFF DUP3 GT OR ISZERO PUSH2 0x1492 JUMPI PUSH2 0x1491 PUSH2 0x143D JUMP JUMPDEST JUMPDEST DUP1 PUSH1 0x40 MSTORE POP POP POP JUMP JUMPDEST PUSH0 PUSH2 0x14A4 PUSH2 0x1273 JUMP JUMPDEST SWAP1 POP PUSH2 0x14B0 DUP3 DUP3 PUSH2 0x146A JUMP JUMPDEST SWAP2 SWAP1 POP JUMP JUMPDEST PUSH0 PUSH8 0xFFFFFFFFFFFFFFFF DUP3 GT ISZERO PUSH2 0x14CF JUMPI PUSH2 0x14CE PUSH2 0x143D JUMP JUMPDEST JUMPDEST PUSH2 0x14D8 DUP3 PUSH2 0x1395 JUMP JUMPDEST SWAP1 POP PUSH1 0x20 DUP2 ADD SWAP1 POP SWAP2 SWAP1 POP JUMP JUMPDEST DUP3 DUP2 DUP4 CALLDATACOPY PUSH0 DUP4 DUP4 ADD MSTORE POP POP POP JUMP JUMPDEST PUSH0 PUSH2 0x1505 PUSH2 0x1500 DUP5 PUSH2 0x14B5 JUMP JUMPDEST PUSH2 0x149B JUMP JUMPDEST SWAP1 POP DUP3 DUP2 MSTORE PUSH1 0x20 DUP2 ADD DUP5 DUP5 DUP5 ADD GT ISZERO PUSH2 0x1521 JUMPI PUSH2 0x1520 PUSH2 0x1439 JUMP JUMPDEST JUMPDEST PUSH2 0x152C DUP5 DUP3 DUP6 PUSH2 0x14E5 JUMP JUMPDEST POP SWAP4 SWAP3 POP POP POP JUMP JUMPDEST PUSH0 DUP3 PUSH1 0x1F DUP4 ADD SLT PUSH2 0x1548 JUMPI PUSH2 0x1547 PUSH2 0x1435 JUMP JUMPDEST JUMPDEST DUP2 CALLDATALOAD PUSH2 0x1558 DUP5 DUP3 PUSH1 0x20 DUP7 ADD PUSH2 0x14F3 JUMP JUMPDEST SWAP2 POP POP SWAP3 SWAP2 POP POP JUMP JUMPDEST PUSH0 PUSH1 0x20 DUP3 DUP5 SUB SLT ISZERO PUSH2 0x1576 JUMPI PUSH2 0x1575 PUSH2 0x127C JUMP JUMPDEST JUMPDEST PUSH0 DUP3 ADD CALLDATALOAD PUSH8 0xFFFFFFFFFFFFFFFF DUP2 GT ISZERO PUSH2 0x1593 JUMPI PUSH2 0x1592 PUSH2 0x1280 JUMP JUMPDEST JUMPDEST PUSH2 0x159F DUP5 DUP3 DUP6 ADD PUSH2 0x1534 JUMP JUMPDEST SWAP2 POP POP SWAP3 SWAP2 POP POP JUMP JUMPDEST PUSH0 PUSH1 0x20 DUP3 DUP5 SUB SLT ISZERO PUSH2 0x15BD JUMPI PUSH2 0x15BC PUSH2 0x127C JUMP JUMPDEST JUMPDEST PUSH0 PUSH2 0x15CA DUP5 DUP3 DUP6 ADD PUSH2 0x12CA JUMP JUMPDEST SWAP2 POP POP SWAP3 SWAP2 POP POP JUMP JUMPDEST PUSH0 DUP2 MLOAD SWAP1 POP SWAP2 SWAP1 POP JUMP JUMPDEST PUSH0 DUP3 DUP3 MSTORE PUSH1 0x20 DUP3 ADD SWAP1 POP SWAP3 SWAP2 POP POP JUMP JUMPDEST PUSH0 DUP2 SWAP1 POP PUSH1 0x20 DUP3 ADD SWAP1 POP SWAP2 SWAP1 POP JUMP JUMPDEST PUSH2 0x1605 DUP2 PUSH2 0x12DE JUMP JUMPDEST DUP3 MSTORE POP POP JUMP JUMPDEST PUSH2 0x1614 DUP2 PUSH2 0x12A3 JUMP JUMPDEST DUP3 MSTORE POP POP JUMP JUMPDEST PUSH0 DUP3 DUP3 MSTORE PUSH1 0x20 DUP3 ADD SWAP1 POP SWAP3 SWAP2 POP POP JUMP JUMPDEST PUSH0 PUSH2 0x1634 DUP3 PUSH2 0x136D JUMP JUMPDEST PUSH2 0x163E DUP2 DUP6 PUSH2 0x161A JUMP JUMPDEST SWAP4 POP PUSH2 0x164E DUP2 DUP6 PUSH1 0x20 DUP7 ADD PUSH2 0x1387 JUMP JUMPDEST PUSH2 0x1657 DUP2 PUSH2 0x1395 JUMP JUMPDEST DUP5 ADD SWAP2 POP POP SWAP3 SWAP2 POP POP JUMP JUMPDEST PUSH0 PUSH1 0xA0 DUP4 ADD PUSH0 DUP4 ADD MLOAD PUSH2 0x1677 PUSH0 DUP7 ADD DUP3 PUSH2 0x15FC JUMP JUMPDEST POP PUSH1 0x20 DUP4 ADD MLOAD PUSH2 0x168A PUSH1 0x20 DUP7 ADD DUP3 PUSH2 0x160B JUMP JUMPDEST POP PUSH1 0x40 DUP4 ADD MLOAD DUP5 DUP3 SUB PUSH1 0x40 DUP7 ADD MSTORE PUSH2 0x16A2 DUP3 DUP3 PUSH2 0x162A JUMP JUMPDEST SWAP2 POP POP PUSH1 0x60 DUP4 ADD MLOAD PUSH2 0x16B7 PUSH1 0x60 DUP7 ADD DUP3 PUSH2 0x15FC JUMP JUMPDEST POP PUSH1 0x80 DUP4 ADD MLOAD PUSH2 0x16CA PUSH1 0x80 DUP7 ADD DUP3 PUSH2 0x15FC JUMP JUMPDEST POP DUP1 SWAP2 POP POP SWAP3 SWAP2 POP POP JUMP JUMPDEST PUSH0 PUSH2 0x16E0 DUP4 DUP4 PUSH2 0x1662 JUMP JUMPDEST SWAP1 POP SWAP3 SWAP2 POP POP JUMP JUMPDEST PUSH0 PUSH1 0x20 DUP3 ADD SWAP1 POP SWAP2 SWAP1 POP JUMP JUMPDEST PUSH0 PUSH2 0x16FE DUP3 PUSH2 0x15D3 JUMP JUMPDEST PUSH2 0x1708 DUP2 DUP6 PUSH2 0x15DD JUMP JUMPDEST SWAP4 POP DUP4 PUSH1 0x20 DUP3 MUL DUP6 ADD PUSH2 0x171A DUP6 PUSH2 0x15ED JUMP JUMPDEST DUP1 PUSH0 JUMPDEST DUP6 DUP2 LT ISZERO PUSH2 0x1755 JUMPI DUP5 DUP5 SUB DUP10 MSTORE DUP2 MLOAD PUSH2 0x1736 DUP6 DUP3 PUSH2 0x16D5 JUMP JUMPDEST SWAP5 POP PUSH2 0x1741 DUP4 PUSH2 0x16E8 JUMP JUMPDEST SWAP3 POP PUSH1 0x20 DUP11 ADD SWAP10 POP POP PUSH1 0x1 DUP2 ADD SWAP1 POP PUSH2 0x171D JUMP JUMPDEST POP DUP3 SWAP8 POP DUP8 SWAP6 POP POP POP POP POP POP SWAP3 SWAP2 POP POP JUMP JUMPDEST PUSH0 PUSH1 0x20 DUP3 ADD SWAP1 POP DUP2 DUP2 SUB PUSH0 DUP4 ADD MSTORE PUSH2 0x177F DUP2 DUP5 PUSH2 0x16F4 JUMP JUMPDEST SWAP1 POP SWAP3 SWAP2 POP POP JUMP JUMPDEST PUSH0 PUSH2 0xFFFF DUP3 AND SWAP1 POP SWAP2 SWAP1 POP JUMP JUMPDEST PUSH2 0x179D DUP2 PUSH2 0x1787 JUMP JUMPDEST DUP2 EQ PUSH2 0x17A7 JUMPI PUSH0 DUP1 REVERT JUMPDEST POP JUMP JUMPDEST PUSH0 DUP2 CALLDATALOAD SWAP1 POP PUSH2 0x17B8 DUP2 PUSH2 0x1794 JUMP JUMPDEST SWAP3 SWAP2 POP POP JUMP JUMPDEST PUSH0 PUSH1 0x20 DUP3 DUP5 SUB SLT ISZERO PUSH2 0x17D3 JUMPI PUSH2 0x17D2 PUSH2 0x127C JUMP JUMPDEST JUMPDEST PUSH0 PUSH2 0x17E0 DUP5 DUP3 DUP6 ADD PUSH2 0x17AA JUMP JUMPDEST SWAP2 POP POP SWAP3 SWAP2 POP POP JUMP JUMPDEST PUSH0 PUSH4 0xFFFFFFFF DUP3 AND SWAP1 POP SWAP2 SWAP1 POP JUMP JUMPDEST PUSH2 0x1801 DUP2 PUSH2 0x17E9 JUMP JUMPDEST DUP3 MSTORE POP POP JUMP JUMPDEST PUSH0 PUSH1 0x20 DUP3 ADD SWAP1 POP PUSH2 0x181A PUSH0 DUP4 ADD DUP5 PUSH2 0x17F8 JUMP JUMPDEST SWAP3 SWAP2 POP POP JUMP JUMPDEST PUSH0 PUSH1 0x20 DUP3 ADD SWAP1 POP PUSH2 0x1833 PUSH0 DUP4 ADD DUP5 PUSH2 0x135E JUMP JUMPDEST SWAP3 SWAP2 POP POP JUMP JUMPDEST PUSH0 PUSH1 0x20 DUP3 DUP5 SUB SLT ISZERO PUSH2 0x184E JUMPI PUSH2 0x184D PUSH2 0x127C JUMP JUMPDEST JUMPDEST PUSH0 PUSH2 0x185B DUP5 DUP3 DUP6 ADD PUSH2 0x12FD JUMP JUMPDEST SWAP2 POP POP SWAP3 SWAP2 POP POP JUMP JUMPDEST PUSH0 PUSH1 0xA0 DUP4 ADD PUSH0 DUP4 ADD MLOAD PUSH2 0x1879 PUSH0 DUP7 ADD DUP3 PUSH2 0x15FC JUMP JUMPDEST POP PUSH1 0x20 DUP4 ADD MLOAD PUSH2 0x188C PUSH1 0x20 DUP7 ADD DUP3 PUSH2 0x160B JUMP JUMPDEST POP PUSH1 0x40 DUP4 ADD MLOAD DUP5 DUP3 SUB PUSH1 0x40 DUP7 ADD MSTORE PUSH2 0x18A4 DUP3 DUP3 PUSH2 0x162A JUMP JUMPDEST SWAP2 POP POP PUSH1 0x60 DUP4 ADD MLOAD PUSH2 0x18B9 PUSH1 0x60 DUP7 ADD DUP3 PUSH2 0x15FC JUMP JUMPDEST POP PUSH1 0x80 DUP4 ADD MLOAD PUSH2 0x18CC PUSH1 0x80 DUP7 ADD DUP3 PUSH2 0x15FC JUMP JUMPDEST POP DUP1 SWAP2 POP POP SWAP3 SWAP2 POP POP JUMP JUMPDEST PUSH0 PUSH1 0x20 DUP3 ADD SWAP1 POP DUP2 DUP2 SUB PUSH0 DUP4 ADD MSTORE PUSH2 0x18EF DUP2 DUP5 PUSH2 0x1864 JUMP JUMPDEST SWAP1 POP SWAP3 SWAP2 POP POP JUMP JUMPDEST PUSH0 PUSH1 0x20 DUP3 ADD SWAP1 POP PUSH2 0x190A PUSH0 DUP4 ADD DUP5 PUSH2 0x134F JUMP JUMPDEST SWAP3 SWAP2 POP POP JUMP JUMPDEST PUSH32 0x4E487B7100000000000000000000000000000000000000000000000000000000 PUSH0 MSTORE PUSH1 0x22 PUSH1 0x4 MSTORE PUSH1 0x24 PUSH0 REVERT JUMPDEST PUSH0 PUSH1 0x2 DUP3 DIV SWAP1 POP PUSH1 0x1 DUP3 AND DUP1 PUSH2 0x1954 JUMPI PUSH1 0x7F DUP3 AND SWAP2 POP JUMPDEST PUSH1 0x20 DUP3 LT DUP2 SUB PUSH2 0x1967 JUMPI PUSH2 0x1966 PUSH2 0x1910 JUMP JUMPDEST JUMPDEST POP SWAP2 SWAP1 POP JUMP JUMPDEST PUSH0 DUP1 REVERT JUMPDEST PUSH0 DUP1 REVERT JUMPDEST PUSH0 PUSH2 0x1987 PUSH2 0x1982 DUP5 PUSH2 0x14B5 JUMP JUMPDEST PUSH2 0x149B JUMP JUMPDEST SWAP1 POP DUP3 DUP2 MSTORE PUSH1 0x20 DUP2 ADD DUP5 DUP5 DUP5 ADD GT ISZERO PUSH2 0x19A3 JUMPI PUSH2 0x19A2 PUSH2 0x1439 JUMP JUMPDEST JUMPDEST PUSH2 0x19AE DUP5 DUP3 DUP6 PUSH2 0x1387 JUMP JUMPDEST POP SWAP4 SWAP3 POP POP POP JUMP JUMPDEST PUSH0 DUP3 PUSH1 0x1F DUP4 ADD SLT PUSH2 0x19CA JUMPI PUSH2 0x19C9 PUSH2 0x1435 JUMP JUMPDEST JUMPDEST DUP2 MLOAD PUSH2 0x19DA DUP5 DUP3 PUSH1 0x20 DUP7 ADD PUSH2 0x1975 JUMP JUMPDEST SWAP2 POP POP SWAP3 SWAP2 POP POP JUMP JUMPDEST PUSH0 PUSH1 0x40 DUP3 DUP5 SUB SLT ISZERO PUSH2 0x19F8 JUMPI PUSH2 0x19F7 PUSH2 0x196D JUMP JUMPDEST JUMPDEST PUSH2 0x1A02 PUSH1 0x40 PUSH2 0x149B JUMP JUMPDEST SWAP1 POP PUSH0 DUP3 ADD MLOAD PUSH8 0xFFFFFFFFFFFFFFFF DUP2 GT ISZERO PUSH2 0x1A21 JUMPI PUSH2 0x1A20 PUSH2 0x1971 JUMP JUMPDEST JUMPDEST PUSH2 0x1A2D DUP5 DUP3 DUP6 ADD PUSH2 0x19B6 JUMP JUMPDEST PUSH0 DUP4 ADD MSTORE POP PUSH1 0x20 DUP3 ADD MLOAD PUSH8 0xFFFFFFFFFFFFFFFF DUP2 GT ISZERO PUSH2 0x1A50 JUMPI PUSH2 0x1A4F PUSH2 0x1971 JUMP JUMPDEST JUMPDEST PUSH2 0x1A5C DUP5 DUP3 DUP6 ADD PUSH2 0x19B6 JUMP JUMPDEST PUSH1 0x20 DUP4 ADD MSTORE POP SWAP3 SWAP2 POP POP JUMP JUMPDEST PUSH0 PUSH1 0x20 DUP3 DUP5 SUB SLT ISZERO PUSH2 0x1A7D JUMPI PUSH2 0x1A7C PUSH2 0x127C JUMP JUMPDEST JUMPDEST PUSH0 DUP3 ADD MLOAD PUSH8 0xFFFFFFFFFFFFFFFF DUP2 GT ISZERO PUSH2 0x1A9A JUMPI PUSH2 0x1A99 PUSH2 0x1280 JUMP JUMPDEST JUMPDEST PUSH2 0x1AA6 DUP5 DUP3 DUP6 ADD PUSH2 0x19E3 JUMP JUMPDEST SWAP2 POP POP SWAP3 SWAP2 POP POP JUMP JUMPDEST PUSH32 0x55534552204E4F54205245474953544552454400000000000000000000000000 PUSH0 DUP3 ADD MSTORE POP JUMP JUMPDEST PUSH0 PUSH2 0x1AE3 PUSH1 0x13 DUP4 PUSH2 0x1377 JUMP JUMPDEST SWAP2 POP PUSH2 0x1AEE DUP3 PUSH2 0x1AAF JUMP JUMPDEST PUSH1 0x20 DUP3 ADD SWAP1 POP SWAP2 SWAP1 POP JUMP JUMPDEST PUSH0 PUSH1 0x20 DUP3 ADD SWAP1 POP DUP2 DUP2 SUB PUSH0 DUP4 ADD MSTORE PUSH2 0x1B10 DUP2 PUSH2 0x1AD7 JUMP JUMPDEST SWAP1 POP SWAP2 SWAP1 POP JUMP JUMPDEST PUSH32 0x547765657420697320746F6F206C6F6E67000000000000000000000000000000 PUSH0 DUP3 ADD MSTORE POP JUMP JUMPDEST PUSH0 PUSH2 0x1B4B PUSH1 0x11 DUP4 PUSH2 0x1377 JUMP JUMPDEST SWAP2 POP PUSH2 0x1B56 DUP3 PUSH2 0x1B17 JUMP JUMPDEST PUSH1 0x20 DUP3 ADD SWAP1 POP SWAP2 SWAP1 POP JUMP JUMPDEST PUSH0 PUSH1 0x20 DUP3 ADD SWAP1 POP DUP2 DUP2 SUB PUSH0 DUP4 ADD MSTORE PUSH2 0x1B78 DUP2 PUSH2 0x1B3F JUMP JUMPDEST SWAP1 POP SWAP2 SWAP1 POP JUMP JUMPDEST PUSH0 DUP2 SWAP1 POP DUP2 PUSH0 MSTORE PUSH1 0x20 PUSH0 KECCAK256 SWAP1 POP SWAP2 SWAP1 POP JUMP JUMPDEST PUSH0 PUSH1 0x20 PUSH1 0x1F DUP4 ADD DIV SWAP1 POP SWAP2 SWAP1 POP JUMP JUMPDEST PUSH0 DUP3 DUP3 SHL SWAP1 POP SWAP3 SWAP2 POP POP JUMP JUMPDEST PUSH0 PUSH1 0x8 DUP4 MUL PUSH2 0x1BDB PUSH32 0xFFFFFFFFFFFFFFFFFFFFFFFFFFFFFFFFFFFFFFFFFFFFFFFFFFFFFFFFFFFFFFFF DUP3 PUSH2 0x1BA0 JUMP JUMPDEST PUSH2 0x1BE5 DUP7 DUP4 PUSH2 0x1BA0 JUMP JUMPDEST SWAP6 POP DUP1 NOT DUP5 AND SWAP4 POP DUP1 DUP7 AND DUP5 OR SWAP3 POP POP POP SWAP4 SWAP3 POP POP POP JUMP JUMPDEST PUSH0 DUP2 SWAP1 POP SWAP2 SWAP1 POP JUMP JUMPDEST PUSH0 PUSH2 0x1C20 PUSH2 0x1C1B PUSH2 0x1C16 DUP5 PUSH2 0x12DE JUMP JUMPDEST PUSH2 0x1BFD JUMP JUMPDEST PUSH2 0x12DE JUMP JUMPDEST SWAP1 POP SWAP2 SWAP1 POP JUMP JUMPDEST PUSH0 DUP2 SWAP1 POP SWAP2 SWAP1 POP JUMP JUMPDEST PUSH2 0x1C39 DUP4 PUSH2 0x1C06 JUMP JUMPDEST PUSH2 0x1C4D PUSH2 0x1C45 DUP3 PUSH2 0x1C27 JUMP JUMPDEST DUP5 DUP5 SLOAD PUSH2 0x1BAC JUMP JUMPDEST DUP3 SSTORE POP POP POP POP JUMP JUMPDEST PUSH0 SWAP1 JUMP JUMPDEST PUSH2 0x1C61 PUSH2 0x1C55 JUMP JUMPDEST PUSH2 0x1C6C DUP2 DUP5 DUP5 PUSH2 0x1C30 JUMP JUMPDEST POP POP POP JUMP JUMPDEST JUMPDEST DUP2 DUP2 LT ISZERO PUSH2 0x1C8F JUMPI PUSH2 0x1C84 PUSH0 DUP3 PUSH2 0x1C59 JUMP JUMPDEST PUSH1 0x1 DUP2 ADD SWAP1 POP PUSH2 0x1C72 JUMP JUMPDEST POP POP JUMP JUMPDEST PUSH1 0x1F DUP3 GT ISZERO PUSH2 0x1CD4 JUMPI PUSH2 0x1CA5 DUP2 PUSH2 0x1B7F JUMP JUMPDEST PUSH2 0x1CAE DUP5 PUSH2 0x1B91 JUMP JUMPDEST DUP2 ADD PUSH1 0x20 DUP6 LT ISZERO PUSH2 0x1CBD JUMPI DUP2 SWAP1 POP JUMPDEST PUSH2 0x1CD1 PUSH2 0x1CC9 DUP6 PUSH2 0x1B91 JUMP JUMPDEST DUP4 ADD DUP3 PUSH2 0x1C71 JUMP JUMPDEST POP POP JUMPDEST POP POP POP JUMP JUMPDEST PUSH0 DUP3 DUP3 SHR SWAP1 POP SWAP3 SWAP2 POP POP JUMP JUMPDEST PUSH0 PUSH2 0x1CF4 PUSH0 NOT DUP5 PUSH1 0x8 MUL PUSH2 0x1CD9 JUMP JUMPDEST NOT DUP1 DUP4 AND SWAP2 POP POP SWAP3 SWAP2 POP POP JUMP JUMPDEST PUSH0 PUSH2 0x1D0C DUP4 DUP4 PUSH2 0x1CE5 JUMP JUMPDEST SWAP2 POP DUP3 PUSH1 0x2 MUL DUP3 OR SWAP1 POP SWAP3 SWAP2 POP POP JUMP JUMPDEST PUSH2 0x1D25 DUP3 PUSH2 0x136D JUMP JUMPDEST PUSH8 0xFFFFFFFFFFFFFFFF DUP2 GT ISZERO PUSH2 0x1D3E JUMPI PUSH2 0x1D3D PUSH2 0x143D JUMP JUMPDEST JUMPDEST PUSH2 0x1D48 DUP3 SLOAD PUSH2 0x193D JUMP JUMPDEST PUSH2 0x1D53 DUP3 DUP3 DUP6 PUSH2 0x1C93 JUMP JUMPDEST PUSH0 PUSH1 0x20 SWAP1 POP PUSH1 0x1F DUP4 GT PUSH1 0x1 DUP2 EQ PUSH2 0x1D84 JUMPI PUSH0 DUP5 ISZERO PUSH2 0x1D72 JUMPI DUP3 DUP8 ADD MLOAD SWAP1 POP JUMPDEST PUSH2 0x1D7C DUP6 DUP3 PUSH2 0x1D01 JUMP JUMPDEST DUP7 SSTORE POP PUSH2 0x1DE3 JUMP JUMPDEST PUSH1 0x1F NOT DUP5 AND PUSH2 0x1D92 DUP7 PUSH2 0x1B7F JUMP JUMPDEST PUSH0 JUMPDEST DUP3 DUP2 LT ISZERO PUSH2 0x1DB9 JUMPI DUP5 DUP10 ADD MLOAD DUP3 SSTORE PUSH1 0x1 DUP3 ADD SWAP2 POP PUSH1 0x20 DUP6 ADD SWAP5 POP PUSH1 0x20 DUP2 ADD SWAP1 POP PUSH2 0x1D94 JUMP JUMPDEST DUP7 DUP4 LT ISZERO PUSH2 0x1DD6 JUMPI DUP5 DUP10 ADD MLOAD PUSH2 0x1DD2 PUSH1 0x1F DUP10 AND DUP3 PUSH2 0x1CE5 JUMP JUMPDEST DUP4 SSTORE POP JUMPDEST PUSH1 0x1 PUSH1 0x2 DUP9 MUL ADD DUP9 SSTORE POP POP POP JUMPDEST POP POP POP POP POP POP JUMP JUMPDEST PUSH0 PUSH1 0x80 DUP3 ADD SWAP1 POP PUSH2 0x1DFE PUSH0 DUP4 ADD DUP8 PUSH2 0x134F JUMP JUMPDEST PUSH2 0x1E0B PUSH1 0x20 DUP4 ADD DUP7 PUSH2 0x135E JUMP JUMPDEST DUP2 DUP2 SUB PUSH1 0x40 DUP4 ADD MSTORE PUSH2 0x1E1D DUP2 DUP6 PUSH2 0x13A5 JUMP JUMPDEST SWAP1 POP PUSH2 0x1E2C PUSH1 0x60 DUP4 ADD DUP5 PUSH2 0x134F JUMP JUMPDEST SWAP6 SWAP5 POP POP POP POP POP JUMP JUMPDEST PUSH32 0x4E487B7100000000000000000000000000000000000000000000000000000000 PUSH0 MSTORE PUSH1 0x32 PUSH1 0x4 MSTORE PUSH1 0x24 PUSH0 REVERT JUMPDEST PUSH32 0x5468657265206973206E6F207477656574732065786973742077697468207468 PUSH0 DUP3 ADD MSTORE PUSH32 0x6973206964000000000000000000000000000000000000000000000000000000 PUSH1 0x20 DUP3 ADD MSTORE POP JUMP JUMPDEST PUSH0 PUSH2 0x1EBC PUSH1 0x25 DUP4 PUSH2 0x1377 JUMP JUMPDEST SWAP2 POP PUSH2 0x1EC7 DUP3 PUSH2 0x1E62 JUMP JUMPDEST PUSH1 0x40 DUP3 ADD SWAP1 POP SWAP2 SWAP1 POP JUMP JUMPDEST PUSH0 PUSH1 0x20 DUP3 ADD SWAP1 POP DUP2 DUP2 SUB PUSH0 DUP4 ADD MSTORE PUSH2 0x1EE9 DUP2 PUSH2 0x1EB0 JUMP JUMPDEST SWAP1 POP SWAP2 SWAP1 POP JUMP JUMPDEST PUSH32 0x5468697320706F737420686173206E6F206C696B657300000000000000000000 PUSH0 DUP3 ADD MSTORE POP JUMP JUMPDEST PUSH0 PUSH2 0x1F24 PUSH1 0x16 DUP4 PUSH2 0x1377 JUMP JUMPDEST SWAP2 POP PUSH2 0x1F2F DUP3 PUSH2 0x1EF0 JUMP JUMPDEST PUSH1 0x20 DUP3 ADD SWAP1 POP SWAP2 SWAP1 POP JUMP JUMPDEST PUSH0 PUSH1 0x20 DUP3 ADD SWAP1 POP DUP2 DUP2 SUB PUSH0 DUP4 ADD MSTORE PUSH2 0x1F51 DUP2 PUSH2 0x1F18 JUMP JUMPDEST SWAP1 POP SWAP2 SWAP1 POP JUMP JUMPDEST PUSH32 0x4E487B7100000000000000000000000000000000000000000000000000000000 PUSH0 MSTORE PUSH1 0x11 PUSH1 0x4 MSTORE PUSH1 0x24 PUSH0 REVERT JUMPDEST PUSH0 PUSH2 0x1F8F DUP3 PUSH2 0x12DE JUMP JUMPDEST SWAP2 POP PUSH0 DUP3 SUB PUSH2 0x1FA1 JUMPI PUSH2 0x1FA0 PUSH2 0x1F58 JUMP JUMPDEST JUMPDEST PUSH1 0x1 DUP3 SUB SWAP1 POP SWAP2 SWAP1 POP JUMP JUMPDEST PUSH0 PUSH1 0x80 DUP3 ADD SWAP1 POP PUSH2 0x1FBF PUSH0 DUP4 ADD DUP8 PUSH2 0x135E JUMP JUMPDEST PUSH2 0x1FCC PUSH1 0x20 DUP4 ADD DUP7 PUSH2 0x135E JUMP JUMPDEST PUSH2 0x1FD9 PUSH1 0x40 DUP4 ADD DUP6 PUSH2 0x134F JUMP JUMPDEST PUSH2 0x1FE6 PUSH1 0x60 DUP4 ADD DUP5 PUSH2 0x134F JUMP JUMPDEST SWAP6 SWAP5 POP POP POP POP POP JUMP JUMPDEST PUSH32 0x5468657265206973206E6F207477656574206578697374207769746820746869 PUSH0 DUP3 ADD MSTORE PUSH32 0x7320696400000000000000000000000000000000000000000000000000000000 PUSH1 0x20 DUP3 ADD MSTORE POP JUMP JUMPDEST PUSH0 PUSH2 0x2049 PUSH1 0x24 DUP4 PUSH2 0x1377 JUMP JUMPDEST SWAP2 POP PUSH2 0x2054 DUP3 PUSH2 0x1FEF JUMP JUMPDEST PUSH1 0x40 DUP3 ADD SWAP1 POP SWAP2 SWAP1 POP JUMP JUMPDEST PUSH0 PUSH1 0x20 DUP3 ADD SWAP1 POP DUP2 DUP2 SUB PUSH0 DUP4 ADD MSTORE PUSH2 0x2076 DUP2 PUSH2 0x203D JUMP JUMPDEST SWAP1 POP SWAP2 SWAP1 POP JUMP JUMPDEST PUSH0 PUSH2 0x2087 DUP3 PUSH2 0x12DE JUMP JUMPDEST SWAP2 POP PUSH32 0xFFFFFFFFFFFFFFFFFFFFFFFFFFFFFFFFFFFFFFFFFFFFFFFFFFFFFFFFFFFFFFFF DUP3 SUB PUSH2 0x20B9 JUMPI PUSH2 0x20B8 PUSH2 0x1F58 JUMP JUMPDEST JUMPDEST PUSH1 0x1 DUP3 ADD SWAP1 POP SWAP2 SWAP1 POP JUMP JUMPDEST PUSH0 PUSH2 0x20CE DUP3 PUSH2 0x12DE JUMP JUMPDEST SWAP2 POP PUSH2 0x20D9 DUP4 PUSH2 0x12DE JUMP JUMPDEST SWAP3 POP DUP3 DUP3 ADD SWAP1 POP DUP1 DUP3 GT ISZERO PUSH2 0x20F1 JUMPI PUSH2 0x20F0 PUSH2 0x1F58 JUMP JUMPDEST JUMPDEST SWAP3 SWAP2 POP POP JUMP INVALID LOG2 PUSH5 0x6970667358 0x22 SLT KECCAK256 PUSH0 TIMESTAMP PUSH20 0x565653589DA56B32CE0AC50989D04B626F457F53 0xF8 PUSH11 0x1848F55C7FAAC864736F6C PUSH4 0x4300081A STOP CALLER "
				},
				"gasEstimates": {
					"creation": {
						"codeDepositCost": "1698600",
						"executionCost": "infinite",
						"totalCost": "infinite"
					},
					"external": {
						"MAX_TWEET_LENGTH()": "2517",
						"changeTweetLength(uint16)": "infinite",
						"createTweets(string)": "infinite",
						"getAllLikes(address)": "infinite",
						"getAllTweets(address)": "infinite",
						"getTweet(uint256)": "infinite",
						"likeTweet(address,uint256)": "infinite",
						"owner()": "2559",
						"renounceOwnership()": "infinite",
						"transferOwnership(address)": "infinite",
						"tweets(address,uint256)": "infinite",
						"unlikeTweet(address,uint256)": "infinite"
					}
				},
				"methodIdentifiers": {
					"MAX_TWEET_LENGTH()": "6eb10797",
					"changeTweetLength(uint16)": "58bfa4ab",
					"createTweets(string)": "0a7aa8a1",
					"getAllLikes(address)": "e1549d85",
					"getAllTweets(address)": "12e7ee1c",
					"getTweet(uint256)": "c3ad5ecb",
					"likeTweet(address,uint256)": "63378216",
					"owner()": "8da5cb5b",
					"renounceOwnership()": "715018a6",
					"transferOwnership(address)": "f2fde38b",
					"tweets(address,uint256)": "05a1b4a9",
					"unlikeTweet(address,uint256)": "3d9b569f"
				}
			},
			"storageLayout": {
				"storage": [
					{
						"astId": 8,
						"contract": "contracts/Twitter.sol:Twitter",
						"label": "_owner",
						"offset": 0,
						"slot": "0",
						"type": "t_address"
					},
					{
						"astId": 210,
						"contract": "contracts/Twitter.sol:Twitter",
						"label": "profileContract",
						"offset": 0,
						"slot": "1",
						"type": "t_contract(IProfile)194"
					},
					{
						"astId": 229,
						"contract": "contracts/Twitter.sol:Twitter",
						"label": "MAX_TWEET_LENGTH",
						"offset": 20,
						"slot": "1",
						"type": "t_uint32"
					},
					{
						"astId": 235,
						"contract": "contracts/Twitter.sol:Twitter",
						"label": "tweets",
						"offset": 0,
						"slot": "2",
						"type": "t_mapping(t_address,t_array(t_struct(Tweet)207_storage)dyn_storage)"
					}
				],
				"types": {
					"t_address": {
						"encoding": "inplace",
						"label": "address",
						"numberOfBytes": "20"
					},
					"t_array(t_struct(Tweet)207_storage)dyn_storage": {
						"base": "t_struct(Tweet)207_storage",
						"encoding": "dynamic_array",
						"label": "struct Twitter.Tweet[]",
						"numberOfBytes": "32"
					},
					"t_contract(IProfile)194": {
						"encoding": "inplace",
						"label": "contract IProfile",
						"numberOfBytes": "20"
					},
					"t_mapping(t_address,t_array(t_struct(Tweet)207_storage)dyn_storage)": {
						"encoding": "mapping",
						"key": "t_address",
						"label": "mapping(address => struct Twitter.Tweet[])",
						"numberOfBytes": "32",
						"value": "t_array(t_struct(Tweet)207_storage)dyn_storage"
					},
					"t_string_storage": {
						"encoding": "bytes",
						"label": "string",
						"numberOfBytes": "32"
					},
					"t_struct(Tweet)207_storage": {
						"encoding": "inplace",
						"label": "struct Twitter.Tweet",
						"members": [
							{
								"astId": 198,
								"contract": "contracts/Twitter.sol:Twitter",
								"label": "id",
								"offset": 0,
								"slot": "0",
								"type": "t_uint256"
							},
							{
								"astId": 200,
								"contract": "contracts/Twitter.sol:Twitter",
								"label": "author",
								"offset": 0,
								"slot": "1",
								"type": "t_address"
							},
							{
								"astId": 202,
								"contract": "contracts/Twitter.sol:Twitter",
								"label": "content",
								"offset": 0,
								"slot": "2",
								"type": "t_string_storage"
							},
							{
								"astId": 204,
								"contract": "contracts/Twitter.sol:Twitter",
								"label": "timestamp",
								"offset": 0,
								"slot": "3",
								"type": "t_uint256"
							},
							{
								"astId": 206,
								"contract": "contracts/Twitter.sol:Twitter",
								"label": "likes",
								"offset": 0,
								"slot": "4",
								"type": "t_uint256"
							}
						],
						"numberOfBytes": "160"
					},
					"t_uint256": {
						"encoding": "inplace",
						"label": "uint256",
						"numberOfBytes": "32"
					},
					"t_uint32": {
						"encoding": "inplace",
						"label": "uint32",
						"numberOfBytes": "4"
					}
				}
			},
			"userdoc": {
				"kind": "user",
				"methods": {},
				"version": 1
			}
		}
	}
}