{
	"contracts/Twitter.sol": {
		"Twitter": {
			"abi": [
				{
					"inputs": [],
					"stateMutability": "nonpayable",
					"type": "constructor"
				},
				{
					"inputs": [],
					"name": "MAX_TWEET_LENGTH",
					"outputs": [
						{
							"internalType": "uint32",
							"name": "",
							"type": "uint32"
						}
					],
					"stateMutability": "view",
					"type": "function"
				},
				{
					"inputs": [
						{
							"internalType": "uint16",
							"name": "newTweetLength",
							"type": "uint16"
						}
					],
					"name": "changeTweetLength",
					"outputs": [],
					"stateMutability": "nonpayable",
					"type": "function"
				},
				{
					"inputs": [
						{
							"internalType": "string",
							"name": "_tweet",
							"type": "string"
						}
					],
					"name": "createTweets",
					"outputs": [],
					"stateMutability": "nonpayable",
					"type": "function"
				},
				{
					"inputs": [
						{
							"internalType": "address",
							"name": "_owner",
							"type": "address"
						}
					],
					"name": "getAllTweets",
					"outputs": [
						{
							"components": [
								{
									"internalType": "uint256",
									"name": "id",
									"type": "uint256"
								},
								{
									"internalType": "address",
									"name": "author",
									"type": "address"
								},
								{
									"internalType": "string",
									"name": "content",
									"type": "string"
								},
								{
									"internalType": "uint256",
									"name": "timestamp",
									"type": "uint256"
								},
								{
									"internalType": "uint256",
									"name": "likes",
									"type": "uint256"
								}
							],
							"internalType": "struct Twitter.Tweet[]",
							"name": "",
							"type": "tuple[]"
						}
					],
					"stateMutability": "view",
					"type": "function"
				},
				{
					"inputs": [
						{
							"internalType": "uint256",
							"name": "_i",
							"type": "uint256"
						}
					],
					"name": "getTweet",
					"outputs": [
						{
							"components": [
								{
									"internalType": "uint256",
									"name": "id",
									"type": "uint256"
								},
								{
									"internalType": "address",
									"name": "author",
									"type": "address"
								},
								{
									"internalType": "string",
									"name": "content",
									"type": "string"
								},
								{
									"internalType": "uint256",
									"name": "timestamp",
									"type": "uint256"
								},
								{
									"internalType": "uint256",
									"name": "likes",
									"type": "uint256"
								}
							],
							"internalType": "struct Twitter.Tweet",
							"name": "",
							"type": "tuple"
						}
					],
					"stateMutability": "view",
					"type": "function"
				},
				{
					"inputs": [
						{
							"internalType": "address",
							"name": "author",
							"type": "address"
						},
						{
							"internalType": "uint256",
							"name": "id",
							"type": "uint256"
						}
					],
					"name": "likeTweet",
					"outputs": [],
					"stateMutability": "nonpayable",
					"type": "function"
				},
				{
					"inputs": [],
					"name": "owner",
					"outputs": [
						{
							"internalType": "address",
							"name": "",
							"type": "address"
						}
					],
					"stateMutability": "view",
					"type": "function"
				},
				{
					"inputs": [
						{
							"internalType": "address",
							"name": "",
							"type": "address"
						},
						{
							"internalType": "uint256",
							"name": "",
							"type": "uint256"
						}
					],
					"name": "tweets",
					"outputs": [
						{
							"internalType": "uint256",
							"name": "id",
							"type": "uint256"
						},
						{
							"internalType": "address",
							"name": "author",
							"type": "address"
						},
						{
							"internalType": "string",
							"name": "content",
							"type": "string"
						},
						{
							"internalType": "uint256",
							"name": "timestamp",
							"type": "uint256"
						},
						{
							"internalType": "uint256",
							"name": "likes",
							"type": "uint256"
						}
					],
					"stateMutability": "view",
					"type": "function"
				},
				{
					"inputs": [
						{
							"internalType": "address",
							"name": "author",
							"type": "address"
						},
						{
							"internalType": "uint256",
							"name": "id",
							"type": "uint256"
						}
					],
					"name": "unlikeTweet",
					"outputs": [],
					"stateMutability": "nonpayable",
					"type": "function"
				}
			],
			"devdoc": {
				"kind": "dev",
				"methods": {},
				"version": 1
			},
			"evm": {
				"assembly": "    /* \"contracts/Twitter.sol\":65:1740  contract Twitter{... */\n  mstore(0x40, 0x80)\n    /* \"contracts/Twitter.sol\":250:253  380 */\n  0x017c\n    /* \"contracts/Twitter.sol\":217:253  uint32 public MAX_TWEET_LENGTH = 380 */\n  0x00\n  dup1\n  0x0100\n  exp\n  dup2\n  sload\n  dup2\n  0xffffffff\n  mul\n  not\n  and\n  swap1\n  dup4\n  0xffffffff\n  and\n  mul\n  or\n  swap1\n  sstore\n  pop\n    /* \"contracts/Twitter.sol\":337:389  constructor () {... */\n  callvalue\n  dup1\n  iszero\n  tag_1\n  jumpi\n  0x00\n  dup1\n  revert\ntag_1:\n  pop\n    /* \"contracts/Twitter.sol\":371:381  msg.sender */\n  caller\n    /* \"contracts/Twitter.sol\":363:368  owner */\n  0x02\n  0x00\n    /* \"contracts/Twitter.sol\":363:381  owner = msg.sender */\n  0x0100\n  exp\n  dup2\n  sload\n  dup2\n  0xffffffffffffffffffffffffffffffffffffffff\n  mul\n  not\n  and\n  swap1\n  dup4\n  0xffffffffffffffffffffffffffffffffffffffff\n  and\n  mul\n  or\n  swap1\n  sstore\n  pop\n    /* \"contracts/Twitter.sol\":65:1740  contract Twitter{... */\n  dataSize(sub_0)\n  dup1\n  dataOffset(sub_0)\n  0x00\n  codecopy\n  0x00\n  return\nstop\n\nsub_0: assembly {\n        /* \"contracts/Twitter.sol\":65:1740  contract Twitter{... */\n      mstore(0x40, 0x80)\n      callvalue\n      dup1\n      iszero\n      tag_1\n      jumpi\n      0x00\n      dup1\n      revert\n    tag_1:\n      pop\n      jumpi(tag_2, lt(calldatasize, 0x04))\n      shr(0xe0, calldataload(0x00))\n      dup1\n      0x58bfa4ab\n      gt\n      tag_12\n      jumpi\n      dup1\n      0x58bfa4ab\n      eq\n      tag_7\n      jumpi\n      dup1\n      0x63378216\n      eq\n      tag_8\n      jumpi\n      dup1\n      0x6eb10797\n      eq\n      tag_9\n      jumpi\n      dup1\n      0x8da5cb5b\n      eq\n      tag_10\n      jumpi\n      dup1\n      0xc3ad5ecb\n      eq\n      tag_11\n      jumpi\n      jump(tag_2)\n    tag_12:\n      dup1\n      0x05a1b4a9\n      eq\n      tag_3\n      jumpi\n      dup1\n      0x0a7aa8a1\n      eq\n      tag_4\n      jumpi\n      dup1\n      0x12e7ee1c\n      eq\n      tag_5\n      jumpi\n      dup1\n      0x3d9b569f\n      eq\n      tag_6\n      jumpi\n    tag_2:\n      0x00\n      dup1\n      revert\n        /* \"contracts/Twitter.sol\":260:301  mapping (address=>Tweet[]) public  tweets */\n    tag_3:\n      tag_13\n      0x04\n      dup1\n      calldatasize\n      sub\n      dup2\n      add\n      swap1\n      tag_14\n      swap2\n      swap1\n      tag_15\n      jump\t// in\n    tag_14:\n      tag_16\n      jump\t// in\n    tag_13:\n      mload(0x40)\n      tag_17\n      swap6\n      swap5\n      swap4\n      swap3\n      swap2\n      swap1\n      tag_18\n      jump\t// in\n    tag_17:\n      mload(0x40)\n      dup1\n      swap2\n      sub\n      swap1\n      return\n        /* \"contracts/Twitter.sol\":626:1036  function createTweets(string memory _tweet) public {... */\n    tag_4:\n      tag_19\n      0x04\n      dup1\n      calldatasize\n      sub\n      dup2\n      add\n      swap1\n      tag_20\n      swap2\n      swap1\n      tag_21\n      jump\t// in\n    tag_20:\n      tag_22\n      jump\t// in\n    tag_19:\n      stop\n        /* \"contracts/Twitter.sol\":1623:1737  function getAllTweets(address _owner) public  view returns(Tweet[] memory){... */\n    tag_5:\n      tag_23\n      0x04\n      dup1\n      calldatasize\n      sub\n      dup2\n      add\n      swap1\n      tag_24\n      swap2\n      swap1\n      tag_25\n      jump\t// in\n    tag_24:\n      tag_26\n      jump\t// in\n    tag_23:\n      mload(0x40)\n      tag_27\n      swap2\n      swap1\n      tag_28\n      jump\t// in\n    tag_27:\n      mload(0x40)\n      dup1\n      swap2\n      sub\n      swap1\n      return\n        /* \"contracts/Twitter.sol\":1236:1499  function unlikeTweet(address author, uint256 id) external {... */\n    tag_6:\n      tag_29\n      0x04\n      dup1\n      calldatasize\n      sub\n      dup2\n      add\n      swap1\n      tag_30\n      swap2\n      swap1\n      tag_15\n      jump\t// in\n    tag_30:\n      tag_31\n      jump\t// in\n    tag_29:\n      stop\n        /* \"contracts/Twitter.sol\":502:620  function changeTweetLength(uint16 newTweetLength)public onlyOwner {... */\n    tag_7:\n      tag_32\n      0x04\n      dup1\n      calldatasize\n      sub\n      dup2\n      add\n      swap1\n      tag_33\n      swap2\n      swap1\n      tag_34\n      jump\t// in\n    tag_33:\n      tag_35\n      jump\t// in\n    tag_32:\n      stop\n        /* \"contracts/Twitter.sol\":1042:1230  function likeTweet(address author, uint256 id) external {... */\n    tag_8:\n      tag_36\n      0x04\n      dup1\n      calldatasize\n      sub\n      dup2\n      add\n      swap1\n      tag_37\n      swap2\n      swap1\n      tag_15\n      jump\t// in\n    tag_37:\n      tag_38\n      jump\t// in\n    tag_36:\n      stop\n        /* \"contracts/Twitter.sol\":217:253  uint32 public MAX_TWEET_LENGTH = 380 */\n    tag_9:\n      tag_39\n      tag_40\n      jump\t// in\n    tag_39:\n      mload(0x40)\n      tag_41\n      swap2\n      swap1\n      tag_42\n      jump\t// in\n    tag_41:\n      mload(0x40)\n      dup1\n      swap2\n      sub\n      swap1\n      return\n        /* \"contracts/Twitter.sol\":308:328  address public owner */\n    tag_10:\n      tag_43\n      tag_44\n      jump\t// in\n    tag_43:\n      mload(0x40)\n      tag_45\n      swap2\n      swap1\n      tag_46\n      jump\t// in\n    tag_45:\n      mload(0x40)\n      dup1\n      swap2\n      sub\n      swap1\n      return\n        /* \"contracts/Twitter.sol\":1507:1617  function getTweet( uint _i) public view returns (Tweet memory){... */\n    tag_11:\n      tag_47\n      0x04\n      dup1\n      calldatasize\n      sub\n      dup2\n      add\n      swap1\n      tag_48\n      swap2\n      swap1\n      tag_49\n      jump\t// in\n    tag_48:\n      tag_50\n      jump\t// in\n    tag_47:\n      mload(0x40)\n      tag_51\n      swap2\n      swap1\n      tag_52\n      jump\t// in\n    tag_51:\n      mload(0x40)\n      dup1\n      swap2\n      sub\n      swap1\n      return\n        /* \"contracts/Twitter.sol\":260:301  mapping (address=>Tweet[]) public  tweets */\n    tag_16:\n      mstore(0x20, 0x01)\n      dup2\n      0x00\n      mstore\n      keccak256(0x00, 0x40)\n      dup2\n      dup2\n      sload\n      dup2\n      lt\n      tag_53\n      jumpi\n      0x00\n      dup1\n      revert\n    tag_53:\n      swap1\n      0x00\n      mstore\n      keccak256(0x00, 0x20)\n      swap1\n      0x05\n      mul\n      add\n      0x00\n      swap2\n      pop\n      swap2\n      pop\n      pop\n      dup1\n      0x00\n      add\n      sload\n      swap1\n      dup1\n      0x01\n      add\n      0x00\n      swap1\n      sload\n      swap1\n      0x0100\n      exp\n      swap1\n      div\n      0xffffffffffffffffffffffffffffffffffffffff\n      and\n      swap1\n      dup1\n      0x02\n      add\n      dup1\n      sload\n      tag_55\n      swap1\n      tag_56\n      jump\t// in\n    tag_55:\n      dup1\n      0x1f\n      add\n      0x20\n      dup1\n      swap2\n      div\n      mul\n      0x20\n      add\n      mload(0x40)\n      swap1\n      dup2\n      add\n      0x40\n      mstore\n      dup1\n      swap3\n      swap2\n      swap1\n      dup2\n      dup2\n      mstore\n      0x20\n      add\n      dup3\n      dup1\n      sload\n      tag_57\n      swap1\n      tag_56\n      jump\t// in\n    tag_57:\n      dup1\n      iszero\n      tag_58\n      jumpi\n      dup1\n      0x1f\n      lt\n      tag_59\n      jumpi\n      0x0100\n      dup1\n      dup4\n      sload\n      div\n      mul\n      dup4\n      mstore\n      swap2\n      0x20\n      add\n      swap2\n      jump(tag_58)\n    tag_59:\n      dup3\n      add\n      swap2\n      swap1\n      0x00\n      mstore\n      keccak256(0x00, 0x20)\n      swap1\n    tag_60:\n      dup2\n      sload\n      dup2\n      mstore\n      swap1\n      0x01\n      add\n      swap1\n      0x20\n      add\n      dup1\n      dup4\n      gt\n      tag_60\n      jumpi\n      dup3\n      swap1\n      sub\n      0x1f\n      and\n      dup3\n      add\n      swap2\n    tag_58:\n      pop\n      pop\n      pop\n      pop\n      pop\n      swap1\n      dup1\n      0x03\n      add\n      sload\n      swap1\n      dup1\n      0x04\n      add\n      sload\n      swap1\n      pop\n      dup6\n      jump\t// out\n        /* \"contracts/Twitter.sol\":626:1036  function createTweets(string memory _tweet) public {... */\n    tag_22:\n        /* \"contracts/Twitter.sol\":718:734  MAX_TWEET_LENGTH */\n      0x00\n      dup1\n      sload\n      swap1\n      0x0100\n      exp\n      swap1\n      div\n      0xffffffff\n      and\n        /* \"contracts/Twitter.sol\":696:734  bytes(_tweet).length<=MAX_TWEET_LENGTH */\n      0xffffffff\n      and\n        /* \"contracts/Twitter.sol\":702:708  _tweet */\n      dup2\n        /* \"contracts/Twitter.sol\":696:716  bytes(_tweet).length */\n      mload\n        /* \"contracts/Twitter.sol\":696:734  bytes(_tweet).length<=MAX_TWEET_LENGTH */\n      gt\n      iszero\n        /* \"contracts/Twitter.sol\":688:756  require(bytes(_tweet).length<=MAX_TWEET_LENGTH, \"Tweet is too long\") */\n      tag_62\n      jumpi\n      mload(0x40)\n      0x08c379a000000000000000000000000000000000000000000000000000000000\n      dup2\n      mstore\n      0x04\n      add\n      tag_63\n      swap1\n      tag_64\n      jump\t// in\n    tag_63:\n      mload(0x40)\n      dup1\n      swap2\n      sub\n      swap1\n      revert\n    tag_62:\n        /* \"contracts/Twitter.sol\":769:791  Tweet memory newTweets */\n      0x00\n        /* \"contracts/Twitter.sol\":794:983  Tweet({... */\n      mload(0x40)\n      dup1\n      0xa0\n      add\n      0x40\n      mstore\n      dup1\n        /* \"contracts/Twitter.sol\":819:825  tweets */\n      0x01\n        /* \"contracts/Twitter.sol\":819:837  tweets[msg.sender] */\n      0x00\n        /* \"contracts/Twitter.sol\":826:836  msg.sender */\n      caller\n        /* \"contracts/Twitter.sol\":819:837  tweets[msg.sender] */\n      0xffffffffffffffffffffffffffffffffffffffff\n      and\n      0xffffffffffffffffffffffffffffffffffffffff\n      and\n      dup2\n      mstore\n      0x20\n      add\n      swap1\n      dup2\n      mstore\n      0x20\n      add\n      0x00\n      keccak256\n        /* \"contracts/Twitter.sol\":819:844  tweets[msg.sender].length */\n      dup1\n      sload\n      swap1\n      pop\n        /* \"contracts/Twitter.sol\":794:983  Tweet({... */\n      dup2\n      mstore\n      0x20\n      add\n        /* \"contracts/Twitter.sol\":867:877  msg.sender */\n      caller\n        /* \"contracts/Twitter.sol\":794:983  Tweet({... */\n      0xffffffffffffffffffffffffffffffffffffffff\n      and\n      dup2\n      mstore\n      0x20\n      add\n        /* \"contracts/Twitter.sol\":901:907  _tweet */\n      dup4\n        /* \"contracts/Twitter.sol\":794:983  Tweet({... */\n      dup2\n      mstore\n      0x20\n      add\n        /* \"contracts/Twitter.sol\":933:948  block.timestamp */\n      timestamp\n        /* \"contracts/Twitter.sol\":794:983  Tweet({... */\n      dup2\n      mstore\n      0x20\n      add\n        /* \"contracts/Twitter.sol\":970:971  0 */\n      0x00\n        /* \"contracts/Twitter.sol\":794:983  Tweet({... */\n      dup2\n      mstore\n      pop\n        /* \"contracts/Twitter.sol\":769:983  Tweet memory newTweets = Tweet({... */\n      swap1\n      pop\n        /* \"contracts/Twitter.sol\":994:1000  tweets */\n      0x01\n        /* \"contracts/Twitter.sol\":994:1012  tweets[msg.sender] */\n      0x00\n        /* \"contracts/Twitter.sol\":1001:1011  msg.sender */\n      caller\n        /* \"contracts/Twitter.sol\":994:1012  tweets[msg.sender] */\n      0xffffffffffffffffffffffffffffffffffffffff\n      and\n      0xffffffffffffffffffffffffffffffffffffffff\n      and\n      dup2\n      mstore\n      0x20\n      add\n      swap1\n      dup2\n      mstore\n      0x20\n      add\n      0x00\n      keccak256\n        /* \"contracts/Twitter.sol\":1018:1027  newTweets */\n      dup2\n        /* \"contracts/Twitter.sol\":994:1028  tweets[msg.sender].push(newTweets) */\n      swap1\n      dup1\n      0x01\n      dup2\n      sload\n      add\n      dup1\n      dup3\n      sstore\n      dup1\n      swap2\n      pop\n      pop\n      0x01\n      swap1\n      sub\n      swap1\n      0x00\n      mstore\n      keccak256(0x00, 0x20)\n      swap1\n      0x05\n      mul\n      add\n      0x00\n      swap1\n      swap2\n      swap1\n      swap2\n      swap1\n      swap2\n      pop\n      0x00\n      dup3\n      add\n      mload\n      dup2\n      0x00\n      add\n      sstore\n      0x20\n      dup3\n      add\n      mload\n      dup2\n      0x01\n      add\n      exp(0x0100, 0x00)\n      dup2\n      sload\n      dup2\n      0xffffffffffffffffffffffffffffffffffffffff\n      mul\n      not\n      and\n      swap1\n      dup4\n      0xffffffffffffffffffffffffffffffffffffffff\n      and\n      mul\n      or\n      swap1\n      sstore\n      pop\n      0x40\n      dup3\n      add\n      mload\n      dup2\n      0x02\n      add\n      swap1\n      dup2\n      tag_66\n      swap2\n      swap1\n      tag_67\n      jump\t// in\n    tag_66:\n      pop\n      0x60\n      dup3\n      add\n      mload\n      dup2\n      0x03\n      add\n      sstore\n      0x80\n      dup3\n      add\n      mload\n      dup2\n      0x04\n      add\n      sstore\n      pop\n      pop\n        /* \"contracts/Twitter.sol\":677:1036  {... */\n      pop\n        /* \"contracts/Twitter.sol\":626:1036  function createTweets(string memory _tweet) public {... */\n      pop\n      jump\t// out\n        /* \"contracts/Twitter.sol\":1623:1737  function getAllTweets(address _owner) public  view returns(Tweet[] memory){... */\n    tag_26:\n        /* \"contracts/Twitter.sol\":1682:1696  Tweet[] memory */\n      0x60\n        /* \"contracts/Twitter.sol\":1715:1721  tweets */\n      0x01\n        /* \"contracts/Twitter.sol\":1715:1729  tweets[_owner] */\n      0x00\n        /* \"contracts/Twitter.sol\":1722:1728  _owner */\n      dup4\n        /* \"contracts/Twitter.sol\":1715:1729  tweets[_owner] */\n      0xffffffffffffffffffffffffffffffffffffffff\n      and\n      0xffffffffffffffffffffffffffffffffffffffff\n      and\n      dup2\n      mstore\n      0x20\n      add\n      swap1\n      dup2\n      mstore\n      0x20\n      add\n      0x00\n      keccak256\n        /* \"contracts/Twitter.sol\":1708:1729  return tweets[_owner] */\n      dup1\n      sload\n      dup1\n      0x20\n      mul\n      0x20\n      add\n      mload(0x40)\n      swap1\n      dup2\n      add\n      0x40\n      mstore\n      dup1\n      swap3\n      swap2\n      swap1\n      dup2\n      dup2\n      mstore\n      0x20\n      add\n      0x00\n      swap1\n    tag_69:\n      dup3\n      dup3\n      lt\n      iszero\n      tag_70\n      jumpi\n      dup4\n      dup3\n      swap1\n      0x00\n      mstore\n      keccak256(0x00, 0x20)\n      swap1\n      0x05\n      mul\n      add\n      mload(0x40)\n      dup1\n      0xa0\n      add\n      0x40\n      mstore\n      swap1\n      dup2\n      0x00\n      dup3\n      add\n      sload\n      dup2\n      mstore\n      0x20\n      add\n      0x01\n      dup3\n      add\n      0x00\n      swap1\n      sload\n      swap1\n      0x0100\n      exp\n      swap1\n      div\n      0xffffffffffffffffffffffffffffffffffffffff\n      and\n      0xffffffffffffffffffffffffffffffffffffffff\n      and\n      0xffffffffffffffffffffffffffffffffffffffff\n      and\n      dup2\n      mstore\n      0x20\n      add\n      0x02\n      dup3\n      add\n      dup1\n      sload\n      tag_72\n      swap1\n      tag_56\n      jump\t// in\n    tag_72:\n      dup1\n      0x1f\n      add\n      0x20\n      dup1\n      swap2\n      div\n      mul\n      0x20\n      add\n      mload(0x40)\n      swap1\n      dup2\n      add\n      0x40\n      mstore\n      dup1\n      swap3\n      swap2\n      swap1\n      dup2\n      dup2\n      mstore\n      0x20\n      add\n      dup3\n      dup1\n      sload\n      tag_73\n      swap1\n      tag_56\n      jump\t// in\n    tag_73:\n      dup1\n      iszero\n      tag_74\n      jumpi\n      dup1\n      0x1f\n      lt\n      tag_75\n      jumpi\n      0x0100\n      dup1\n      dup4\n      sload\n      div\n      mul\n      dup4\n      mstore\n      swap2\n      0x20\n      add\n      swap2\n      jump(tag_74)\n    tag_75:\n      dup3\n      add\n      swap2\n      swap1\n      0x00\n      mstore\n      keccak256(0x00, 0x20)\n      swap1\n    tag_76:\n      dup2\n      sload\n      dup2\n      mstore\n      swap1\n      0x01\n      add\n      swap1\n      0x20\n      add\n      dup1\n      dup4\n      gt\n      tag_76\n      jumpi\n      dup3\n      swap1\n      sub\n      0x1f\n      and\n      dup3\n      add\n      swap2\n    tag_74:\n      pop\n      pop\n      pop\n      pop\n      pop\n      dup2\n      mstore\n      0x20\n      add\n      0x03\n      dup3\n      add\n      sload\n      dup2\n      mstore\n      0x20\n      add\n      0x04\n      dup3\n      add\n      sload\n      dup2\n      mstore\n      pop\n      pop\n      dup2\n      mstore\n      0x20\n      add\n      swap1\n      0x01\n      add\n      swap1\n      jump(tag_69)\n    tag_70:\n      pop\n      pop\n      pop\n      pop\n      swap1\n      pop\n        /* \"contracts/Twitter.sol\":1623:1737  function getAllTweets(address _owner) public  view returns(Tweet[] memory){... */\n      swap2\n      swap1\n      pop\n      jump\t// out\n        /* \"contracts/Twitter.sol\":1236:1499  function unlikeTweet(address author, uint256 id) external {... */\n    tag_31:\n        /* \"contracts/Twitter.sol\":1338:1340  id */\n      dup1\n        /* \"contracts/Twitter.sol\":1313:1319  tweets */\n      0x01\n        /* \"contracts/Twitter.sol\":1313:1327  tweets[author] */\n      0x00\n        /* \"contracts/Twitter.sol\":1320:1326  author */\n      dup5\n        /* \"contracts/Twitter.sol\":1313:1327  tweets[author] */\n      0xffffffffffffffffffffffffffffffffffffffff\n      and\n      0xffffffffffffffffffffffffffffffffffffffff\n      and\n      dup2\n      mstore\n      0x20\n      add\n      swap1\n      dup2\n      mstore\n      0x20\n      add\n      0x00\n      keccak256\n        /* \"contracts/Twitter.sol\":1328:1330  id */\n      dup3\n        /* \"contracts/Twitter.sol\":1313:1331  tweets[author][id] */\n      dup2\n      sload\n      dup2\n      lt\n      tag_78\n      jumpi\n      tag_79\n      tag_80\n      jump\t// in\n    tag_79:\n    tag_78:\n      swap1\n      0x00\n      mstore\n      keccak256(0x00, 0x20)\n      swap1\n      0x05\n      mul\n      add\n        /* \"contracts/Twitter.sol\":1313:1334  tweets[author][id].id */\n      0x00\n      add\n      sload\n        /* \"contracts/Twitter.sol\":1313:1340  tweets[author][id].id == id */\n      eq\n        /* \"contracts/Twitter.sol\":1305:1382  require(tweets[author][id].id == id, \"There is no tweets exist with this id\") */\n      tag_82\n      jumpi\n      mload(0x40)\n      0x08c379a000000000000000000000000000000000000000000000000000000000\n      dup2\n      mstore\n      0x04\n      add\n      tag_83\n      swap1\n      tag_84\n      jump\t// in\n    tag_83:\n      mload(0x40)\n      dup1\n      swap2\n      sub\n      swap1\n      revert\n    tag_82:\n        /* \"contracts/Twitter.sol\":1426:1427  0 */\n      0x00\n        /* \"contracts/Twitter.sol\":1401:1407  tweets */\n      0x01\n        /* \"contracts/Twitter.sol\":1401:1415  tweets[author] */\n      0x00\n        /* \"contracts/Twitter.sol\":1408:1414  author */\n      dup5\n        /* \"contracts/Twitter.sol\":1401:1415  tweets[author] */\n      0xffffffffffffffffffffffffffffffffffffffff\n      and\n      0xffffffffffffffffffffffffffffffffffffffff\n      and\n      dup2\n      mstore\n      0x20\n      add\n      swap1\n      dup2\n      mstore\n      0x20\n      add\n      0x00\n      keccak256\n        /* \"contracts/Twitter.sol\":1416:1418  id */\n      dup3\n        /* \"contracts/Twitter.sol\":1401:1419  tweets[author][id] */\n      dup2\n      sload\n      dup2\n      lt\n      tag_85\n      jumpi\n      tag_86\n      tag_80\n      jump\t// in\n    tag_86:\n    tag_85:\n      swap1\n      0x00\n      mstore\n      keccak256(0x00, 0x20)\n      swap1\n      0x05\n      mul\n      add\n        /* \"contracts/Twitter.sol\":1401:1425  tweets[author][id].likes */\n      0x04\n      add\n      sload\n        /* \"contracts/Twitter.sol\":1401:1427  tweets[author][id].likes>0 */\n      gt\n        /* \"contracts/Twitter.sol\":1393:1454  require(tweets[author][id].likes>0, \"This post has no likes\") */\n      tag_88\n      jumpi\n      mload(0x40)\n      0x08c379a000000000000000000000000000000000000000000000000000000000\n      dup2\n      mstore\n      0x04\n      add\n      tag_89\n      swap1\n      tag_90\n      jump\t// in\n    tag_89:\n      mload(0x40)\n      dup1\n      swap2\n      sub\n      swap1\n      revert\n    tag_88:\n        /* \"contracts/Twitter.sol\":1465:1471  tweets */\n      0x01\n        /* \"contracts/Twitter.sol\":1465:1479  tweets[author] */\n      0x00\n        /* \"contracts/Twitter.sol\":1472:1478  author */\n      dup4\n        /* \"contracts/Twitter.sol\":1465:1479  tweets[author] */\n      0xffffffffffffffffffffffffffffffffffffffff\n      and\n      0xffffffffffffffffffffffffffffffffffffffff\n      and\n      dup2\n      mstore\n      0x20\n      add\n      swap1\n      dup2\n      mstore\n      0x20\n      add\n      0x00\n      keccak256\n        /* \"contracts/Twitter.sol\":1480:1482  id */\n      dup2\n        /* \"contracts/Twitter.sol\":1465:1483  tweets[author][id] */\n      dup2\n      sload\n      dup2\n      lt\n      tag_91\n      jumpi\n      tag_92\n      tag_80\n      jump\t// in\n    tag_92:\n    tag_91:\n      swap1\n      0x00\n      mstore\n      keccak256(0x00, 0x20)\n      swap1\n      0x05\n      mul\n      add\n        /* \"contracts/Twitter.sol\":1465:1489  tweets[author][id].likes */\n      0x04\n      add\n      0x00\n        /* \"contracts/Twitter.sol\":1465:1491  tweets[author][id].likes-- */\n      dup2\n      sload\n      dup1\n      swap3\n      swap2\n      swap1\n      tag_94\n      swap1\n      tag_95\n      jump\t// in\n    tag_94:\n      swap2\n      swap1\n      pop\n      sstore\n      pop\n        /* \"contracts/Twitter.sol\":1236:1499  function unlikeTweet(address author, uint256 id) external {... */\n      pop\n      pop\n      jump\t// out\n        /* \"contracts/Twitter.sol\":502:620  function changeTweetLength(uint16 newTweetLength)public onlyOwner {... */\n    tag_35:\n        /* \"contracts/Twitter.sol\":440:450  msg.sender */\n      caller\n        /* \"contracts/Twitter.sol\":433:450  owner==msg.sender */\n      0xffffffffffffffffffffffffffffffffffffffff\n      and\n        /* \"contracts/Twitter.sol\":433:438  owner */\n      0x02\n      0x00\n      swap1\n      sload\n      swap1\n      0x0100\n      exp\n      swap1\n      div\n      0xffffffffffffffffffffffffffffffffffffffff\n      and\n        /* \"contracts/Twitter.sol\":433:450  owner==msg.sender */\n      0xffffffffffffffffffffffffffffffffffffffff\n      and\n      eq\n        /* \"contracts/Twitter.sol\":425:476  require(owner==msg.sender, \"You are not the owner\") */\n      tag_97\n      jumpi\n      mload(0x40)\n      0x08c379a000000000000000000000000000000000000000000000000000000000\n      dup2\n      mstore\n      0x04\n      add\n      tag_98\n      swap1\n      tag_99\n      jump\t// in\n    tag_98:\n      mload(0x40)\n      dup1\n      swap2\n      sub\n      swap1\n      revert\n    tag_97:\n        /* \"contracts/Twitter.sol\":598:612  newTweetLength */\n      dup1\n        /* \"contracts/Twitter.sol\":579:612  MAX_TWEET_LENGTH = newTweetLength */\n      0xffff\n      and\n        /* \"contracts/Twitter.sol\":579:595  MAX_TWEET_LENGTH */\n      0x00\n      dup1\n        /* \"contracts/Twitter.sol\":579:612  MAX_TWEET_LENGTH = newTweetLength */\n      0x0100\n      exp\n      dup2\n      sload\n      dup2\n      0xffffffff\n      mul\n      not\n      and\n      swap1\n      dup4\n      0xffffffff\n      and\n      mul\n      or\n      swap1\n      sstore\n      pop\n        /* \"contracts/Twitter.sol\":502:620  function changeTweetLength(uint16 newTweetLength)public onlyOwner {... */\n      pop\n      jump\t// out\n        /* \"contracts/Twitter.sol\":1042:1230  function likeTweet(address author, uint256 id) external {... */\n    tag_38:\n        /* \"contracts/Twitter.sol\":1142:1144  id */\n      dup1\n        /* \"contracts/Twitter.sol\":1117:1123  tweets */\n      0x01\n        /* \"contracts/Twitter.sol\":1117:1131  tweets[author] */\n      0x00\n        /* \"contracts/Twitter.sol\":1124:1130  author */\n      dup5\n        /* \"contracts/Twitter.sol\":1117:1131  tweets[author] */\n      0xffffffffffffffffffffffffffffffffffffffff\n      and\n      0xffffffffffffffffffffffffffffffffffffffff\n      and\n      dup2\n      mstore\n      0x20\n      add\n      swap1\n      dup2\n      mstore\n      0x20\n      add\n      0x00\n      keccak256\n        /* \"contracts/Twitter.sol\":1132:1134  id */\n      dup3\n        /* \"contracts/Twitter.sol\":1117:1135  tweets[author][id] */\n      dup2\n      sload\n      dup2\n      lt\n      tag_102\n      jumpi\n      tag_103\n      tag_80\n      jump\t// in\n    tag_103:\n    tag_102:\n      swap1\n      0x00\n      mstore\n      keccak256(0x00, 0x20)\n      swap1\n      0x05\n      mul\n      add\n        /* \"contracts/Twitter.sol\":1117:1138  tweets[author][id].id */\n      0x00\n      add\n      sload\n        /* \"contracts/Twitter.sol\":1117:1144  tweets[author][id].id == id */\n      eq\n        /* \"contracts/Twitter.sol\":1109:1185  require(tweets[author][id].id == id, \"There is no tweet exist with this id\") */\n      tag_105\n      jumpi\n      mload(0x40)\n      0x08c379a000000000000000000000000000000000000000000000000000000000\n      dup2\n      mstore\n      0x04\n      add\n      tag_106\n      swap1\n      tag_107\n      jump\t// in\n    tag_106:\n      mload(0x40)\n      dup1\n      swap2\n      sub\n      swap1\n      revert\n    tag_105:\n        /* \"contracts/Twitter.sol\":1196:1202  tweets */\n      0x01\n        /* \"contracts/Twitter.sol\":1196:1210  tweets[author] */\n      0x00\n        /* \"contracts/Twitter.sol\":1203:1209  author */\n      dup4\n        /* \"contracts/Twitter.sol\":1196:1210  tweets[author] */\n      0xffffffffffffffffffffffffffffffffffffffff\n      and\n      0xffffffffffffffffffffffffffffffffffffffff\n      and\n      dup2\n      mstore\n      0x20\n      add\n      swap1\n      dup2\n      mstore\n      0x20\n      add\n      0x00\n      keccak256\n        /* \"contracts/Twitter.sol\":1211:1213  id */\n      dup2\n        /* \"contracts/Twitter.sol\":1196:1214  tweets[author][id] */\n      dup2\n      sload\n      dup2\n      lt\n      tag_108\n      jumpi\n      tag_109\n      tag_80\n      jump\t// in\n    tag_109:\n    tag_108:\n      swap1\n      0x00\n      mstore\n      keccak256(0x00, 0x20)\n      swap1\n      0x05\n      mul\n      add\n        /* \"contracts/Twitter.sol\":1196:1220  tweets[author][id].likes */\n      0x04\n      add\n      0x00\n        /* \"contracts/Twitter.sol\":1196:1222  tweets[author][id].likes++ */\n      dup2\n      sload\n      dup1\n      swap3\n      swap2\n      swap1\n      tag_111\n      swap1\n      tag_112\n      jump\t// in\n    tag_111:\n      swap2\n      swap1\n      pop\n      sstore\n      pop\n        /* \"contracts/Twitter.sol\":1042:1230  function likeTweet(address author, uint256 id) external {... */\n      pop\n      pop\n      jump\t// out\n        /* \"contracts/Twitter.sol\":217:253  uint32 public MAX_TWEET_LENGTH = 380 */\n    tag_40:\n      0x00\n      dup1\n      sload\n      swap1\n      0x0100\n      exp\n      swap1\n      div\n      0xffffffff\n      and\n      dup2\n      jump\t// out\n        /* \"contracts/Twitter.sol\":308:328  address public owner */\n    tag_44:\n      0x02\n      0x00\n      swap1\n      sload\n      swap1\n      0x0100\n      exp\n      swap1\n      div\n      0xffffffffffffffffffffffffffffffffffffffff\n      and\n      dup2\n      jump\t// out\n        /* \"contracts/Twitter.sol\":1507:1617  function getTweet( uint _i) public view returns (Tweet memory){... */\n    tag_50:\n        /* \"contracts/Twitter.sol\":1556:1568  Tweet memory */\n      tag_113\n      tag_114\n      jump\t// in\n    tag_113:\n        /* \"contracts/Twitter.sol\":1587:1593  tweets */\n      0x01\n        /* \"contracts/Twitter.sol\":1587:1605  tweets[msg.sender] */\n      0x00\n        /* \"contracts/Twitter.sol\":1594:1604  msg.sender */\n      caller\n        /* \"contracts/Twitter.sol\":1587:1605  tweets[msg.sender] */\n      0xffffffffffffffffffffffffffffffffffffffff\n      and\n      0xffffffffffffffffffffffffffffffffffffffff\n      and\n      dup2\n      mstore\n      0x20\n      add\n      swap1\n      dup2\n      mstore\n      0x20\n      add\n      0x00\n      keccak256\n        /* \"contracts/Twitter.sol\":1606:1608  _i */\n      dup3\n        /* \"contracts/Twitter.sol\":1587:1609  tweets[msg.sender][_i] */\n      dup2\n      sload\n      dup2\n      lt\n      tag_116\n      jumpi\n      tag_117\n      tag_80\n      jump\t// in\n    tag_117:\n    tag_116:\n      swap1\n      0x00\n      mstore\n      keccak256(0x00, 0x20)\n      swap1\n      0x05\n      mul\n      add\n        /* \"contracts/Twitter.sol\":1580:1609  return tweets[msg.sender][_i] */\n      mload(0x40)\n      dup1\n      0xa0\n      add\n      0x40\n      mstore\n      swap1\n      dup2\n      0x00\n      dup3\n      add\n      sload\n      dup2\n      mstore\n      0x20\n      add\n      0x01\n      dup3\n      add\n      0x00\n      swap1\n      sload\n      swap1\n      0x0100\n      exp\n      swap1\n      div\n      0xffffffffffffffffffffffffffffffffffffffff\n      and\n      0xffffffffffffffffffffffffffffffffffffffff\n      and\n      0xffffffffffffffffffffffffffffffffffffffff\n      and\n      dup2\n      mstore\n      0x20\n      add\n      0x02\n      dup3\n      add\n      dup1\n      sload\n      tag_119\n      swap1\n      tag_56\n      jump\t// in\n    tag_119:\n      dup1\n      0x1f\n      add\n      0x20\n      dup1\n      swap2\n      div\n      mul\n      0x20\n      add\n      mload(0x40)\n      swap1\n      dup2\n      add\n      0x40\n      mstore\n      dup1\n      swap3\n      swap2\n      swap1\n      dup2\n      dup2\n      mstore\n      0x20\n      add\n      dup3\n      dup1\n      sload\n      tag_120\n      swap1\n      tag_56\n      jump\t// in\n    tag_120:\n      dup1\n      iszero\n      tag_121\n      jumpi\n      dup1\n      0x1f\n      lt\n      tag_122\n      jumpi\n      0x0100\n      dup1\n      dup4\n      sload\n      div\n      mul\n      dup4\n      mstore\n      swap2\n      0x20\n      add\n      swap2\n      jump(tag_121)\n    tag_122:\n      dup3\n      add\n      swap2\n      swap1\n      0x00\n      mstore\n      keccak256(0x00, 0x20)\n      swap1\n    tag_123:\n      dup2\n      sload\n      dup2\n      mstore\n      swap1\n      0x01\n      add\n      swap1\n      0x20\n      add\n      dup1\n      dup4\n      gt\n      tag_123\n      jumpi\n      dup3\n      swap1\n      sub\n      0x1f\n      and\n      dup3\n      add\n      swap2\n    tag_121:\n      pop\n      pop\n      pop\n      pop\n      pop\n      dup2\n      mstore\n      0x20\n      add\n      0x03\n      dup3\n      add\n      sload\n      dup2\n      mstore\n      0x20\n      add\n      0x04\n      dup3\n      add\n      sload\n      dup2\n      mstore\n      pop\n      pop\n      swap1\n      pop\n        /* \"contracts/Twitter.sol\":1507:1617  function getTweet( uint _i) public view returns (Tweet memory){... */\n      swap2\n      swap1\n      pop\n      jump\t// out\n    tag_114:\n      mload(0x40)\n      dup1\n      0xa0\n      add\n      0x40\n      mstore\n      dup1\n      0x00\n      dup2\n      mstore\n      0x20\n      add\n      and(0xffffffffffffffffffffffffffffffffffffffff, 0x00)\n      dup2\n      mstore\n      0x20\n      add\n      0x60\n      dup2\n      mstore\n      0x20\n      add\n      0x00\n      dup2\n      mstore\n      0x20\n      add\n      0x00\n      dup2\n      mstore\n      pop\n      swap1\n      jump\t// out\n        /* \"#utility.yul\":7:82   */\n    tag_124:\n        /* \"#utility.yul\":40:46   */\n      0x00\n        /* \"#utility.yul\":73:75   */\n      0x40\n        /* \"#utility.yul\":67:76   */\n      mload\n        /* \"#utility.yul\":57:76   */\n      swap1\n      pop\n        /* \"#utility.yul\":7:82   */\n      swap1\n      jump\t// out\n        /* \"#utility.yul\":88:205   */\n    tag_125:\n        /* \"#utility.yul\":197:198   */\n      0x00\n        /* \"#utility.yul\":194:195   */\n      dup1\n        /* \"#utility.yul\":187:199   */\n      revert\n        /* \"#utility.yul\":211:328   */\n    tag_126:\n        /* \"#utility.yul\":320:321   */\n      0x00\n        /* \"#utility.yul\":317:318   */\n      dup1\n        /* \"#utility.yul\":310:322   */\n      revert\n        /* \"#utility.yul\":334:460   */\n    tag_127:\n        /* \"#utility.yul\":371:378   */\n      0x00\n        /* \"#utility.yul\":411:453   */\n      0xffffffffffffffffffffffffffffffffffffffff\n        /* \"#utility.yul\":404:409   */\n      dup3\n        /* \"#utility.yul\":400:454   */\n      and\n        /* \"#utility.yul\":389:454   */\n      swap1\n      pop\n        /* \"#utility.yul\":334:460   */\n      swap2\n      swap1\n      pop\n      jump\t// out\n        /* \"#utility.yul\":466:562   */\n    tag_128:\n        /* \"#utility.yul\":503:510   */\n      0x00\n        /* \"#utility.yul\":532:556   */\n      tag_200\n        /* \"#utility.yul\":550:555   */\n      dup3\n        /* \"#utility.yul\":532:556   */\n      tag_127\n      jump\t// in\n    tag_200:\n        /* \"#utility.yul\":521:556   */\n      swap1\n      pop\n        /* \"#utility.yul\":466:562   */\n      swap2\n      swap1\n      pop\n      jump\t// out\n        /* \"#utility.yul\":568:690   */\n    tag_129:\n        /* \"#utility.yul\":641:665   */\n      tag_202\n        /* \"#utility.yul\":659:664   */\n      dup2\n        /* \"#utility.yul\":641:665   */\n      tag_128\n      jump\t// in\n    tag_202:\n        /* \"#utility.yul\":634:639   */\n      dup2\n        /* \"#utility.yul\":631:666   */\n      eq\n        /* \"#utility.yul\":621:684   */\n      tag_203\n      jumpi\n        /* \"#utility.yul\":680:681   */\n      0x00\n        /* \"#utility.yul\":677:678   */\n      dup1\n        /* \"#utility.yul\":670:682   */\n      revert\n        /* \"#utility.yul\":621:684   */\n    tag_203:\n        /* \"#utility.yul\":568:690   */\n      pop\n      jump\t// out\n        /* \"#utility.yul\":696:835   */\n    tag_130:\n        /* \"#utility.yul\":742:747   */\n      0x00\n        /* \"#utility.yul\":780:786   */\n      dup2\n        /* \"#utility.yul\":767:787   */\n      calldataload\n        /* \"#utility.yul\":758:787   */\n      swap1\n      pop\n        /* \"#utility.yul\":796:829   */\n      tag_205\n        /* \"#utility.yul\":823:828   */\n      dup2\n        /* \"#utility.yul\":796:829   */\n      tag_129\n      jump\t// in\n    tag_205:\n        /* \"#utility.yul\":696:835   */\n      swap3\n      swap2\n      pop\n      pop\n      jump\t// out\n        /* \"#utility.yul\":841:918   */\n    tag_131:\n        /* \"#utility.yul\":878:885   */\n      0x00\n        /* \"#utility.yul\":907:912   */\n      dup2\n        /* \"#utility.yul\":896:912   */\n      swap1\n      pop\n        /* \"#utility.yul\":841:918   */\n      swap2\n      swap1\n      pop\n      jump\t// out\n        /* \"#utility.yul\":924:1046   */\n    tag_132:\n        /* \"#utility.yul\":997:1021   */\n      tag_208\n        /* \"#utility.yul\":1015:1020   */\n      dup2\n        /* \"#utility.yul\":997:1021   */\n      tag_131\n      jump\t// in\n    tag_208:\n        /* \"#utility.yul\":990:995   */\n      dup2\n        /* \"#utility.yul\":987:1022   */\n      eq\n        /* \"#utility.yul\":977:1040   */\n      tag_209\n      jumpi\n        /* \"#utility.yul\":1036:1037   */\n      0x00\n        /* \"#utility.yul\":1033:1034   */\n      dup1\n        /* \"#utility.yul\":1026:1038   */\n      revert\n        /* \"#utility.yul\":977:1040   */\n    tag_209:\n        /* \"#utility.yul\":924:1046   */\n      pop\n      jump\t// out\n        /* \"#utility.yul\":1052:1191   */\n    tag_133:\n        /* \"#utility.yul\":1098:1103   */\n      0x00\n        /* \"#utility.yul\":1136:1142   */\n      dup2\n        /* \"#utility.yul\":1123:1143   */\n      calldataload\n        /* \"#utility.yul\":1114:1143   */\n      swap1\n      pop\n        /* \"#utility.yul\":1152:1185   */\n      tag_211\n        /* \"#utility.yul\":1179:1184   */\n      dup2\n        /* \"#utility.yul\":1152:1185   */\n      tag_132\n      jump\t// in\n    tag_211:\n        /* \"#utility.yul\":1052:1191   */\n      swap3\n      swap2\n      pop\n      pop\n      jump\t// out\n        /* \"#utility.yul\":1197:1671   */\n    tag_15:\n        /* \"#utility.yul\":1265:1271   */\n      0x00\n        /* \"#utility.yul\":1273:1279   */\n      dup1\n        /* \"#utility.yul\":1322:1324   */\n      0x40\n        /* \"#utility.yul\":1310:1319   */\n      dup4\n        /* \"#utility.yul\":1301:1308   */\n      dup6\n        /* \"#utility.yul\":1297:1320   */\n      sub\n        /* \"#utility.yul\":1293:1325   */\n      slt\n        /* \"#utility.yul\":1290:1409   */\n      iszero\n      tag_213\n      jumpi\n        /* \"#utility.yul\":1328:1407   */\n      tag_214\n      tag_125\n      jump\t// in\n    tag_214:\n        /* \"#utility.yul\":1290:1409   */\n    tag_213:\n        /* \"#utility.yul\":1448:1449   */\n      0x00\n        /* \"#utility.yul\":1473:1526   */\n      tag_215\n        /* \"#utility.yul\":1518:1525   */\n      dup6\n        /* \"#utility.yul\":1509:1515   */\n      dup3\n        /* \"#utility.yul\":1498:1507   */\n      dup7\n        /* \"#utility.yul\":1494:1516   */\n      add\n        /* \"#utility.yul\":1473:1526   */\n      tag_130\n      jump\t// in\n    tag_215:\n        /* \"#utility.yul\":1463:1526   */\n      swap3\n      pop\n        /* \"#utility.yul\":1419:1536   */\n      pop\n        /* \"#utility.yul\":1575:1577   */\n      0x20\n        /* \"#utility.yul\":1601:1654   */\n      tag_216\n        /* \"#utility.yul\":1646:1653   */\n      dup6\n        /* \"#utility.yul\":1637:1643   */\n      dup3\n        /* \"#utility.yul\":1626:1635   */\n      dup7\n        /* \"#utility.yul\":1622:1644   */\n      add\n        /* \"#utility.yul\":1601:1654   */\n      tag_133\n      jump\t// in\n    tag_216:\n        /* \"#utility.yul\":1591:1654   */\n      swap2\n      pop\n        /* \"#utility.yul\":1546:1664   */\n      pop\n        /* \"#utility.yul\":1197:1671   */\n      swap3\n      pop\n      swap3\n      swap1\n      pop\n      jump\t// out\n        /* \"#utility.yul\":1677:1795   */\n    tag_134:\n        /* \"#utility.yul\":1764:1788   */\n      tag_218\n        /* \"#utility.yul\":1782:1787   */\n      dup2\n        /* \"#utility.yul\":1764:1788   */\n      tag_131\n      jump\t// in\n    tag_218:\n        /* \"#utility.yul\":1759:1762   */\n      dup3\n        /* \"#utility.yul\":1752:1789   */\n      mstore\n        /* \"#utility.yul\":1677:1795   */\n      pop\n      pop\n      jump\t// out\n        /* \"#utility.yul\":1801:1919   */\n    tag_135:\n        /* \"#utility.yul\":1888:1912   */\n      tag_220\n        /* \"#utility.yul\":1906:1911   */\n      dup2\n        /* \"#utility.yul\":1888:1912   */\n      tag_128\n      jump\t// in\n    tag_220:\n        /* \"#utility.yul\":1883:1886   */\n      dup3\n        /* \"#utility.yul\":1876:1913   */\n      mstore\n        /* \"#utility.yul\":1801:1919   */\n      pop\n      pop\n      jump\t// out\n        /* \"#utility.yul\":1925:2024   */\n    tag_136:\n        /* \"#utility.yul\":1977:1983   */\n      0x00\n        /* \"#utility.yul\":2011:2016   */\n      dup2\n        /* \"#utility.yul\":2005:2017   */\n      mload\n        /* \"#utility.yul\":1995:2017   */\n      swap1\n      pop\n        /* \"#utility.yul\":1925:2024   */\n      swap2\n      swap1\n      pop\n      jump\t// out\n        /* \"#utility.yul\":2030:2199   */\n    tag_137:\n        /* \"#utility.yul\":2114:2125   */\n      0x00\n        /* \"#utility.yul\":2148:2154   */\n      dup3\n        /* \"#utility.yul\":2143:2146   */\n      dup3\n        /* \"#utility.yul\":2136:2155   */\n      mstore\n        /* \"#utility.yul\":2188:2192   */\n      0x20\n        /* \"#utility.yul\":2183:2186   */\n      dup3\n        /* \"#utility.yul\":2179:2193   */\n      add\n        /* \"#utility.yul\":2164:2193   */\n      swap1\n      pop\n        /* \"#utility.yul\":2030:2199   */\n      swap3\n      swap2\n      pop\n      pop\n      jump\t// out\n        /* \"#utility.yul\":2205:2344   */\n    tag_138:\n        /* \"#utility.yul\":2294:2300   */\n      dup3\n        /* \"#utility.yul\":2289:2292   */\n      dup2\n        /* \"#utility.yul\":2284:2287   */\n      dup4\n        /* \"#utility.yul\":2278:2301   */\n      mcopy\n        /* \"#utility.yul\":2335:2336   */\n      0x00\n        /* \"#utility.yul\":2326:2332   */\n      dup4\n        /* \"#utility.yul\":2321:2324   */\n      dup4\n        /* \"#utility.yul\":2317:2333   */\n      add\n        /* \"#utility.yul\":2310:2337   */\n      mstore\n        /* \"#utility.yul\":2205:2344   */\n      pop\n      pop\n      pop\n      jump\t// out\n        /* \"#utility.yul\":2350:2452   */\n    tag_139:\n        /* \"#utility.yul\":2391:2397   */\n      0x00\n        /* \"#utility.yul\":2442:2444   */\n      0x1f\n        /* \"#utility.yul\":2438:2445   */\n      not\n        /* \"#utility.yul\":2433:2435   */\n      0x1f\n        /* \"#utility.yul\":2426:2431   */\n      dup4\n        /* \"#utility.yul\":2422:2436   */\n      add\n        /* \"#utility.yul\":2418:2446   */\n      and\n        /* \"#utility.yul\":2408:2446   */\n      swap1\n      pop\n        /* \"#utility.yul\":2350:2452   */\n      swap2\n      swap1\n      pop\n      jump\t// out\n        /* \"#utility.yul\":2458:2835   */\n    tag_140:\n        /* \"#utility.yul\":2546:2549   */\n      0x00\n        /* \"#utility.yul\":2574:2613   */\n      tag_226\n        /* \"#utility.yul\":2607:2612   */\n      dup3\n        /* \"#utility.yul\":2574:2613   */\n      tag_136\n      jump\t// in\n    tag_226:\n        /* \"#utility.yul\":2629:2700   */\n      tag_227\n        /* \"#utility.yul\":2693:2699   */\n      dup2\n        /* \"#utility.yul\":2688:2691   */\n      dup6\n        /* \"#utility.yul\":2629:2700   */\n      tag_137\n      jump\t// in\n    tag_227:\n        /* \"#utility.yul\":2622:2700   */\n      swap4\n      pop\n        /* \"#utility.yul\":2709:2774   */\n      tag_228\n        /* \"#utility.yul\":2767:2773   */\n      dup2\n        /* \"#utility.yul\":2762:2765   */\n      dup6\n        /* \"#utility.yul\":2755:2759   */\n      0x20\n        /* \"#utility.yul\":2748:2753   */\n      dup7\n        /* \"#utility.yul\":2744:2760   */\n      add\n        /* \"#utility.yul\":2709:2774   */\n      tag_138\n      jump\t// in\n    tag_228:\n        /* \"#utility.yul\":2799:2828   */\n      tag_229\n        /* \"#utility.yul\":2821:2827   */\n      dup2\n        /* \"#utility.yul\":2799:2828   */\n      tag_139\n      jump\t// in\n    tag_229:\n        /* \"#utility.yul\":2794:2797   */\n      dup5\n        /* \"#utility.yul\":2790:2829   */\n      add\n        /* \"#utility.yul\":2783:2829   */\n      swap2\n      pop\n        /* \"#utility.yul\":2550:2835   */\n      pop\n        /* \"#utility.yul\":2458:2835   */\n      swap3\n      swap2\n      pop\n      pop\n      jump\t// out\n        /* \"#utility.yul\":2841:3596   */\n    tag_18:\n        /* \"#utility.yul\":3066:3070   */\n      0x00\n        /* \"#utility.yul\":3104:3107   */\n      0xa0\n        /* \"#utility.yul\":3093:3102   */\n      dup3\n        /* \"#utility.yul\":3089:3108   */\n      add\n        /* \"#utility.yul\":3081:3108   */\n      swap1\n      pop\n        /* \"#utility.yul\":3118:3189   */\n      tag_231\n        /* \"#utility.yul\":3186:3187   */\n      0x00\n        /* \"#utility.yul\":3175:3184   */\n      dup4\n        /* \"#utility.yul\":3171:3188   */\n      add\n        /* \"#utility.yul\":3162:3168   */\n      dup9\n        /* \"#utility.yul\":3118:3189   */\n      tag_134\n      jump\t// in\n    tag_231:\n        /* \"#utility.yul\":3199:3271   */\n      tag_232\n        /* \"#utility.yul\":3267:3269   */\n      0x20\n        /* \"#utility.yul\":3256:3265   */\n      dup4\n        /* \"#utility.yul\":3252:3270   */\n      add\n        /* \"#utility.yul\":3243:3249   */\n      dup8\n        /* \"#utility.yul\":3199:3271   */\n      tag_135\n      jump\t// in\n    tag_232:\n        /* \"#utility.yul\":3318:3327   */\n      dup2\n        /* \"#utility.yul\":3312:3316   */\n      dup2\n        /* \"#utility.yul\":3308:3328   */\n      sub\n        /* \"#utility.yul\":3303:3305   */\n      0x40\n        /* \"#utility.yul\":3292:3301   */\n      dup4\n        /* \"#utility.yul\":3288:3306   */\n      add\n        /* \"#utility.yul\":3281:3329   */\n      mstore\n        /* \"#utility.yul\":3346:3424   */\n      tag_233\n        /* \"#utility.yul\":3419:3423   */\n      dup2\n        /* \"#utility.yul\":3410:3416   */\n      dup7\n        /* \"#utility.yul\":3346:3424   */\n      tag_140\n      jump\t// in\n    tag_233:\n        /* \"#utility.yul\":3338:3424   */\n      swap1\n      pop\n        /* \"#utility.yul\":3434:3506   */\n      tag_234\n        /* \"#utility.yul\":3502:3504   */\n      0x60\n        /* \"#utility.yul\":3491:3500   */\n      dup4\n        /* \"#utility.yul\":3487:3505   */\n      add\n        /* \"#utility.yul\":3478:3484   */\n      dup6\n        /* \"#utility.yul\":3434:3506   */\n      tag_134\n      jump\t// in\n    tag_234:\n        /* \"#utility.yul\":3516:3589   */\n      tag_235\n        /* \"#utility.yul\":3584:3587   */\n      0x80\n        /* \"#utility.yul\":3573:3582   */\n      dup4\n        /* \"#utility.yul\":3569:3588   */\n      add\n        /* \"#utility.yul\":3560:3566   */\n      dup5\n        /* \"#utility.yul\":3516:3589   */\n      tag_134\n      jump\t// in\n    tag_235:\n        /* \"#utility.yul\":2841:3596   */\n      swap7\n      swap6\n      pop\n      pop\n      pop\n      pop\n      pop\n      pop\n      jump\t// out\n        /* \"#utility.yul\":3602:3719   */\n    tag_141:\n        /* \"#utility.yul\":3711:3712   */\n      0x00\n        /* \"#utility.yul\":3708:3709   */\n      dup1\n        /* \"#utility.yul\":3701:3713   */\n      revert\n        /* \"#utility.yul\":3725:3842   */\n    tag_142:\n        /* \"#utility.yul\":3834:3835   */\n      0x00\n        /* \"#utility.yul\":3831:3832   */\n      dup1\n        /* \"#utility.yul\":3824:3836   */\n      revert\n        /* \"#utility.yul\":3848:4028   */\n    tag_143:\n        /* \"#utility.yul\":3896:3973   */\n      0x4e487b7100000000000000000000000000000000000000000000000000000000\n        /* \"#utility.yul\":3893:3894   */\n      0x00\n        /* \"#utility.yul\":3886:3974   */\n      mstore\n        /* \"#utility.yul\":3993:3997   */\n      0x41\n        /* \"#utility.yul\":3990:3991   */\n      0x04\n        /* \"#utility.yul\":3983:3998   */\n      mstore\n        /* \"#utility.yul\":4017:4021   */\n      0x24\n        /* \"#utility.yul\":4014:4015   */\n      0x00\n        /* \"#utility.yul\":4007:4022   */\n      revert\n        /* \"#utility.yul\":4034:4315   */\n    tag_144:\n        /* \"#utility.yul\":4117:4144   */\n      tag_240\n        /* \"#utility.yul\":4139:4143   */\n      dup3\n        /* \"#utility.yul\":4117:4144   */\n      tag_139\n      jump\t// in\n    tag_240:\n        /* \"#utility.yul\":4109:4115   */\n      dup2\n        /* \"#utility.yul\":4105:4145   */\n      add\n        /* \"#utility.yul\":4247:4253   */\n      dup2\n        /* \"#utility.yul\":4235:4245   */\n      dup2\n        /* \"#utility.yul\":4232:4254   */\n      lt\n        /* \"#utility.yul\":4211:4229   */\n      0xffffffffffffffff\n        /* \"#utility.yul\":4199:4209   */\n      dup3\n        /* \"#utility.yul\":4196:4230   */\n      gt\n        /* \"#utility.yul\":4193:4255   */\n      or\n        /* \"#utility.yul\":4190:4278   */\n      iszero\n      tag_241\n      jumpi\n        /* \"#utility.yul\":4258:4276   */\n      tag_242\n      tag_143\n      jump\t// in\n    tag_242:\n        /* \"#utility.yul\":4190:4278   */\n    tag_241:\n        /* \"#utility.yul\":4298:4308   */\n      dup1\n        /* \"#utility.yul\":4294:4296   */\n      0x40\n        /* \"#utility.yul\":4287:4309   */\n      mstore\n        /* \"#utility.yul\":4077:4315   */\n      pop\n        /* \"#utility.yul\":4034:4315   */\n      pop\n      pop\n      jump\t// out\n        /* \"#utility.yul\":4321:4450   */\n    tag_145:\n        /* \"#utility.yul\":4355:4361   */\n      0x00\n        /* \"#utility.yul\":4382:4402   */\n      tag_244\n      tag_124\n      jump\t// in\n    tag_244:\n        /* \"#utility.yul\":4372:4402   */\n      swap1\n      pop\n        /* \"#utility.yul\":4411:4444   */\n      tag_245\n        /* \"#utility.yul\":4439:4443   */\n      dup3\n        /* \"#utility.yul\":4431:4437   */\n      dup3\n        /* \"#utility.yul\":4411:4444   */\n      tag_144\n      jump\t// in\n    tag_245:\n        /* \"#utility.yul\":4321:4450   */\n      swap2\n      swap1\n      pop\n      jump\t// out\n        /* \"#utility.yul\":4456:4764   */\n    tag_146:\n        /* \"#utility.yul\":4518:4522   */\n      0x00\n        /* \"#utility.yul\":4608:4626   */\n      0xffffffffffffffff\n        /* \"#utility.yul\":4600:4606   */\n      dup3\n        /* \"#utility.yul\":4597:4627   */\n      gt\n        /* \"#utility.yul\":4594:4650   */\n      iszero\n      tag_247\n      jumpi\n        /* \"#utility.yul\":4630:4648   */\n      tag_248\n      tag_143\n      jump\t// in\n    tag_248:\n        /* \"#utility.yul\":4594:4650   */\n    tag_247:\n        /* \"#utility.yul\":4668:4697   */\n      tag_249\n        /* \"#utility.yul\":4690:4696   */\n      dup3\n        /* \"#utility.yul\":4668:4697   */\n      tag_139\n      jump\t// in\n    tag_249:\n        /* \"#utility.yul\":4660:4697   */\n      swap1\n      pop\n        /* \"#utility.yul\":4752:4756   */\n      0x20\n        /* \"#utility.yul\":4746:4750   */\n      dup2\n        /* \"#utility.yul\":4742:4757   */\n      add\n        /* \"#utility.yul\":4734:4757   */\n      swap1\n      pop\n        /* \"#utility.yul\":4456:4764   */\n      swap2\n      swap1\n      pop\n      jump\t// out\n        /* \"#utility.yul\":4770:4918   */\n    tag_147:\n        /* \"#utility.yul\":4868:4874   */\n      dup3\n        /* \"#utility.yul\":4863:4866   */\n      dup2\n        /* \"#utility.yul\":4858:4861   */\n      dup4\n        /* \"#utility.yul\":4845:4875   */\n      calldatacopy\n        /* \"#utility.yul\":4909:4910   */\n      0x00\n        /* \"#utility.yul\":4900:4906   */\n      dup4\n        /* \"#utility.yul\":4895:4898   */\n      dup4\n        /* \"#utility.yul\":4891:4907   */\n      add\n        /* \"#utility.yul\":4884:4911   */\n      mstore\n        /* \"#utility.yul\":4770:4918   */\n      pop\n      pop\n      pop\n      jump\t// out\n        /* \"#utility.yul\":4924:5349   */\n    tag_148:\n        /* \"#utility.yul\":5002:5007   */\n      0x00\n        /* \"#utility.yul\":5027:5093   */\n      tag_252\n        /* \"#utility.yul\":5043:5092   */\n      tag_253\n        /* \"#utility.yul\":5085:5091   */\n      dup5\n        /* \"#utility.yul\":5043:5092   */\n      tag_146\n      jump\t// in\n    tag_253:\n        /* \"#utility.yul\":5027:5093   */\n      tag_145\n      jump\t// in\n    tag_252:\n        /* \"#utility.yul\":5018:5093   */\n      swap1\n      pop\n        /* \"#utility.yul\":5116:5122   */\n      dup3\n        /* \"#utility.yul\":5109:5114   */\n      dup2\n        /* \"#utility.yul\":5102:5123   */\n      mstore\n        /* \"#utility.yul\":5154:5158   */\n      0x20\n        /* \"#utility.yul\":5147:5152   */\n      dup2\n        /* \"#utility.yul\":5143:5159   */\n      add\n        /* \"#utility.yul\":5192:5195   */\n      dup5\n        /* \"#utility.yul\":5183:5189   */\n      dup5\n        /* \"#utility.yul\":5178:5181   */\n      dup5\n        /* \"#utility.yul\":5174:5190   */\n      add\n        /* \"#utility.yul\":5171:5196   */\n      gt\n        /* \"#utility.yul\":5168:5280   */\n      iszero\n      tag_254\n      jumpi\n        /* \"#utility.yul\":5199:5278   */\n      tag_255\n      tag_142\n      jump\t// in\n    tag_255:\n        /* \"#utility.yul\":5168:5280   */\n    tag_254:\n        /* \"#utility.yul\":5289:5343   */\n      tag_256\n        /* \"#utility.yul\":5336:5342   */\n      dup5\n        /* \"#utility.yul\":5331:5334   */\n      dup3\n        /* \"#utility.yul\":5326:5329   */\n      dup6\n        /* \"#utility.yul\":5289:5343   */\n      tag_147\n      jump\t// in\n    tag_256:\n        /* \"#utility.yul\":5008:5349   */\n      pop\n        /* \"#utility.yul\":4924:5349   */\n      swap4\n      swap3\n      pop\n      pop\n      pop\n      jump\t// out\n        /* \"#utility.yul\":5369:5709   */\n    tag_149:\n        /* \"#utility.yul\":5425:5430   */\n      0x00\n        /* \"#utility.yul\":5474:5477   */\n      dup3\n        /* \"#utility.yul\":5467:5471   */\n      0x1f\n        /* \"#utility.yul\":5459:5465   */\n      dup4\n        /* \"#utility.yul\":5455:5472   */\n      add\n        /* \"#utility.yul\":5451:5478   */\n      slt\n        /* \"#utility.yul\":5441:5563   */\n      tag_258\n      jumpi\n        /* \"#utility.yul\":5482:5561   */\n      tag_259\n      tag_141\n      jump\t// in\n    tag_259:\n        /* \"#utility.yul\":5441:5563   */\n    tag_258:\n        /* \"#utility.yul\":5599:5605   */\n      dup2\n        /* \"#utility.yul\":5586:5606   */\n      calldataload\n        /* \"#utility.yul\":5624:5703   */\n      tag_260\n        /* \"#utility.yul\":5699:5702   */\n      dup5\n        /* \"#utility.yul\":5691:5697   */\n      dup3\n        /* \"#utility.yul\":5684:5688   */\n      0x20\n        /* \"#utility.yul\":5676:5682   */\n      dup7\n        /* \"#utility.yul\":5672:5689   */\n      add\n        /* \"#utility.yul\":5624:5703   */\n      tag_148\n      jump\t// in\n    tag_260:\n        /* \"#utility.yul\":5615:5703   */\n      swap2\n      pop\n        /* \"#utility.yul\":5431:5709   */\n      pop\n        /* \"#utility.yul\":5369:5709   */\n      swap3\n      swap2\n      pop\n      pop\n      jump\t// out\n        /* \"#utility.yul\":5715:6224   */\n    tag_21:\n        /* \"#utility.yul\":5784:5790   */\n      0x00\n        /* \"#utility.yul\":5833:5835   */\n      0x20\n        /* \"#utility.yul\":5821:5830   */\n      dup3\n        /* \"#utility.yul\":5812:5819   */\n      dup5\n        /* \"#utility.yul\":5808:5831   */\n      sub\n        /* \"#utility.yul\":5804:5836   */\n      slt\n        /* \"#utility.yul\":5801:5920   */\n      iszero\n      tag_262\n      jumpi\n        /* \"#utility.yul\":5839:5918   */\n      tag_263\n      tag_125\n      jump\t// in\n    tag_263:\n        /* \"#utility.yul\":5801:5920   */\n    tag_262:\n        /* \"#utility.yul\":5987:5988   */\n      0x00\n        /* \"#utility.yul\":5976:5985   */\n      dup3\n        /* \"#utility.yul\":5972:5989   */\n      add\n        /* \"#utility.yul\":5959:5990   */\n      calldataload\n        /* \"#utility.yul\":6017:6035   */\n      0xffffffffffffffff\n        /* \"#utility.yul\":6009:6015   */\n      dup2\n        /* \"#utility.yul\":6006:6036   */\n      gt\n        /* \"#utility.yul\":6003:6120   */\n      iszero\n      tag_264\n      jumpi\n        /* \"#utility.yul\":6039:6118   */\n      tag_265\n      tag_126\n      jump\t// in\n    tag_265:\n        /* \"#utility.yul\":6003:6120   */\n    tag_264:\n        /* \"#utility.yul\":6144:6207   */\n      tag_266\n        /* \"#utility.yul\":6199:6206   */\n      dup5\n        /* \"#utility.yul\":6190:6196   */\n      dup3\n        /* \"#utility.yul\":6179:6188   */\n      dup6\n        /* \"#utility.yul\":6175:6197   */\n      add\n        /* \"#utility.yul\":6144:6207   */\n      tag_149\n      jump\t// in\n    tag_266:\n        /* \"#utility.yul\":6134:6207   */\n      swap2\n      pop\n        /* \"#utility.yul\":5930:6217   */\n      pop\n        /* \"#utility.yul\":5715:6224   */\n      swap3\n      swap2\n      pop\n      pop\n      jump\t// out\n        /* \"#utility.yul\":6230:6559   */\n    tag_25:\n        /* \"#utility.yul\":6289:6295   */\n      0x00\n        /* \"#utility.yul\":6338:6340   */\n      0x20\n        /* \"#utility.yul\":6326:6335   */\n      dup3\n        /* \"#utility.yul\":6317:6324   */\n      dup5\n        /* \"#utility.yul\":6313:6336   */\n      sub\n        /* \"#utility.yul\":6309:6341   */\n      slt\n        /* \"#utility.yul\":6306:6425   */\n      iszero\n      tag_268\n      jumpi\n        /* \"#utility.yul\":6344:6423   */\n      tag_269\n      tag_125\n      jump\t// in\n    tag_269:\n        /* \"#utility.yul\":6306:6425   */\n    tag_268:\n        /* \"#utility.yul\":6464:6465   */\n      0x00\n        /* \"#utility.yul\":6489:6542   */\n      tag_270\n        /* \"#utility.yul\":6534:6541   */\n      dup5\n        /* \"#utility.yul\":6525:6531   */\n      dup3\n        /* \"#utility.yul\":6514:6523   */\n      dup6\n        /* \"#utility.yul\":6510:6532   */\n      add\n        /* \"#utility.yul\":6489:6542   */\n      tag_130\n      jump\t// in\n    tag_270:\n        /* \"#utility.yul\":6479:6542   */\n      swap2\n      pop\n        /* \"#utility.yul\":6435:6552   */\n      pop\n        /* \"#utility.yul\":6230:6559   */\n      swap3\n      swap2\n      pop\n      pop\n      jump\t// out\n        /* \"#utility.yul\":6565:6700   */\n    tag_150:\n        /* \"#utility.yul\":6653:6659   */\n      0x00\n        /* \"#utility.yul\":6687:6692   */\n      dup2\n        /* \"#utility.yul\":6681:6693   */\n      mload\n        /* \"#utility.yul\":6671:6693   */\n      swap1\n      pop\n        /* \"#utility.yul\":6565:6700   */\n      swap2\n      swap1\n      pop\n      jump\t// out\n        /* \"#utility.yul\":6706:6911   */\n    tag_151:\n        /* \"#utility.yul\":6826:6837   */\n      0x00\n        /* \"#utility.yul\":6860:6866   */\n      dup3\n        /* \"#utility.yul\":6855:6858   */\n      dup3\n        /* \"#utility.yul\":6848:6867   */\n      mstore\n        /* \"#utility.yul\":6900:6904   */\n      0x20\n        /* \"#utility.yul\":6895:6898   */\n      dup3\n        /* \"#utility.yul\":6891:6905   */\n      add\n        /* \"#utility.yul\":6876:6905   */\n      swap1\n      pop\n        /* \"#utility.yul\":6706:6911   */\n      swap3\n      swap2\n      pop\n      pop\n      jump\t// out\n        /* \"#utility.yul\":6917:7070   */\n    tag_152:\n        /* \"#utility.yul\":7005:7009   */\n      0x00\n        /* \"#utility.yul\":7028:7031   */\n      dup2\n        /* \"#utility.yul\":7020:7031   */\n      swap1\n      pop\n        /* \"#utility.yul\":7058:7062   */\n      0x20\n        /* \"#utility.yul\":7053:7056   */\n      dup3\n        /* \"#utility.yul\":7049:7063   */\n      add\n        /* \"#utility.yul\":7041:7063   */\n      swap1\n      pop\n        /* \"#utility.yul\":6917:7070   */\n      swap2\n      swap1\n      pop\n      jump\t// out\n        /* \"#utility.yul\":7076:7184   */\n    tag_153:\n        /* \"#utility.yul\":7153:7177   */\n      tag_275\n        /* \"#utility.yul\":7171:7176   */\n      dup2\n        /* \"#utility.yul\":7153:7177   */\n      tag_131\n      jump\t// in\n    tag_275:\n        /* \"#utility.yul\":7148:7151   */\n      dup3\n        /* \"#utility.yul\":7141:7178   */\n      mstore\n        /* \"#utility.yul\":7076:7184   */\n      pop\n      pop\n      jump\t// out\n        /* \"#utility.yul\":7190:7298   */\n    tag_154:\n        /* \"#utility.yul\":7267:7291   */\n      tag_277\n        /* \"#utility.yul\":7285:7290   */\n      dup2\n        /* \"#utility.yul\":7267:7291   */\n      tag_128\n      jump\t// in\n    tag_277:\n        /* \"#utility.yul\":7262:7265   */\n      dup3\n        /* \"#utility.yul\":7255:7292   */\n      mstore\n        /* \"#utility.yul\":7190:7298   */\n      pop\n      pop\n      jump\t// out\n        /* \"#utility.yul\":7304:7463   */\n    tag_155:\n        /* \"#utility.yul\":7378:7389   */\n      0x00\n        /* \"#utility.yul\":7412:7418   */\n      dup3\n        /* \"#utility.yul\":7407:7410   */\n      dup3\n        /* \"#utility.yul\":7400:7419   */\n      mstore\n        /* \"#utility.yul\":7452:7456   */\n      0x20\n        /* \"#utility.yul\":7447:7450   */\n      dup3\n        /* \"#utility.yul\":7443:7457   */\n      add\n        /* \"#utility.yul\":7428:7457   */\n      swap1\n      pop\n        /* \"#utility.yul\":7304:7463   */\n      swap3\n      swap2\n      pop\n      pop\n      jump\t// out\n        /* \"#utility.yul\":7469:7826   */\n    tag_156:\n        /* \"#utility.yul\":7547:7550   */\n      0x00\n        /* \"#utility.yul\":7575:7614   */\n      tag_280\n        /* \"#utility.yul\":7608:7613   */\n      dup3\n        /* \"#utility.yul\":7575:7614   */\n      tag_136\n      jump\t// in\n    tag_280:\n        /* \"#utility.yul\":7630:7691   */\n      tag_281\n        /* \"#utility.yul\":7684:7690   */\n      dup2\n        /* \"#utility.yul\":7679:7682   */\n      dup6\n        /* \"#utility.yul\":7630:7691   */\n      tag_155\n      jump\t// in\n    tag_281:\n        /* \"#utility.yul\":7623:7691   */\n      swap4\n      pop\n        /* \"#utility.yul\":7700:7765   */\n      tag_282\n        /* \"#utility.yul\":7758:7764   */\n      dup2\n        /* \"#utility.yul\":7753:7756   */\n      dup6\n        /* \"#utility.yul\":7746:7750   */\n      0x20\n        /* \"#utility.yul\":7739:7744   */\n      dup7\n        /* \"#utility.yul\":7735:7751   */\n      add\n        /* \"#utility.yul\":7700:7765   */\n      tag_138\n      jump\t// in\n    tag_282:\n        /* \"#utility.yul\":7790:7819   */\n      tag_283\n        /* \"#utility.yul\":7812:7818   */\n      dup2\n        /* \"#utility.yul\":7790:7819   */\n      tag_139\n      jump\t// in\n    tag_283:\n        /* \"#utility.yul\":7785:7788   */\n      dup5\n        /* \"#utility.yul\":7781:7820   */\n      add\n        /* \"#utility.yul\":7774:7820   */\n      swap2\n      pop\n        /* \"#utility.yul\":7551:7826   */\n      pop\n        /* \"#utility.yul\":7469:7826   */\n      swap3\n      swap2\n      pop\n      pop\n      jump\t// out\n        /* \"#utility.yul\":7884:9003   */\n    tag_157:\n        /* \"#utility.yul\":7985:7988   */\n      0x00\n        /* \"#utility.yul\":8021:8025   */\n      0xa0\n        /* \"#utility.yul\":8016:8019   */\n      dup4\n        /* \"#utility.yul\":8012:8026   */\n      add\n        /* \"#utility.yul\":8106:8110   */\n      0x00\n        /* \"#utility.yul\":8099:8104   */\n      dup4\n        /* \"#utility.yul\":8095:8111   */\n      add\n        /* \"#utility.yul\":8089:8112   */\n      mload\n        /* \"#utility.yul\":8125:8188   */\n      tag_285\n        /* \"#utility.yul\":8182:8186   */\n      0x00\n        /* \"#utility.yul\":8177:8180   */\n      dup7\n        /* \"#utility.yul\":8173:8187   */\n      add\n        /* \"#utility.yul\":8159:8171   */\n      dup3\n        /* \"#utility.yul\":8125:8188   */\n      tag_153\n      jump\t// in\n    tag_285:\n        /* \"#utility.yul\":8036:8198   */\n      pop\n        /* \"#utility.yul\":8282:8286   */\n      0x20\n        /* \"#utility.yul\":8275:8280   */\n      dup4\n        /* \"#utility.yul\":8271:8287   */\n      add\n        /* \"#utility.yul\":8265:8288   */\n      mload\n        /* \"#utility.yul\":8301:8364   */\n      tag_286\n        /* \"#utility.yul\":8358:8362   */\n      0x20\n        /* \"#utility.yul\":8353:8356   */\n      dup7\n        /* \"#utility.yul\":8349:8363   */\n      add\n        /* \"#utility.yul\":8335:8347   */\n      dup3\n        /* \"#utility.yul\":8301:8364   */\n      tag_154\n      jump\t// in\n    tag_286:\n        /* \"#utility.yul\":8208:8374   */\n      pop\n        /* \"#utility.yul\":8459:8463   */\n      0x40\n        /* \"#utility.yul\":8452:8457   */\n      dup4\n        /* \"#utility.yul\":8448:8464   */\n      add\n        /* \"#utility.yul\":8442:8465   */\n      mload\n        /* \"#utility.yul\":8512:8515   */\n      dup5\n        /* \"#utility.yul\":8506:8510   */\n      dup3\n        /* \"#utility.yul\":8502:8516   */\n      sub\n        /* \"#utility.yul\":8495:8499   */\n      0x40\n        /* \"#utility.yul\":8490:8493   */\n      dup7\n        /* \"#utility.yul\":8486:8500   */\n      add\n        /* \"#utility.yul\":8479:8517   */\n      mstore\n        /* \"#utility.yul\":8538:8611   */\n      tag_287\n        /* \"#utility.yul\":8606:8610   */\n      dup3\n        /* \"#utility.yul\":8592:8604   */\n      dup3\n        /* \"#utility.yul\":8538:8611   */\n      tag_156\n      jump\t// in\n    tag_287:\n        /* \"#utility.yul\":8530:8611   */\n      swap2\n      pop\n        /* \"#utility.yul\":8384:8622   */\n      pop\n        /* \"#utility.yul\":8709:8713   */\n      0x60\n        /* \"#utility.yul\":8702:8707   */\n      dup4\n        /* \"#utility.yul\":8698:8714   */\n      add\n        /* \"#utility.yul\":8692:8715   */\n      mload\n        /* \"#utility.yul\":8728:8791   */\n      tag_288\n        /* \"#utility.yul\":8785:8789   */\n      0x60\n        /* \"#utility.yul\":8780:8783   */\n      dup7\n        /* \"#utility.yul\":8776:8790   */\n      add\n        /* \"#utility.yul\":8762:8774   */\n      dup3\n        /* \"#utility.yul\":8728:8791   */\n      tag_153\n      jump\t// in\n    tag_288:\n        /* \"#utility.yul\":8632:8801   */\n      pop\n        /* \"#utility.yul\":8884:8888   */\n      0x80\n        /* \"#utility.yul\":8877:8882   */\n      dup4\n        /* \"#utility.yul\":8873:8889   */\n      add\n        /* \"#utility.yul\":8867:8890   */\n      mload\n        /* \"#utility.yul\":8903:8966   */\n      tag_289\n        /* \"#utility.yul\":8960:8964   */\n      0x80\n        /* \"#utility.yul\":8955:8958   */\n      dup7\n        /* \"#utility.yul\":8951:8965   */\n      add\n        /* \"#utility.yul\":8937:8949   */\n      dup3\n        /* \"#utility.yul\":8903:8966   */\n      tag_153\n      jump\t// in\n    tag_289:\n        /* \"#utility.yul\":8811:8976   */\n      pop\n        /* \"#utility.yul\":8993:8997   */\n      dup1\n        /* \"#utility.yul\":8986:8997   */\n      swap2\n      pop\n        /* \"#utility.yul\":7990:9003   */\n      pop\n        /* \"#utility.yul\":7884:9003   */\n      swap3\n      swap2\n      pop\n      pop\n      jump\t// out\n        /* \"#utility.yul\":9009:9249   */\n    tag_158:\n        /* \"#utility.yul\":9120:9130   */\n      0x00\n        /* \"#utility.yul\":9155:9243   */\n      tag_291\n        /* \"#utility.yul\":9239:9242   */\n      dup4\n        /* \"#utility.yul\":9231:9237   */\n      dup4\n        /* \"#utility.yul\":9155:9243   */\n      tag_157\n      jump\t// in\n    tag_291:\n        /* \"#utility.yul\":9141:9243   */\n      swap1\n      pop\n        /* \"#utility.yul\":9009:9249   */\n      swap3\n      swap2\n      pop\n      pop\n      jump\t// out\n        /* \"#utility.yul\":9255:9389   */\n    tag_159:\n        /* \"#utility.yul\":9346:9350   */\n      0x00\n        /* \"#utility.yul\":9378:9382   */\n      0x20\n        /* \"#utility.yul\":9373:9376   */\n      dup3\n        /* \"#utility.yul\":9369:9383   */\n      add\n        /* \"#utility.yul\":9361:9383   */\n      swap1\n      pop\n        /* \"#utility.yul\":9255:9389   */\n      swap2\n      swap1\n      pop\n      jump\t// out\n        /* \"#utility.yul\":9451:10530   */\n    tag_160:\n        /* \"#utility.yul\":9612:9615   */\n      0x00\n        /* \"#utility.yul\":9641:9716   */\n      tag_294\n        /* \"#utility.yul\":9710:9715   */\n      dup3\n        /* \"#utility.yul\":9641:9716   */\n      tag_150\n      jump\t// in\n    tag_294:\n        /* \"#utility.yul\":9732:9839   */\n      tag_295\n        /* \"#utility.yul\":9832:9838   */\n      dup2\n        /* \"#utility.yul\":9827:9830   */\n      dup6\n        /* \"#utility.yul\":9732:9839   */\n      tag_151\n      jump\t// in\n    tag_295:\n        /* \"#utility.yul\":9725:9839   */\n      swap4\n      pop\n        /* \"#utility.yul\":9865:9868   */\n      dup4\n        /* \"#utility.yul\":9910:9914   */\n      0x20\n        /* \"#utility.yul\":9902:9908   */\n      dup3\n        /* \"#utility.yul\":9898:9915   */\n      mul\n        /* \"#utility.yul\":9893:9896   */\n      dup6\n        /* \"#utility.yul\":9889:9916   */\n      add\n        /* \"#utility.yul\":9940:10017   */\n      tag_296\n        /* \"#utility.yul\":10011:10016   */\n      dup6\n        /* \"#utility.yul\":9940:10017   */\n      tag_152\n      jump\t// in\n    tag_296:\n        /* \"#utility.yul\":10040:10047   */\n      dup1\n        /* \"#utility.yul\":10071:10072   */\n      0x00\n        /* \"#utility.yul\":10056:10485   */\n    tag_297:\n        /* \"#utility.yul\":10081:10087   */\n      dup6\n        /* \"#utility.yul\":10078:10079   */\n      dup2\n        /* \"#utility.yul\":10075:10088   */\n      lt\n        /* \"#utility.yul\":10056:10485   */\n      iszero\n      tag_299\n      jumpi\n        /* \"#utility.yul\":10152:10161   */\n      dup5\n        /* \"#utility.yul\":10146:10150   */\n      dup5\n        /* \"#utility.yul\":10142:10162   */\n      sub\n        /* \"#utility.yul\":10137:10140   */\n      dup10\n        /* \"#utility.yul\":10130:10163   */\n      mstore\n        /* \"#utility.yul\":10203:10209   */\n      dup2\n        /* \"#utility.yul\":10197:10210   */\n      mload\n        /* \"#utility.yul\":10231:10337   */\n      tag_300\n        /* \"#utility.yul\":10332:10336   */\n      dup6\n        /* \"#utility.yul\":10317:10330   */\n      dup3\n        /* \"#utility.yul\":10231:10337   */\n      tag_158\n      jump\t// in\n    tag_300:\n        /* \"#utility.yul\":10223:10337   */\n      swap5\n      pop\n        /* \"#utility.yul\":10360:10441   */\n      tag_301\n        /* \"#utility.yul\":10434:10440   */\n      dup4\n        /* \"#utility.yul\":10360:10441   */\n      tag_159\n      jump\t// in\n    tag_301:\n        /* \"#utility.yul\":10350:10441   */\n      swap3\n      pop\n        /* \"#utility.yul\":10470:10474   */\n      0x20\n        /* \"#utility.yul\":10465:10468   */\n      dup11\n        /* \"#utility.yul\":10461:10475   */\n      add\n        /* \"#utility.yul\":10454:10475   */\n      swap10\n      pop\n        /* \"#utility.yul\":10116:10485   */\n      pop\n        /* \"#utility.yul\":10103:10104   */\n      0x01\n        /* \"#utility.yul\":10100:10101   */\n      dup2\n        /* \"#utility.yul\":10096:10105   */\n      add\n        /* \"#utility.yul\":10091:10105   */\n      swap1\n      pop\n        /* \"#utility.yul\":10056:10485   */\n      jump(tag_297)\n    tag_299:\n        /* \"#utility.yul\":10060:10074   */\n      pop\n        /* \"#utility.yul\":10501:10505   */\n      dup3\n        /* \"#utility.yul\":10494:10505   */\n      swap8\n      pop\n        /* \"#utility.yul\":10521:10524   */\n      dup8\n        /* \"#utility.yul\":10514:10524   */\n      swap6\n      pop\n        /* \"#utility.yul\":9617:10530   */\n      pop\n      pop\n      pop\n      pop\n      pop\n        /* \"#utility.yul\":9451:10530   */\n      swap3\n      swap2\n      pop\n      pop\n      jump\t// out\n        /* \"#utility.yul\":10536:10993   */\n    tag_28:\n        /* \"#utility.yul\":10721:10725   */\n      0x00\n        /* \"#utility.yul\":10759:10761   */\n      0x20\n        /* \"#utility.yul\":10748:10757   */\n      dup3\n        /* \"#utility.yul\":10744:10762   */\n      add\n        /* \"#utility.yul\":10736:10762   */\n      swap1\n      pop\n        /* \"#utility.yul\":10808:10817   */\n      dup2\n        /* \"#utility.yul\":10802:10806   */\n      dup2\n        /* \"#utility.yul\":10798:10818   */\n      sub\n        /* \"#utility.yul\":10794:10795   */\n      0x00\n        /* \"#utility.yul\":10783:10792   */\n      dup4\n        /* \"#utility.yul\":10779:10796   */\n      add\n        /* \"#utility.yul\":10772:10819   */\n      mstore\n        /* \"#utility.yul\":10836:10986   */\n      tag_303\n        /* \"#utility.yul\":10981:10985   */\n      dup2\n        /* \"#utility.yul\":10972:10978   */\n      dup5\n        /* \"#utility.yul\":10836:10986   */\n      tag_160\n      jump\t// in\n    tag_303:\n        /* \"#utility.yul\":10828:10986   */\n      swap1\n      pop\n        /* \"#utility.yul\":10536:10993   */\n      swap3\n      swap2\n      pop\n      pop\n      jump\t// out\n        /* \"#utility.yul\":10999:11088   */\n    tag_161:\n        /* \"#utility.yul\":11035:11042   */\n      0x00\n        /* \"#utility.yul\":11075:11081   */\n      0xffff\n        /* \"#utility.yul\":11068:11073   */\n      dup3\n        /* \"#utility.yul\":11064:11082   */\n      and\n        /* \"#utility.yul\":11053:11082   */\n      swap1\n      pop\n        /* \"#utility.yul\":10999:11088   */\n      swap2\n      swap1\n      pop\n      jump\t// out\n        /* \"#utility.yul\":11094:11214   */\n    tag_162:\n        /* \"#utility.yul\":11166:11189   */\n      tag_306\n        /* \"#utility.yul\":11183:11188   */\n      dup2\n        /* \"#utility.yul\":11166:11189   */\n      tag_161\n      jump\t// in\n    tag_306:\n        /* \"#utility.yul\":11159:11164   */\n      dup2\n        /* \"#utility.yul\":11156:11190   */\n      eq\n        /* \"#utility.yul\":11146:11208   */\n      tag_307\n      jumpi\n        /* \"#utility.yul\":11204:11205   */\n      0x00\n        /* \"#utility.yul\":11201:11202   */\n      dup1\n        /* \"#utility.yul\":11194:11206   */\n      revert\n        /* \"#utility.yul\":11146:11208   */\n    tag_307:\n        /* \"#utility.yul\":11094:11214   */\n      pop\n      jump\t// out\n        /* \"#utility.yul\":11220:11357   */\n    tag_163:\n        /* \"#utility.yul\":11265:11270   */\n      0x00\n        /* \"#utility.yul\":11303:11309   */\n      dup2\n        /* \"#utility.yul\":11290:11310   */\n      calldataload\n        /* \"#utility.yul\":11281:11310   */\n      swap1\n      pop\n        /* \"#utility.yul\":11319:11351   */\n      tag_309\n        /* \"#utility.yul\":11345:11350   */\n      dup2\n        /* \"#utility.yul\":11319:11351   */\n      tag_162\n      jump\t// in\n    tag_309:\n        /* \"#utility.yul\":11220:11357   */\n      swap3\n      swap2\n      pop\n      pop\n      jump\t// out\n        /* \"#utility.yul\":11363:11690   */\n    tag_34:\n        /* \"#utility.yul\":11421:11427   */\n      0x00\n        /* \"#utility.yul\":11470:11472   */\n      0x20\n        /* \"#utility.yul\":11458:11467   */\n      dup3\n        /* \"#utility.yul\":11449:11456   */\n      dup5\n        /* \"#utility.yul\":11445:11468   */\n      sub\n        /* \"#utility.yul\":11441:11473   */\n      slt\n        /* \"#utility.yul\":11438:11557   */\n      iszero\n      tag_311\n      jumpi\n        /* \"#utility.yul\":11476:11555   */\n      tag_312\n      tag_125\n      jump\t// in\n    tag_312:\n        /* \"#utility.yul\":11438:11557   */\n    tag_311:\n        /* \"#utility.yul\":11596:11597   */\n      0x00\n        /* \"#utility.yul\":11621:11673   */\n      tag_313\n        /* \"#utility.yul\":11665:11672   */\n      dup5\n        /* \"#utility.yul\":11656:11662   */\n      dup3\n        /* \"#utility.yul\":11645:11654   */\n      dup6\n        /* \"#utility.yul\":11641:11663   */\n      add\n        /* \"#utility.yul\":11621:11673   */\n      tag_163\n      jump\t// in\n    tag_313:\n        /* \"#utility.yul\":11611:11673   */\n      swap2\n      pop\n        /* \"#utility.yul\":11567:11683   */\n      pop\n        /* \"#utility.yul\":11363:11690   */\n      swap3\n      swap2\n      pop\n      pop\n      jump\t// out\n        /* \"#utility.yul\":11696:11789   */\n    tag_164:\n        /* \"#utility.yul\":11732:11739   */\n      0x00\n        /* \"#utility.yul\":11772:11782   */\n      0xffffffff\n        /* \"#utility.yul\":11765:11770   */\n      dup3\n        /* \"#utility.yul\":11761:11783   */\n      and\n        /* \"#utility.yul\":11750:11783   */\n      swap1\n      pop\n        /* \"#utility.yul\":11696:11789   */\n      swap2\n      swap1\n      pop\n      jump\t// out\n        /* \"#utility.yul\":11795:11910   */\n    tag_165:\n        /* \"#utility.yul\":11880:11903   */\n      tag_316\n        /* \"#utility.yul\":11897:11902   */\n      dup2\n        /* \"#utility.yul\":11880:11903   */\n      tag_164\n      jump\t// in\n    tag_316:\n        /* \"#utility.yul\":11875:11878   */\n      dup3\n        /* \"#utility.yul\":11868:11904   */\n      mstore\n        /* \"#utility.yul\":11795:11910   */\n      pop\n      pop\n      jump\t// out\n        /* \"#utility.yul\":11916:12134   */\n    tag_42:\n        /* \"#utility.yul\":12007:12011   */\n      0x00\n        /* \"#utility.yul\":12045:12047   */\n      0x20\n        /* \"#utility.yul\":12034:12043   */\n      dup3\n        /* \"#utility.yul\":12030:12048   */\n      add\n        /* \"#utility.yul\":12022:12048   */\n      swap1\n      pop\n        /* \"#utility.yul\":12058:12127   */\n      tag_318\n        /* \"#utility.yul\":12124:12125   */\n      0x00\n        /* \"#utility.yul\":12113:12122   */\n      dup4\n        /* \"#utility.yul\":12109:12126   */\n      add\n        /* \"#utility.yul\":12100:12106   */\n      dup5\n        /* \"#utility.yul\":12058:12127   */\n      tag_165\n      jump\t// in\n    tag_318:\n        /* \"#utility.yul\":11916:12134   */\n      swap3\n      swap2\n      pop\n      pop\n      jump\t// out\n        /* \"#utility.yul\":12140:12362   */\n    tag_46:\n        /* \"#utility.yul\":12233:12237   */\n      0x00\n        /* \"#utility.yul\":12271:12273   */\n      0x20\n        /* \"#utility.yul\":12260:12269   */\n      dup3\n        /* \"#utility.yul\":12256:12274   */\n      add\n        /* \"#utility.yul\":12248:12274   */\n      swap1\n      pop\n        /* \"#utility.yul\":12284:12355   */\n      tag_320\n        /* \"#utility.yul\":12352:12353   */\n      0x00\n        /* \"#utility.yul\":12341:12350   */\n      dup4\n        /* \"#utility.yul\":12337:12354   */\n      add\n        /* \"#utility.yul\":12328:12334   */\n      dup5\n        /* \"#utility.yul\":12284:12355   */\n      tag_135\n      jump\t// in\n    tag_320:\n        /* \"#utility.yul\":12140:12362   */\n      swap3\n      swap2\n      pop\n      pop\n      jump\t// out\n        /* \"#utility.yul\":12368:12697   */\n    tag_49:\n        /* \"#utility.yul\":12427:12433   */\n      0x00\n        /* \"#utility.yul\":12476:12478   */\n      0x20\n        /* \"#utility.yul\":12464:12473   */\n      dup3\n        /* \"#utility.yul\":12455:12462   */\n      dup5\n        /* \"#utility.yul\":12451:12474   */\n      sub\n        /* \"#utility.yul\":12447:12479   */\n      slt\n        /* \"#utility.yul\":12444:12563   */\n      iszero\n      tag_322\n      jumpi\n        /* \"#utility.yul\":12482:12561   */\n      tag_323\n      tag_125\n      jump\t// in\n    tag_323:\n        /* \"#utility.yul\":12444:12563   */\n    tag_322:\n        /* \"#utility.yul\":12602:12603   */\n      0x00\n        /* \"#utility.yul\":12627:12680   */\n      tag_324\n        /* \"#utility.yul\":12672:12679   */\n      dup5\n        /* \"#utility.yul\":12663:12669   */\n      dup3\n        /* \"#utility.yul\":12652:12661   */\n      dup6\n        /* \"#utility.yul\":12648:12670   */\n      add\n        /* \"#utility.yul\":12627:12680   */\n      tag_133\n      jump\t// in\n    tag_324:\n        /* \"#utility.yul\":12617:12680   */\n      swap2\n      pop\n        /* \"#utility.yul\":12573:12690   */\n      pop\n        /* \"#utility.yul\":12368:12697   */\n      swap3\n      swap2\n      pop\n      pop\n      jump\t// out\n        /* \"#utility.yul\":12755:13884   */\n    tag_166:\n        /* \"#utility.yul\":12866:12869   */\n      0x00\n        /* \"#utility.yul\":12902:12906   */\n      0xa0\n        /* \"#utility.yul\":12897:12900   */\n      dup4\n        /* \"#utility.yul\":12893:12907   */\n      add\n        /* \"#utility.yul\":12987:12991   */\n      0x00\n        /* \"#utility.yul\":12980:12985   */\n      dup4\n        /* \"#utility.yul\":12976:12992   */\n      add\n        /* \"#utility.yul\":12970:12993   */\n      mload\n        /* \"#utility.yul\":13006:13069   */\n      tag_326\n        /* \"#utility.yul\":13063:13067   */\n      0x00\n        /* \"#utility.yul\":13058:13061   */\n      dup7\n        /* \"#utility.yul\":13054:13068   */\n      add\n        /* \"#utility.yul\":13040:13052   */\n      dup3\n        /* \"#utility.yul\":13006:13069   */\n      tag_153\n      jump\t// in\n    tag_326:\n        /* \"#utility.yul\":12917:13079   */\n      pop\n        /* \"#utility.yul\":13163:13167   */\n      0x20\n        /* \"#utility.yul\":13156:13161   */\n      dup4\n        /* \"#utility.yul\":13152:13168   */\n      add\n        /* \"#utility.yul\":13146:13169   */\n      mload\n        /* \"#utility.yul\":13182:13245   */\n      tag_327\n        /* \"#utility.yul\":13239:13243   */\n      0x20\n        /* \"#utility.yul\":13234:13237   */\n      dup7\n        /* \"#utility.yul\":13230:13244   */\n      add\n        /* \"#utility.yul\":13216:13228   */\n      dup3\n        /* \"#utility.yul\":13182:13245   */\n      tag_154\n      jump\t// in\n    tag_327:\n        /* \"#utility.yul\":13089:13255   */\n      pop\n        /* \"#utility.yul\":13340:13344   */\n      0x40\n        /* \"#utility.yul\":13333:13338   */\n      dup4\n        /* \"#utility.yul\":13329:13345   */\n      add\n        /* \"#utility.yul\":13323:13346   */\n      mload\n        /* \"#utility.yul\":13393:13396   */\n      dup5\n        /* \"#utility.yul\":13387:13391   */\n      dup3\n        /* \"#utility.yul\":13383:13397   */\n      sub\n        /* \"#utility.yul\":13376:13380   */\n      0x40\n        /* \"#utility.yul\":13371:13374   */\n      dup7\n        /* \"#utility.yul\":13367:13381   */\n      add\n        /* \"#utility.yul\":13360:13398   */\n      mstore\n        /* \"#utility.yul\":13419:13492   */\n      tag_328\n        /* \"#utility.yul\":13487:13491   */\n      dup3\n        /* \"#utility.yul\":13473:13485   */\n      dup3\n        /* \"#utility.yul\":13419:13492   */\n      tag_156\n      jump\t// in\n    tag_328:\n        /* \"#utility.yul\":13411:13492   */\n      swap2\n      pop\n        /* \"#utility.yul\":13265:13503   */\n      pop\n        /* \"#utility.yul\":13590:13594   */\n      0x60\n        /* \"#utility.yul\":13583:13588   */\n      dup4\n        /* \"#utility.yul\":13579:13595   */\n      add\n        /* \"#utility.yul\":13573:13596   */\n      mload\n        /* \"#utility.yul\":13609:13672   */\n      tag_329\n        /* \"#utility.yul\":13666:13670   */\n      0x60\n        /* \"#utility.yul\":13661:13664   */\n      dup7\n        /* \"#utility.yul\":13657:13671   */\n      add\n        /* \"#utility.yul\":13643:13655   */\n      dup3\n        /* \"#utility.yul\":13609:13672   */\n      tag_153\n      jump\t// in\n    tag_329:\n        /* \"#utility.yul\":13513:13682   */\n      pop\n        /* \"#utility.yul\":13765:13769   */\n      0x80\n        /* \"#utility.yul\":13758:13763   */\n      dup4\n        /* \"#utility.yul\":13754:13770   */\n      add\n        /* \"#utility.yul\":13748:13771   */\n      mload\n        /* \"#utility.yul\":13784:13847   */\n      tag_330\n        /* \"#utility.yul\":13841:13845   */\n      0x80\n        /* \"#utility.yul\":13836:13839   */\n      dup7\n        /* \"#utility.yul\":13832:13846   */\n      add\n        /* \"#utility.yul\":13818:13830   */\n      dup3\n        /* \"#utility.yul\":13784:13847   */\n      tag_153\n      jump\t// in\n    tag_330:\n        /* \"#utility.yul\":13692:13857   */\n      pop\n        /* \"#utility.yul\":13874:13878   */\n      dup1\n        /* \"#utility.yul\":13867:13878   */\n      swap2\n      pop\n        /* \"#utility.yul\":12871:13884   */\n      pop\n        /* \"#utility.yul\":12755:13884   */\n      swap3\n      swap2\n      pop\n      pop\n      jump\t// out\n        /* \"#utility.yul\":13890:14247   */\n    tag_52:\n        /* \"#utility.yul\":14025:14029   */\n      0x00\n        /* \"#utility.yul\":14063:14065   */\n      0x20\n        /* \"#utility.yul\":14052:14061   */\n      dup3\n        /* \"#utility.yul\":14048:14066   */\n      add\n        /* \"#utility.yul\":14040:14066   */\n      swap1\n      pop\n        /* \"#utility.yul\":14112:14121   */\n      dup2\n        /* \"#utility.yul\":14106:14110   */\n      dup2\n        /* \"#utility.yul\":14102:14122   */\n      sub\n        /* \"#utility.yul\":14098:14099   */\n      0x00\n        /* \"#utility.yul\":14087:14096   */\n      dup4\n        /* \"#utility.yul\":14083:14100   */\n      add\n        /* \"#utility.yul\":14076:14123   */\n      mstore\n        /* \"#utility.yul\":14140:14240   */\n      tag_332\n        /* \"#utility.yul\":14235:14239   */\n      dup2\n        /* \"#utility.yul\":14226:14232   */\n      dup5\n        /* \"#utility.yul\":14140:14240   */\n      tag_166\n      jump\t// in\n    tag_332:\n        /* \"#utility.yul\":14132:14240   */\n      swap1\n      pop\n        /* \"#utility.yul\":13890:14247   */\n      swap3\n      swap2\n      pop\n      pop\n      jump\t// out\n        /* \"#utility.yul\":14253:14433   */\n    tag_167:\n        /* \"#utility.yul\":14301:14378   */\n      0x4e487b7100000000000000000000000000000000000000000000000000000000\n        /* \"#utility.yul\":14298:14299   */\n      0x00\n        /* \"#utility.yul\":14291:14379   */\n      mstore\n        /* \"#utility.yul\":14398:14402   */\n      0x22\n        /* \"#utility.yul\":14395:14396   */\n      0x04\n        /* \"#utility.yul\":14388:14403   */\n      mstore\n        /* \"#utility.yul\":14422:14426   */\n      0x24\n        /* \"#utility.yul\":14419:14420   */\n      0x00\n        /* \"#utility.yul\":14412:14427   */\n      revert\n        /* \"#utility.yul\":14439:14759   */\n    tag_56:\n        /* \"#utility.yul\":14483:14489   */\n      0x00\n        /* \"#utility.yul\":14520:14521   */\n      0x02\n        /* \"#utility.yul\":14514:14518   */\n      dup3\n        /* \"#utility.yul\":14510:14522   */\n      div\n        /* \"#utility.yul\":14500:14522   */\n      swap1\n      pop\n        /* \"#utility.yul\":14567:14568   */\n      0x01\n        /* \"#utility.yul\":14561:14565   */\n      dup3\n        /* \"#utility.yul\":14557:14569   */\n      and\n        /* \"#utility.yul\":14588:14606   */\n      dup1\n        /* \"#utility.yul\":14578:14659   */\n      tag_335\n      jumpi\n        /* \"#utility.yul\":14644:14648   */\n      0x7f\n        /* \"#utility.yul\":14636:14642   */\n      dup3\n        /* \"#utility.yul\":14632:14649   */\n      and\n        /* \"#utility.yul\":14622:14649   */\n      swap2\n      pop\n        /* \"#utility.yul\":14578:14659   */\n    tag_335:\n        /* \"#utility.yul\":14706:14708   */\n      0x20\n        /* \"#utility.yul\":14698:14704   */\n      dup3\n        /* \"#utility.yul\":14695:14709   */\n      lt\n        /* \"#utility.yul\":14675:14693   */\n      dup2\n        /* \"#utility.yul\":14672:14710   */\n      sub\n        /* \"#utility.yul\":14669:14753   */\n      tag_336\n      jumpi\n        /* \"#utility.yul\":14725:14743   */\n      tag_337\n      tag_167\n      jump\t// in\n    tag_337:\n        /* \"#utility.yul\":14669:14753   */\n    tag_336:\n        /* \"#utility.yul\":14490:14759   */\n      pop\n        /* \"#utility.yul\":14439:14759   */\n      swap2\n      swap1\n      pop\n      jump\t// out\n        /* \"#utility.yul\":14765:14932   */\n    tag_168:\n        /* \"#utility.yul\":14905:14924   */\n      0x547765657420697320746f6f206c6f6e67000000000000000000000000000000\n        /* \"#utility.yul\":14901:14902   */\n      0x00\n        /* \"#utility.yul\":14893:14899   */\n      dup3\n        /* \"#utility.yul\":14889:14903   */\n      add\n        /* \"#utility.yul\":14882:14925   */\n      mstore\n        /* \"#utility.yul\":14765:14932   */\n      pop\n      jump\t// out\n        /* \"#utility.yul\":14938:15304   */\n    tag_169:\n        /* \"#utility.yul\":15080:15083   */\n      0x00\n        /* \"#utility.yul\":15101:15168   */\n      tag_340\n        /* \"#utility.yul\":15165:15167   */\n      0x11\n        /* \"#utility.yul\":15160:15163   */\n      dup4\n        /* \"#utility.yul\":15101:15168   */\n      tag_137\n      jump\t// in\n    tag_340:\n        /* \"#utility.yul\":15094:15168   */\n      swap2\n      pop\n        /* \"#utility.yul\":15177:15270   */\n      tag_341\n        /* \"#utility.yul\":15266:15269   */\n      dup3\n        /* \"#utility.yul\":15177:15270   */\n      tag_168\n      jump\t// in\n    tag_341:\n        /* \"#utility.yul\":15295:15297   */\n      0x20\n        /* \"#utility.yul\":15290:15293   */\n      dup3\n        /* \"#utility.yul\":15286:15298   */\n      add\n        /* \"#utility.yul\":15279:15298   */\n      swap1\n      pop\n        /* \"#utility.yul\":14938:15304   */\n      swap2\n      swap1\n      pop\n      jump\t// out\n        /* \"#utility.yul\":15310:15729   */\n    tag_64:\n        /* \"#utility.yul\":15476:15480   */\n      0x00\n        /* \"#utility.yul\":15514:15516   */\n      0x20\n        /* \"#utility.yul\":15503:15512   */\n      dup3\n        /* \"#utility.yul\":15499:15517   */\n      add\n        /* \"#utility.yul\":15491:15517   */\n      swap1\n      pop\n        /* \"#utility.yul\":15563:15572   */\n      dup2\n        /* \"#utility.yul\":15557:15561   */\n      dup2\n        /* \"#utility.yul\":15553:15573   */\n      sub\n        /* \"#utility.yul\":15549:15550   */\n      0x00\n        /* \"#utility.yul\":15538:15547   */\n      dup4\n        /* \"#utility.yul\":15534:15551   */\n      add\n        /* \"#utility.yul\":15527:15574   */\n      mstore\n        /* \"#utility.yul\":15591:15722   */\n      tag_343\n        /* \"#utility.yul\":15717:15721   */\n      dup2\n        /* \"#utility.yul\":15591:15722   */\n      tag_169\n      jump\t// in\n    tag_343:\n        /* \"#utility.yul\":15583:15722   */\n      swap1\n      pop\n        /* \"#utility.yul\":15310:15729   */\n      swap2\n      swap1\n      pop\n      jump\t// out\n        /* \"#utility.yul\":15735:15876   */\n    tag_170:\n        /* \"#utility.yul\":15784:15788   */\n      0x00\n        /* \"#utility.yul\":15807:15810   */\n      dup2\n        /* \"#utility.yul\":15799:15810   */\n      swap1\n      pop\n        /* \"#utility.yul\":15830:15833   */\n      dup2\n        /* \"#utility.yul\":15827:15828   */\n      0x00\n        /* \"#utility.yul\":15820:15834   */\n      mstore\n        /* \"#utility.yul\":15864:15868   */\n      0x20\n        /* \"#utility.yul\":15861:15862   */\n      0x00\n        /* \"#utility.yul\":15851:15869   */\n      keccak256\n        /* \"#utility.yul\":15843:15869   */\n      swap1\n      pop\n        /* \"#utility.yul\":15735:15876   */\n      swap2\n      swap1\n      pop\n      jump\t// out\n        /* \"#utility.yul\":15882:15975   */\n    tag_171:\n        /* \"#utility.yul\":15919:15925   */\n      0x00\n        /* \"#utility.yul\":15966:15968   */\n      0x20\n        /* \"#utility.yul\":15961:15963   */\n      0x1f\n        /* \"#utility.yul\":15954:15959   */\n      dup4\n        /* \"#utility.yul\":15950:15964   */\n      add\n        /* \"#utility.yul\":15946:15969   */\n      div\n        /* \"#utility.yul\":15936:15969   */\n      swap1\n      pop\n        /* \"#utility.yul\":15882:15975   */\n      swap2\n      swap1\n      pop\n      jump\t// out\n        /* \"#utility.yul\":15981:16088   */\n    tag_172:\n        /* \"#utility.yul\":16025:16033   */\n      0x00\n        /* \"#utility.yul\":16075:16080   */\n      dup3\n        /* \"#utility.yul\":16069:16073   */\n      dup3\n        /* \"#utility.yul\":16065:16081   */\n      shl\n        /* \"#utility.yul\":16044:16081   */\n      swap1\n      pop\n        /* \"#utility.yul\":15981:16088   */\n      swap3\n      swap2\n      pop\n      pop\n      jump\t// out\n        /* \"#utility.yul\":16094:16487   */\n    tag_173:\n        /* \"#utility.yul\":16163:16169   */\n      0x00\n        /* \"#utility.yul\":16213:16214   */\n      0x08\n        /* \"#utility.yul\":16201:16211   */\n      dup4\n        /* \"#utility.yul\":16197:16215   */\n      mul\n        /* \"#utility.yul\":16236:16333   */\n      tag_348\n        /* \"#utility.yul\":16266:16332   */\n      0xffffffffffffffffffffffffffffffffffffffffffffffffffffffffffffffff\n        /* \"#utility.yul\":16255:16264   */\n      dup3\n        /* \"#utility.yul\":16236:16333   */\n      tag_172\n      jump\t// in\n    tag_348:\n        /* \"#utility.yul\":16354:16393   */\n      tag_349\n        /* \"#utility.yul\":16384:16392   */\n      dup7\n        /* \"#utility.yul\":16373:16382   */\n      dup4\n        /* \"#utility.yul\":16354:16393   */\n      tag_172\n      jump\t// in\n    tag_349:\n        /* \"#utility.yul\":16342:16393   */\n      swap6\n      pop\n        /* \"#utility.yul\":16426:16430   */\n      dup1\n        /* \"#utility.yul\":16422:16431   */\n      not\n        /* \"#utility.yul\":16415:16420   */\n      dup5\n        /* \"#utility.yul\":16411:16432   */\n      and\n        /* \"#utility.yul\":16402:16432   */\n      swap4\n      pop\n        /* \"#utility.yul\":16475:16479   */\n      dup1\n        /* \"#utility.yul\":16465:16473   */\n      dup7\n        /* \"#utility.yul\":16461:16480   */\n      and\n        /* \"#utility.yul\":16454:16459   */\n      dup5\n        /* \"#utility.yul\":16451:16481   */\n      or\n        /* \"#utility.yul\":16441:16481   */\n      swap3\n      pop\n        /* \"#utility.yul\":16170:16487   */\n      pop\n      pop\n        /* \"#utility.yul\":16094:16487   */\n      swap4\n      swap3\n      pop\n      pop\n      pop\n      jump\t// out\n        /* \"#utility.yul\":16493:16553   */\n    tag_174:\n        /* \"#utility.yul\":16521:16524   */\n      0x00\n        /* \"#utility.yul\":16542:16547   */\n      dup2\n        /* \"#utility.yul\":16535:16547   */\n      swap1\n      pop\n        /* \"#utility.yul\":16493:16553   */\n      swap2\n      swap1\n      pop\n      jump\t// out\n        /* \"#utility.yul\":16559:16701   */\n    tag_175:\n        /* \"#utility.yul\":16609:16618   */\n      0x00\n        /* \"#utility.yul\":16642:16695   */\n      tag_352\n        /* \"#utility.yul\":16660:16694   */\n      tag_353\n        /* \"#utility.yul\":16669:16693   */\n      tag_354\n        /* \"#utility.yul\":16687:16692   */\n      dup5\n        /* \"#utility.yul\":16669:16693   */\n      tag_131\n      jump\t// in\n    tag_354:\n        /* \"#utility.yul\":16660:16694   */\n      tag_174\n      jump\t// in\n    tag_353:\n        /* \"#utility.yul\":16642:16695   */\n      tag_131\n      jump\t// in\n    tag_352:\n        /* \"#utility.yul\":16629:16695   */\n      swap1\n      pop\n        /* \"#utility.yul\":16559:16701   */\n      swap2\n      swap1\n      pop\n      jump\t// out\n        /* \"#utility.yul\":16707:16782   */\n    tag_176:\n        /* \"#utility.yul\":16750:16753   */\n      0x00\n        /* \"#utility.yul\":16771:16776   */\n      dup2\n        /* \"#utility.yul\":16764:16776   */\n      swap1\n      pop\n        /* \"#utility.yul\":16707:16782   */\n      swap2\n      swap1\n      pop\n      jump\t// out\n        /* \"#utility.yul\":16788:17057   */\n    tag_177:\n        /* \"#utility.yul\":16898:16937   */\n      tag_357\n        /* \"#utility.yul\":16929:16936   */\n      dup4\n        /* \"#utility.yul\":16898:16937   */\n      tag_175\n      jump\t// in\n    tag_357:\n        /* \"#utility.yul\":16959:17050   */\n      tag_358\n        /* \"#utility.yul\":17008:17049   */\n      tag_359\n        /* \"#utility.yul\":17032:17048   */\n      dup3\n        /* \"#utility.yul\":17008:17049   */\n      tag_176\n      jump\t// in\n    tag_359:\n        /* \"#utility.yul\":17000:17006   */\n      dup5\n        /* \"#utility.yul\":16993:16997   */\n      dup5\n        /* \"#utility.yul\":16987:16998   */\n      sload\n        /* \"#utility.yul\":16959:17050   */\n      tag_173\n      jump\t// in\n    tag_358:\n        /* \"#utility.yul\":16953:16957   */\n      dup3\n        /* \"#utility.yul\":16946:17051   */\n      sstore\n        /* \"#utility.yul\":16864:17057   */\n      pop\n        /* \"#utility.yul\":16788:17057   */\n      pop\n      pop\n      pop\n      jump\t// out\n        /* \"#utility.yul\":17063:17136   */\n    tag_178:\n        /* \"#utility.yul\":17108:17111   */\n      0x00\n        /* \"#utility.yul\":17063:17136   */\n      swap1\n      jump\t// out\n        /* \"#utility.yul\":17142:17331   */\n    tag_179:\n        /* \"#utility.yul\":17219:17251   */\n      tag_362\n      tag_178\n      jump\t// in\n    tag_362:\n        /* \"#utility.yul\":17260:17325   */\n      tag_363\n        /* \"#utility.yul\":17318:17324   */\n      dup2\n        /* \"#utility.yul\":17310:17316   */\n      dup5\n        /* \"#utility.yul\":17304:17308   */\n      dup5\n        /* \"#utility.yul\":17260:17325   */\n      tag_177\n      jump\t// in\n    tag_363:\n        /* \"#utility.yul\":17195:17331   */\n      pop\n        /* \"#utility.yul\":17142:17331   */\n      pop\n      pop\n      jump\t// out\n        /* \"#utility.yul\":17337:17523   */\n    tag_180:\n        /* \"#utility.yul\":17397:17517   */\n    tag_365:\n        /* \"#utility.yul\":17414:17417   */\n      dup2\n        /* \"#utility.yul\":17407:17412   */\n      dup2\n        /* \"#utility.yul\":17404:17418   */\n      lt\n        /* \"#utility.yul\":17397:17517   */\n      iszero\n      tag_367\n      jumpi\n        /* \"#utility.yul\":17468:17507   */\n      tag_368\n        /* \"#utility.yul\":17505:17506   */\n      0x00\n        /* \"#utility.yul\":17498:17503   */\n      dup3\n        /* \"#utility.yul\":17468:17507   */\n      tag_179\n      jump\t// in\n    tag_368:\n        /* \"#utility.yul\":17441:17442   */\n      0x01\n        /* \"#utility.yul\":17434:17439   */\n      dup2\n        /* \"#utility.yul\":17430:17443   */\n      add\n        /* \"#utility.yul\":17421:17443   */\n      swap1\n      pop\n        /* \"#utility.yul\":17397:17517   */\n      jump(tag_365)\n    tag_367:\n        /* \"#utility.yul\":17337:17523   */\n      pop\n      pop\n      jump\t// out\n        /* \"#utility.yul\":17529:18072   */\n    tag_181:\n        /* \"#utility.yul\":17630:17632   */\n      0x1f\n        /* \"#utility.yul\":17625:17628   */\n      dup3\n        /* \"#utility.yul\":17622:17633   */\n      gt\n        /* \"#utility.yul\":17619:18065   */\n      iszero\n      tag_370\n      jumpi\n        /* \"#utility.yul\":17664:17702   */\n      tag_371\n        /* \"#utility.yul\":17696:17701   */\n      dup2\n        /* \"#utility.yul\":17664:17702   */\n      tag_170\n      jump\t// in\n    tag_371:\n        /* \"#utility.yul\":17748:17777   */\n      tag_372\n        /* \"#utility.yul\":17766:17776   */\n      dup5\n        /* \"#utility.yul\":17748:17777   */\n      tag_171\n      jump\t// in\n    tag_372:\n        /* \"#utility.yul\":17738:17746   */\n      dup2\n        /* \"#utility.yul\":17734:17778   */\n      add\n        /* \"#utility.yul\":17931:17933   */\n      0x20\n        /* \"#utility.yul\":17919:17929   */\n      dup6\n        /* \"#utility.yul\":17916:17934   */\n      lt\n        /* \"#utility.yul\":17913:17962   */\n      iszero\n      tag_373\n      jumpi\n        /* \"#utility.yul\":17952:17960   */\n      dup2\n        /* \"#utility.yul\":17937:17960   */\n      swap1\n      pop\n        /* \"#utility.yul\":17913:17962   */\n    tag_373:\n        /* \"#utility.yul\":17975:18055   */\n      tag_374\n        /* \"#utility.yul\":18031:18053   */\n      tag_375\n        /* \"#utility.yul\":18049:18052   */\n      dup6\n        /* \"#utility.yul\":18031:18053   */\n      tag_171\n      jump\t// in\n    tag_375:\n        /* \"#utility.yul\":18021:18029   */\n      dup4\n        /* \"#utility.yul\":18017:18054   */\n      add\n        /* \"#utility.yul\":18004:18015   */\n      dup3\n        /* \"#utility.yul\":17975:18055   */\n      tag_180\n      jump\t// in\n    tag_374:\n        /* \"#utility.yul\":17634:18065   */\n      pop\n      pop\n        /* \"#utility.yul\":17619:18065   */\n    tag_370:\n        /* \"#utility.yul\":17529:18072   */\n      pop\n      pop\n      pop\n      jump\t// out\n        /* \"#utility.yul\":18078:18195   */\n    tag_182:\n        /* \"#utility.yul\":18132:18140   */\n      0x00\n        /* \"#utility.yul\":18182:18187   */\n      dup3\n        /* \"#utility.yul\":18176:18180   */\n      dup3\n        /* \"#utility.yul\":18172:18188   */\n      shr\n        /* \"#utility.yul\":18151:18188   */\n      swap1\n      pop\n        /* \"#utility.yul\":18078:18195   */\n      swap3\n      swap2\n      pop\n      pop\n      jump\t// out\n        /* \"#utility.yul\":18201:18370   */\n    tag_183:\n        /* \"#utility.yul\":18245:18251   */\n      0x00\n        /* \"#utility.yul\":18278:18329   */\n      tag_378\n        /* \"#utility.yul\":18326:18327   */\n      0x00\n        /* \"#utility.yul\":18322:18328   */\n      not\n        /* \"#utility.yul\":18314:18319   */\n      dup5\n        /* \"#utility.yul\":18311:18312   */\n      0x08\n        /* \"#utility.yul\":18307:18320   */\n      mul\n        /* \"#utility.yul\":18278:18329   */\n      tag_182\n      jump\t// in\n    tag_378:\n        /* \"#utility.yul\":18274:18330   */\n      not\n        /* \"#utility.yul\":18359:18363   */\n      dup1\n        /* \"#utility.yul\":18353:18357   */\n      dup4\n        /* \"#utility.yul\":18349:18364   */\n      and\n        /* \"#utility.yul\":18339:18364   */\n      swap2\n      pop\n        /* \"#utility.yul\":18252:18370   */\n      pop\n        /* \"#utility.yul\":18201:18370   */\n      swap3\n      swap2\n      pop\n      pop\n      jump\t// out\n        /* \"#utility.yul\":18375:18670   */\n    tag_184:\n        /* \"#utility.yul\":18451:18455   */\n      0x00\n        /* \"#utility.yul\":18597:18626   */\n      tag_380\n        /* \"#utility.yul\":18622:18625   */\n      dup4\n        /* \"#utility.yul\":18616:18620   */\n      dup4\n        /* \"#utility.yul\":18597:18626   */\n      tag_183\n      jump\t// in\n    tag_380:\n        /* \"#utility.yul\":18589:18626   */\n      swap2\n      pop\n        /* \"#utility.yul\":18659:18662   */\n      dup3\n        /* \"#utility.yul\":18656:18657   */\n      0x02\n        /* \"#utility.yul\":18652:18663   */\n      mul\n        /* \"#utility.yul\":18646:18650   */\n      dup3\n        /* \"#utility.yul\":18643:18664   */\n      or\n        /* \"#utility.yul\":18635:18664   */\n      swap1\n      pop\n        /* \"#utility.yul\":18375:18670   */\n      swap3\n      swap2\n      pop\n      pop\n      jump\t// out\n        /* \"#utility.yul\":18675:20070   */\n    tag_67:\n        /* \"#utility.yul\":18792:18829   */\n      tag_382\n        /* \"#utility.yul\":18825:18828   */\n      dup3\n        /* \"#utility.yul\":18792:18829   */\n      tag_136\n      jump\t// in\n    tag_382:\n        /* \"#utility.yul\":18894:18912   */\n      0xffffffffffffffff\n        /* \"#utility.yul\":18886:18892   */\n      dup2\n        /* \"#utility.yul\":18883:18913   */\n      gt\n        /* \"#utility.yul\":18880:18936   */\n      iszero\n      tag_383\n      jumpi\n        /* \"#utility.yul\":18916:18934   */\n      tag_384\n      tag_143\n      jump\t// in\n    tag_384:\n        /* \"#utility.yul\":18880:18936   */\n    tag_383:\n        /* \"#utility.yul\":18960:18998   */\n      tag_385\n        /* \"#utility.yul\":18992:18996   */\n      dup3\n        /* \"#utility.yul\":18986:18997   */\n      sload\n        /* \"#utility.yul\":18960:18998   */\n      tag_56\n      jump\t// in\n    tag_385:\n        /* \"#utility.yul\":19045:19112   */\n      tag_386\n        /* \"#utility.yul\":19105:19111   */\n      dup3\n        /* \"#utility.yul\":19097:19103   */\n      dup3\n        /* \"#utility.yul\":19091:19095   */\n      dup6\n        /* \"#utility.yul\":19045:19112   */\n      tag_181\n      jump\t// in\n    tag_386:\n        /* \"#utility.yul\":19139:19140   */\n      0x00\n        /* \"#utility.yul\":19163:19167   */\n      0x20\n        /* \"#utility.yul\":19150:19167   */\n      swap1\n      pop\n        /* \"#utility.yul\":19195:19197   */\n      0x1f\n        /* \"#utility.yul\":19187:19193   */\n      dup4\n        /* \"#utility.yul\":19184:19198   */\n      gt\n        /* \"#utility.yul\":19212:19213   */\n      0x01\n        /* \"#utility.yul\":19207:19825   */\n      dup2\n      eq\n      tag_388\n      jumpi\n        /* \"#utility.yul\":19869:19870   */\n      0x00\n        /* \"#utility.yul\":19886:19892   */\n      dup5\n        /* \"#utility.yul\":19883:19960   */\n      iszero\n      tag_389\n      jumpi\n        /* \"#utility.yul\":19935:19944   */\n      dup3\n        /* \"#utility.yul\":19930:19933   */\n      dup8\n        /* \"#utility.yul\":19926:19945   */\n      add\n        /* \"#utility.yul\":19920:19946   */\n      mload\n        /* \"#utility.yul\":19911:19946   */\n      swap1\n      pop\n        /* \"#utility.yul\":19883:19960   */\n    tag_389:\n        /* \"#utility.yul\":19986:20053   */\n      tag_390\n        /* \"#utility.yul\":20046:20052   */\n      dup6\n        /* \"#utility.yul\":20039:20044   */\n      dup3\n        /* \"#utility.yul\":19986:20053   */\n      tag_184\n      jump\t// in\n    tag_390:\n        /* \"#utility.yul\":19980:19984   */\n      dup7\n        /* \"#utility.yul\":19973:20054   */\n      sstore\n        /* \"#utility.yul\":19842:20064   */\n      pop\n        /* \"#utility.yul\":19177:20064   */\n      jump(tag_387)\n        /* \"#utility.yul\":19207:19825   */\n    tag_388:\n        /* \"#utility.yul\":19259:19263   */\n      0x1f\n        /* \"#utility.yul\":19255:19264   */\n      not\n        /* \"#utility.yul\":19247:19253   */\n      dup5\n        /* \"#utility.yul\":19243:19265   */\n      and\n        /* \"#utility.yul\":19293:19330   */\n      tag_391\n        /* \"#utility.yul\":19325:19329   */\n      dup7\n        /* \"#utility.yul\":19293:19330   */\n      tag_170\n      jump\t// in\n    tag_391:\n        /* \"#utility.yul\":19352:19353   */\n      0x00\n        /* \"#utility.yul\":19366:19574   */\n    tag_392:\n        /* \"#utility.yul\":19380:19387   */\n      dup3\n        /* \"#utility.yul\":19377:19378   */\n      dup2\n        /* \"#utility.yul\":19374:19388   */\n      lt\n        /* \"#utility.yul\":19366:19574   */\n      iszero\n      tag_394\n      jumpi\n        /* \"#utility.yul\":19459:19468   */\n      dup5\n        /* \"#utility.yul\":19454:19457   */\n      dup10\n        /* \"#utility.yul\":19450:19469   */\n      add\n        /* \"#utility.yul\":19444:19470   */\n      mload\n        /* \"#utility.yul\":19436:19442   */\n      dup3\n        /* \"#utility.yul\":19429:19471   */\n      sstore\n        /* \"#utility.yul\":19510:19511   */\n      0x01\n        /* \"#utility.yul\":19502:19508   */\n      dup3\n        /* \"#utility.yul\":19498:19512   */\n      add\n        /* \"#utility.yul\":19488:19512   */\n      swap2\n      pop\n        /* \"#utility.yul\":19557:19559   */\n      0x20\n        /* \"#utility.yul\":19546:19555   */\n      dup6\n        /* \"#utility.yul\":19542:19560   */\n      add\n        /* \"#utility.yul\":19529:19560   */\n      swap5\n      pop\n        /* \"#utility.yul\":19403:19407   */\n      0x20\n        /* \"#utility.yul\":19400:19401   */\n      dup2\n        /* \"#utility.yul\":19396:19408   */\n      add\n        /* \"#utility.yul\":19391:19408   */\n      swap1\n      pop\n        /* \"#utility.yul\":19366:19574   */\n      jump(tag_392)\n    tag_394:\n        /* \"#utility.yul\":19602:19608   */\n      dup7\n        /* \"#utility.yul\":19593:19600   */\n      dup4\n        /* \"#utility.yul\":19590:19609   */\n      lt\n        /* \"#utility.yul\":19587:19766   */\n      iszero\n      tag_395\n      jumpi\n        /* \"#utility.yul\":19660:19669   */\n      dup5\n        /* \"#utility.yul\":19655:19658   */\n      dup10\n        /* \"#utility.yul\":19651:19670   */\n      add\n        /* \"#utility.yul\":19645:19671   */\n      mload\n        /* \"#utility.yul\":19703:19751   */\n      tag_396\n        /* \"#utility.yul\":19745:19749   */\n      0x1f\n        /* \"#utility.yul\":19737:19743   */\n      dup10\n        /* \"#utility.yul\":19733:19750   */\n      and\n        /* \"#utility.yul\":19722:19731   */\n      dup3\n        /* \"#utility.yul\":19703:19751   */\n      tag_183\n      jump\t// in\n    tag_396:\n        /* \"#utility.yul\":19695:19701   */\n      dup4\n        /* \"#utility.yul\":19688:19752   */\n      sstore\n        /* \"#utility.yul\":19610:19766   */\n      pop\n        /* \"#utility.yul\":19587:19766   */\n    tag_395:\n        /* \"#utility.yul\":19812:19813   */\n      0x01\n        /* \"#utility.yul\":19808:19809   */\n      0x02\n        /* \"#utility.yul\":19800:19806   */\n      dup9\n        /* \"#utility.yul\":19796:19810   */\n      mul\n        /* \"#utility.yul\":19792:19814   */\n      add\n        /* \"#utility.yul\":19786:19790   */\n      dup9\n        /* \"#utility.yul\":19779:19815   */\n      sstore\n        /* \"#utility.yul\":19214:19825   */\n      pop\n      pop\n      pop\n        /* \"#utility.yul\":19177:20064   */\n    tag_387:\n      pop\n        /* \"#utility.yul\":18767:20070   */\n      pop\n      pop\n      pop\n        /* \"#utility.yul\":18675:20070   */\n      pop\n      pop\n      jump\t// out\n        /* \"#utility.yul\":20076:20256   */\n    tag_80:\n        /* \"#utility.yul\":20124:20201   */\n      0x4e487b7100000000000000000000000000000000000000000000000000000000\n        /* \"#utility.yul\":20121:20122   */\n      0x00\n        /* \"#utility.yul\":20114:20202   */\n      mstore\n        /* \"#utility.yul\":20221:20225   */\n      0x32\n        /* \"#utility.yul\":20218:20219   */\n      0x04\n        /* \"#utility.yul\":20211:20226   */\n      mstore\n        /* \"#utility.yul\":20245:20249   */\n      0x24\n        /* \"#utility.yul\":20242:20243   */\n      0x00\n        /* \"#utility.yul\":20235:20250   */\n      revert\n        /* \"#utility.yul\":20262:20486   */\n    tag_185:\n        /* \"#utility.yul\":20402:20436   */\n      0x5468657265206973206e6f207477656574732065786973742077697468207468\n        /* \"#utility.yul\":20398:20399   */\n      0x00\n        /* \"#utility.yul\":20390:20396   */\n      dup3\n        /* \"#utility.yul\":20386:20400   */\n      add\n        /* \"#utility.yul\":20379:20437   */\n      mstore\n        /* \"#utility.yul\":20471:20478   */\n      0x6973206964000000000000000000000000000000000000000000000000000000\n        /* \"#utility.yul\":20466:20468   */\n      0x20\n        /* \"#utility.yul\":20458:20464   */\n      dup3\n        /* \"#utility.yul\":20454:20469   */\n      add\n        /* \"#utility.yul\":20447:20479   */\n      mstore\n        /* \"#utility.yul\":20262:20486   */\n      pop\n      jump\t// out\n        /* \"#utility.yul\":20492:20858   */\n    tag_186:\n        /* \"#utility.yul\":20634:20637   */\n      0x00\n        /* \"#utility.yul\":20655:20722   */\n      tag_400\n        /* \"#utility.yul\":20719:20721   */\n      0x25\n        /* \"#utility.yul\":20714:20717   */\n      dup4\n        /* \"#utility.yul\":20655:20722   */\n      tag_137\n      jump\t// in\n    tag_400:\n        /* \"#utility.yul\":20648:20722   */\n      swap2\n      pop\n        /* \"#utility.yul\":20731:20824   */\n      tag_401\n        /* \"#utility.yul\":20820:20823   */\n      dup3\n        /* \"#utility.yul\":20731:20824   */\n      tag_185\n      jump\t// in\n    tag_401:\n        /* \"#utility.yul\":20849:20851   */\n      0x40\n        /* \"#utility.yul\":20844:20847   */\n      dup3\n        /* \"#utility.yul\":20840:20852   */\n      add\n        /* \"#utility.yul\":20833:20852   */\n      swap1\n      pop\n        /* \"#utility.yul\":20492:20858   */\n      swap2\n      swap1\n      pop\n      jump\t// out\n        /* \"#utility.yul\":20864:21283   */\n    tag_84:\n        /* \"#utility.yul\":21030:21034   */\n      0x00\n        /* \"#utility.yul\":21068:21070   */\n      0x20\n        /* \"#utility.yul\":21057:21066   */\n      dup3\n        /* \"#utility.yul\":21053:21071   */\n      add\n        /* \"#utility.yul\":21045:21071   */\n      swap1\n      pop\n        /* \"#utility.yul\":21117:21126   */\n      dup2\n        /* \"#utility.yul\":21111:21115   */\n      dup2\n        /* \"#utility.yul\":21107:21127   */\n      sub\n        /* \"#utility.yul\":21103:21104   */\n      0x00\n        /* \"#utility.yul\":21092:21101   */\n      dup4\n        /* \"#utility.yul\":21088:21105   */\n      add\n        /* \"#utility.yul\":21081:21128   */\n      mstore\n        /* \"#utility.yul\":21145:21276   */\n      tag_403\n        /* \"#utility.yul\":21271:21275   */\n      dup2\n        /* \"#utility.yul\":21145:21276   */\n      tag_186\n      jump\t// in\n    tag_403:\n        /* \"#utility.yul\":21137:21276   */\n      swap1\n      pop\n        /* \"#utility.yul\":20864:21283   */\n      swap2\n      swap1\n      pop\n      jump\t// out\n        /* \"#utility.yul\":21289:21461   */\n    tag_187:\n        /* \"#utility.yul\":21429:21453   */\n      0x5468697320706f737420686173206e6f206c696b657300000000000000000000\n        /* \"#utility.yul\":21425:21426   */\n      0x00\n        /* \"#utility.yul\":21417:21423   */\n      dup3\n        /* \"#utility.yul\":21413:21427   */\n      add\n        /* \"#utility.yul\":21406:21454   */\n      mstore\n        /* \"#utility.yul\":21289:21461   */\n      pop\n      jump\t// out\n        /* \"#utility.yul\":21467:21833   */\n    tag_188:\n        /* \"#utility.yul\":21609:21612   */\n      0x00\n        /* \"#utility.yul\":21630:21697   */\n      tag_406\n        /* \"#utility.yul\":21694:21696   */\n      0x16\n        /* \"#utility.yul\":21689:21692   */\n      dup4\n        /* \"#utility.yul\":21630:21697   */\n      tag_137\n      jump\t// in\n    tag_406:\n        /* \"#utility.yul\":21623:21697   */\n      swap2\n      pop\n        /* \"#utility.yul\":21706:21799   */\n      tag_407\n        /* \"#utility.yul\":21795:21798   */\n      dup3\n        /* \"#utility.yul\":21706:21799   */\n      tag_187\n      jump\t// in\n    tag_407:\n        /* \"#utility.yul\":21824:21826   */\n      0x20\n        /* \"#utility.yul\":21819:21822   */\n      dup3\n        /* \"#utility.yul\":21815:21827   */\n      add\n        /* \"#utility.yul\":21808:21827   */\n      swap1\n      pop\n        /* \"#utility.yul\":21467:21833   */\n      swap2\n      swap1\n      pop\n      jump\t// out\n        /* \"#utility.yul\":21839:22258   */\n    tag_90:\n        /* \"#utility.yul\":22005:22009   */\n      0x00\n        /* \"#utility.yul\":22043:22045   */\n      0x20\n        /* \"#utility.yul\":22032:22041   */\n      dup3\n        /* \"#utility.yul\":22028:22046   */\n      add\n        /* \"#utility.yul\":22020:22046   */\n      swap1\n      pop\n        /* \"#utility.yul\":22092:22101   */\n      dup2\n        /* \"#utility.yul\":22086:22090   */\n      dup2\n        /* \"#utility.yul\":22082:22102   */\n      sub\n        /* \"#utility.yul\":22078:22079   */\n      0x00\n        /* \"#utility.yul\":22067:22076   */\n      dup4\n        /* \"#utility.yul\":22063:22080   */\n      add\n        /* \"#utility.yul\":22056:22103   */\n      mstore\n        /* \"#utility.yul\":22120:22251   */\n      tag_409\n        /* \"#utility.yul\":22246:22250   */\n      dup2\n        /* \"#utility.yul\":22120:22251   */\n      tag_188\n      jump\t// in\n    tag_409:\n        /* \"#utility.yul\":22112:22251   */\n      swap1\n      pop\n        /* \"#utility.yul\":21839:22258   */\n      swap2\n      swap1\n      pop\n      jump\t// out\n        /* \"#utility.yul\":22264:22444   */\n    tag_189:\n        /* \"#utility.yul\":22312:22389   */\n      0x4e487b7100000000000000000000000000000000000000000000000000000000\n        /* \"#utility.yul\":22309:22310   */\n      0x00\n        /* \"#utility.yul\":22302:22390   */\n      mstore\n        /* \"#utility.yul\":22409:22413   */\n      0x11\n        /* \"#utility.yul\":22406:22407   */\n      0x04\n        /* \"#utility.yul\":22399:22414   */\n      mstore\n        /* \"#utility.yul\":22433:22437   */\n      0x24\n        /* \"#utility.yul\":22430:22431   */\n      0x00\n        /* \"#utility.yul\":22423:22438   */\n      revert\n        /* \"#utility.yul\":22450:22621   */\n    tag_95:\n        /* \"#utility.yul\":22489:22492   */\n      0x00\n        /* \"#utility.yul\":22512:22536   */\n      tag_412\n        /* \"#utility.yul\":22530:22535   */\n      dup3\n        /* \"#utility.yul\":22512:22536   */\n      tag_131\n      jump\t// in\n    tag_412:\n        /* \"#utility.yul\":22503:22536   */\n      swap2\n      pop\n        /* \"#utility.yul\":22558:22562   */\n      0x00\n        /* \"#utility.yul\":22551:22556   */\n      dup3\n        /* \"#utility.yul\":22548:22563   */\n      sub\n        /* \"#utility.yul\":22545:22586   */\n      tag_413\n      jumpi\n        /* \"#utility.yul\":22566:22584   */\n      tag_414\n      tag_189\n      jump\t// in\n    tag_414:\n        /* \"#utility.yul\":22545:22586   */\n    tag_413:\n        /* \"#utility.yul\":22613:22614   */\n      0x01\n        /* \"#utility.yul\":22606:22611   */\n      dup3\n        /* \"#utility.yul\":22602:22615   */\n      sub\n        /* \"#utility.yul\":22595:22615   */\n      swap1\n      pop\n        /* \"#utility.yul\":22450:22621   */\n      swap2\n      swap1\n      pop\n      jump\t// out\n        /* \"#utility.yul\":22627:22798   */\n    tag_190:\n        /* \"#utility.yul\":22767:22790   */\n      0x596f7520617265206e6f7420746865206f776e65720000000000000000000000\n        /* \"#utility.yul\":22763:22764   */\n      0x00\n        /* \"#utility.yul\":22755:22761   */\n      dup3\n        /* \"#utility.yul\":22751:22765   */\n      add\n        /* \"#utility.yul\":22744:22791   */\n      mstore\n        /* \"#utility.yul\":22627:22798   */\n      pop\n      jump\t// out\n        /* \"#utility.yul\":22804:23170   */\n    tag_191:\n        /* \"#utility.yul\":22946:22949   */\n      0x00\n        /* \"#utility.yul\":22967:23034   */\n      tag_417\n        /* \"#utility.yul\":23031:23033   */\n      0x15\n        /* \"#utility.yul\":23026:23029   */\n      dup4\n        /* \"#utility.yul\":22967:23034   */\n      tag_137\n      jump\t// in\n    tag_417:\n        /* \"#utility.yul\":22960:23034   */\n      swap2\n      pop\n        /* \"#utility.yul\":23043:23136   */\n      tag_418\n        /* \"#utility.yul\":23132:23135   */\n      dup3\n        /* \"#utility.yul\":23043:23136   */\n      tag_190\n      jump\t// in\n    tag_418:\n        /* \"#utility.yul\":23161:23163   */\n      0x20\n        /* \"#utility.yul\":23156:23159   */\n      dup3\n        /* \"#utility.yul\":23152:23164   */\n      add\n        /* \"#utility.yul\":23145:23164   */\n      swap1\n      pop\n        /* \"#utility.yul\":22804:23170   */\n      swap2\n      swap1\n      pop\n      jump\t// out\n        /* \"#utility.yul\":23176:23595   */\n    tag_99:\n        /* \"#utility.yul\":23342:23346   */\n      0x00\n        /* \"#utility.yul\":23380:23382   */\n      0x20\n        /* \"#utility.yul\":23369:23378   */\n      dup3\n        /* \"#utility.yul\":23365:23383   */\n      add\n        /* \"#utility.yul\":23357:23383   */\n      swap1\n      pop\n        /* \"#utility.yul\":23429:23438   */\n      dup2\n        /* \"#utility.yul\":23423:23427   */\n      dup2\n        /* \"#utility.yul\":23419:23439   */\n      sub\n        /* \"#utility.yul\":23415:23416   */\n      0x00\n        /* \"#utility.yul\":23404:23413   */\n      dup4\n        /* \"#utility.yul\":23400:23417   */\n      add\n        /* \"#utility.yul\":23393:23440   */\n      mstore\n        /* \"#utility.yul\":23457:23588   */\n      tag_420\n        /* \"#utility.yul\":23583:23587   */\n      dup2\n        /* \"#utility.yul\":23457:23588   */\n      tag_191\n      jump\t// in\n    tag_420:\n        /* \"#utility.yul\":23449:23588   */\n      swap1\n      pop\n        /* \"#utility.yul\":23176:23595   */\n      swap2\n      swap1\n      pop\n      jump\t// out\n        /* \"#utility.yul\":23601:23824   */\n    tag_192:\n        /* \"#utility.yul\":23741:23775   */\n      0x5468657265206973206e6f207477656574206578697374207769746820746869\n        /* \"#utility.yul\":23737:23738   */\n      0x00\n        /* \"#utility.yul\":23729:23735   */\n      dup3\n        /* \"#utility.yul\":23725:23739   */\n      add\n        /* \"#utility.yul\":23718:23776   */\n      mstore\n        /* \"#utility.yul\":23810:23816   */\n      0x7320696400000000000000000000000000000000000000000000000000000000\n        /* \"#utility.yul\":23805:23807   */\n      0x20\n        /* \"#utility.yul\":23797:23803   */\n      dup3\n        /* \"#utility.yul\":23793:23808   */\n      add\n        /* \"#utility.yul\":23786:23817   */\n      mstore\n        /* \"#utility.yul\":23601:23824   */\n      pop\n      jump\t// out\n        /* \"#utility.yul\":23830:24196   */\n    tag_193:\n        /* \"#utility.yul\":23972:23975   */\n      0x00\n        /* \"#utility.yul\":23993:24060   */\n      tag_423\n        /* \"#utility.yul\":24057:24059   */\n      0x24\n        /* \"#utility.yul\":24052:24055   */\n      dup4\n        /* \"#utility.yul\":23993:24060   */\n      tag_137\n      jump\t// in\n    tag_423:\n        /* \"#utility.yul\":23986:24060   */\n      swap2\n      pop\n        /* \"#utility.yul\":24069:24162   */\n      tag_424\n        /* \"#utility.yul\":24158:24161   */\n      dup3\n        /* \"#utility.yul\":24069:24162   */\n      tag_192\n      jump\t// in\n    tag_424:\n        /* \"#utility.yul\":24187:24189   */\n      0x40\n        /* \"#utility.yul\":24182:24185   */\n      dup3\n        /* \"#utility.yul\":24178:24190   */\n      add\n        /* \"#utility.yul\":24171:24190   */\n      swap1\n      pop\n        /* \"#utility.yul\":23830:24196   */\n      swap2\n      swap1\n      pop\n      jump\t// out\n        /* \"#utility.yul\":24202:24621   */\n    tag_107:\n        /* \"#utility.yul\":24368:24372   */\n      0x00\n        /* \"#utility.yul\":24406:24408   */\n      0x20\n        /* \"#utility.yul\":24395:24404   */\n      dup3\n        /* \"#utility.yul\":24391:24409   */\n      add\n        /* \"#utility.yul\":24383:24409   */\n      swap1\n      pop\n        /* \"#utility.yul\":24455:24464   */\n      dup2\n        /* \"#utility.yul\":24449:24453   */\n      dup2\n        /* \"#utility.yul\":24445:24465   */\n      sub\n        /* \"#utility.yul\":24441:24442   */\n      0x00\n        /* \"#utility.yul\":24430:24439   */\n      dup4\n        /* \"#utility.yul\":24426:24443   */\n      add\n        /* \"#utility.yul\":24419:24466   */\n      mstore\n        /* \"#utility.yul\":24483:24614   */\n      tag_426\n        /* \"#utility.yul\":24609:24613   */\n      dup2\n        /* \"#utility.yul\":24483:24614   */\n      tag_193\n      jump\t// in\n    tag_426:\n        /* \"#utility.yul\":24475:24614   */\n      swap1\n      pop\n        /* \"#utility.yul\":24202:24621   */\n      swap2\n      swap1\n      pop\n      jump\t// out\n        /* \"#utility.yul\":24627:24860   */\n    tag_112:\n        /* \"#utility.yul\":24666:24669   */\n      0x00\n        /* \"#utility.yul\":24689:24713   */\n      tag_428\n        /* \"#utility.yul\":24707:24712   */\n      dup3\n        /* \"#utility.yul\":24689:24713   */\n      tag_131\n      jump\t// in\n    tag_428:\n        /* \"#utility.yul\":24680:24713   */\n      swap2\n      pop\n        /* \"#utility.yul\":24735:24801   */\n      0xffffffffffffffffffffffffffffffffffffffffffffffffffffffffffffffff\n        /* \"#utility.yul\":24728:24733   */\n      dup3\n        /* \"#utility.yul\":24725:24802   */\n      sub\n        /* \"#utility.yul\":24722:24825   */\n      tag_429\n      jumpi\n        /* \"#utility.yul\":24805:24823   */\n      tag_430\n      tag_189\n      jump\t// in\n    tag_430:\n        /* \"#utility.yul\":24722:24825   */\n    tag_429:\n        /* \"#utility.yul\":24852:24853   */\n      0x01\n        /* \"#utility.yul\":24845:24850   */\n      dup3\n        /* \"#utility.yul\":24841:24854   */\n      add\n        /* \"#utility.yul\":24834:24854   */\n      swap1\n      pop\n        /* \"#utility.yul\":24627:24860   */\n      swap2\n      swap1\n      pop\n      jump\t// out\n\n    auxdata: 0xa26469706673582212208f0f6d0d20651882cd3d5b2d86c2082b8abaa4530d973ead1fc16afbd166dcb564736f6c634300081a0033\n}\n",
				"bytecode": {
					"linkReferences": {},
					"object": "608060405261017c5f806101000a81548163ffffffff021916908363ffffffff160217905550348015602f575f80fd5b503360025f6101000a81548173ffffffffffffffffffffffffffffffffffffffff021916908373ffffffffffffffffffffffffffffffffffffffff16021790555061182c8061007d5f395ff3fe608060405234801561000f575f80fd5b5060043610610091575f3560e01c806358bfa4ab1161006457806358bfa4ab14610131578063633782161461014d5780636eb10797146101695780638da5cb5b14610187578063c3ad5ecb146101a557610091565b806305a1b4a9146100955780630a7aa8a1146100c957806312e7ee1c146100e55780633d9b569f14610115575b5f80fd5b6100af60048036038101906100aa9190610c2b565b6101d5565b6040516100c0959493929190610cf7565b60405180910390f35b6100e360048036038101906100de9190610e7b565b6102c6565b005b6100ff60048036038101906100fa9190610ec2565b610481565b60405161010c9190611081565b60405180910390f35b61012f600480360381019061012a9190610c2b565b61061c565b005b61014b600480360381019061014691906110d8565b6107d2565b005b61016760048036038101906101629190610c2b565b610887565b005b61017161099d565b60405161017e9190611121565b60405180910390f35b61018f6109b0565b60405161019c919061113a565b60405180910390f35b6101bf60048036038101906101ba9190611153565b6109d5565b6040516101cc91906111f1565b60405180910390f35b6001602052815f5260405f2081815481106101ee575f80fd5b905f5260205f2090600502015f9150915050805f015490806001015f9054906101000a900473ffffffffffffffffffffffffffffffffffffffff16908060020180546102399061123e565b80601f01602080910402602001604051908101604052809291908181526020018280546102659061123e565b80156102b05780601f10610287576101008083540402835291602001916102b0565b820191905f5260205f20905b81548152906001019060200180831161029357829003601f168201915b5050505050908060030154908060040154905085565b5f8054906101000a900463ffffffff1663ffffffff168151111561031f576040517f08c379a0000000000000000000000000000000000000000000000000000000008152600401610316906112b8565b60405180910390fd5b5f6040518060a0016040528060015f3373ffffffffffffffffffffffffffffffffffffffff1673ffffffffffffffffffffffffffffffffffffffff1681526020019081526020015f208054905081526020013373ffffffffffffffffffffffffffffffffffffffff1681526020018381526020014281526020015f815250905060015f3373ffffffffffffffffffffffffffffffffffffffff1673ffffffffffffffffffffffffffffffffffffffff1681526020019081526020015f2081908060018154018082558091505060019003905f5260205f2090600502015f909190919091505f820151815f01556020820151816001015f6101000a81548173ffffffffffffffffffffffffffffffffffffffff021916908373ffffffffffffffffffffffffffffffffffffffff16021790555060408201518160020190816104669190611473565b50606082015181600301556080820151816004015550505050565b606060015f8373ffffffffffffffffffffffffffffffffffffffff1673ffffffffffffffffffffffffffffffffffffffff1681526020019081526020015f20805480602002602001604051908101604052809291908181526020015f905b82821015610611578382905f5260205f2090600502016040518060a00160405290815f8201548152602001600182015f9054906101000a900473ffffffffffffffffffffffffffffffffffffffff1673ffffffffffffffffffffffffffffffffffffffff1673ffffffffffffffffffffffffffffffffffffffff16815260200160028201805461056e9061123e565b80601f016020809104026020016040519081016040528092919081815260200182805461059a9061123e565b80156105e55780601f106105bc576101008083540402835291602001916105e5565b820191905f5260205f20905b8154815290600101906020018083116105c857829003601f168201915b5050505050815260200160038201548152602001600482015481525050815260200190600101906104df565b505050509050919050565b8060015f8473ffffffffffffffffffffffffffffffffffffffff1673ffffffffffffffffffffffffffffffffffffffff1681526020019081526020015f20828154811061066c5761066b611542565b5b905f5260205f2090600502015f0154146106bb576040517f08c379a00000000000000000000000000000000000000000000000000000000081526004016106b2906115df565b60405180910390fd5b5f60015f8473ffffffffffffffffffffffffffffffffffffffff1673ffffffffffffffffffffffffffffffffffffffff1681526020019081526020015f20828154811061070b5761070a611542565b5b905f5260205f209060050201600401541161075b576040517f08c379a000000000000000000000000000000000000000000000000000000000815260040161075290611647565b60405180910390fd5b60015f8373ffffffffffffffffffffffffffffffffffffffff1673ffffffffffffffffffffffffffffffffffffffff1681526020019081526020015f2081815481106107aa576107a9611542565b5b905f5260205f2090600502016004015f8154809291906107c990611692565b91905055505050565b3373ffffffffffffffffffffffffffffffffffffffff1660025f9054906101000a900473ffffffffffffffffffffffffffffffffffffffff1673ffffffffffffffffffffffffffffffffffffffff1614610861576040517f08c379a000000000000000000000000000000000000000000000000000000000815260040161085890611703565b60405180910390fd5b8061ffff165f806101000a81548163ffffffff021916908363ffffffff16021790555050565b8060015f8473ffffffffffffffffffffffffffffffffffffffff1673ffffffffffffffffffffffffffffffffffffffff1681526020019081526020015f2082815481106108d7576108d6611542565b5b905f5260205f2090600502015f015414610926576040517f08c379a000000000000000000000000000000000000000000000000000000000815260040161091d90611791565b60405180910390fd5b60015f8373ffffffffffffffffffffffffffffffffffffffff1673ffffffffffffffffffffffffffffffffffffffff1681526020019081526020015f20818154811061097557610974611542565b5b905f5260205f2090600502016004015f815480929190610994906117af565b91905055505050565b5f8054906101000a900463ffffffff1681565b60025f9054906101000a900473ffffffffffffffffffffffffffffffffffffffff1681565b6109dd610b4c565b60015f3373ffffffffffffffffffffffffffffffffffffffff1673ffffffffffffffffffffffffffffffffffffffff1681526020019081526020015f208281548110610a2c57610a2b611542565b5b905f5260205f2090600502016040518060a00160405290815f8201548152602001600182015f9054906101000a900473ffffffffffffffffffffffffffffffffffffffff1673ffffffffffffffffffffffffffffffffffffffff1673ffffffffffffffffffffffffffffffffffffffff168152602001600282018054610ab19061123e565b80601f0160208091040260200160405190810160405280929190818152602001828054610add9061123e565b8015610b285780601f10610aff57610100808354040283529160200191610b28565b820191905f5260205f20905b815481529060010190602001808311610b0b57829003601f168201915b50505050508152602001600382015481526020016004820154815250509050919050565b6040518060a001604052805f81526020015f73ffffffffffffffffffffffffffffffffffffffff168152602001606081526020015f81526020015f81525090565b5f604051905090565b5f80fd5b5f80fd5b5f73ffffffffffffffffffffffffffffffffffffffff82169050919050565b5f610bc782610b9e565b9050919050565b610bd781610bbd565b8114610be1575f80fd5b50565b5f81359050610bf281610bce565b92915050565b5f819050919050565b610c0a81610bf8565b8114610c14575f80fd5b50565b5f81359050610c2581610c01565b92915050565b5f8060408385031215610c4157610c40610b96565b5b5f610c4e85828601610be4565b9250506020610c5f85828601610c17565b9150509250929050565b610c7281610bf8565b82525050565b610c8181610bbd565b82525050565b5f81519050919050565b5f82825260208201905092915050565b8281835e5f83830152505050565b5f601f19601f8301169050919050565b5f610cc982610c87565b610cd38185610c91565b9350610ce3818560208601610ca1565b610cec81610caf565b840191505092915050565b5f60a082019050610d0a5f830188610c69565b610d176020830187610c78565b8181036040830152610d298186610cbf565b9050610d386060830185610c69565b610d456080830184610c69565b9695505050505050565b5f80fd5b5f80fd5b7f4e487b71000000000000000000000000000000000000000000000000000000005f52604160045260245ffd5b610d8d82610caf565b810181811067ffffffffffffffff82111715610dac57610dab610d57565b5b80604052505050565b5f610dbe610b8d565b9050610dca8282610d84565b919050565b5f67ffffffffffffffff821115610de957610de8610d57565b5b610df282610caf565b9050602081019050919050565b828183375f83830152505050565b5f610e1f610e1a84610dcf565b610db5565b905082815260208101848484011115610e3b57610e3a610d53565b5b610e46848285610dff565b509392505050565b5f82601f830112610e6257610e61610d4f565b5b8135610e72848260208601610e0d565b91505092915050565b5f60208284031215610e9057610e8f610b96565b5b5f82013567ffffffffffffffff811115610ead57610eac610b9a565b5b610eb984828501610e4e565b91505092915050565b5f60208284031215610ed757610ed6610b96565b5b5f610ee484828501610be4565b91505092915050565b5f81519050919050565b5f82825260208201905092915050565b5f819050602082019050919050565b610f1f81610bf8565b82525050565b610f2e81610bbd565b82525050565b5f82825260208201905092915050565b5f610f4e82610c87565b610f588185610f34565b9350610f68818560208601610ca1565b610f7181610caf565b840191505092915050565b5f60a083015f830151610f915f860182610f16565b506020830151610fa46020860182610f25565b5060408301518482036040860152610fbc8282610f44565b9150506060830151610fd16060860182610f16565b506080830151610fe46080860182610f16565b508091505092915050565b5f610ffa8383610f7c565b905092915050565b5f602082019050919050565b5f61101882610eed565b6110228185610ef7565b93508360208202850161103485610f07565b805f5b8581101561106f57848403895281516110508582610fef565b945061105b83611002565b925060208a01995050600181019050611037565b50829750879550505050505092915050565b5f6020820190508181035f830152611099818461100e565b905092915050565b5f61ffff82169050919050565b6110b7816110a1565b81146110c1575f80fd5b50565b5f813590506110d2816110ae565b92915050565b5f602082840312156110ed576110ec610b96565b5b5f6110fa848285016110c4565b91505092915050565b5f63ffffffff82169050919050565b61111b81611103565b82525050565b5f6020820190506111345f830184611112565b92915050565b5f60208201905061114d5f830184610c78565b92915050565b5f6020828403121561116857611167610b96565b5b5f61117584828501610c17565b91505092915050565b5f60a083015f8301516111935f860182610f16565b5060208301516111a66020860182610f25565b50604083015184820360408601526111be8282610f44565b91505060608301516111d36060860182610f16565b5060808301516111e66080860182610f16565b508091505092915050565b5f6020820190508181035f830152611209818461117e565b905092915050565b7f4e487b71000000000000000000000000000000000000000000000000000000005f52602260045260245ffd5b5f600282049050600182168061125557607f821691505b60208210810361126857611267611211565b5b50919050565b7f547765657420697320746f6f206c6f6e670000000000000000000000000000005f82015250565b5f6112a2601183610c91565b91506112ad8261126e565b602082019050919050565b5f6020820190508181035f8301526112cf81611296565b9050919050565b5f819050815f5260205f209050919050565b5f6020601f8301049050919050565b5f82821b905092915050565b5f600883026113327fffffffffffffffffffffffffffffffffffffffffffffffffffffffffffffffff826112f7565b61133c86836112f7565b95508019841693508086168417925050509392505050565b5f819050919050565b5f61137761137261136d84610bf8565b611354565b610bf8565b9050919050565b5f819050919050565b6113908361135d565b6113a461139c8261137e565b848454611303565b825550505050565b5f90565b6113b86113ac565b6113c3818484611387565b505050565b5b818110156113e6576113db5f826113b0565b6001810190506113c9565b5050565b601f82111561142b576113fc816112d6565b611405846112e8565b81016020851015611414578190505b611428611420856112e8565b8301826113c8565b50505b505050565b5f82821c905092915050565b5f61144b5f1984600802611430565b1980831691505092915050565b5f611463838361143c565b9150826002028217905092915050565b61147c82610c87565b67ffffffffffffffff81111561149557611494610d57565b5b61149f825461123e565b6114aa8282856113ea565b5f60209050601f8311600181146114db575f84156114c9578287015190505b6114d38582611458565b86555061153a565b601f1984166114e9866112d6565b5f5b82811015611510578489015182556001820191506020850194506020810190506114eb565b8683101561152d5784890151611529601f89168261143c565b8355505b6001600288020188555050505b505050505050565b7f4e487b71000000000000000000000000000000000000000000000000000000005f52603260045260245ffd5b7f5468657265206973206e6f2074776565747320657869737420776974682074685f8201527f6973206964000000000000000000000000000000000000000000000000000000602082015250565b5f6115c9602583610c91565b91506115d48261156f565b604082019050919050565b5f6020820190508181035f8301526115f6816115bd565b9050919050565b7f5468697320706f737420686173206e6f206c696b6573000000000000000000005f82015250565b5f611631601683610c91565b915061163c826115fd565b602082019050919050565b5f6020820190508181035f83015261165e81611625565b9050919050565b7f4e487b71000000000000000000000000000000000000000000000000000000005f52601160045260245ffd5b5f61169c82610bf8565b91505f82036116ae576116ad611665565b5b600182039050919050565b7f596f7520617265206e6f7420746865206f776e657200000000000000000000005f82015250565b5f6116ed601583610c91565b91506116f8826116b9565b602082019050919050565b5f6020820190508181035f83015261171a816116e1565b9050919050565b7f5468657265206973206e6f2074776565742065786973742077697468207468695f8201527f7320696400000000000000000000000000000000000000000000000000000000602082015250565b5f61177b602483610c91565b915061178682611721565b604082019050919050565b5f6020820190508181035f8301526117a88161176f565b9050919050565b5f6117b982610bf8565b91507fffffffffffffffffffffffffffffffffffffffffffffffffffffffffffffffff82036117eb576117ea611665565b5b60018201905091905056fea26469706673582212208f0f6d0d20651882cd3d5b2d86c2082b8abaa4530d973ead1fc16afbd166dcb564736f6c634300081a0033",
					"opcodes": "PUSH1 0x80 PUSH1 0x40 MSTORE PUSH2 0x17C PUSH0 DUP1 PUSH2 0x100 EXP DUP2 SLOAD DUP2 PUSH4 0xFFFFFFFF MUL NOT AND SWAP1 DUP4 PUSH4 0xFFFFFFFF AND MUL OR SWAP1 SSTORE POP CALLVALUE DUP1 ISZERO PUSH1 0x2F JUMPI PUSH0 DUP1 REVERT JUMPDEST POP CALLER PUSH1 0x2 PUSH0 PUSH2 0x100 EXP DUP2 SLOAD DUP2 PUSH20 0xFFFFFFFFFFFFFFFFFFFFFFFFFFFFFFFFFFFFFFFF MUL NOT AND SWAP1 DUP4 PUSH20 0xFFFFFFFFFFFFFFFFFFFFFFFFFFFFFFFFFFFFFFFF AND MUL OR SWAP1 SSTORE POP PUSH2 0x182C DUP1 PUSH2 0x7D PUSH0 CODECOPY PUSH0 RETURN INVALID PUSH1 0x80 PUSH1 0x40 MSTORE CALLVALUE DUP1 ISZERO PUSH2 0xF JUMPI PUSH0 DUP1 REVERT JUMPDEST POP PUSH1 0x4 CALLDATASIZE LT PUSH2 0x91 JUMPI PUSH0 CALLDATALOAD PUSH1 0xE0 SHR DUP1 PUSH4 0x58BFA4AB GT PUSH2 0x64 JUMPI DUP1 PUSH4 0x58BFA4AB EQ PUSH2 0x131 JUMPI DUP1 PUSH4 0x63378216 EQ PUSH2 0x14D JUMPI DUP1 PUSH4 0x6EB10797 EQ PUSH2 0x169 JUMPI DUP1 PUSH4 0x8DA5CB5B EQ PUSH2 0x187 JUMPI DUP1 PUSH4 0xC3AD5ECB EQ PUSH2 0x1A5 JUMPI PUSH2 0x91 JUMP JUMPDEST DUP1 PUSH4 0x5A1B4A9 EQ PUSH2 0x95 JUMPI DUP1 PUSH4 0xA7AA8A1 EQ PUSH2 0xC9 JUMPI DUP1 PUSH4 0x12E7EE1C EQ PUSH2 0xE5 JUMPI DUP1 PUSH4 0x3D9B569F EQ PUSH2 0x115 JUMPI JUMPDEST PUSH0 DUP1 REVERT JUMPDEST PUSH2 0xAF PUSH1 0x4 DUP1 CALLDATASIZE SUB DUP2 ADD SWAP1 PUSH2 0xAA SWAP2 SWAP1 PUSH2 0xC2B JUMP JUMPDEST PUSH2 0x1D5 JUMP JUMPDEST PUSH1 0x40 MLOAD PUSH2 0xC0 SWAP6 SWAP5 SWAP4 SWAP3 SWAP2 SWAP1 PUSH2 0xCF7 JUMP JUMPDEST PUSH1 0x40 MLOAD DUP1 SWAP2 SUB SWAP1 RETURN JUMPDEST PUSH2 0xE3 PUSH1 0x4 DUP1 CALLDATASIZE SUB DUP2 ADD SWAP1 PUSH2 0xDE SWAP2 SWAP1 PUSH2 0xE7B JUMP JUMPDEST PUSH2 0x2C6 JUMP JUMPDEST STOP JUMPDEST PUSH2 0xFF PUSH1 0x4 DUP1 CALLDATASIZE SUB DUP2 ADD SWAP1 PUSH2 0xFA SWAP2 SWAP1 PUSH2 0xEC2 JUMP JUMPDEST PUSH2 0x481 JUMP JUMPDEST PUSH1 0x40 MLOAD PUSH2 0x10C SWAP2 SWAP1 PUSH2 0x1081 JUMP JUMPDEST PUSH1 0x40 MLOAD DUP1 SWAP2 SUB SWAP1 RETURN JUMPDEST PUSH2 0x12F PUSH1 0x4 DUP1 CALLDATASIZE SUB DUP2 ADD SWAP1 PUSH2 0x12A SWAP2 SWAP1 PUSH2 0xC2B JUMP JUMPDEST PUSH2 0x61C JUMP JUMPDEST STOP JUMPDEST PUSH2 0x14B PUSH1 0x4 DUP1 CALLDATASIZE SUB DUP2 ADD SWAP1 PUSH2 0x146 SWAP2 SWAP1 PUSH2 0x10D8 JUMP JUMPDEST PUSH2 0x7D2 JUMP JUMPDEST STOP JUMPDEST PUSH2 0x167 PUSH1 0x4 DUP1 CALLDATASIZE SUB DUP2 ADD SWAP1 PUSH2 0x162 SWAP2 SWAP1 PUSH2 0xC2B JUMP JUMPDEST PUSH2 0x887 JUMP JUMPDEST STOP JUMPDEST PUSH2 0x171 PUSH2 0x99D JUMP JUMPDEST PUSH1 0x40 MLOAD PUSH2 0x17E SWAP2 SWAP1 PUSH2 0x1121 JUMP JUMPDEST PUSH1 0x40 MLOAD DUP1 SWAP2 SUB SWAP1 RETURN JUMPDEST PUSH2 0x18F PUSH2 0x9B0 JUMP JUMPDEST PUSH1 0x40 MLOAD PUSH2 0x19C SWAP2 SWAP1 PUSH2 0x113A JUMP JUMPDEST PUSH1 0x40 MLOAD DUP1 SWAP2 SUB SWAP1 RETURN JUMPDEST PUSH2 0x1BF PUSH1 0x4 DUP1 CALLDATASIZE SUB DUP2 ADD SWAP1 PUSH2 0x1BA SWAP2 SWAP1 PUSH2 0x1153 JUMP JUMPDEST PUSH2 0x9D5 JUMP JUMPDEST PUSH1 0x40 MLOAD PUSH2 0x1CC SWAP2 SWAP1 PUSH2 0x11F1 JUMP JUMPDEST PUSH1 0x40 MLOAD DUP1 SWAP2 SUB SWAP1 RETURN JUMPDEST PUSH1 0x1 PUSH1 0x20 MSTORE DUP2 PUSH0 MSTORE PUSH1 0x40 PUSH0 KECCAK256 DUP2 DUP2 SLOAD DUP2 LT PUSH2 0x1EE JUMPI PUSH0 DUP1 REVERT JUMPDEST SWAP1 PUSH0 MSTORE PUSH1 0x20 PUSH0 KECCAK256 SWAP1 PUSH1 0x5 MUL ADD PUSH0 SWAP2 POP SWAP2 POP POP DUP1 PUSH0 ADD SLOAD SWAP1 DUP1 PUSH1 0x1 ADD PUSH0 SWAP1 SLOAD SWAP1 PUSH2 0x100 EXP SWAP1 DIV PUSH20 0xFFFFFFFFFFFFFFFFFFFFFFFFFFFFFFFFFFFFFFFF AND SWAP1 DUP1 PUSH1 0x2 ADD DUP1 SLOAD PUSH2 0x239 SWAP1 PUSH2 0x123E JUMP JUMPDEST DUP1 PUSH1 0x1F ADD PUSH1 0x20 DUP1 SWAP2 DIV MUL PUSH1 0x20 ADD PUSH1 0x40 MLOAD SWAP1 DUP2 ADD PUSH1 0x40 MSTORE DUP1 SWAP3 SWAP2 SWAP1 DUP2 DUP2 MSTORE PUSH1 0x20 ADD DUP3 DUP1 SLOAD PUSH2 0x265 SWAP1 PUSH2 0x123E JUMP JUMPDEST DUP1 ISZERO PUSH2 0x2B0 JUMPI DUP1 PUSH1 0x1F LT PUSH2 0x287 JUMPI PUSH2 0x100 DUP1 DUP4 SLOAD DIV MUL DUP4 MSTORE SWAP2 PUSH1 0x20 ADD SWAP2 PUSH2 0x2B0 JUMP JUMPDEST DUP3 ADD SWAP2 SWAP1 PUSH0 MSTORE PUSH1 0x20 PUSH0 KECCAK256 SWAP1 JUMPDEST DUP2 SLOAD DUP2 MSTORE SWAP1 PUSH1 0x1 ADD SWAP1 PUSH1 0x20 ADD DUP1 DUP4 GT PUSH2 0x293 JUMPI DUP3 SWAP1 SUB PUSH1 0x1F AND DUP3 ADD SWAP2 JUMPDEST POP POP POP POP POP SWAP1 DUP1 PUSH1 0x3 ADD SLOAD SWAP1 DUP1 PUSH1 0x4 ADD SLOAD SWAP1 POP DUP6 JUMP JUMPDEST PUSH0 DUP1 SLOAD SWAP1 PUSH2 0x100 EXP SWAP1 DIV PUSH4 0xFFFFFFFF AND PUSH4 0xFFFFFFFF AND DUP2 MLOAD GT ISZERO PUSH2 0x31F JUMPI PUSH1 0x40 MLOAD PUSH32 0x8C379A000000000000000000000000000000000000000000000000000000000 DUP2 MSTORE PUSH1 0x4 ADD PUSH2 0x316 SWAP1 PUSH2 0x12B8 JUMP JUMPDEST PUSH1 0x40 MLOAD DUP1 SWAP2 SUB SWAP1 REVERT JUMPDEST PUSH0 PUSH1 0x40 MLOAD DUP1 PUSH1 0xA0 ADD PUSH1 0x40 MSTORE DUP1 PUSH1 0x1 PUSH0 CALLER PUSH20 0xFFFFFFFFFFFFFFFFFFFFFFFFFFFFFFFFFFFFFFFF AND PUSH20 0xFFFFFFFFFFFFFFFFFFFFFFFFFFFFFFFFFFFFFFFF AND DUP2 MSTORE PUSH1 0x20 ADD SWAP1 DUP2 MSTORE PUSH1 0x20 ADD PUSH0 KECCAK256 DUP1 SLOAD SWAP1 POP DUP2 MSTORE PUSH1 0x20 ADD CALLER PUSH20 0xFFFFFFFFFFFFFFFFFFFFFFFFFFFFFFFFFFFFFFFF AND DUP2 MSTORE PUSH1 0x20 ADD DUP4 DUP2 MSTORE PUSH1 0x20 ADD TIMESTAMP DUP2 MSTORE PUSH1 0x20 ADD PUSH0 DUP2 MSTORE POP SWAP1 POP PUSH1 0x1 PUSH0 CALLER PUSH20 0xFFFFFFFFFFFFFFFFFFFFFFFFFFFFFFFFFFFFFFFF AND PUSH20 0xFFFFFFFFFFFFFFFFFFFFFFFFFFFFFFFFFFFFFFFF AND DUP2 MSTORE PUSH1 0x20 ADD SWAP1 DUP2 MSTORE PUSH1 0x20 ADD PUSH0 KECCAK256 DUP2 SWAP1 DUP1 PUSH1 0x1 DUP2 SLOAD ADD DUP1 DUP3 SSTORE DUP1 SWAP2 POP POP PUSH1 0x1 SWAP1 SUB SWAP1 PUSH0 MSTORE PUSH1 0x20 PUSH0 KECCAK256 SWAP1 PUSH1 0x5 MUL ADD PUSH0 SWAP1 SWAP2 SWAP1 SWAP2 SWAP1 SWAP2 POP PUSH0 DUP3 ADD MLOAD DUP2 PUSH0 ADD SSTORE PUSH1 0x20 DUP3 ADD MLOAD DUP2 PUSH1 0x1 ADD PUSH0 PUSH2 0x100 EXP DUP2 SLOAD DUP2 PUSH20 0xFFFFFFFFFFFFFFFFFFFFFFFFFFFFFFFFFFFFFFFF MUL NOT AND SWAP1 DUP4 PUSH20 0xFFFFFFFFFFFFFFFFFFFFFFFFFFFFFFFFFFFFFFFF AND MUL OR SWAP1 SSTORE POP PUSH1 0x40 DUP3 ADD MLOAD DUP2 PUSH1 0x2 ADD SWAP1 DUP2 PUSH2 0x466 SWAP2 SWAP1 PUSH2 0x1473 JUMP JUMPDEST POP PUSH1 0x60 DUP3 ADD MLOAD DUP2 PUSH1 0x3 ADD SSTORE PUSH1 0x80 DUP3 ADD MLOAD DUP2 PUSH1 0x4 ADD SSTORE POP POP POP POP JUMP JUMPDEST PUSH1 0x60 PUSH1 0x1 PUSH0 DUP4 PUSH20 0xFFFFFFFFFFFFFFFFFFFFFFFFFFFFFFFFFFFFFFFF AND PUSH20 0xFFFFFFFFFFFFFFFFFFFFFFFFFFFFFFFFFFFFFFFF AND DUP2 MSTORE PUSH1 0x20 ADD SWAP1 DUP2 MSTORE PUSH1 0x20 ADD PUSH0 KECCAK256 DUP1 SLOAD DUP1 PUSH1 0x20 MUL PUSH1 0x20 ADD PUSH1 0x40 MLOAD SWAP1 DUP2 ADD PUSH1 0x40 MSTORE DUP1 SWAP3 SWAP2 SWAP1 DUP2 DUP2 MSTORE PUSH1 0x20 ADD PUSH0 SWAP1 JUMPDEST DUP3 DUP3 LT ISZERO PUSH2 0x611 JUMPI DUP4 DUP3 SWAP1 PUSH0 MSTORE PUSH1 0x20 PUSH0 KECCAK256 SWAP1 PUSH1 0x5 MUL ADD PUSH1 0x40 MLOAD DUP1 PUSH1 0xA0 ADD PUSH1 0x40 MSTORE SWAP1 DUP2 PUSH0 DUP3 ADD SLOAD DUP2 MSTORE PUSH1 0x20 ADD PUSH1 0x1 DUP3 ADD PUSH0 SWAP1 SLOAD SWAP1 PUSH2 0x100 EXP SWAP1 DIV PUSH20 0xFFFFFFFFFFFFFFFFFFFFFFFFFFFFFFFFFFFFFFFF AND PUSH20 0xFFFFFFFFFFFFFFFFFFFFFFFFFFFFFFFFFFFFFFFF AND PUSH20 0xFFFFFFFFFFFFFFFFFFFFFFFFFFFFFFFFFFFFFFFF AND DUP2 MSTORE PUSH1 0x20 ADD PUSH1 0x2 DUP3 ADD DUP1 SLOAD PUSH2 0x56E SWAP1 PUSH2 0x123E JUMP JUMPDEST DUP1 PUSH1 0x1F ADD PUSH1 0x20 DUP1 SWAP2 DIV MUL PUSH1 0x20 ADD PUSH1 0x40 MLOAD SWAP1 DUP2 ADD PUSH1 0x40 MSTORE DUP1 SWAP3 SWAP2 SWAP1 DUP2 DUP2 MSTORE PUSH1 0x20 ADD DUP3 DUP1 SLOAD PUSH2 0x59A SWAP1 PUSH2 0x123E JUMP JUMPDEST DUP1 ISZERO PUSH2 0x5E5 JUMPI DUP1 PUSH1 0x1F LT PUSH2 0x5BC JUMPI PUSH2 0x100 DUP1 DUP4 SLOAD DIV MUL DUP4 MSTORE SWAP2 PUSH1 0x20 ADD SWAP2 PUSH2 0x5E5 JUMP JUMPDEST DUP3 ADD SWAP2 SWAP1 PUSH0 MSTORE PUSH1 0x20 PUSH0 KECCAK256 SWAP1 JUMPDEST DUP2 SLOAD DUP2 MSTORE SWAP1 PUSH1 0x1 ADD SWAP1 PUSH1 0x20 ADD DUP1 DUP4 GT PUSH2 0x5C8 JUMPI DUP3 SWAP1 SUB PUSH1 0x1F AND DUP3 ADD SWAP2 JUMPDEST POP POP POP POP POP DUP2 MSTORE PUSH1 0x20 ADD PUSH1 0x3 DUP3 ADD SLOAD DUP2 MSTORE PUSH1 0x20 ADD PUSH1 0x4 DUP3 ADD SLOAD DUP2 MSTORE POP POP DUP2 MSTORE PUSH1 0x20 ADD SWAP1 PUSH1 0x1 ADD SWAP1 PUSH2 0x4DF JUMP JUMPDEST POP POP POP POP SWAP1 POP SWAP2 SWAP1 POP JUMP JUMPDEST DUP1 PUSH1 0x1 PUSH0 DUP5 PUSH20 0xFFFFFFFFFFFFFFFFFFFFFFFFFFFFFFFFFFFFFFFF AND PUSH20 0xFFFFFFFFFFFFFFFFFFFFFFFFFFFFFFFFFFFFFFFF AND DUP2 MSTORE PUSH1 0x20 ADD SWAP1 DUP2 MSTORE PUSH1 0x20 ADD PUSH0 KECCAK256 DUP3 DUP2 SLOAD DUP2 LT PUSH2 0x66C JUMPI PUSH2 0x66B PUSH2 0x1542 JUMP JUMPDEST JUMPDEST SWAP1 PUSH0 MSTORE PUSH1 0x20 PUSH0 KECCAK256 SWAP1 PUSH1 0x5 MUL ADD PUSH0 ADD SLOAD EQ PUSH2 0x6BB JUMPI PUSH1 0x40 MLOAD PUSH32 0x8C379A000000000000000000000000000000000000000000000000000000000 DUP2 MSTORE PUSH1 0x4 ADD PUSH2 0x6B2 SWAP1 PUSH2 0x15DF JUMP JUMPDEST PUSH1 0x40 MLOAD DUP1 SWAP2 SUB SWAP1 REVERT JUMPDEST PUSH0 PUSH1 0x1 PUSH0 DUP5 PUSH20 0xFFFFFFFFFFFFFFFFFFFFFFFFFFFFFFFFFFFFFFFF AND PUSH20 0xFFFFFFFFFFFFFFFFFFFFFFFFFFFFFFFFFFFFFFFF AND DUP2 MSTORE PUSH1 0x20 ADD SWAP1 DUP2 MSTORE PUSH1 0x20 ADD PUSH0 KECCAK256 DUP3 DUP2 SLOAD DUP2 LT PUSH2 0x70B JUMPI PUSH2 0x70A PUSH2 0x1542 JUMP JUMPDEST JUMPDEST SWAP1 PUSH0 MSTORE PUSH1 0x20 PUSH0 KECCAK256 SWAP1 PUSH1 0x5 MUL ADD PUSH1 0x4 ADD SLOAD GT PUSH2 0x75B JUMPI PUSH1 0x40 MLOAD PUSH32 0x8C379A000000000000000000000000000000000000000000000000000000000 DUP2 MSTORE PUSH1 0x4 ADD PUSH2 0x752 SWAP1 PUSH2 0x1647 JUMP JUMPDEST PUSH1 0x40 MLOAD DUP1 SWAP2 SUB SWAP1 REVERT JUMPDEST PUSH1 0x1 PUSH0 DUP4 PUSH20 0xFFFFFFFFFFFFFFFFFFFFFFFFFFFFFFFFFFFFFFFF AND PUSH20 0xFFFFFFFFFFFFFFFFFFFFFFFFFFFFFFFFFFFFFFFF AND DUP2 MSTORE PUSH1 0x20 ADD SWAP1 DUP2 MSTORE PUSH1 0x20 ADD PUSH0 KECCAK256 DUP2 DUP2 SLOAD DUP2 LT PUSH2 0x7AA JUMPI PUSH2 0x7A9 PUSH2 0x1542 JUMP JUMPDEST JUMPDEST SWAP1 PUSH0 MSTORE PUSH1 0x20 PUSH0 KECCAK256 SWAP1 PUSH1 0x5 MUL ADD PUSH1 0x4 ADD PUSH0 DUP2 SLOAD DUP1 SWAP3 SWAP2 SWAP1 PUSH2 0x7C9 SWAP1 PUSH2 0x1692 JUMP JUMPDEST SWAP2 SWAP1 POP SSTORE POP POP POP JUMP JUMPDEST CALLER PUSH20 0xFFFFFFFFFFFFFFFFFFFFFFFFFFFFFFFFFFFFFFFF AND PUSH1 0x2 PUSH0 SWAP1 SLOAD SWAP1 PUSH2 0x100 EXP SWAP1 DIV PUSH20 0xFFFFFFFFFFFFFFFFFFFFFFFFFFFFFFFFFFFFFFFF AND PUSH20 0xFFFFFFFFFFFFFFFFFFFFFFFFFFFFFFFFFFFFFFFF AND EQ PUSH2 0x861 JUMPI PUSH1 0x40 MLOAD PUSH32 0x8C379A000000000000000000000000000000000000000000000000000000000 DUP2 MSTORE PUSH1 0x4 ADD PUSH2 0x858 SWAP1 PUSH2 0x1703 JUMP JUMPDEST PUSH1 0x40 MLOAD DUP1 SWAP2 SUB SWAP1 REVERT JUMPDEST DUP1 PUSH2 0xFFFF AND PUSH0 DUP1 PUSH2 0x100 EXP DUP2 SLOAD DUP2 PUSH4 0xFFFFFFFF MUL NOT AND SWAP1 DUP4 PUSH4 0xFFFFFFFF AND MUL OR SWAP1 SSTORE POP POP JUMP JUMPDEST DUP1 PUSH1 0x1 PUSH0 DUP5 PUSH20 0xFFFFFFFFFFFFFFFFFFFFFFFFFFFFFFFFFFFFFFFF AND PUSH20 0xFFFFFFFFFFFFFFFFFFFFFFFFFFFFFFFFFFFFFFFF AND DUP2 MSTORE PUSH1 0x20 ADD SWAP1 DUP2 MSTORE PUSH1 0x20 ADD PUSH0 KECCAK256 DUP3 DUP2 SLOAD DUP2 LT PUSH2 0x8D7 JUMPI PUSH2 0x8D6 PUSH2 0x1542 JUMP JUMPDEST JUMPDEST SWAP1 PUSH0 MSTORE PUSH1 0x20 PUSH0 KECCAK256 SWAP1 PUSH1 0x5 MUL ADD PUSH0 ADD SLOAD EQ PUSH2 0x926 JUMPI PUSH1 0x40 MLOAD PUSH32 0x8C379A000000000000000000000000000000000000000000000000000000000 DUP2 MSTORE PUSH1 0x4 ADD PUSH2 0x91D SWAP1 PUSH2 0x1791 JUMP JUMPDEST PUSH1 0x40 MLOAD DUP1 SWAP2 SUB SWAP1 REVERT JUMPDEST PUSH1 0x1 PUSH0 DUP4 PUSH20 0xFFFFFFFFFFFFFFFFFFFFFFFFFFFFFFFFFFFFFFFF AND PUSH20 0xFFFFFFFFFFFFFFFFFFFFFFFFFFFFFFFFFFFFFFFF AND DUP2 MSTORE PUSH1 0x20 ADD SWAP1 DUP2 MSTORE PUSH1 0x20 ADD PUSH0 KECCAK256 DUP2 DUP2 SLOAD DUP2 LT PUSH2 0x975 JUMPI PUSH2 0x974 PUSH2 0x1542 JUMP JUMPDEST JUMPDEST SWAP1 PUSH0 MSTORE PUSH1 0x20 PUSH0 KECCAK256 SWAP1 PUSH1 0x5 MUL ADD PUSH1 0x4 ADD PUSH0 DUP2 SLOAD DUP1 SWAP3 SWAP2 SWAP1 PUSH2 0x994 SWAP1 PUSH2 0x17AF JUMP JUMPDEST SWAP2 SWAP1 POP SSTORE POP POP POP JUMP JUMPDEST PUSH0 DUP1 SLOAD SWAP1 PUSH2 0x100 EXP SWAP1 DIV PUSH4 0xFFFFFFFF AND DUP2 JUMP JUMPDEST PUSH1 0x2 PUSH0 SWAP1 SLOAD SWAP1 PUSH2 0x100 EXP SWAP1 DIV PUSH20 0xFFFFFFFFFFFFFFFFFFFFFFFFFFFFFFFFFFFFFFFF AND DUP2 JUMP JUMPDEST PUSH2 0x9DD PUSH2 0xB4C JUMP JUMPDEST PUSH1 0x1 PUSH0 CALLER PUSH20 0xFFFFFFFFFFFFFFFFFFFFFFFFFFFFFFFFFFFFFFFF AND PUSH20 0xFFFFFFFFFFFFFFFFFFFFFFFFFFFFFFFFFFFFFFFF AND DUP2 MSTORE PUSH1 0x20 ADD SWAP1 DUP2 MSTORE PUSH1 0x20 ADD PUSH0 KECCAK256 DUP3 DUP2 SLOAD DUP2 LT PUSH2 0xA2C JUMPI PUSH2 0xA2B PUSH2 0x1542 JUMP JUMPDEST JUMPDEST SWAP1 PUSH0 MSTORE PUSH1 0x20 PUSH0 KECCAK256 SWAP1 PUSH1 0x5 MUL ADD PUSH1 0x40 MLOAD DUP1 PUSH1 0xA0 ADD PUSH1 0x40 MSTORE SWAP1 DUP2 PUSH0 DUP3 ADD SLOAD DUP2 MSTORE PUSH1 0x20 ADD PUSH1 0x1 DUP3 ADD PUSH0 SWAP1 SLOAD SWAP1 PUSH2 0x100 EXP SWAP1 DIV PUSH20 0xFFFFFFFFFFFFFFFFFFFFFFFFFFFFFFFFFFFFFFFF AND PUSH20 0xFFFFFFFFFFFFFFFFFFFFFFFFFFFFFFFFFFFFFFFF AND PUSH20 0xFFFFFFFFFFFFFFFFFFFFFFFFFFFFFFFFFFFFFFFF AND DUP2 MSTORE PUSH1 0x20 ADD PUSH1 0x2 DUP3 ADD DUP1 SLOAD PUSH2 0xAB1 SWAP1 PUSH2 0x123E JUMP JUMPDEST DUP1 PUSH1 0x1F ADD PUSH1 0x20 DUP1 SWAP2 DIV MUL PUSH1 0x20 ADD PUSH1 0x40 MLOAD SWAP1 DUP2 ADD PUSH1 0x40 MSTORE DUP1 SWAP3 SWAP2 SWAP1 DUP2 DUP2 MSTORE PUSH1 0x20 ADD DUP3 DUP1 SLOAD PUSH2 0xADD SWAP1 PUSH2 0x123E JUMP JUMPDEST DUP1 ISZERO PUSH2 0xB28 JUMPI DUP1 PUSH1 0x1F LT PUSH2 0xAFF JUMPI PUSH2 0x100 DUP1 DUP4 SLOAD DIV MUL DUP4 MSTORE SWAP2 PUSH1 0x20 ADD SWAP2 PUSH2 0xB28 JUMP JUMPDEST DUP3 ADD SWAP2 SWAP1 PUSH0 MSTORE PUSH1 0x20 PUSH0 KECCAK256 SWAP1 JUMPDEST DUP2 SLOAD DUP2 MSTORE SWAP1 PUSH1 0x1 ADD SWAP1 PUSH1 0x20 ADD DUP1 DUP4 GT PUSH2 0xB0B JUMPI DUP3 SWAP1 SUB PUSH1 0x1F AND DUP3 ADD SWAP2 JUMPDEST POP POP POP POP POP DUP2 MSTORE PUSH1 0x20 ADD PUSH1 0x3 DUP3 ADD SLOAD DUP2 MSTORE PUSH1 0x20 ADD PUSH1 0x4 DUP3 ADD SLOAD DUP2 MSTORE POP POP SWAP1 POP SWAP2 SWAP1 POP JUMP JUMPDEST PUSH1 0x40 MLOAD DUP1 PUSH1 0xA0 ADD PUSH1 0x40 MSTORE DUP1 PUSH0 DUP2 MSTORE PUSH1 0x20 ADD PUSH0 PUSH20 0xFFFFFFFFFFFFFFFFFFFFFFFFFFFFFFFFFFFFFFFF AND DUP2 MSTORE PUSH1 0x20 ADD PUSH1 0x60 DUP2 MSTORE PUSH1 0x20 ADD PUSH0 DUP2 MSTORE PUSH1 0x20 ADD PUSH0 DUP2 MSTORE POP SWAP1 JUMP JUMPDEST PUSH0 PUSH1 0x40 MLOAD SWAP1 POP SWAP1 JUMP JUMPDEST PUSH0 DUP1 REVERT JUMPDEST PUSH0 DUP1 REVERT JUMPDEST PUSH0 PUSH20 0xFFFFFFFFFFFFFFFFFFFFFFFFFFFFFFFFFFFFFFFF DUP3 AND SWAP1 POP SWAP2 SWAP1 POP JUMP JUMPDEST PUSH0 PUSH2 0xBC7 DUP3 PUSH2 0xB9E JUMP JUMPDEST SWAP1 POP SWAP2 SWAP1 POP JUMP JUMPDEST PUSH2 0xBD7 DUP2 PUSH2 0xBBD JUMP JUMPDEST DUP2 EQ PUSH2 0xBE1 JUMPI PUSH0 DUP1 REVERT JUMPDEST POP JUMP JUMPDEST PUSH0 DUP2 CALLDATALOAD SWAP1 POP PUSH2 0xBF2 DUP2 PUSH2 0xBCE JUMP JUMPDEST SWAP3 SWAP2 POP POP JUMP JUMPDEST PUSH0 DUP2 SWAP1 POP SWAP2 SWAP1 POP JUMP JUMPDEST PUSH2 0xC0A DUP2 PUSH2 0xBF8 JUMP JUMPDEST DUP2 EQ PUSH2 0xC14 JUMPI PUSH0 DUP1 REVERT JUMPDEST POP JUMP JUMPDEST PUSH0 DUP2 CALLDATALOAD SWAP1 POP PUSH2 0xC25 DUP2 PUSH2 0xC01 JUMP JUMPDEST SWAP3 SWAP2 POP POP JUMP JUMPDEST PUSH0 DUP1 PUSH1 0x40 DUP4 DUP6 SUB SLT ISZERO PUSH2 0xC41 JUMPI PUSH2 0xC40 PUSH2 0xB96 JUMP JUMPDEST JUMPDEST PUSH0 PUSH2 0xC4E DUP6 DUP3 DUP7 ADD PUSH2 0xBE4 JUMP JUMPDEST SWAP3 POP POP PUSH1 0x20 PUSH2 0xC5F DUP6 DUP3 DUP7 ADD PUSH2 0xC17 JUMP JUMPDEST SWAP2 POP POP SWAP3 POP SWAP3 SWAP1 POP JUMP JUMPDEST PUSH2 0xC72 DUP2 PUSH2 0xBF8 JUMP JUMPDEST DUP3 MSTORE POP POP JUMP JUMPDEST PUSH2 0xC81 DUP2 PUSH2 0xBBD JUMP JUMPDEST DUP3 MSTORE POP POP JUMP JUMPDEST PUSH0 DUP2 MLOAD SWAP1 POP SWAP2 SWAP1 POP JUMP JUMPDEST PUSH0 DUP3 DUP3 MSTORE PUSH1 0x20 DUP3 ADD SWAP1 POP SWAP3 SWAP2 POP POP JUMP JUMPDEST DUP3 DUP2 DUP4 MCOPY PUSH0 DUP4 DUP4 ADD MSTORE POP POP POP JUMP JUMPDEST PUSH0 PUSH1 0x1F NOT PUSH1 0x1F DUP4 ADD AND SWAP1 POP SWAP2 SWAP1 POP JUMP JUMPDEST PUSH0 PUSH2 0xCC9 DUP3 PUSH2 0xC87 JUMP JUMPDEST PUSH2 0xCD3 DUP2 DUP6 PUSH2 0xC91 JUMP JUMPDEST SWAP4 POP PUSH2 0xCE3 DUP2 DUP6 PUSH1 0x20 DUP7 ADD PUSH2 0xCA1 JUMP JUMPDEST PUSH2 0xCEC DUP2 PUSH2 0xCAF JUMP JUMPDEST DUP5 ADD SWAP2 POP POP SWAP3 SWAP2 POP POP JUMP JUMPDEST PUSH0 PUSH1 0xA0 DUP3 ADD SWAP1 POP PUSH2 0xD0A PUSH0 DUP4 ADD DUP9 PUSH2 0xC69 JUMP JUMPDEST PUSH2 0xD17 PUSH1 0x20 DUP4 ADD DUP8 PUSH2 0xC78 JUMP JUMPDEST DUP2 DUP2 SUB PUSH1 0x40 DUP4 ADD MSTORE PUSH2 0xD29 DUP2 DUP7 PUSH2 0xCBF JUMP JUMPDEST SWAP1 POP PUSH2 0xD38 PUSH1 0x60 DUP4 ADD DUP6 PUSH2 0xC69 JUMP JUMPDEST PUSH2 0xD45 PUSH1 0x80 DUP4 ADD DUP5 PUSH2 0xC69 JUMP JUMPDEST SWAP7 SWAP6 POP POP POP POP POP POP JUMP JUMPDEST PUSH0 DUP1 REVERT JUMPDEST PUSH0 DUP1 REVERT JUMPDEST PUSH32 0x4E487B7100000000000000000000000000000000000000000000000000000000 PUSH0 MSTORE PUSH1 0x41 PUSH1 0x4 MSTORE PUSH1 0x24 PUSH0 REVERT JUMPDEST PUSH2 0xD8D DUP3 PUSH2 0xCAF JUMP JUMPDEST DUP2 ADD DUP2 DUP2 LT PUSH8 0xFFFFFFFFFFFFFFFF DUP3 GT OR ISZERO PUSH2 0xDAC JUMPI PUSH2 0xDAB PUSH2 0xD57 JUMP JUMPDEST JUMPDEST DUP1 PUSH1 0x40 MSTORE POP POP POP JUMP JUMPDEST PUSH0 PUSH2 0xDBE PUSH2 0xB8D JUMP JUMPDEST SWAP1 POP PUSH2 0xDCA DUP3 DUP3 PUSH2 0xD84 JUMP JUMPDEST SWAP2 SWAP1 POP JUMP JUMPDEST PUSH0 PUSH8 0xFFFFFFFFFFFFFFFF DUP3 GT ISZERO PUSH2 0xDE9 JUMPI PUSH2 0xDE8 PUSH2 0xD57 JUMP JUMPDEST JUMPDEST PUSH2 0xDF2 DUP3 PUSH2 0xCAF JUMP JUMPDEST SWAP1 POP PUSH1 0x20 DUP2 ADD SWAP1 POP SWAP2 SWAP1 POP JUMP JUMPDEST DUP3 DUP2 DUP4 CALLDATACOPY PUSH0 DUP4 DUP4 ADD MSTORE POP POP POP JUMP JUMPDEST PUSH0 PUSH2 0xE1F PUSH2 0xE1A DUP5 PUSH2 0xDCF JUMP JUMPDEST PUSH2 0xDB5 JUMP JUMPDEST SWAP1 POP DUP3 DUP2 MSTORE PUSH1 0x20 DUP2 ADD DUP5 DUP5 DUP5 ADD GT ISZERO PUSH2 0xE3B JUMPI PUSH2 0xE3A PUSH2 0xD53 JUMP JUMPDEST JUMPDEST PUSH2 0xE46 DUP5 DUP3 DUP6 PUSH2 0xDFF JUMP JUMPDEST POP SWAP4 SWAP3 POP POP POP JUMP JUMPDEST PUSH0 DUP3 PUSH1 0x1F DUP4 ADD SLT PUSH2 0xE62 JUMPI PUSH2 0xE61 PUSH2 0xD4F JUMP JUMPDEST JUMPDEST DUP2 CALLDATALOAD PUSH2 0xE72 DUP5 DUP3 PUSH1 0x20 DUP7 ADD PUSH2 0xE0D JUMP JUMPDEST SWAP2 POP POP SWAP3 SWAP2 POP POP JUMP JUMPDEST PUSH0 PUSH1 0x20 DUP3 DUP5 SUB SLT ISZERO PUSH2 0xE90 JUMPI PUSH2 0xE8F PUSH2 0xB96 JUMP JUMPDEST JUMPDEST PUSH0 DUP3 ADD CALLDATALOAD PUSH8 0xFFFFFFFFFFFFFFFF DUP2 GT ISZERO PUSH2 0xEAD JUMPI PUSH2 0xEAC PUSH2 0xB9A JUMP JUMPDEST JUMPDEST PUSH2 0xEB9 DUP5 DUP3 DUP6 ADD PUSH2 0xE4E JUMP JUMPDEST SWAP2 POP POP SWAP3 SWAP2 POP POP JUMP JUMPDEST PUSH0 PUSH1 0x20 DUP3 DUP5 SUB SLT ISZERO PUSH2 0xED7 JUMPI PUSH2 0xED6 PUSH2 0xB96 JUMP JUMPDEST JUMPDEST PUSH0 PUSH2 0xEE4 DUP5 DUP3 DUP6 ADD PUSH2 0xBE4 JUMP JUMPDEST SWAP2 POP POP SWAP3 SWAP2 POP POP JUMP JUMPDEST PUSH0 DUP2 MLOAD SWAP1 POP SWAP2 SWAP1 POP JUMP JUMPDEST PUSH0 DUP3 DUP3 MSTORE PUSH1 0x20 DUP3 ADD SWAP1 POP SWAP3 SWAP2 POP POP JUMP JUMPDEST PUSH0 DUP2 SWAP1 POP PUSH1 0x20 DUP3 ADD SWAP1 POP SWAP2 SWAP1 POP JUMP JUMPDEST PUSH2 0xF1F DUP2 PUSH2 0xBF8 JUMP JUMPDEST DUP3 MSTORE POP POP JUMP JUMPDEST PUSH2 0xF2E DUP2 PUSH2 0xBBD JUMP JUMPDEST DUP3 MSTORE POP POP JUMP JUMPDEST PUSH0 DUP3 DUP3 MSTORE PUSH1 0x20 DUP3 ADD SWAP1 POP SWAP3 SWAP2 POP POP JUMP JUMPDEST PUSH0 PUSH2 0xF4E DUP3 PUSH2 0xC87 JUMP JUMPDEST PUSH2 0xF58 DUP2 DUP6 PUSH2 0xF34 JUMP JUMPDEST SWAP4 POP PUSH2 0xF68 DUP2 DUP6 PUSH1 0x20 DUP7 ADD PUSH2 0xCA1 JUMP JUMPDEST PUSH2 0xF71 DUP2 PUSH2 0xCAF JUMP JUMPDEST DUP5 ADD SWAP2 POP POP SWAP3 SWAP2 POP POP JUMP JUMPDEST PUSH0 PUSH1 0xA0 DUP4 ADD PUSH0 DUP4 ADD MLOAD PUSH2 0xF91 PUSH0 DUP7 ADD DUP3 PUSH2 0xF16 JUMP JUMPDEST POP PUSH1 0x20 DUP4 ADD MLOAD PUSH2 0xFA4 PUSH1 0x20 DUP7 ADD DUP3 PUSH2 0xF25 JUMP JUMPDEST POP PUSH1 0x40 DUP4 ADD MLOAD DUP5 DUP3 SUB PUSH1 0x40 DUP7 ADD MSTORE PUSH2 0xFBC DUP3 DUP3 PUSH2 0xF44 JUMP JUMPDEST SWAP2 POP POP PUSH1 0x60 DUP4 ADD MLOAD PUSH2 0xFD1 PUSH1 0x60 DUP7 ADD DUP3 PUSH2 0xF16 JUMP JUMPDEST POP PUSH1 0x80 DUP4 ADD MLOAD PUSH2 0xFE4 PUSH1 0x80 DUP7 ADD DUP3 PUSH2 0xF16 JUMP JUMPDEST POP DUP1 SWAP2 POP POP SWAP3 SWAP2 POP POP JUMP JUMPDEST PUSH0 PUSH2 0xFFA DUP4 DUP4 PUSH2 0xF7C JUMP JUMPDEST SWAP1 POP SWAP3 SWAP2 POP POP JUMP JUMPDEST PUSH0 PUSH1 0x20 DUP3 ADD SWAP1 POP SWAP2 SWAP1 POP JUMP JUMPDEST PUSH0 PUSH2 0x1018 DUP3 PUSH2 0xEED JUMP JUMPDEST PUSH2 0x1022 DUP2 DUP6 PUSH2 0xEF7 JUMP JUMPDEST SWAP4 POP DUP4 PUSH1 0x20 DUP3 MUL DUP6 ADD PUSH2 0x1034 DUP6 PUSH2 0xF07 JUMP JUMPDEST DUP1 PUSH0 JUMPDEST DUP6 DUP2 LT ISZERO PUSH2 0x106F JUMPI DUP5 DUP5 SUB DUP10 MSTORE DUP2 MLOAD PUSH2 0x1050 DUP6 DUP3 PUSH2 0xFEF JUMP JUMPDEST SWAP5 POP PUSH2 0x105B DUP4 PUSH2 0x1002 JUMP JUMPDEST SWAP3 POP PUSH1 0x20 DUP11 ADD SWAP10 POP POP PUSH1 0x1 DUP2 ADD SWAP1 POP PUSH2 0x1037 JUMP JUMPDEST POP DUP3 SWAP8 POP DUP8 SWAP6 POP POP POP POP POP POP SWAP3 SWAP2 POP POP JUMP JUMPDEST PUSH0 PUSH1 0x20 DUP3 ADD SWAP1 POP DUP2 DUP2 SUB PUSH0 DUP4 ADD MSTORE PUSH2 0x1099 DUP2 DUP5 PUSH2 0x100E JUMP JUMPDEST SWAP1 POP SWAP3 SWAP2 POP POP JUMP JUMPDEST PUSH0 PUSH2 0xFFFF DUP3 AND SWAP1 POP SWAP2 SWAP1 POP JUMP JUMPDEST PUSH2 0x10B7 DUP2 PUSH2 0x10A1 JUMP JUMPDEST DUP2 EQ PUSH2 0x10C1 JUMPI PUSH0 DUP1 REVERT JUMPDEST POP JUMP JUMPDEST PUSH0 DUP2 CALLDATALOAD SWAP1 POP PUSH2 0x10D2 DUP2 PUSH2 0x10AE JUMP JUMPDEST SWAP3 SWAP2 POP POP JUMP JUMPDEST PUSH0 PUSH1 0x20 DUP3 DUP5 SUB SLT ISZERO PUSH2 0x10ED JUMPI PUSH2 0x10EC PUSH2 0xB96 JUMP JUMPDEST JUMPDEST PUSH0 PUSH2 0x10FA DUP5 DUP3 DUP6 ADD PUSH2 0x10C4 JUMP JUMPDEST SWAP2 POP POP SWAP3 SWAP2 POP POP JUMP JUMPDEST PUSH0 PUSH4 0xFFFFFFFF DUP3 AND SWAP1 POP SWAP2 SWAP1 POP JUMP JUMPDEST PUSH2 0x111B DUP2 PUSH2 0x1103 JUMP JUMPDEST DUP3 MSTORE POP POP JUMP JUMPDEST PUSH0 PUSH1 0x20 DUP3 ADD SWAP1 POP PUSH2 0x1134 PUSH0 DUP4 ADD DUP5 PUSH2 0x1112 JUMP JUMPDEST SWAP3 SWAP2 POP POP JUMP JUMPDEST PUSH0 PUSH1 0x20 DUP3 ADD SWAP1 POP PUSH2 0x114D PUSH0 DUP4 ADD DUP5 PUSH2 0xC78 JUMP JUMPDEST SWAP3 SWAP2 POP POP JUMP JUMPDEST PUSH0 PUSH1 0x20 DUP3 DUP5 SUB SLT ISZERO PUSH2 0x1168 JUMPI PUSH2 0x1167 PUSH2 0xB96 JUMP JUMPDEST JUMPDEST PUSH0 PUSH2 0x1175 DUP5 DUP3 DUP6 ADD PUSH2 0xC17 JUMP JUMPDEST SWAP2 POP POP SWAP3 SWAP2 POP POP JUMP JUMPDEST PUSH0 PUSH1 0xA0 DUP4 ADD PUSH0 DUP4 ADD MLOAD PUSH2 0x1193 PUSH0 DUP7 ADD DUP3 PUSH2 0xF16 JUMP JUMPDEST POP PUSH1 0x20 DUP4 ADD MLOAD PUSH2 0x11A6 PUSH1 0x20 DUP7 ADD DUP3 PUSH2 0xF25 JUMP JUMPDEST POP PUSH1 0x40 DUP4 ADD MLOAD DUP5 DUP3 SUB PUSH1 0x40 DUP7 ADD MSTORE PUSH2 0x11BE DUP3 DUP3 PUSH2 0xF44 JUMP JUMPDEST SWAP2 POP POP PUSH1 0x60 DUP4 ADD MLOAD PUSH2 0x11D3 PUSH1 0x60 DUP7 ADD DUP3 PUSH2 0xF16 JUMP JUMPDEST POP PUSH1 0x80 DUP4 ADD MLOAD PUSH2 0x11E6 PUSH1 0x80 DUP7 ADD DUP3 PUSH2 0xF16 JUMP JUMPDEST POP DUP1 SWAP2 POP POP SWAP3 SWAP2 POP POP JUMP JUMPDEST PUSH0 PUSH1 0x20 DUP3 ADD SWAP1 POP DUP2 DUP2 SUB PUSH0 DUP4 ADD MSTORE PUSH2 0x1209 DUP2 DUP5 PUSH2 0x117E JUMP JUMPDEST SWAP1 POP SWAP3 SWAP2 POP POP JUMP JUMPDEST PUSH32 0x4E487B7100000000000000000000000000000000000000000000000000000000 PUSH0 MSTORE PUSH1 0x22 PUSH1 0x4 MSTORE PUSH1 0x24 PUSH0 REVERT JUMPDEST PUSH0 PUSH1 0x2 DUP3 DIV SWAP1 POP PUSH1 0x1 DUP3 AND DUP1 PUSH2 0x1255 JUMPI PUSH1 0x7F DUP3 AND SWAP2 POP JUMPDEST PUSH1 0x20 DUP3 LT DUP2 SUB PUSH2 0x1268 JUMPI PUSH2 0x1267 PUSH2 0x1211 JUMP JUMPDEST JUMPDEST POP SWAP2 SWAP1 POP JUMP JUMPDEST PUSH32 0x547765657420697320746F6F206C6F6E67000000000000000000000000000000 PUSH0 DUP3 ADD MSTORE POP JUMP JUMPDEST PUSH0 PUSH2 0x12A2 PUSH1 0x11 DUP4 PUSH2 0xC91 JUMP JUMPDEST SWAP2 POP PUSH2 0x12AD DUP3 PUSH2 0x126E JUMP JUMPDEST PUSH1 0x20 DUP3 ADD SWAP1 POP SWAP2 SWAP1 POP JUMP JUMPDEST PUSH0 PUSH1 0x20 DUP3 ADD SWAP1 POP DUP2 DUP2 SUB PUSH0 DUP4 ADD MSTORE PUSH2 0x12CF DUP2 PUSH2 0x1296 JUMP JUMPDEST SWAP1 POP SWAP2 SWAP1 POP JUMP JUMPDEST PUSH0 DUP2 SWAP1 POP DUP2 PUSH0 MSTORE PUSH1 0x20 PUSH0 KECCAK256 SWAP1 POP SWAP2 SWAP1 POP JUMP JUMPDEST PUSH0 PUSH1 0x20 PUSH1 0x1F DUP4 ADD DIV SWAP1 POP SWAP2 SWAP1 POP JUMP JUMPDEST PUSH0 DUP3 DUP3 SHL SWAP1 POP SWAP3 SWAP2 POP POP JUMP JUMPDEST PUSH0 PUSH1 0x8 DUP4 MUL PUSH2 0x1332 PUSH32 0xFFFFFFFFFFFFFFFFFFFFFFFFFFFFFFFFFFFFFFFFFFFFFFFFFFFFFFFFFFFFFFFF DUP3 PUSH2 0x12F7 JUMP JUMPDEST PUSH2 0x133C DUP7 DUP4 PUSH2 0x12F7 JUMP JUMPDEST SWAP6 POP DUP1 NOT DUP5 AND SWAP4 POP DUP1 DUP7 AND DUP5 OR SWAP3 POP POP POP SWAP4 SWAP3 POP POP POP JUMP JUMPDEST PUSH0 DUP2 SWAP1 POP SWAP2 SWAP1 POP JUMP JUMPDEST PUSH0 PUSH2 0x1377 PUSH2 0x1372 PUSH2 0x136D DUP5 PUSH2 0xBF8 JUMP JUMPDEST PUSH2 0x1354 JUMP JUMPDEST PUSH2 0xBF8 JUMP JUMPDEST SWAP1 POP SWAP2 SWAP1 POP JUMP JUMPDEST PUSH0 DUP2 SWAP1 POP SWAP2 SWAP1 POP JUMP JUMPDEST PUSH2 0x1390 DUP4 PUSH2 0x135D JUMP JUMPDEST PUSH2 0x13A4 PUSH2 0x139C DUP3 PUSH2 0x137E JUMP JUMPDEST DUP5 DUP5 SLOAD PUSH2 0x1303 JUMP JUMPDEST DUP3 SSTORE POP POP POP POP JUMP JUMPDEST PUSH0 SWAP1 JUMP JUMPDEST PUSH2 0x13B8 PUSH2 0x13AC JUMP JUMPDEST PUSH2 0x13C3 DUP2 DUP5 DUP5 PUSH2 0x1387 JUMP JUMPDEST POP POP POP JUMP JUMPDEST JUMPDEST DUP2 DUP2 LT ISZERO PUSH2 0x13E6 JUMPI PUSH2 0x13DB PUSH0 DUP3 PUSH2 0x13B0 JUMP JUMPDEST PUSH1 0x1 DUP2 ADD SWAP1 POP PUSH2 0x13C9 JUMP JUMPDEST POP POP JUMP JUMPDEST PUSH1 0x1F DUP3 GT ISZERO PUSH2 0x142B JUMPI PUSH2 0x13FC DUP2 PUSH2 0x12D6 JUMP JUMPDEST PUSH2 0x1405 DUP5 PUSH2 0x12E8 JUMP JUMPDEST DUP2 ADD PUSH1 0x20 DUP6 LT ISZERO PUSH2 0x1414 JUMPI DUP2 SWAP1 POP JUMPDEST PUSH2 0x1428 PUSH2 0x1420 DUP6 PUSH2 0x12E8 JUMP JUMPDEST DUP4 ADD DUP3 PUSH2 0x13C8 JUMP JUMPDEST POP POP JUMPDEST POP POP POP JUMP JUMPDEST PUSH0 DUP3 DUP3 SHR SWAP1 POP SWAP3 SWAP2 POP POP JUMP JUMPDEST PUSH0 PUSH2 0x144B PUSH0 NOT DUP5 PUSH1 0x8 MUL PUSH2 0x1430 JUMP JUMPDEST NOT DUP1 DUP4 AND SWAP2 POP POP SWAP3 SWAP2 POP POP JUMP JUMPDEST PUSH0 PUSH2 0x1463 DUP4 DUP4 PUSH2 0x143C JUMP JUMPDEST SWAP2 POP DUP3 PUSH1 0x2 MUL DUP3 OR SWAP1 POP SWAP3 SWAP2 POP POP JUMP JUMPDEST PUSH2 0x147C DUP3 PUSH2 0xC87 JUMP JUMPDEST PUSH8 0xFFFFFFFFFFFFFFFF DUP2 GT ISZERO PUSH2 0x1495 JUMPI PUSH2 0x1494 PUSH2 0xD57 JUMP JUMPDEST JUMPDEST PUSH2 0x149F DUP3 SLOAD PUSH2 0x123E JUMP JUMPDEST PUSH2 0x14AA DUP3 DUP3 DUP6 PUSH2 0x13EA JUMP JUMPDEST PUSH0 PUSH1 0x20 SWAP1 POP PUSH1 0x1F DUP4 GT PUSH1 0x1 DUP2 EQ PUSH2 0x14DB JUMPI PUSH0 DUP5 ISZERO PUSH2 0x14C9 JUMPI DUP3 DUP8 ADD MLOAD SWAP1 POP JUMPDEST PUSH2 0x14D3 DUP6 DUP3 PUSH2 0x1458 JUMP JUMPDEST DUP7 SSTORE POP PUSH2 0x153A JUMP JUMPDEST PUSH1 0x1F NOT DUP5 AND PUSH2 0x14E9 DUP7 PUSH2 0x12D6 JUMP JUMPDEST PUSH0 JUMPDEST DUP3 DUP2 LT ISZERO PUSH2 0x1510 JUMPI DUP5 DUP10 ADD MLOAD DUP3 SSTORE PUSH1 0x1 DUP3 ADD SWAP2 POP PUSH1 0x20 DUP6 ADD SWAP5 POP PUSH1 0x20 DUP2 ADD SWAP1 POP PUSH2 0x14EB JUMP JUMPDEST DUP7 DUP4 LT ISZERO PUSH2 0x152D JUMPI DUP5 DUP10 ADD MLOAD PUSH2 0x1529 PUSH1 0x1F DUP10 AND DUP3 PUSH2 0x143C JUMP JUMPDEST DUP4 SSTORE POP JUMPDEST PUSH1 0x1 PUSH1 0x2 DUP9 MUL ADD DUP9 SSTORE POP POP POP JUMPDEST POP POP POP POP POP POP JUMP JUMPDEST PUSH32 0x4E487B7100000000000000000000000000000000000000000000000000000000 PUSH0 MSTORE PUSH1 0x32 PUSH1 0x4 MSTORE PUSH1 0x24 PUSH0 REVERT JUMPDEST PUSH32 0x5468657265206973206E6F207477656574732065786973742077697468207468 PUSH0 DUP3 ADD MSTORE PUSH32 0x6973206964000000000000000000000000000000000000000000000000000000 PUSH1 0x20 DUP3 ADD MSTORE POP JUMP JUMPDEST PUSH0 PUSH2 0x15C9 PUSH1 0x25 DUP4 PUSH2 0xC91 JUMP JUMPDEST SWAP2 POP PUSH2 0x15D4 DUP3 PUSH2 0x156F JUMP JUMPDEST PUSH1 0x40 DUP3 ADD SWAP1 POP SWAP2 SWAP1 POP JUMP JUMPDEST PUSH0 PUSH1 0x20 DUP3 ADD SWAP1 POP DUP2 DUP2 SUB PUSH0 DUP4 ADD MSTORE PUSH2 0x15F6 DUP2 PUSH2 0x15BD JUMP JUMPDEST SWAP1 POP SWAP2 SWAP1 POP JUMP JUMPDEST PUSH32 0x5468697320706F737420686173206E6F206C696B657300000000000000000000 PUSH0 DUP3 ADD MSTORE POP JUMP JUMPDEST PUSH0 PUSH2 0x1631 PUSH1 0x16 DUP4 PUSH2 0xC91 JUMP JUMPDEST SWAP2 POP PUSH2 0x163C DUP3 PUSH2 0x15FD JUMP JUMPDEST PUSH1 0x20 DUP3 ADD SWAP1 POP SWAP2 SWAP1 POP JUMP JUMPDEST PUSH0 PUSH1 0x20 DUP3 ADD SWAP1 POP DUP2 DUP2 SUB PUSH0 DUP4 ADD MSTORE PUSH2 0x165E DUP2 PUSH2 0x1625 JUMP JUMPDEST SWAP1 POP SWAP2 SWAP1 POP JUMP JUMPDEST PUSH32 0x4E487B7100000000000000000000000000000000000000000000000000000000 PUSH0 MSTORE PUSH1 0x11 PUSH1 0x4 MSTORE PUSH1 0x24 PUSH0 REVERT JUMPDEST PUSH0 PUSH2 0x169C DUP3 PUSH2 0xBF8 JUMP JUMPDEST SWAP2 POP PUSH0 DUP3 SUB PUSH2 0x16AE JUMPI PUSH2 0x16AD PUSH2 0x1665 JUMP JUMPDEST JUMPDEST PUSH1 0x1 DUP3 SUB SWAP1 POP SWAP2 SWAP1 POP JUMP JUMPDEST PUSH32 0x596F7520617265206E6F7420746865206F776E65720000000000000000000000 PUSH0 DUP3 ADD MSTORE POP JUMP JUMPDEST PUSH0 PUSH2 0x16ED PUSH1 0x15 DUP4 PUSH2 0xC91 JUMP JUMPDEST SWAP2 POP PUSH2 0x16F8 DUP3 PUSH2 0x16B9 JUMP JUMPDEST PUSH1 0x20 DUP3 ADD SWAP1 POP SWAP2 SWAP1 POP JUMP JUMPDEST PUSH0 PUSH1 0x20 DUP3 ADD SWAP1 POP DUP2 DUP2 SUB PUSH0 DUP4 ADD MSTORE PUSH2 0x171A DUP2 PUSH2 0x16E1 JUMP JUMPDEST SWAP1 POP SWAP2 SWAP1 POP JUMP JUMPDEST PUSH32 0x5468657265206973206E6F207477656574206578697374207769746820746869 PUSH0 DUP3 ADD MSTORE PUSH32 0x7320696400000000000000000000000000000000000000000000000000000000 PUSH1 0x20 DUP3 ADD MSTORE POP JUMP JUMPDEST PUSH0 PUSH2 0x177B PUSH1 0x24 DUP4 PUSH2 0xC91 JUMP JUMPDEST SWAP2 POP PUSH2 0x1786 DUP3 PUSH2 0x1721 JUMP JUMPDEST PUSH1 0x40 DUP3 ADD SWAP1 POP SWAP2 SWAP1 POP JUMP JUMPDEST PUSH0 PUSH1 0x20 DUP3 ADD SWAP1 POP DUP2 DUP2 SUB PUSH0 DUP4 ADD MSTORE PUSH2 0x17A8 DUP2 PUSH2 0x176F JUMP JUMPDEST SWAP1 POP SWAP2 SWAP1 POP JUMP JUMPDEST PUSH0 PUSH2 0x17B9 DUP3 PUSH2 0xBF8 JUMP JUMPDEST SWAP2 POP PUSH32 0xFFFFFFFFFFFFFFFFFFFFFFFFFFFFFFFFFFFFFFFFFFFFFFFFFFFFFFFFFFFFFFFF DUP3 SUB PUSH2 0x17EB JUMPI PUSH2 0x17EA PUSH2 0x1665 JUMP JUMPDEST JUMPDEST PUSH1 0x1 DUP3 ADD SWAP1 POP SWAP2 SWAP1 POP JUMP INVALID LOG2 PUSH5 0x6970667358 0x22 SLT KECCAK256 DUP16 0xF PUSH14 0xD20651882CD3D5B2D86C2082B8A 0xBA LOG4 MSTORE8 0xD SWAP8 RETURNDATACOPY 0xAD 0x1F 0xC1 PUSH11 0xFBD166DCB564736F6C6343 STOP ADDMOD BYTE STOP CALLER "
				},
				"gasEstimates": {
					"creation": {
						"codeDepositCost": "1237600",
						"executionCost": "49817",
						"totalCost": "1287417"
					},
					"external": {
						"MAX_TWEET_LENGTH()": "2507",
						"changeTweetLength(uint16)": "26848",
						"createTweets(string)": "infinite",
						"getAllTweets(address)": "infinite",
						"getTweet(uint256)": "infinite",
						"likeTweet(address,uint256)": "infinite",
						"owner()": "2574",
						"tweets(address,uint256)": "infinite",
						"unlikeTweet(address,uint256)": "infinite"
					}
				},
				"methodIdentifiers": {
					"MAX_TWEET_LENGTH()": "6eb10797",
					"changeTweetLength(uint16)": "58bfa4ab",
					"createTweets(string)": "0a7aa8a1",
					"getAllTweets(address)": "12e7ee1c",
					"getTweet(uint256)": "c3ad5ecb",
					"likeTweet(address,uint256)": "63378216",
					"owner()": "8da5cb5b",
					"tweets(address,uint256)": "05a1b4a9",
					"unlikeTweet(address,uint256)": "3d9b569f"
				}
			},
			"storageLayout": {
				"storage": [
					{
						"astId": 15,
						"contract": "contracts/Twitter.sol:Twitter",
						"label": "MAX_TWEET_LENGTH",
						"offset": 0,
						"slot": "0",
						"type": "t_uint32"
					},
					{
						"astId": 21,
						"contract": "contracts/Twitter.sol:Twitter",
						"label": "tweets",
						"offset": 0,
						"slot": "1",
						"type": "t_mapping(t_address,t_array(t_struct(Tweet)12_storage)dyn_storage)"
					},
					{
						"astId": 23,
						"contract": "contracts/Twitter.sol:Twitter",
						"label": "owner",
						"offset": 0,
						"slot": "2",
						"type": "t_address"
					}
				],
				"types": {
					"t_address": {
						"encoding": "inplace",
						"label": "address",
						"numberOfBytes": "20"
					},
					"t_array(t_struct(Tweet)12_storage)dyn_storage": {
						"base": "t_struct(Tweet)12_storage",
						"encoding": "dynamic_array",
						"label": "struct Twitter.Tweet[]",
						"numberOfBytes": "32"
					},
					"t_mapping(t_address,t_array(t_struct(Tweet)12_storage)dyn_storage)": {
						"encoding": "mapping",
						"key": "t_address",
						"label": "mapping(address => struct Twitter.Tweet[])",
						"numberOfBytes": "32",
						"value": "t_array(t_struct(Tweet)12_storage)dyn_storage"
					},
					"t_string_storage": {
						"encoding": "bytes",
						"label": "string",
						"numberOfBytes": "32"
					},
					"t_struct(Tweet)12_storage": {
						"encoding": "inplace",
						"label": "struct Twitter.Tweet",
						"members": [
							{
								"astId": 3,
								"contract": "contracts/Twitter.sol:Twitter",
								"label": "id",
								"offset": 0,
								"slot": "0",
								"type": "t_uint256"
							},
							{
								"astId": 5,
								"contract": "contracts/Twitter.sol:Twitter",
								"label": "author",
								"offset": 0,
								"slot": "1",
								"type": "t_address"
							},
							{
								"astId": 7,
								"contract": "contracts/Twitter.sol:Twitter",
								"label": "content",
								"offset": 0,
								"slot": "2",
								"type": "t_string_storage"
							},
							{
								"astId": 9,
								"contract": "contracts/Twitter.sol:Twitter",
								"label": "timestamp",
								"offset": 0,
								"slot": "3",
								"type": "t_uint256"
							},
							{
								"astId": 11,
								"contract": "contracts/Twitter.sol:Twitter",
								"label": "likes",
								"offset": 0,
								"slot": "4",
								"type": "t_uint256"
							}
						],
						"numberOfBytes": "160"
					},
					"t_uint256": {
						"encoding": "inplace",
						"label": "uint256",
						"numberOfBytes": "32"
					},
					"t_uint32": {
						"encoding": "inplace",
						"label": "uint32",
						"numberOfBytes": "4"
					}
				}
			},
			"userdoc": {
				"kind": "user",
				"methods": {},
				"version": 1
			}
		}
	}
}