{
	"contracts/Twitter.sol": {
		"Twitter": {
			"abi": [
				{
					"inputs": [],
					"stateMutability": "nonpayable",
					"type": "constructor"
				},
				{
					"anonymous": false,
					"inputs": [
						{
							"indexed": false,
							"internalType": "uint256",
							"name": "id",
							"type": "uint256"
						},
						{
							"indexed": false,
							"internalType": "address",
							"name": "author",
							"type": "address"
						},
						{
							"indexed": false,
							"internalType": "string",
							"name": "content",
							"type": "string"
						},
						{
							"indexed": false,
							"internalType": "uint256",
							"name": "timestamp",
							"type": "uint256"
						}
					],
					"name": "TweetCreated",
					"type": "event"
				},
				{
					"anonymous": false,
					"inputs": [
						{
							"indexed": false,
							"internalType": "address",
							"name": "liker",
							"type": "address"
						},
						{
							"indexed": false,
							"internalType": "address",
							"name": "tweetAuthor",
							"type": "address"
						},
						{
							"indexed": false,
							"internalType": "uint256",
							"name": "id",
							"type": "uint256"
						},
						{
							"indexed": false,
							"internalType": "uint256",
							"name": "newLikedCount",
							"type": "uint256"
						}
					],
					"name": "TweetLiked",
					"type": "event"
				},
				{
					"anonymous": false,
					"inputs": [
						{
							"indexed": false,
							"internalType": "address",
							"name": "unliker",
							"type": "address"
						},
						{
							"indexed": false,
							"internalType": "address",
							"name": "tweetAuthor",
							"type": "address"
						},
						{
							"indexed": false,
							"internalType": "uint256",
							"name": "id",
							"type": "uint256"
						},
						{
							"indexed": false,
							"internalType": "uint256",
							"name": "newLikedCount",
							"type": "uint256"
						}
					],
					"name": "TweetUnliked",
					"type": "event"
				},
				{
					"inputs": [],
					"name": "MAX_TWEET_LENGTH",
					"outputs": [
						{
							"internalType": "uint32",
							"name": "",
							"type": "uint32"
						}
					],
					"stateMutability": "view",
					"type": "function"
				},
				{
					"inputs": [
						{
							"internalType": "uint16",
							"name": "newTweetLength",
							"type": "uint16"
						}
					],
					"name": "changeTweetLength",
					"outputs": [],
					"stateMutability": "nonpayable",
					"type": "function"
				},
				{
					"inputs": [
						{
							"internalType": "string",
							"name": "_tweet",
							"type": "string"
						}
					],
					"name": "createTweets",
					"outputs": [],
					"stateMutability": "nonpayable",
					"type": "function"
				},
				{
					"inputs": [
						{
							"internalType": "address",
							"name": "author",
							"type": "address"
						}
					],
					"name": "getAllLikes",
					"outputs": [
						{
							"internalType": "uint256",
							"name": "",
							"type": "uint256"
						}
					],
					"stateMutability": "view",
					"type": "function"
				},
				{
					"inputs": [
						{
							"internalType": "address",
							"name": "_owner",
							"type": "address"
						}
					],
					"name": "getAllTweets",
					"outputs": [
						{
							"components": [
								{
									"internalType": "uint256",
									"name": "id",
									"type": "uint256"
								},
								{
									"internalType": "address",
									"name": "author",
									"type": "address"
								},
								{
									"internalType": "string",
									"name": "content",
									"type": "string"
								},
								{
									"internalType": "uint256",
									"name": "timestamp",
									"type": "uint256"
								},
								{
									"internalType": "uint256",
									"name": "likes",
									"type": "uint256"
								}
							],
							"internalType": "struct Twitter.Tweet[]",
							"name": "",
							"type": "tuple[]"
						}
					],
					"stateMutability": "view",
					"type": "function"
				},
				{
					"inputs": [
						{
							"internalType": "uint256",
							"name": "_i",
							"type": "uint256"
						}
					],
					"name": "getTweet",
					"outputs": [
						{
							"components": [
								{
									"internalType": "uint256",
									"name": "id",
									"type": "uint256"
								},
								{
									"internalType": "address",
									"name": "author",
									"type": "address"
								},
								{
									"internalType": "string",
									"name": "content",
									"type": "string"
								},
								{
									"internalType": "uint256",
									"name": "timestamp",
									"type": "uint256"
								},
								{
									"internalType": "uint256",
									"name": "likes",
									"type": "uint256"
								}
							],
							"internalType": "struct Twitter.Tweet",
							"name": "",
							"type": "tuple"
						}
					],
					"stateMutability": "view",
					"type": "function"
				},
				{
					"inputs": [
						{
							"internalType": "address",
							"name": "author",
							"type": "address"
						},
						{
							"internalType": "uint256",
							"name": "id",
							"type": "uint256"
						}
					],
					"name": "likeTweet",
					"outputs": [],
					"stateMutability": "nonpayable",
					"type": "function"
				},
				{
					"inputs": [],
					"name": "owner",
					"outputs": [
						{
							"internalType": "address",
							"name": "",
							"type": "address"
						}
					],
					"stateMutability": "view",
					"type": "function"
				},
				{
					"inputs": [
						{
							"internalType": "address",
							"name": "",
							"type": "address"
						},
						{
							"internalType": "uint256",
							"name": "",
							"type": "uint256"
						}
					],
					"name": "tweets",
					"outputs": [
						{
							"internalType": "uint256",
							"name": "id",
							"type": "uint256"
						},
						{
							"internalType": "address",
							"name": "author",
							"type": "address"
						},
						{
							"internalType": "string",
							"name": "content",
							"type": "string"
						},
						{
							"internalType": "uint256",
							"name": "timestamp",
							"type": "uint256"
						},
						{
							"internalType": "uint256",
							"name": "likes",
							"type": "uint256"
						}
					],
					"stateMutability": "view",
					"type": "function"
				},
				{
					"inputs": [
						{
							"internalType": "address",
							"name": "author",
							"type": "address"
						},
						{
							"internalType": "uint256",
							"name": "id",
							"type": "uint256"
						}
					],
					"name": "unlikeTweet",
					"outputs": [],
					"stateMutability": "nonpayable",
					"type": "function"
				}
			],
			"devdoc": {
				"kind": "dev",
				"methods": {},
				"version": 1
			},
			"evm": {
				"assembly": "    /* \"contracts/Twitter.sol\":65:2536  contract Twitter{... */\n  mstore(0x40, 0x80)\n    /* \"contracts/Twitter.sol\":250:253  380 */\n  0x017c\n    /* \"contracts/Twitter.sol\":217:253  uint32 public MAX_TWEET_LENGTH = 380 */\n  0x00\n  dup1\n  0x0100\n  exp\n  dup2\n  sload\n  dup2\n  0xffffffff\n  mul\n  not\n  and\n  swap1\n  dup4\n  0xffffffff\n  and\n  mul\n  or\n  swap1\n  sstore\n  pop\n    /* \"contracts/Twitter.sol\":620:672  constructor () {... */\n  callvalue\n  dup1\n  iszero\n  tag_1\n  jumpi\n  0x00\n  dup1\n  revert\ntag_1:\n  pop\n    /* \"contracts/Twitter.sol\":654:664  msg.sender */\n  caller\n    /* \"contracts/Twitter.sol\":646:651  owner */\n  0x02\n  0x00\n    /* \"contracts/Twitter.sol\":646:664  owner = msg.sender */\n  0x0100\n  exp\n  dup2\n  sload\n  dup2\n  0xffffffffffffffffffffffffffffffffffffffff\n  mul\n  not\n  and\n  swap1\n  dup4\n  0xffffffffffffffffffffffffffffffffffffffff\n  and\n  mul\n  or\n  swap1\n  sstore\n  pop\n    /* \"contracts/Twitter.sol\":65:2536  contract Twitter{... */\n  dataSize(sub_0)\n  dup1\n  dataOffset(sub_0)\n  0x00\n  codecopy\n  0x00\n  return\nstop\n\nsub_0: assembly {\n        /* \"contracts/Twitter.sol\":65:2536  contract Twitter{... */\n      mstore(0x40, 0x80)\n      callvalue\n      dup1\n      iszero\n      tag_1\n      jumpi\n      0x00\n      dup1\n      revert\n    tag_1:\n      pop\n      jumpi(tag_2, lt(calldatasize, 0x04))\n      shr(0xe0, calldataload(0x00))\n      dup1\n      0x63378216\n      gt\n      tag_13\n      jumpi\n      dup1\n      0x63378216\n      eq\n      tag_8\n      jumpi\n      dup1\n      0x6eb10797\n      eq\n      tag_9\n      jumpi\n      dup1\n      0x8da5cb5b\n      eq\n      tag_10\n      jumpi\n      dup1\n      0xc3ad5ecb\n      eq\n      tag_11\n      jumpi\n      dup1\n      0xe1549d85\n      eq\n      tag_12\n      jumpi\n      jump(tag_2)\n    tag_13:\n      dup1\n      0x05a1b4a9\n      eq\n      tag_3\n      jumpi\n      dup1\n      0x0a7aa8a1\n      eq\n      tag_4\n      jumpi\n      dup1\n      0x12e7ee1c\n      eq\n      tag_5\n      jumpi\n      dup1\n      0x3d9b569f\n      eq\n      tag_6\n      jumpi\n      dup1\n      0x58bfa4ab\n      eq\n      tag_7\n      jumpi\n    tag_2:\n      0x00\n      dup1\n      revert\n        /* \"contracts/Twitter.sol\":260:301  mapping (address=>Tweet[]) public  tweets */\n    tag_3:\n      tag_14\n      0x04\n      dup1\n      calldatasize\n      sub\n      dup2\n      add\n      swap1\n      tag_15\n      swap2\n      swap1\n      tag_16\n      jump\t// in\n    tag_15:\n      tag_17\n      jump\t// in\n    tag_14:\n      mload(0x40)\n      tag_18\n      swap6\n      swap5\n      swap4\n      swap3\n      swap2\n      swap1\n      tag_19\n      jump\t// in\n    tag_18:\n      mload(0x40)\n      dup1\n      swap2\n      sub\n      swap1\n      return\n        /* \"contracts/Twitter.sol\":909:1420  function createTweets(string memory _tweet) public {... */\n    tag_4:\n      tag_20\n      0x04\n      dup1\n      calldatasize\n      sub\n      dup2\n      add\n      swap1\n      tag_21\n      swap2\n      swap1\n      tag_22\n      jump\t// in\n    tag_21:\n      tag_23\n      jump\t// in\n    tag_20:\n      stop\n        /* \"contracts/Twitter.sol\":2161:2275  function getAllTweets(address _owner) public  view returns(Tweet[] memory){... */\n    tag_5:\n      tag_24\n      0x04\n      dup1\n      calldatasize\n      sub\n      dup2\n      add\n      swap1\n      tag_25\n      swap2\n      swap1\n      tag_26\n      jump\t// in\n    tag_25:\n      tag_27\n      jump\t// in\n    tag_24:\n      mload(0x40)\n      tag_28\n      swap2\n      swap1\n      tag_29\n      jump\t// in\n    tag_28:\n      mload(0x40)\n      dup1\n      swap2\n      sub\n      swap1\n      return\n        /* \"contracts/Twitter.sol\":1696:2037  function unlikeTweet(address author, uint256 id) external {... */\n    tag_6:\n      tag_30\n      0x04\n      dup1\n      calldatasize\n      sub\n      dup2\n      add\n      swap1\n      tag_31\n      swap2\n      swap1\n      tag_16\n      jump\t// in\n    tag_31:\n      tag_32\n      jump\t// in\n    tag_30:\n      stop\n        /* \"contracts/Twitter.sol\":785:903  function changeTweetLength(uint16 newTweetLength)public onlyOwner {... */\n    tag_7:\n      tag_33\n      0x04\n      dup1\n      calldatasize\n      sub\n      dup2\n      add\n      swap1\n      tag_34\n      swap2\n      swap1\n      tag_35\n      jump\t// in\n    tag_34:\n      tag_36\n      jump\t// in\n    tag_33:\n      stop\n        /* \"contracts/Twitter.sol\":1426:1690  function likeTweet(address author, uint256 id) external {... */\n    tag_8:\n      tag_37\n      0x04\n      dup1\n      calldatasize\n      sub\n      dup2\n      add\n      swap1\n      tag_38\n      swap2\n      swap1\n      tag_16\n      jump\t// in\n    tag_38:\n      tag_39\n      jump\t// in\n    tag_37:\n      stop\n        /* \"contracts/Twitter.sol\":217:253  uint32 public MAX_TWEET_LENGTH = 380 */\n    tag_9:\n      tag_40\n      tag_41\n      jump\t// in\n    tag_40:\n      mload(0x40)\n      tag_42\n      swap2\n      swap1\n      tag_43\n      jump\t// in\n    tag_42:\n      mload(0x40)\n      dup1\n      swap2\n      sub\n      swap1\n      return\n        /* \"contracts/Twitter.sol\":308:328  address public owner */\n    tag_10:\n      tag_44\n      tag_45\n      jump\t// in\n    tag_44:\n      mload(0x40)\n      tag_46\n      swap2\n      swap1\n      tag_47\n      jump\t// in\n    tag_46:\n      mload(0x40)\n      dup1\n      swap2\n      sub\n      swap1\n      return\n        /* \"contracts/Twitter.sol\":2045:2155  function getTweet( uint _i) public view returns (Tweet memory){... */\n    tag_11:\n      tag_48\n      0x04\n      dup1\n      calldatasize\n      sub\n      dup2\n      add\n      swap1\n      tag_49\n      swap2\n      swap1\n      tag_50\n      jump\t// in\n    tag_49:\n      tag_51\n      jump\t// in\n    tag_48:\n      mload(0x40)\n      tag_52\n      swap2\n      swap1\n      tag_53\n      jump\t// in\n    tag_52:\n      mload(0x40)\n      dup1\n      swap2\n      sub\n      swap1\n      return\n        /* \"contracts/Twitter.sol\":2281:2533  function getAllLikes(address author)external view returns(uint){... */\n    tag_12:\n      tag_54\n      0x04\n      dup1\n      calldatasize\n      sub\n      dup2\n      add\n      swap1\n      tag_55\n      swap2\n      swap1\n      tag_26\n      jump\t// in\n    tag_55:\n      tag_56\n      jump\t// in\n    tag_54:\n      mload(0x40)\n      tag_57\n      swap2\n      swap1\n      tag_58\n      jump\t// in\n    tag_57:\n      mload(0x40)\n      dup1\n      swap2\n      sub\n      swap1\n      return\n        /* \"contracts/Twitter.sol\":260:301  mapping (address=>Tweet[]) public  tweets */\n    tag_17:\n      mstore(0x20, 0x01)\n      dup2\n      0x00\n      mstore\n      keccak256(0x00, 0x40)\n      dup2\n      dup2\n      sload\n      dup2\n      lt\n      tag_59\n      jumpi\n      0x00\n      dup1\n      revert\n    tag_59:\n      swap1\n      0x00\n      mstore\n      keccak256(0x00, 0x20)\n      swap1\n      0x05\n      mul\n      add\n      0x00\n      swap2\n      pop\n      swap2\n      pop\n      pop\n      dup1\n      0x00\n      add\n      sload\n      swap1\n      dup1\n      0x01\n      add\n      0x00\n      swap1\n      sload\n      swap1\n      0x0100\n      exp\n      swap1\n      div\n      0xffffffffffffffffffffffffffffffffffffffff\n      and\n      swap1\n      dup1\n      0x02\n      add\n      dup1\n      sload\n      tag_61\n      swap1\n      tag_62\n      jump\t// in\n    tag_61:\n      dup1\n      0x1f\n      add\n      0x20\n      dup1\n      swap2\n      div\n      mul\n      0x20\n      add\n      mload(0x40)\n      swap1\n      dup2\n      add\n      0x40\n      mstore\n      dup1\n      swap3\n      swap2\n      swap1\n      dup2\n      dup2\n      mstore\n      0x20\n      add\n      dup3\n      dup1\n      sload\n      tag_63\n      swap1\n      tag_62\n      jump\t// in\n    tag_63:\n      dup1\n      iszero\n      tag_64\n      jumpi\n      dup1\n      0x1f\n      lt\n      tag_65\n      jumpi\n      0x0100\n      dup1\n      dup4\n      sload\n      div\n      mul\n      dup4\n      mstore\n      swap2\n      0x20\n      add\n      swap2\n      jump(tag_64)\n    tag_65:\n      dup3\n      add\n      swap2\n      swap1\n      0x00\n      mstore\n      keccak256(0x00, 0x20)\n      swap1\n    tag_66:\n      dup2\n      sload\n      dup2\n      mstore\n      swap1\n      0x01\n      add\n      swap1\n      0x20\n      add\n      dup1\n      dup4\n      gt\n      tag_66\n      jumpi\n      dup3\n      swap1\n      sub\n      0x1f\n      and\n      dup3\n      add\n      swap2\n    tag_64:\n      pop\n      pop\n      pop\n      pop\n      pop\n      swap1\n      dup1\n      0x03\n      add\n      sload\n      swap1\n      dup1\n      0x04\n      add\n      sload\n      swap1\n      pop\n      dup6\n      jump\t// out\n        /* \"contracts/Twitter.sol\":909:1420  function createTweets(string memory _tweet) public {... */\n    tag_23:\n        /* \"contracts/Twitter.sol\":1001:1017  MAX_TWEET_LENGTH */\n      0x00\n      dup1\n      sload\n      swap1\n      0x0100\n      exp\n      swap1\n      div\n      0xffffffff\n      and\n        /* \"contracts/Twitter.sol\":979:1017  bytes(_tweet).length<=MAX_TWEET_LENGTH */\n      0xffffffff\n      and\n        /* \"contracts/Twitter.sol\":985:991  _tweet */\n      dup2\n        /* \"contracts/Twitter.sol\":979:999  bytes(_tweet).length */\n      mload\n        /* \"contracts/Twitter.sol\":979:1017  bytes(_tweet).length<=MAX_TWEET_LENGTH */\n      gt\n      iszero\n        /* \"contracts/Twitter.sol\":971:1039  require(bytes(_tweet).length<=MAX_TWEET_LENGTH, \"Tweet is too long\") */\n      tag_68\n      jumpi\n      mload(0x40)\n      0x08c379a000000000000000000000000000000000000000000000000000000000\n      dup2\n      mstore\n      0x04\n      add\n      tag_69\n      swap1\n      tag_70\n      jump\t// in\n    tag_69:\n      mload(0x40)\n      dup1\n      swap2\n      sub\n      swap1\n      revert\n    tag_68:\n        /* \"contracts/Twitter.sol\":1052:1074  Tweet memory newTweets */\n      0x00\n        /* \"contracts/Twitter.sol\":1077:1266  Tweet({... */\n      mload(0x40)\n      dup1\n      0xa0\n      add\n      0x40\n      mstore\n      dup1\n        /* \"contracts/Twitter.sol\":1102:1108  tweets */\n      0x01\n        /* \"contracts/Twitter.sol\":1102:1120  tweets[msg.sender] */\n      0x00\n        /* \"contracts/Twitter.sol\":1109:1119  msg.sender */\n      caller\n        /* \"contracts/Twitter.sol\":1102:1120  tweets[msg.sender] */\n      0xffffffffffffffffffffffffffffffffffffffff\n      and\n      0xffffffffffffffffffffffffffffffffffffffff\n      and\n      dup2\n      mstore\n      0x20\n      add\n      swap1\n      dup2\n      mstore\n      0x20\n      add\n      0x00\n      keccak256\n        /* \"contracts/Twitter.sol\":1102:1127  tweets[msg.sender].length */\n      dup1\n      sload\n      swap1\n      pop\n        /* \"contracts/Twitter.sol\":1077:1266  Tweet({... */\n      dup2\n      mstore\n      0x20\n      add\n        /* \"contracts/Twitter.sol\":1150:1160  msg.sender */\n      caller\n        /* \"contracts/Twitter.sol\":1077:1266  Tweet({... */\n      0xffffffffffffffffffffffffffffffffffffffff\n      and\n      dup2\n      mstore\n      0x20\n      add\n        /* \"contracts/Twitter.sol\":1184:1190  _tweet */\n      dup4\n        /* \"contracts/Twitter.sol\":1077:1266  Tweet({... */\n      dup2\n      mstore\n      0x20\n      add\n        /* \"contracts/Twitter.sol\":1216:1231  block.timestamp */\n      timestamp\n        /* \"contracts/Twitter.sol\":1077:1266  Tweet({... */\n      dup2\n      mstore\n      0x20\n      add\n        /* \"contracts/Twitter.sol\":1253:1254  0 */\n      0x00\n        /* \"contracts/Twitter.sol\":1077:1266  Tweet({... */\n      dup2\n      mstore\n      pop\n        /* \"contracts/Twitter.sol\":1052:1266  Tweet memory newTweets = Tweet({... */\n      swap1\n      pop\n        /* \"contracts/Twitter.sol\":1277:1283  tweets */\n      0x01\n        /* \"contracts/Twitter.sol\":1277:1295  tweets[msg.sender] */\n      0x00\n        /* \"contracts/Twitter.sol\":1284:1294  msg.sender */\n      caller\n        /* \"contracts/Twitter.sol\":1277:1295  tweets[msg.sender] */\n      0xffffffffffffffffffffffffffffffffffffffff\n      and\n      0xffffffffffffffffffffffffffffffffffffffff\n      and\n      dup2\n      mstore\n      0x20\n      add\n      swap1\n      dup2\n      mstore\n      0x20\n      add\n      0x00\n      keccak256\n        /* \"contracts/Twitter.sol\":1301:1310  newTweets */\n      dup2\n        /* \"contracts/Twitter.sol\":1277:1311  tweets[msg.sender].push(newTweets) */\n      swap1\n      dup1\n      0x01\n      dup2\n      sload\n      add\n      dup1\n      dup3\n      sstore\n      dup1\n      swap2\n      pop\n      pop\n      0x01\n      swap1\n      sub\n      swap1\n      0x00\n      mstore\n      keccak256(0x00, 0x20)\n      swap1\n      0x05\n      mul\n      add\n      0x00\n      swap1\n      swap2\n      swap1\n      swap2\n      swap1\n      swap2\n      pop\n      0x00\n      dup3\n      add\n      mload\n      dup2\n      0x00\n      add\n      sstore\n      0x20\n      dup3\n      add\n      mload\n      dup2\n      0x01\n      add\n      exp(0x0100, 0x00)\n      dup2\n      sload\n      dup2\n      0xffffffffffffffffffffffffffffffffffffffff\n      mul\n      not\n      and\n      swap1\n      dup4\n      0xffffffffffffffffffffffffffffffffffffffff\n      and\n      mul\n      or\n      swap1\n      sstore\n      pop\n      0x40\n      dup3\n      add\n      mload\n      dup2\n      0x02\n      add\n      swap1\n      dup2\n      tag_72\n      swap2\n      swap1\n      tag_73\n      jump\t// in\n    tag_72:\n      pop\n      0x60\n      dup3\n      add\n      mload\n      dup2\n      0x03\n      add\n      sstore\n      0x80\n      dup3\n      add\n      mload\n      dup2\n      0x04\n      add\n      sstore\n      pop\n      pop\n        /* \"contracts/Twitter.sol\":1329:1412  TweetCreated(newTweets.id, newTweets.author,newTweets.content, newTweets.timestamp) */\n      0x16fd3c13e9d46923e0a8bce11c7b473ec508a72e6c96cd2404b29ce972afc29e\n        /* \"contracts/Twitter.sol\":1342:1351  newTweets */\n      dup2\n        /* \"contracts/Twitter.sol\":1342:1354  newTweets.id */\n      0x00\n      add\n      mload\n        /* \"contracts/Twitter.sol\":1356:1365  newTweets */\n      dup3\n        /* \"contracts/Twitter.sol\":1356:1372  newTweets.author */\n      0x20\n      add\n      mload\n        /* \"contracts/Twitter.sol\":1373:1382  newTweets */\n      dup4\n        /* \"contracts/Twitter.sol\":1373:1390  newTweets.content */\n      0x40\n      add\n      mload\n        /* \"contracts/Twitter.sol\":1392:1401  newTweets */\n      dup5\n        /* \"contracts/Twitter.sol\":1392:1411  newTweets.timestamp */\n      0x60\n      add\n      mload\n        /* \"contracts/Twitter.sol\":1329:1412  TweetCreated(newTweets.id, newTweets.author,newTweets.content, newTweets.timestamp) */\n      mload(0x40)\n      tag_74\n      swap5\n      swap4\n      swap3\n      swap2\n      swap1\n      tag_75\n      jump\t// in\n    tag_74:\n      mload(0x40)\n      dup1\n      swap2\n      sub\n      swap1\n      log1\n        /* \"contracts/Twitter.sol\":960:1420  {... */\n      pop\n        /* \"contracts/Twitter.sol\":909:1420  function createTweets(string memory _tweet) public {... */\n      pop\n      jump\t// out\n        /* \"contracts/Twitter.sol\":2161:2275  function getAllTweets(address _owner) public  view returns(Tweet[] memory){... */\n    tag_27:\n        /* \"contracts/Twitter.sol\":2220:2234  Tweet[] memory */\n      0x60\n        /* \"contracts/Twitter.sol\":2253:2259  tweets */\n      0x01\n        /* \"contracts/Twitter.sol\":2253:2267  tweets[_owner] */\n      0x00\n        /* \"contracts/Twitter.sol\":2260:2266  _owner */\n      dup4\n        /* \"contracts/Twitter.sol\":2253:2267  tweets[_owner] */\n      0xffffffffffffffffffffffffffffffffffffffff\n      and\n      0xffffffffffffffffffffffffffffffffffffffff\n      and\n      dup2\n      mstore\n      0x20\n      add\n      swap1\n      dup2\n      mstore\n      0x20\n      add\n      0x00\n      keccak256\n        /* \"contracts/Twitter.sol\":2246:2267  return tweets[_owner] */\n      dup1\n      sload\n      dup1\n      0x20\n      mul\n      0x20\n      add\n      mload(0x40)\n      swap1\n      dup2\n      add\n      0x40\n      mstore\n      dup1\n      swap3\n      swap2\n      swap1\n      dup2\n      dup2\n      mstore\n      0x20\n      add\n      0x00\n      swap1\n    tag_77:\n      dup3\n      dup3\n      lt\n      iszero\n      tag_78\n      jumpi\n      dup4\n      dup3\n      swap1\n      0x00\n      mstore\n      keccak256(0x00, 0x20)\n      swap1\n      0x05\n      mul\n      add\n      mload(0x40)\n      dup1\n      0xa0\n      add\n      0x40\n      mstore\n      swap1\n      dup2\n      0x00\n      dup3\n      add\n      sload\n      dup2\n      mstore\n      0x20\n      add\n      0x01\n      dup3\n      add\n      0x00\n      swap1\n      sload\n      swap1\n      0x0100\n      exp\n      swap1\n      div\n      0xffffffffffffffffffffffffffffffffffffffff\n      and\n      0xffffffffffffffffffffffffffffffffffffffff\n      and\n      0xffffffffffffffffffffffffffffffffffffffff\n      and\n      dup2\n      mstore\n      0x20\n      add\n      0x02\n      dup3\n      add\n      dup1\n      sload\n      tag_80\n      swap1\n      tag_62\n      jump\t// in\n    tag_80:\n      dup1\n      0x1f\n      add\n      0x20\n      dup1\n      swap2\n      div\n      mul\n      0x20\n      add\n      mload(0x40)\n      swap1\n      dup2\n      add\n      0x40\n      mstore\n      dup1\n      swap3\n      swap2\n      swap1\n      dup2\n      dup2\n      mstore\n      0x20\n      add\n      dup3\n      dup1\n      sload\n      tag_81\n      swap1\n      tag_62\n      jump\t// in\n    tag_81:\n      dup1\n      iszero\n      tag_82\n      jumpi\n      dup1\n      0x1f\n      lt\n      tag_83\n      jumpi\n      0x0100\n      dup1\n      dup4\n      sload\n      div\n      mul\n      dup4\n      mstore\n      swap2\n      0x20\n      add\n      swap2\n      jump(tag_82)\n    tag_83:\n      dup3\n      add\n      swap2\n      swap1\n      0x00\n      mstore\n      keccak256(0x00, 0x20)\n      swap1\n    tag_84:\n      dup2\n      sload\n      dup2\n      mstore\n      swap1\n      0x01\n      add\n      swap1\n      0x20\n      add\n      dup1\n      dup4\n      gt\n      tag_84\n      jumpi\n      dup3\n      swap1\n      sub\n      0x1f\n      and\n      dup3\n      add\n      swap2\n    tag_82:\n      pop\n      pop\n      pop\n      pop\n      pop\n      dup2\n      mstore\n      0x20\n      add\n      0x03\n      dup3\n      add\n      sload\n      dup2\n      mstore\n      0x20\n      add\n      0x04\n      dup3\n      add\n      sload\n      dup2\n      mstore\n      pop\n      pop\n      dup2\n      mstore\n      0x20\n      add\n      swap1\n      0x01\n      add\n      swap1\n      jump(tag_77)\n    tag_78:\n      pop\n      pop\n      pop\n      pop\n      swap1\n      pop\n        /* \"contracts/Twitter.sol\":2161:2275  function getAllTweets(address _owner) public  view returns(Tweet[] memory){... */\n      swap2\n      swap1\n      pop\n      jump\t// out\n        /* \"contracts/Twitter.sol\":1696:2037  function unlikeTweet(address author, uint256 id) external {... */\n    tag_32:\n        /* \"contracts/Twitter.sol\":1798:1800  id */\n      dup1\n        /* \"contracts/Twitter.sol\":1773:1779  tweets */\n      0x01\n        /* \"contracts/Twitter.sol\":1773:1787  tweets[author] */\n      0x00\n        /* \"contracts/Twitter.sol\":1780:1786  author */\n      dup5\n        /* \"contracts/Twitter.sol\":1773:1787  tweets[author] */\n      0xffffffffffffffffffffffffffffffffffffffff\n      and\n      0xffffffffffffffffffffffffffffffffffffffff\n      and\n      dup2\n      mstore\n      0x20\n      add\n      swap1\n      dup2\n      mstore\n      0x20\n      add\n      0x00\n      keccak256\n        /* \"contracts/Twitter.sol\":1788:1790  id */\n      dup3\n        /* \"contracts/Twitter.sol\":1773:1791  tweets[author][id] */\n      dup2\n      sload\n      dup2\n      lt\n      tag_86\n      jumpi\n      tag_87\n      tag_88\n      jump\t// in\n    tag_87:\n    tag_86:\n      swap1\n      0x00\n      mstore\n      keccak256(0x00, 0x20)\n      swap1\n      0x05\n      mul\n      add\n        /* \"contracts/Twitter.sol\":1773:1794  tweets[author][id].id */\n      0x00\n      add\n      sload\n        /* \"contracts/Twitter.sol\":1773:1800  tweets[author][id].id == id */\n      eq\n        /* \"contracts/Twitter.sol\":1765:1842  require(tweets[author][id].id == id, \"There is no tweets exist with this id\") */\n      tag_90\n      jumpi\n      mload(0x40)\n      0x08c379a000000000000000000000000000000000000000000000000000000000\n      dup2\n      mstore\n      0x04\n      add\n      tag_91\n      swap1\n      tag_92\n      jump\t// in\n    tag_91:\n      mload(0x40)\n      dup1\n      swap2\n      sub\n      swap1\n      revert\n    tag_90:\n        /* \"contracts/Twitter.sol\":1886:1887  0 */\n      0x00\n        /* \"contracts/Twitter.sol\":1861:1867  tweets */\n      0x01\n        /* \"contracts/Twitter.sol\":1861:1875  tweets[author] */\n      0x00\n        /* \"contracts/Twitter.sol\":1868:1874  author */\n      dup5\n        /* \"contracts/Twitter.sol\":1861:1875  tweets[author] */\n      0xffffffffffffffffffffffffffffffffffffffff\n      and\n      0xffffffffffffffffffffffffffffffffffffffff\n      and\n      dup2\n      mstore\n      0x20\n      add\n      swap1\n      dup2\n      mstore\n      0x20\n      add\n      0x00\n      keccak256\n        /* \"contracts/Twitter.sol\":1876:1878  id */\n      dup3\n        /* \"contracts/Twitter.sol\":1861:1879  tweets[author][id] */\n      dup2\n      sload\n      dup2\n      lt\n      tag_93\n      jumpi\n      tag_94\n      tag_88\n      jump\t// in\n    tag_94:\n    tag_93:\n      swap1\n      0x00\n      mstore\n      keccak256(0x00, 0x20)\n      swap1\n      0x05\n      mul\n      add\n        /* \"contracts/Twitter.sol\":1861:1885  tweets[author][id].likes */\n      0x04\n      add\n      sload\n        /* \"contracts/Twitter.sol\":1861:1887  tweets[author][id].likes>0 */\n      gt\n        /* \"contracts/Twitter.sol\":1853:1914  require(tweets[author][id].likes>0, \"This post has no likes\") */\n      tag_96\n      jumpi\n      mload(0x40)\n      0x08c379a000000000000000000000000000000000000000000000000000000000\n      dup2\n      mstore\n      0x04\n      add\n      tag_97\n      swap1\n      tag_98\n      jump\t// in\n    tag_97:\n      mload(0x40)\n      dup1\n      swap2\n      sub\n      swap1\n      revert\n    tag_96:\n        /* \"contracts/Twitter.sol\":1925:1931  tweets */\n      0x01\n        /* \"contracts/Twitter.sol\":1925:1939  tweets[author] */\n      0x00\n        /* \"contracts/Twitter.sol\":1932:1938  author */\n      dup4\n        /* \"contracts/Twitter.sol\":1925:1939  tweets[author] */\n      0xffffffffffffffffffffffffffffffffffffffff\n      and\n      0xffffffffffffffffffffffffffffffffffffffff\n      and\n      dup2\n      mstore\n      0x20\n      add\n      swap1\n      dup2\n      mstore\n      0x20\n      add\n      0x00\n      keccak256\n        /* \"contracts/Twitter.sol\":1940:1942  id */\n      dup2\n        /* \"contracts/Twitter.sol\":1925:1943  tweets[author][id] */\n      dup2\n      sload\n      dup2\n      lt\n      tag_99\n      jumpi\n      tag_100\n      tag_88\n      jump\t// in\n    tag_100:\n    tag_99:\n      swap1\n      0x00\n      mstore\n      keccak256(0x00, 0x20)\n      swap1\n      0x05\n      mul\n      add\n        /* \"contracts/Twitter.sol\":1925:1949  tweets[author][id].likes */\n      0x04\n      add\n      0x00\n        /* \"contracts/Twitter.sol\":1925:1951  tweets[author][id].likes-- */\n      dup2\n      sload\n      dup1\n      swap3\n      swap2\n      swap1\n      tag_102\n      swap1\n      tag_103\n      jump\t// in\n    tag_102:\n      swap2\n      swap1\n      pop\n      sstore\n      pop\n        /* \"contracts/Twitter.sol\":1967:2029  TweetUnliked(msg.sender, author, id, tweets[author][id].likes) */\n      0x762c2616349603ac16eba0de8e6141b79129a07ab63bd99e0a80b3a471716943\n        /* \"contracts/Twitter.sol\":1980:1990  msg.sender */\n      caller\n        /* \"contracts/Twitter.sol\":1992:1998  author */\n      dup4\n        /* \"contracts/Twitter.sol\":2000:2002  id */\n      dup4\n        /* \"contracts/Twitter.sol\":2004:2010  tweets */\n      0x01\n        /* \"contracts/Twitter.sol\":2004:2018  tweets[author] */\n      0x00\n        /* \"contracts/Twitter.sol\":2011:2017  author */\n      dup8\n        /* \"contracts/Twitter.sol\":2004:2018  tweets[author] */\n      0xffffffffffffffffffffffffffffffffffffffff\n      and\n      0xffffffffffffffffffffffffffffffffffffffff\n      and\n      dup2\n      mstore\n      0x20\n      add\n      swap1\n      dup2\n      mstore\n      0x20\n      add\n      0x00\n      keccak256\n        /* \"contracts/Twitter.sol\":2019:2021  id */\n      dup6\n        /* \"contracts/Twitter.sol\":2004:2022  tweets[author][id] */\n      dup2\n      sload\n      dup2\n      lt\n      tag_104\n      jumpi\n      tag_105\n      tag_88\n      jump\t// in\n    tag_105:\n    tag_104:\n      swap1\n      0x00\n      mstore\n      keccak256(0x00, 0x20)\n      swap1\n      0x05\n      mul\n      add\n        /* \"contracts/Twitter.sol\":2004:2028  tweets[author][id].likes */\n      0x04\n      add\n      sload\n        /* \"contracts/Twitter.sol\":1967:2029  TweetUnliked(msg.sender, author, id, tweets[author][id].likes) */\n      mload(0x40)\n      tag_107\n      swap5\n      swap4\n      swap3\n      swap2\n      swap1\n      tag_108\n      jump\t// in\n    tag_107:\n      mload(0x40)\n      dup1\n      swap2\n      sub\n      swap1\n      log1\n        /* \"contracts/Twitter.sol\":1696:2037  function unlikeTweet(address author, uint256 id) external {... */\n      pop\n      pop\n      jump\t// out\n        /* \"contracts/Twitter.sol\":785:903  function changeTweetLength(uint16 newTweetLength)public onlyOwner {... */\n    tag_36:\n        /* \"contracts/Twitter.sol\":723:733  msg.sender */\n      caller\n        /* \"contracts/Twitter.sol\":716:733  owner==msg.sender */\n      0xffffffffffffffffffffffffffffffffffffffff\n      and\n        /* \"contracts/Twitter.sol\":716:721  owner */\n      0x02\n      0x00\n      swap1\n      sload\n      swap1\n      0x0100\n      exp\n      swap1\n      div\n      0xffffffffffffffffffffffffffffffffffffffff\n      and\n        /* \"contracts/Twitter.sol\":716:733  owner==msg.sender */\n      0xffffffffffffffffffffffffffffffffffffffff\n      and\n      eq\n        /* \"contracts/Twitter.sol\":708:759  require(owner==msg.sender, \"You are not the owner\") */\n      tag_110\n      jumpi\n      mload(0x40)\n      0x08c379a000000000000000000000000000000000000000000000000000000000\n      dup2\n      mstore\n      0x04\n      add\n      tag_111\n      swap1\n      tag_112\n      jump\t// in\n    tag_111:\n      mload(0x40)\n      dup1\n      swap2\n      sub\n      swap1\n      revert\n    tag_110:\n        /* \"contracts/Twitter.sol\":881:895  newTweetLength */\n      dup1\n        /* \"contracts/Twitter.sol\":862:895  MAX_TWEET_LENGTH = newTweetLength */\n      0xffff\n      and\n        /* \"contracts/Twitter.sol\":862:878  MAX_TWEET_LENGTH */\n      0x00\n      dup1\n        /* \"contracts/Twitter.sol\":862:895  MAX_TWEET_LENGTH = newTweetLength */\n      0x0100\n      exp\n      dup2\n      sload\n      dup2\n      0xffffffff\n      mul\n      not\n      and\n      swap1\n      dup4\n      0xffffffff\n      and\n      mul\n      or\n      swap1\n      sstore\n      pop\n        /* \"contracts/Twitter.sol\":785:903  function changeTweetLength(uint16 newTweetLength)public onlyOwner {... */\n      pop\n      jump\t// out\n        /* \"contracts/Twitter.sol\":1426:1690  function likeTweet(address author, uint256 id) external {... */\n    tag_39:\n        /* \"contracts/Twitter.sol\":1526:1528  id */\n      dup1\n        /* \"contracts/Twitter.sol\":1501:1507  tweets */\n      0x01\n        /* \"contracts/Twitter.sol\":1501:1515  tweets[author] */\n      0x00\n        /* \"contracts/Twitter.sol\":1508:1514  author */\n      dup5\n        /* \"contracts/Twitter.sol\":1501:1515  tweets[author] */\n      0xffffffffffffffffffffffffffffffffffffffff\n      and\n      0xffffffffffffffffffffffffffffffffffffffff\n      and\n      dup2\n      mstore\n      0x20\n      add\n      swap1\n      dup2\n      mstore\n      0x20\n      add\n      0x00\n      keccak256\n        /* \"contracts/Twitter.sol\":1516:1518  id */\n      dup3\n        /* \"contracts/Twitter.sol\":1501:1519  tweets[author][id] */\n      dup2\n      sload\n      dup2\n      lt\n      tag_115\n      jumpi\n      tag_116\n      tag_88\n      jump\t// in\n    tag_116:\n    tag_115:\n      swap1\n      0x00\n      mstore\n      keccak256(0x00, 0x20)\n      swap1\n      0x05\n      mul\n      add\n        /* \"contracts/Twitter.sol\":1501:1522  tweets[author][id].id */\n      0x00\n      add\n      sload\n        /* \"contracts/Twitter.sol\":1501:1528  tweets[author][id].id == id */\n      eq\n        /* \"contracts/Twitter.sol\":1493:1569  require(tweets[author][id].id == id, \"There is no tweet exist with this id\") */\n      tag_118\n      jumpi\n      mload(0x40)\n      0x08c379a000000000000000000000000000000000000000000000000000000000\n      dup2\n      mstore\n      0x04\n      add\n      tag_119\n      swap1\n      tag_120\n      jump\t// in\n    tag_119:\n      mload(0x40)\n      dup1\n      swap2\n      sub\n      swap1\n      revert\n    tag_118:\n        /* \"contracts/Twitter.sol\":1580:1586  tweets */\n      0x01\n        /* \"contracts/Twitter.sol\":1580:1594  tweets[author] */\n      0x00\n        /* \"contracts/Twitter.sol\":1587:1593  author */\n      dup4\n        /* \"contracts/Twitter.sol\":1580:1594  tweets[author] */\n      0xffffffffffffffffffffffffffffffffffffffff\n      and\n      0xffffffffffffffffffffffffffffffffffffffff\n      and\n      dup2\n      mstore\n      0x20\n      add\n      swap1\n      dup2\n      mstore\n      0x20\n      add\n      0x00\n      keccak256\n        /* \"contracts/Twitter.sol\":1595:1597  id */\n      dup2\n        /* \"contracts/Twitter.sol\":1580:1598  tweets[author][id] */\n      dup2\n      sload\n      dup2\n      lt\n      tag_121\n      jumpi\n      tag_122\n      tag_88\n      jump\t// in\n    tag_122:\n    tag_121:\n      swap1\n      0x00\n      mstore\n      keccak256(0x00, 0x20)\n      swap1\n      0x05\n      mul\n      add\n        /* \"contracts/Twitter.sol\":1580:1604  tweets[author][id].likes */\n      0x04\n      add\n      0x00\n        /* \"contracts/Twitter.sol\":1580:1606  tweets[author][id].likes++ */\n      dup2\n      sload\n      dup1\n      swap3\n      swap2\n      swap1\n      tag_124\n      swap1\n      tag_125\n      jump\t// in\n    tag_124:\n      swap2\n      swap1\n      pop\n      sstore\n      pop\n        /* \"contracts/Twitter.sol\":1622:1682  TweetLiked(msg.sender, author, id, tweets[author][id].likes) */\n      0xe8a76fc0f16d11a00d1e93b689b63d76cf60af914dd3d915375dc41d01a0c3c8\n        /* \"contracts/Twitter.sol\":1633:1643  msg.sender */\n      caller\n        /* \"contracts/Twitter.sol\":1645:1651  author */\n      dup4\n        /* \"contracts/Twitter.sol\":1653:1655  id */\n      dup4\n        /* \"contracts/Twitter.sol\":1657:1663  tweets */\n      0x01\n        /* \"contracts/Twitter.sol\":1657:1671  tweets[author] */\n      0x00\n        /* \"contracts/Twitter.sol\":1664:1670  author */\n      dup8\n        /* \"contracts/Twitter.sol\":1657:1671  tweets[author] */\n      0xffffffffffffffffffffffffffffffffffffffff\n      and\n      0xffffffffffffffffffffffffffffffffffffffff\n      and\n      dup2\n      mstore\n      0x20\n      add\n      swap1\n      dup2\n      mstore\n      0x20\n      add\n      0x00\n      keccak256\n        /* \"contracts/Twitter.sol\":1672:1674  id */\n      dup6\n        /* \"contracts/Twitter.sol\":1657:1675  tweets[author][id] */\n      dup2\n      sload\n      dup2\n      lt\n      tag_126\n      jumpi\n      tag_127\n      tag_88\n      jump\t// in\n    tag_127:\n    tag_126:\n      swap1\n      0x00\n      mstore\n      keccak256(0x00, 0x20)\n      swap1\n      0x05\n      mul\n      add\n        /* \"contracts/Twitter.sol\":1657:1681  tweets[author][id].likes */\n      0x04\n      add\n      sload\n        /* \"contracts/Twitter.sol\":1622:1682  TweetLiked(msg.sender, author, id, tweets[author][id].likes) */\n      mload(0x40)\n      tag_129\n      swap5\n      swap4\n      swap3\n      swap2\n      swap1\n      tag_108\n      jump\t// in\n    tag_129:\n      mload(0x40)\n      dup1\n      swap2\n      sub\n      swap1\n      log1\n        /* \"contracts/Twitter.sol\":1426:1690  function likeTweet(address author, uint256 id) external {... */\n      pop\n      pop\n      jump\t// out\n        /* \"contracts/Twitter.sol\":217:253  uint32 public MAX_TWEET_LENGTH = 380 */\n    tag_41:\n      0x00\n      dup1\n      sload\n      swap1\n      0x0100\n      exp\n      swap1\n      div\n      0xffffffff\n      and\n      dup2\n      jump\t// out\n        /* \"contracts/Twitter.sol\":308:328  address public owner */\n    tag_45:\n      0x02\n      0x00\n      swap1\n      sload\n      swap1\n      0x0100\n      exp\n      swap1\n      div\n      0xffffffffffffffffffffffffffffffffffffffff\n      and\n      dup2\n      jump\t// out\n        /* \"contracts/Twitter.sol\":2045:2155  function getTweet( uint _i) public view returns (Tweet memory){... */\n    tag_51:\n        /* \"contracts/Twitter.sol\":2094:2106  Tweet memory */\n      tag_130\n      tag_131\n      jump\t// in\n    tag_130:\n        /* \"contracts/Twitter.sol\":2125:2131  tweets */\n      0x01\n        /* \"contracts/Twitter.sol\":2125:2143  tweets[msg.sender] */\n      0x00\n        /* \"contracts/Twitter.sol\":2132:2142  msg.sender */\n      caller\n        /* \"contracts/Twitter.sol\":2125:2143  tweets[msg.sender] */\n      0xffffffffffffffffffffffffffffffffffffffff\n      and\n      0xffffffffffffffffffffffffffffffffffffffff\n      and\n      dup2\n      mstore\n      0x20\n      add\n      swap1\n      dup2\n      mstore\n      0x20\n      add\n      0x00\n      keccak256\n        /* \"contracts/Twitter.sol\":2144:2146  _i */\n      dup3\n        /* \"contracts/Twitter.sol\":2125:2147  tweets[msg.sender][_i] */\n      dup2\n      sload\n      dup2\n      lt\n      tag_133\n      jumpi\n      tag_134\n      tag_88\n      jump\t// in\n    tag_134:\n    tag_133:\n      swap1\n      0x00\n      mstore\n      keccak256(0x00, 0x20)\n      swap1\n      0x05\n      mul\n      add\n        /* \"contracts/Twitter.sol\":2118:2147  return tweets[msg.sender][_i] */\n      mload(0x40)\n      dup1\n      0xa0\n      add\n      0x40\n      mstore\n      swap1\n      dup2\n      0x00\n      dup3\n      add\n      sload\n      dup2\n      mstore\n      0x20\n      add\n      0x01\n      dup3\n      add\n      0x00\n      swap1\n      sload\n      swap1\n      0x0100\n      exp\n      swap1\n      div\n      0xffffffffffffffffffffffffffffffffffffffff\n      and\n      0xffffffffffffffffffffffffffffffffffffffff\n      and\n      0xffffffffffffffffffffffffffffffffffffffff\n      and\n      dup2\n      mstore\n      0x20\n      add\n      0x02\n      dup3\n      add\n      dup1\n      sload\n      tag_136\n      swap1\n      tag_62\n      jump\t// in\n    tag_136:\n      dup1\n      0x1f\n      add\n      0x20\n      dup1\n      swap2\n      div\n      mul\n      0x20\n      add\n      mload(0x40)\n      swap1\n      dup2\n      add\n      0x40\n      mstore\n      dup1\n      swap3\n      swap2\n      swap1\n      dup2\n      dup2\n      mstore\n      0x20\n      add\n      dup3\n      dup1\n      sload\n      tag_137\n      swap1\n      tag_62\n      jump\t// in\n    tag_137:\n      dup1\n      iszero\n      tag_138\n      jumpi\n      dup1\n      0x1f\n      lt\n      tag_139\n      jumpi\n      0x0100\n      dup1\n      dup4\n      sload\n      div\n      mul\n      dup4\n      mstore\n      swap2\n      0x20\n      add\n      swap2\n      jump(tag_138)\n    tag_139:\n      dup3\n      add\n      swap2\n      swap1\n      0x00\n      mstore\n      keccak256(0x00, 0x20)\n      swap1\n    tag_140:\n      dup2\n      sload\n      dup2\n      mstore\n      swap1\n      0x01\n      add\n      swap1\n      0x20\n      add\n      dup1\n      dup4\n      gt\n      tag_140\n      jumpi\n      dup3\n      swap1\n      sub\n      0x1f\n      and\n      dup3\n      add\n      swap2\n    tag_138:\n      pop\n      pop\n      pop\n      pop\n      pop\n      dup2\n      mstore\n      0x20\n      add\n      0x03\n      dup3\n      add\n      sload\n      dup2\n      mstore\n      0x20\n      add\n      0x04\n      dup3\n      add\n      sload\n      dup2\n      mstore\n      pop\n      pop\n      swap1\n      pop\n        /* \"contracts/Twitter.sol\":2045:2155  function getTweet( uint _i) public view returns (Tweet memory){... */\n      swap2\n      swap1\n      pop\n      jump\t// out\n        /* \"contracts/Twitter.sol\":2281:2533  function getAllLikes(address author)external view returns(uint){... */\n    tag_56:\n        /* \"contracts/Twitter.sol\":2339:2343  uint */\n      0x00\n        /* \"contracts/Twitter.sol\":2355:2373  uint256 totalLikes */\n      dup1\n        /* \"contracts/Twitter.sol\":2376:2377  0 */\n      0x00\n        /* \"contracts/Twitter.sol\":2355:2377  uint256 totalLikes = 0 */\n      swap1\n      pop\n        /* \"contracts/Twitter.sol\":2392:2398  uint i */\n      0x00\n        /* \"contracts/Twitter.sol\":2388:2497  for(uint i = 0; i<tweets[author].length; i++){... */\n    tag_142:\n        /* \"contracts/Twitter.sol\":2406:2412  tweets */\n      0x01\n        /* \"contracts/Twitter.sol\":2406:2420  tweets[author] */\n      0x00\n        /* \"contracts/Twitter.sol\":2413:2419  author */\n      dup6\n        /* \"contracts/Twitter.sol\":2406:2420  tweets[author] */\n      0xffffffffffffffffffffffffffffffffffffffff\n      and\n      0xffffffffffffffffffffffffffffffffffffffff\n      and\n      dup2\n      mstore\n      0x20\n      add\n      swap1\n      dup2\n      mstore\n      0x20\n      add\n      0x00\n      keccak256\n        /* \"contracts/Twitter.sol\":2406:2427  tweets[author].length */\n      dup1\n      sload\n      swap1\n      pop\n        /* \"contracts/Twitter.sol\":2404:2405  i */\n      dup2\n        /* \"contracts/Twitter.sol\":2404:2427  i<tweets[author].length */\n      lt\n        /* \"contracts/Twitter.sol\":2388:2497  for(uint i = 0; i<tweets[author].length; i++){... */\n      iszero\n      tag_143\n      jumpi\n        /* \"contracts/Twitter.sol\":2462:2468  tweets */\n      0x01\n        /* \"contracts/Twitter.sol\":2462:2476  tweets[author] */\n      0x00\n        /* \"contracts/Twitter.sol\":2469:2475  author */\n      dup6\n        /* \"contracts/Twitter.sol\":2462:2476  tweets[author] */\n      0xffffffffffffffffffffffffffffffffffffffff\n      and\n      0xffffffffffffffffffffffffffffffffffffffff\n      and\n      dup2\n      mstore\n      0x20\n      add\n      swap1\n      dup2\n      mstore\n      0x20\n      add\n      0x00\n      keccak256\n        /* \"contracts/Twitter.sol\":2477:2478  i */\n      dup2\n        /* \"contracts/Twitter.sol\":2462:2479  tweets[author][i] */\n      dup2\n      sload\n      dup2\n      lt\n      tag_145\n      jumpi\n      tag_146\n      tag_88\n      jump\t// in\n    tag_146:\n    tag_145:\n      swap1\n      0x00\n      mstore\n      keccak256(0x00, 0x20)\n      swap1\n      0x05\n      mul\n      add\n        /* \"contracts/Twitter.sol\":2462:2485  tweets[author][i].likes */\n      0x04\n      add\n      sload\n        /* \"contracts/Twitter.sol\":2448:2485  totalLikes += tweets[author][i].likes */\n      dup3\n      tag_148\n      swap2\n      swap1\n      tag_149\n      jump\t// in\n    tag_148:\n      swap2\n      pop\n        /* \"contracts/Twitter.sol\":2429:2432  i++ */\n      dup1\n      dup1\n      0x01\n      add\n      swap2\n      pop\n      pop\n        /* \"contracts/Twitter.sol\":2388:2497  for(uint i = 0; i<tweets[author].length; i++){... */\n      jump(tag_142)\n    tag_143:\n      pop\n        /* \"contracts/Twitter.sol\":2515:2525  totalLikes */\n      dup1\n        /* \"contracts/Twitter.sol\":2507:2525  return  totalLikes */\n      swap2\n      pop\n      pop\n        /* \"contracts/Twitter.sol\":2281:2533  function getAllLikes(address author)external view returns(uint){... */\n      swap2\n      swap1\n      pop\n      jump\t// out\n    tag_131:\n      mload(0x40)\n      dup1\n      0xa0\n      add\n      0x40\n      mstore\n      dup1\n      0x00\n      dup2\n      mstore\n      0x20\n      add\n      and(0xffffffffffffffffffffffffffffffffffffffff, 0x00)\n      dup2\n      mstore\n      0x20\n      add\n      0x60\n      dup2\n      mstore\n      0x20\n      add\n      0x00\n      dup2\n      mstore\n      0x20\n      add\n      0x00\n      dup2\n      mstore\n      pop\n      swap1\n      jump\t// out\n        /* \"#utility.yul\":7:82   */\n    tag_150:\n        /* \"#utility.yul\":40:46   */\n      0x00\n        /* \"#utility.yul\":73:75   */\n      0x40\n        /* \"#utility.yul\":67:76   */\n      mload\n        /* \"#utility.yul\":57:76   */\n      swap1\n      pop\n        /* \"#utility.yul\":7:82   */\n      swap1\n      jump\t// out\n        /* \"#utility.yul\":88:205   */\n    tag_151:\n        /* \"#utility.yul\":197:198   */\n      0x00\n        /* \"#utility.yul\":194:195   */\n      dup1\n        /* \"#utility.yul\":187:199   */\n      revert\n        /* \"#utility.yul\":211:328   */\n    tag_152:\n        /* \"#utility.yul\":320:321   */\n      0x00\n        /* \"#utility.yul\":317:318   */\n      dup1\n        /* \"#utility.yul\":310:322   */\n      revert\n        /* \"#utility.yul\":334:460   */\n    tag_153:\n        /* \"#utility.yul\":371:378   */\n      0x00\n        /* \"#utility.yul\":411:453   */\n      0xffffffffffffffffffffffffffffffffffffffff\n        /* \"#utility.yul\":404:409   */\n      dup3\n        /* \"#utility.yul\":400:454   */\n      and\n        /* \"#utility.yul\":389:454   */\n      swap1\n      pop\n        /* \"#utility.yul\":334:460   */\n      swap2\n      swap1\n      pop\n      jump\t// out\n        /* \"#utility.yul\":466:562   */\n    tag_154:\n        /* \"#utility.yul\":503:510   */\n      0x00\n        /* \"#utility.yul\":532:556   */\n      tag_226\n        /* \"#utility.yul\":550:555   */\n      dup3\n        /* \"#utility.yul\":532:556   */\n      tag_153\n      jump\t// in\n    tag_226:\n        /* \"#utility.yul\":521:556   */\n      swap1\n      pop\n        /* \"#utility.yul\":466:562   */\n      swap2\n      swap1\n      pop\n      jump\t// out\n        /* \"#utility.yul\":568:690   */\n    tag_155:\n        /* \"#utility.yul\":641:665   */\n      tag_228\n        /* \"#utility.yul\":659:664   */\n      dup2\n        /* \"#utility.yul\":641:665   */\n      tag_154\n      jump\t// in\n    tag_228:\n        /* \"#utility.yul\":634:639   */\n      dup2\n        /* \"#utility.yul\":631:666   */\n      eq\n        /* \"#utility.yul\":621:684   */\n      tag_229\n      jumpi\n        /* \"#utility.yul\":680:681   */\n      0x00\n        /* \"#utility.yul\":677:678   */\n      dup1\n        /* \"#utility.yul\":670:682   */\n      revert\n        /* \"#utility.yul\":621:684   */\n    tag_229:\n        /* \"#utility.yul\":568:690   */\n      pop\n      jump\t// out\n        /* \"#utility.yul\":696:835   */\n    tag_156:\n        /* \"#utility.yul\":742:747   */\n      0x00\n        /* \"#utility.yul\":780:786   */\n      dup2\n        /* \"#utility.yul\":767:787   */\n      calldataload\n        /* \"#utility.yul\":758:787   */\n      swap1\n      pop\n        /* \"#utility.yul\":796:829   */\n      tag_231\n        /* \"#utility.yul\":823:828   */\n      dup2\n        /* \"#utility.yul\":796:829   */\n      tag_155\n      jump\t// in\n    tag_231:\n        /* \"#utility.yul\":696:835   */\n      swap3\n      swap2\n      pop\n      pop\n      jump\t// out\n        /* \"#utility.yul\":841:918   */\n    tag_157:\n        /* \"#utility.yul\":878:885   */\n      0x00\n        /* \"#utility.yul\":907:912   */\n      dup2\n        /* \"#utility.yul\":896:912   */\n      swap1\n      pop\n        /* \"#utility.yul\":841:918   */\n      swap2\n      swap1\n      pop\n      jump\t// out\n        /* \"#utility.yul\":924:1046   */\n    tag_158:\n        /* \"#utility.yul\":997:1021   */\n      tag_234\n        /* \"#utility.yul\":1015:1020   */\n      dup2\n        /* \"#utility.yul\":997:1021   */\n      tag_157\n      jump\t// in\n    tag_234:\n        /* \"#utility.yul\":990:995   */\n      dup2\n        /* \"#utility.yul\":987:1022   */\n      eq\n        /* \"#utility.yul\":977:1040   */\n      tag_235\n      jumpi\n        /* \"#utility.yul\":1036:1037   */\n      0x00\n        /* \"#utility.yul\":1033:1034   */\n      dup1\n        /* \"#utility.yul\":1026:1038   */\n      revert\n        /* \"#utility.yul\":977:1040   */\n    tag_235:\n        /* \"#utility.yul\":924:1046   */\n      pop\n      jump\t// out\n        /* \"#utility.yul\":1052:1191   */\n    tag_159:\n        /* \"#utility.yul\":1098:1103   */\n      0x00\n        /* \"#utility.yul\":1136:1142   */\n      dup2\n        /* \"#utility.yul\":1123:1143   */\n      calldataload\n        /* \"#utility.yul\":1114:1143   */\n      swap1\n      pop\n        /* \"#utility.yul\":1152:1185   */\n      tag_237\n        /* \"#utility.yul\":1179:1184   */\n      dup2\n        /* \"#utility.yul\":1152:1185   */\n      tag_158\n      jump\t// in\n    tag_237:\n        /* \"#utility.yul\":1052:1191   */\n      swap3\n      swap2\n      pop\n      pop\n      jump\t// out\n        /* \"#utility.yul\":1197:1671   */\n    tag_16:\n        /* \"#utility.yul\":1265:1271   */\n      0x00\n        /* \"#utility.yul\":1273:1279   */\n      dup1\n        /* \"#utility.yul\":1322:1324   */\n      0x40\n        /* \"#utility.yul\":1310:1319   */\n      dup4\n        /* \"#utility.yul\":1301:1308   */\n      dup6\n        /* \"#utility.yul\":1297:1320   */\n      sub\n        /* \"#utility.yul\":1293:1325   */\n      slt\n        /* \"#utility.yul\":1290:1409   */\n      iszero\n      tag_239\n      jumpi\n        /* \"#utility.yul\":1328:1407   */\n      tag_240\n      tag_151\n      jump\t// in\n    tag_240:\n        /* \"#utility.yul\":1290:1409   */\n    tag_239:\n        /* \"#utility.yul\":1448:1449   */\n      0x00\n        /* \"#utility.yul\":1473:1526   */\n      tag_241\n        /* \"#utility.yul\":1518:1525   */\n      dup6\n        /* \"#utility.yul\":1509:1515   */\n      dup3\n        /* \"#utility.yul\":1498:1507   */\n      dup7\n        /* \"#utility.yul\":1494:1516   */\n      add\n        /* \"#utility.yul\":1473:1526   */\n      tag_156\n      jump\t// in\n    tag_241:\n        /* \"#utility.yul\":1463:1526   */\n      swap3\n      pop\n        /* \"#utility.yul\":1419:1536   */\n      pop\n        /* \"#utility.yul\":1575:1577   */\n      0x20\n        /* \"#utility.yul\":1601:1654   */\n      tag_242\n        /* \"#utility.yul\":1646:1653   */\n      dup6\n        /* \"#utility.yul\":1637:1643   */\n      dup3\n        /* \"#utility.yul\":1626:1635   */\n      dup7\n        /* \"#utility.yul\":1622:1644   */\n      add\n        /* \"#utility.yul\":1601:1654   */\n      tag_159\n      jump\t// in\n    tag_242:\n        /* \"#utility.yul\":1591:1654   */\n      swap2\n      pop\n        /* \"#utility.yul\":1546:1664   */\n      pop\n        /* \"#utility.yul\":1197:1671   */\n      swap3\n      pop\n      swap3\n      swap1\n      pop\n      jump\t// out\n        /* \"#utility.yul\":1677:1795   */\n    tag_160:\n        /* \"#utility.yul\":1764:1788   */\n      tag_244\n        /* \"#utility.yul\":1782:1787   */\n      dup2\n        /* \"#utility.yul\":1764:1788   */\n      tag_157\n      jump\t// in\n    tag_244:\n        /* \"#utility.yul\":1759:1762   */\n      dup3\n        /* \"#utility.yul\":1752:1789   */\n      mstore\n        /* \"#utility.yul\":1677:1795   */\n      pop\n      pop\n      jump\t// out\n        /* \"#utility.yul\":1801:1919   */\n    tag_161:\n        /* \"#utility.yul\":1888:1912   */\n      tag_246\n        /* \"#utility.yul\":1906:1911   */\n      dup2\n        /* \"#utility.yul\":1888:1912   */\n      tag_154\n      jump\t// in\n    tag_246:\n        /* \"#utility.yul\":1883:1886   */\n      dup3\n        /* \"#utility.yul\":1876:1913   */\n      mstore\n        /* \"#utility.yul\":1801:1919   */\n      pop\n      pop\n      jump\t// out\n        /* \"#utility.yul\":1925:2024   */\n    tag_162:\n        /* \"#utility.yul\":1977:1983   */\n      0x00\n        /* \"#utility.yul\":2011:2016   */\n      dup2\n        /* \"#utility.yul\":2005:2017   */\n      mload\n        /* \"#utility.yul\":1995:2017   */\n      swap1\n      pop\n        /* \"#utility.yul\":1925:2024   */\n      swap2\n      swap1\n      pop\n      jump\t// out\n        /* \"#utility.yul\":2030:2199   */\n    tag_163:\n        /* \"#utility.yul\":2114:2125   */\n      0x00\n        /* \"#utility.yul\":2148:2154   */\n      dup3\n        /* \"#utility.yul\":2143:2146   */\n      dup3\n        /* \"#utility.yul\":2136:2155   */\n      mstore\n        /* \"#utility.yul\":2188:2192   */\n      0x20\n        /* \"#utility.yul\":2183:2186   */\n      dup3\n        /* \"#utility.yul\":2179:2193   */\n      add\n        /* \"#utility.yul\":2164:2193   */\n      swap1\n      pop\n        /* \"#utility.yul\":2030:2199   */\n      swap3\n      swap2\n      pop\n      pop\n      jump\t// out\n        /* \"#utility.yul\":2205:2344   */\n    tag_164:\n        /* \"#utility.yul\":2294:2300   */\n      dup3\n        /* \"#utility.yul\":2289:2292   */\n      dup2\n        /* \"#utility.yul\":2284:2287   */\n      dup4\n        /* \"#utility.yul\":2278:2301   */\n      mcopy\n        /* \"#utility.yul\":2335:2336   */\n      0x00\n        /* \"#utility.yul\":2326:2332   */\n      dup4\n        /* \"#utility.yul\":2321:2324   */\n      dup4\n        /* \"#utility.yul\":2317:2333   */\n      add\n        /* \"#utility.yul\":2310:2337   */\n      mstore\n        /* \"#utility.yul\":2205:2344   */\n      pop\n      pop\n      pop\n      jump\t// out\n        /* \"#utility.yul\":2350:2452   */\n    tag_165:\n        /* \"#utility.yul\":2391:2397   */\n      0x00\n        /* \"#utility.yul\":2442:2444   */\n      0x1f\n        /* \"#utility.yul\":2438:2445   */\n      not\n        /* \"#utility.yul\":2433:2435   */\n      0x1f\n        /* \"#utility.yul\":2426:2431   */\n      dup4\n        /* \"#utility.yul\":2422:2436   */\n      add\n        /* \"#utility.yul\":2418:2446   */\n      and\n        /* \"#utility.yul\":2408:2446   */\n      swap1\n      pop\n        /* \"#utility.yul\":2350:2452   */\n      swap2\n      swap1\n      pop\n      jump\t// out\n        /* \"#utility.yul\":2458:2835   */\n    tag_166:\n        /* \"#utility.yul\":2546:2549   */\n      0x00\n        /* \"#utility.yul\":2574:2613   */\n      tag_252\n        /* \"#utility.yul\":2607:2612   */\n      dup3\n        /* \"#utility.yul\":2574:2613   */\n      tag_162\n      jump\t// in\n    tag_252:\n        /* \"#utility.yul\":2629:2700   */\n      tag_253\n        /* \"#utility.yul\":2693:2699   */\n      dup2\n        /* \"#utility.yul\":2688:2691   */\n      dup6\n        /* \"#utility.yul\":2629:2700   */\n      tag_163\n      jump\t// in\n    tag_253:\n        /* \"#utility.yul\":2622:2700   */\n      swap4\n      pop\n        /* \"#utility.yul\":2709:2774   */\n      tag_254\n        /* \"#utility.yul\":2767:2773   */\n      dup2\n        /* \"#utility.yul\":2762:2765   */\n      dup6\n        /* \"#utility.yul\":2755:2759   */\n      0x20\n        /* \"#utility.yul\":2748:2753   */\n      dup7\n        /* \"#utility.yul\":2744:2760   */\n      add\n        /* \"#utility.yul\":2709:2774   */\n      tag_164\n      jump\t// in\n    tag_254:\n        /* \"#utility.yul\":2799:2828   */\n      tag_255\n        /* \"#utility.yul\":2821:2827   */\n      dup2\n        /* \"#utility.yul\":2799:2828   */\n      tag_165\n      jump\t// in\n    tag_255:\n        /* \"#utility.yul\":2794:2797   */\n      dup5\n        /* \"#utility.yul\":2790:2829   */\n      add\n        /* \"#utility.yul\":2783:2829   */\n      swap2\n      pop\n        /* \"#utility.yul\":2550:2835   */\n      pop\n        /* \"#utility.yul\":2458:2835   */\n      swap3\n      swap2\n      pop\n      pop\n      jump\t// out\n        /* \"#utility.yul\":2841:3596   */\n    tag_19:\n        /* \"#utility.yul\":3066:3070   */\n      0x00\n        /* \"#utility.yul\":3104:3107   */\n      0xa0\n        /* \"#utility.yul\":3093:3102   */\n      dup3\n        /* \"#utility.yul\":3089:3108   */\n      add\n        /* \"#utility.yul\":3081:3108   */\n      swap1\n      pop\n        /* \"#utility.yul\":3118:3189   */\n      tag_257\n        /* \"#utility.yul\":3186:3187   */\n      0x00\n        /* \"#utility.yul\":3175:3184   */\n      dup4\n        /* \"#utility.yul\":3171:3188   */\n      add\n        /* \"#utility.yul\":3162:3168   */\n      dup9\n        /* \"#utility.yul\":3118:3189   */\n      tag_160\n      jump\t// in\n    tag_257:\n        /* \"#utility.yul\":3199:3271   */\n      tag_258\n        /* \"#utility.yul\":3267:3269   */\n      0x20\n        /* \"#utility.yul\":3256:3265   */\n      dup4\n        /* \"#utility.yul\":3252:3270   */\n      add\n        /* \"#utility.yul\":3243:3249   */\n      dup8\n        /* \"#utility.yul\":3199:3271   */\n      tag_161\n      jump\t// in\n    tag_258:\n        /* \"#utility.yul\":3318:3327   */\n      dup2\n        /* \"#utility.yul\":3312:3316   */\n      dup2\n        /* \"#utility.yul\":3308:3328   */\n      sub\n        /* \"#utility.yul\":3303:3305   */\n      0x40\n        /* \"#utility.yul\":3292:3301   */\n      dup4\n        /* \"#utility.yul\":3288:3306   */\n      add\n        /* \"#utility.yul\":3281:3329   */\n      mstore\n        /* \"#utility.yul\":3346:3424   */\n      tag_259\n        /* \"#utility.yul\":3419:3423   */\n      dup2\n        /* \"#utility.yul\":3410:3416   */\n      dup7\n        /* \"#utility.yul\":3346:3424   */\n      tag_166\n      jump\t// in\n    tag_259:\n        /* \"#utility.yul\":3338:3424   */\n      swap1\n      pop\n        /* \"#utility.yul\":3434:3506   */\n      tag_260\n        /* \"#utility.yul\":3502:3504   */\n      0x60\n        /* \"#utility.yul\":3491:3500   */\n      dup4\n        /* \"#utility.yul\":3487:3505   */\n      add\n        /* \"#utility.yul\":3478:3484   */\n      dup6\n        /* \"#utility.yul\":3434:3506   */\n      tag_160\n      jump\t// in\n    tag_260:\n        /* \"#utility.yul\":3516:3589   */\n      tag_261\n        /* \"#utility.yul\":3584:3587   */\n      0x80\n        /* \"#utility.yul\":3573:3582   */\n      dup4\n        /* \"#utility.yul\":3569:3588   */\n      add\n        /* \"#utility.yul\":3560:3566   */\n      dup5\n        /* \"#utility.yul\":3516:3589   */\n      tag_160\n      jump\t// in\n    tag_261:\n        /* \"#utility.yul\":2841:3596   */\n      swap7\n      swap6\n      pop\n      pop\n      pop\n      pop\n      pop\n      pop\n      jump\t// out\n        /* \"#utility.yul\":3602:3719   */\n    tag_167:\n        /* \"#utility.yul\":3711:3712   */\n      0x00\n        /* \"#utility.yul\":3708:3709   */\n      dup1\n        /* \"#utility.yul\":3701:3713   */\n      revert\n        /* \"#utility.yul\":3725:3842   */\n    tag_168:\n        /* \"#utility.yul\":3834:3835   */\n      0x00\n        /* \"#utility.yul\":3831:3832   */\n      dup1\n        /* \"#utility.yul\":3824:3836   */\n      revert\n        /* \"#utility.yul\":3848:4028   */\n    tag_169:\n        /* \"#utility.yul\":3896:3973   */\n      0x4e487b7100000000000000000000000000000000000000000000000000000000\n        /* \"#utility.yul\":3893:3894   */\n      0x00\n        /* \"#utility.yul\":3886:3974   */\n      mstore\n        /* \"#utility.yul\":3993:3997   */\n      0x41\n        /* \"#utility.yul\":3990:3991   */\n      0x04\n        /* \"#utility.yul\":3983:3998   */\n      mstore\n        /* \"#utility.yul\":4017:4021   */\n      0x24\n        /* \"#utility.yul\":4014:4015   */\n      0x00\n        /* \"#utility.yul\":4007:4022   */\n      revert\n        /* \"#utility.yul\":4034:4315   */\n    tag_170:\n        /* \"#utility.yul\":4117:4144   */\n      tag_266\n        /* \"#utility.yul\":4139:4143   */\n      dup3\n        /* \"#utility.yul\":4117:4144   */\n      tag_165\n      jump\t// in\n    tag_266:\n        /* \"#utility.yul\":4109:4115   */\n      dup2\n        /* \"#utility.yul\":4105:4145   */\n      add\n        /* \"#utility.yul\":4247:4253   */\n      dup2\n        /* \"#utility.yul\":4235:4245   */\n      dup2\n        /* \"#utility.yul\":4232:4254   */\n      lt\n        /* \"#utility.yul\":4211:4229   */\n      0xffffffffffffffff\n        /* \"#utility.yul\":4199:4209   */\n      dup3\n        /* \"#utility.yul\":4196:4230   */\n      gt\n        /* \"#utility.yul\":4193:4255   */\n      or\n        /* \"#utility.yul\":4190:4278   */\n      iszero\n      tag_267\n      jumpi\n        /* \"#utility.yul\":4258:4276   */\n      tag_268\n      tag_169\n      jump\t// in\n    tag_268:\n        /* \"#utility.yul\":4190:4278   */\n    tag_267:\n        /* \"#utility.yul\":4298:4308   */\n      dup1\n        /* \"#utility.yul\":4294:4296   */\n      0x40\n        /* \"#utility.yul\":4287:4309   */\n      mstore\n        /* \"#utility.yul\":4077:4315   */\n      pop\n        /* \"#utility.yul\":4034:4315   */\n      pop\n      pop\n      jump\t// out\n        /* \"#utility.yul\":4321:4450   */\n    tag_171:\n        /* \"#utility.yul\":4355:4361   */\n      0x00\n        /* \"#utility.yul\":4382:4402   */\n      tag_270\n      tag_150\n      jump\t// in\n    tag_270:\n        /* \"#utility.yul\":4372:4402   */\n      swap1\n      pop\n        /* \"#utility.yul\":4411:4444   */\n      tag_271\n        /* \"#utility.yul\":4439:4443   */\n      dup3\n        /* \"#utility.yul\":4431:4437   */\n      dup3\n        /* \"#utility.yul\":4411:4444   */\n      tag_170\n      jump\t// in\n    tag_271:\n        /* \"#utility.yul\":4321:4450   */\n      swap2\n      swap1\n      pop\n      jump\t// out\n        /* \"#utility.yul\":4456:4764   */\n    tag_172:\n        /* \"#utility.yul\":4518:4522   */\n      0x00\n        /* \"#utility.yul\":4608:4626   */\n      0xffffffffffffffff\n        /* \"#utility.yul\":4600:4606   */\n      dup3\n        /* \"#utility.yul\":4597:4627   */\n      gt\n        /* \"#utility.yul\":4594:4650   */\n      iszero\n      tag_273\n      jumpi\n        /* \"#utility.yul\":4630:4648   */\n      tag_274\n      tag_169\n      jump\t// in\n    tag_274:\n        /* \"#utility.yul\":4594:4650   */\n    tag_273:\n        /* \"#utility.yul\":4668:4697   */\n      tag_275\n        /* \"#utility.yul\":4690:4696   */\n      dup3\n        /* \"#utility.yul\":4668:4697   */\n      tag_165\n      jump\t// in\n    tag_275:\n        /* \"#utility.yul\":4660:4697   */\n      swap1\n      pop\n        /* \"#utility.yul\":4752:4756   */\n      0x20\n        /* \"#utility.yul\":4746:4750   */\n      dup2\n        /* \"#utility.yul\":4742:4757   */\n      add\n        /* \"#utility.yul\":4734:4757   */\n      swap1\n      pop\n        /* \"#utility.yul\":4456:4764   */\n      swap2\n      swap1\n      pop\n      jump\t// out\n        /* \"#utility.yul\":4770:4918   */\n    tag_173:\n        /* \"#utility.yul\":4868:4874   */\n      dup3\n        /* \"#utility.yul\":4863:4866   */\n      dup2\n        /* \"#utility.yul\":4858:4861   */\n      dup4\n        /* \"#utility.yul\":4845:4875   */\n      calldatacopy\n        /* \"#utility.yul\":4909:4910   */\n      0x00\n        /* \"#utility.yul\":4900:4906   */\n      dup4\n        /* \"#utility.yul\":4895:4898   */\n      dup4\n        /* \"#utility.yul\":4891:4907   */\n      add\n        /* \"#utility.yul\":4884:4911   */\n      mstore\n        /* \"#utility.yul\":4770:4918   */\n      pop\n      pop\n      pop\n      jump\t// out\n        /* \"#utility.yul\":4924:5349   */\n    tag_174:\n        /* \"#utility.yul\":5002:5007   */\n      0x00\n        /* \"#utility.yul\":5027:5093   */\n      tag_278\n        /* \"#utility.yul\":5043:5092   */\n      tag_279\n        /* \"#utility.yul\":5085:5091   */\n      dup5\n        /* \"#utility.yul\":5043:5092   */\n      tag_172\n      jump\t// in\n    tag_279:\n        /* \"#utility.yul\":5027:5093   */\n      tag_171\n      jump\t// in\n    tag_278:\n        /* \"#utility.yul\":5018:5093   */\n      swap1\n      pop\n        /* \"#utility.yul\":5116:5122   */\n      dup3\n        /* \"#utility.yul\":5109:5114   */\n      dup2\n        /* \"#utility.yul\":5102:5123   */\n      mstore\n        /* \"#utility.yul\":5154:5158   */\n      0x20\n        /* \"#utility.yul\":5147:5152   */\n      dup2\n        /* \"#utility.yul\":5143:5159   */\n      add\n        /* \"#utility.yul\":5192:5195   */\n      dup5\n        /* \"#utility.yul\":5183:5189   */\n      dup5\n        /* \"#utility.yul\":5178:5181   */\n      dup5\n        /* \"#utility.yul\":5174:5190   */\n      add\n        /* \"#utility.yul\":5171:5196   */\n      gt\n        /* \"#utility.yul\":5168:5280   */\n      iszero\n      tag_280\n      jumpi\n        /* \"#utility.yul\":5199:5278   */\n      tag_281\n      tag_168\n      jump\t// in\n    tag_281:\n        /* \"#utility.yul\":5168:5280   */\n    tag_280:\n        /* \"#utility.yul\":5289:5343   */\n      tag_282\n        /* \"#utility.yul\":5336:5342   */\n      dup5\n        /* \"#utility.yul\":5331:5334   */\n      dup3\n        /* \"#utility.yul\":5326:5329   */\n      dup6\n        /* \"#utility.yul\":5289:5343   */\n      tag_173\n      jump\t// in\n    tag_282:\n        /* \"#utility.yul\":5008:5349   */\n      pop\n        /* \"#utility.yul\":4924:5349   */\n      swap4\n      swap3\n      pop\n      pop\n      pop\n      jump\t// out\n        /* \"#utility.yul\":5369:5709   */\n    tag_175:\n        /* \"#utility.yul\":5425:5430   */\n      0x00\n        /* \"#utility.yul\":5474:5477   */\n      dup3\n        /* \"#utility.yul\":5467:5471   */\n      0x1f\n        /* \"#utility.yul\":5459:5465   */\n      dup4\n        /* \"#utility.yul\":5455:5472   */\n      add\n        /* \"#utility.yul\":5451:5478   */\n      slt\n        /* \"#utility.yul\":5441:5563   */\n      tag_284\n      jumpi\n        /* \"#utility.yul\":5482:5561   */\n      tag_285\n      tag_167\n      jump\t// in\n    tag_285:\n        /* \"#utility.yul\":5441:5563   */\n    tag_284:\n        /* \"#utility.yul\":5599:5605   */\n      dup2\n        /* \"#utility.yul\":5586:5606   */\n      calldataload\n        /* \"#utility.yul\":5624:5703   */\n      tag_286\n        /* \"#utility.yul\":5699:5702   */\n      dup5\n        /* \"#utility.yul\":5691:5697   */\n      dup3\n        /* \"#utility.yul\":5684:5688   */\n      0x20\n        /* \"#utility.yul\":5676:5682   */\n      dup7\n        /* \"#utility.yul\":5672:5689   */\n      add\n        /* \"#utility.yul\":5624:5703   */\n      tag_174\n      jump\t// in\n    tag_286:\n        /* \"#utility.yul\":5615:5703   */\n      swap2\n      pop\n        /* \"#utility.yul\":5431:5709   */\n      pop\n        /* \"#utility.yul\":5369:5709   */\n      swap3\n      swap2\n      pop\n      pop\n      jump\t// out\n        /* \"#utility.yul\":5715:6224   */\n    tag_22:\n        /* \"#utility.yul\":5784:5790   */\n      0x00\n        /* \"#utility.yul\":5833:5835   */\n      0x20\n        /* \"#utility.yul\":5821:5830   */\n      dup3\n        /* \"#utility.yul\":5812:5819   */\n      dup5\n        /* \"#utility.yul\":5808:5831   */\n      sub\n        /* \"#utility.yul\":5804:5836   */\n      slt\n        /* \"#utility.yul\":5801:5920   */\n      iszero\n      tag_288\n      jumpi\n        /* \"#utility.yul\":5839:5918   */\n      tag_289\n      tag_151\n      jump\t// in\n    tag_289:\n        /* \"#utility.yul\":5801:5920   */\n    tag_288:\n        /* \"#utility.yul\":5987:5988   */\n      0x00\n        /* \"#utility.yul\":5976:5985   */\n      dup3\n        /* \"#utility.yul\":5972:5989   */\n      add\n        /* \"#utility.yul\":5959:5990   */\n      calldataload\n        /* \"#utility.yul\":6017:6035   */\n      0xffffffffffffffff\n        /* \"#utility.yul\":6009:6015   */\n      dup2\n        /* \"#utility.yul\":6006:6036   */\n      gt\n        /* \"#utility.yul\":6003:6120   */\n      iszero\n      tag_290\n      jumpi\n        /* \"#utility.yul\":6039:6118   */\n      tag_291\n      tag_152\n      jump\t// in\n    tag_291:\n        /* \"#utility.yul\":6003:6120   */\n    tag_290:\n        /* \"#utility.yul\":6144:6207   */\n      tag_292\n        /* \"#utility.yul\":6199:6206   */\n      dup5\n        /* \"#utility.yul\":6190:6196   */\n      dup3\n        /* \"#utility.yul\":6179:6188   */\n      dup6\n        /* \"#utility.yul\":6175:6197   */\n      add\n        /* \"#utility.yul\":6144:6207   */\n      tag_175\n      jump\t// in\n    tag_292:\n        /* \"#utility.yul\":6134:6207   */\n      swap2\n      pop\n        /* \"#utility.yul\":5930:6217   */\n      pop\n        /* \"#utility.yul\":5715:6224   */\n      swap3\n      swap2\n      pop\n      pop\n      jump\t// out\n        /* \"#utility.yul\":6230:6559   */\n    tag_26:\n        /* \"#utility.yul\":6289:6295   */\n      0x00\n        /* \"#utility.yul\":6338:6340   */\n      0x20\n        /* \"#utility.yul\":6326:6335   */\n      dup3\n        /* \"#utility.yul\":6317:6324   */\n      dup5\n        /* \"#utility.yul\":6313:6336   */\n      sub\n        /* \"#utility.yul\":6309:6341   */\n      slt\n        /* \"#utility.yul\":6306:6425   */\n      iszero\n      tag_294\n      jumpi\n        /* \"#utility.yul\":6344:6423   */\n      tag_295\n      tag_151\n      jump\t// in\n    tag_295:\n        /* \"#utility.yul\":6306:6425   */\n    tag_294:\n        /* \"#utility.yul\":6464:6465   */\n      0x00\n        /* \"#utility.yul\":6489:6542   */\n      tag_296\n        /* \"#utility.yul\":6534:6541   */\n      dup5\n        /* \"#utility.yul\":6525:6531   */\n      dup3\n        /* \"#utility.yul\":6514:6523   */\n      dup6\n        /* \"#utility.yul\":6510:6532   */\n      add\n        /* \"#utility.yul\":6489:6542   */\n      tag_156\n      jump\t// in\n    tag_296:\n        /* \"#utility.yul\":6479:6542   */\n      swap2\n      pop\n        /* \"#utility.yul\":6435:6552   */\n      pop\n        /* \"#utility.yul\":6230:6559   */\n      swap3\n      swap2\n      pop\n      pop\n      jump\t// out\n        /* \"#utility.yul\":6565:6700   */\n    tag_176:\n        /* \"#utility.yul\":6653:6659   */\n      0x00\n        /* \"#utility.yul\":6687:6692   */\n      dup2\n        /* \"#utility.yul\":6681:6693   */\n      mload\n        /* \"#utility.yul\":6671:6693   */\n      swap1\n      pop\n        /* \"#utility.yul\":6565:6700   */\n      swap2\n      swap1\n      pop\n      jump\t// out\n        /* \"#utility.yul\":6706:6911   */\n    tag_177:\n        /* \"#utility.yul\":6826:6837   */\n      0x00\n        /* \"#utility.yul\":6860:6866   */\n      dup3\n        /* \"#utility.yul\":6855:6858   */\n      dup3\n        /* \"#utility.yul\":6848:6867   */\n      mstore\n        /* \"#utility.yul\":6900:6904   */\n      0x20\n        /* \"#utility.yul\":6895:6898   */\n      dup3\n        /* \"#utility.yul\":6891:6905   */\n      add\n        /* \"#utility.yul\":6876:6905   */\n      swap1\n      pop\n        /* \"#utility.yul\":6706:6911   */\n      swap3\n      swap2\n      pop\n      pop\n      jump\t// out\n        /* \"#utility.yul\":6917:7070   */\n    tag_178:\n        /* \"#utility.yul\":7005:7009   */\n      0x00\n        /* \"#utility.yul\":7028:7031   */\n      dup2\n        /* \"#utility.yul\":7020:7031   */\n      swap1\n      pop\n        /* \"#utility.yul\":7058:7062   */\n      0x20\n        /* \"#utility.yul\":7053:7056   */\n      dup3\n        /* \"#utility.yul\":7049:7063   */\n      add\n        /* \"#utility.yul\":7041:7063   */\n      swap1\n      pop\n        /* \"#utility.yul\":6917:7070   */\n      swap2\n      swap1\n      pop\n      jump\t// out\n        /* \"#utility.yul\":7076:7184   */\n    tag_179:\n        /* \"#utility.yul\":7153:7177   */\n      tag_301\n        /* \"#utility.yul\":7171:7176   */\n      dup2\n        /* \"#utility.yul\":7153:7177   */\n      tag_157\n      jump\t// in\n    tag_301:\n        /* \"#utility.yul\":7148:7151   */\n      dup3\n        /* \"#utility.yul\":7141:7178   */\n      mstore\n        /* \"#utility.yul\":7076:7184   */\n      pop\n      pop\n      jump\t// out\n        /* \"#utility.yul\":7190:7298   */\n    tag_180:\n        /* \"#utility.yul\":7267:7291   */\n      tag_303\n        /* \"#utility.yul\":7285:7290   */\n      dup2\n        /* \"#utility.yul\":7267:7291   */\n      tag_154\n      jump\t// in\n    tag_303:\n        /* \"#utility.yul\":7262:7265   */\n      dup3\n        /* \"#utility.yul\":7255:7292   */\n      mstore\n        /* \"#utility.yul\":7190:7298   */\n      pop\n      pop\n      jump\t// out\n        /* \"#utility.yul\":7304:7463   */\n    tag_181:\n        /* \"#utility.yul\":7378:7389   */\n      0x00\n        /* \"#utility.yul\":7412:7418   */\n      dup3\n        /* \"#utility.yul\":7407:7410   */\n      dup3\n        /* \"#utility.yul\":7400:7419   */\n      mstore\n        /* \"#utility.yul\":7452:7456   */\n      0x20\n        /* \"#utility.yul\":7447:7450   */\n      dup3\n        /* \"#utility.yul\":7443:7457   */\n      add\n        /* \"#utility.yul\":7428:7457   */\n      swap1\n      pop\n        /* \"#utility.yul\":7304:7463   */\n      swap3\n      swap2\n      pop\n      pop\n      jump\t// out\n        /* \"#utility.yul\":7469:7826   */\n    tag_182:\n        /* \"#utility.yul\":7547:7550   */\n      0x00\n        /* \"#utility.yul\":7575:7614   */\n      tag_306\n        /* \"#utility.yul\":7608:7613   */\n      dup3\n        /* \"#utility.yul\":7575:7614   */\n      tag_162\n      jump\t// in\n    tag_306:\n        /* \"#utility.yul\":7630:7691   */\n      tag_307\n        /* \"#utility.yul\":7684:7690   */\n      dup2\n        /* \"#utility.yul\":7679:7682   */\n      dup6\n        /* \"#utility.yul\":7630:7691   */\n      tag_181\n      jump\t// in\n    tag_307:\n        /* \"#utility.yul\":7623:7691   */\n      swap4\n      pop\n        /* \"#utility.yul\":7700:7765   */\n      tag_308\n        /* \"#utility.yul\":7758:7764   */\n      dup2\n        /* \"#utility.yul\":7753:7756   */\n      dup6\n        /* \"#utility.yul\":7746:7750   */\n      0x20\n        /* \"#utility.yul\":7739:7744   */\n      dup7\n        /* \"#utility.yul\":7735:7751   */\n      add\n        /* \"#utility.yul\":7700:7765   */\n      tag_164\n      jump\t// in\n    tag_308:\n        /* \"#utility.yul\":7790:7819   */\n      tag_309\n        /* \"#utility.yul\":7812:7818   */\n      dup2\n        /* \"#utility.yul\":7790:7819   */\n      tag_165\n      jump\t// in\n    tag_309:\n        /* \"#utility.yul\":7785:7788   */\n      dup5\n        /* \"#utility.yul\":7781:7820   */\n      add\n        /* \"#utility.yul\":7774:7820   */\n      swap2\n      pop\n        /* \"#utility.yul\":7551:7826   */\n      pop\n        /* \"#utility.yul\":7469:7826   */\n      swap3\n      swap2\n      pop\n      pop\n      jump\t// out\n        /* \"#utility.yul\":7884:9003   */\n    tag_183:\n        /* \"#utility.yul\":7985:7988   */\n      0x00\n        /* \"#utility.yul\":8021:8025   */\n      0xa0\n        /* \"#utility.yul\":8016:8019   */\n      dup4\n        /* \"#utility.yul\":8012:8026   */\n      add\n        /* \"#utility.yul\":8106:8110   */\n      0x00\n        /* \"#utility.yul\":8099:8104   */\n      dup4\n        /* \"#utility.yul\":8095:8111   */\n      add\n        /* \"#utility.yul\":8089:8112   */\n      mload\n        /* \"#utility.yul\":8125:8188   */\n      tag_311\n        /* \"#utility.yul\":8182:8186   */\n      0x00\n        /* \"#utility.yul\":8177:8180   */\n      dup7\n        /* \"#utility.yul\":8173:8187   */\n      add\n        /* \"#utility.yul\":8159:8171   */\n      dup3\n        /* \"#utility.yul\":8125:8188   */\n      tag_179\n      jump\t// in\n    tag_311:\n        /* \"#utility.yul\":8036:8198   */\n      pop\n        /* \"#utility.yul\":8282:8286   */\n      0x20\n        /* \"#utility.yul\":8275:8280   */\n      dup4\n        /* \"#utility.yul\":8271:8287   */\n      add\n        /* \"#utility.yul\":8265:8288   */\n      mload\n        /* \"#utility.yul\":8301:8364   */\n      tag_312\n        /* \"#utility.yul\":8358:8362   */\n      0x20\n        /* \"#utility.yul\":8353:8356   */\n      dup7\n        /* \"#utility.yul\":8349:8363   */\n      add\n        /* \"#utility.yul\":8335:8347   */\n      dup3\n        /* \"#utility.yul\":8301:8364   */\n      tag_180\n      jump\t// in\n    tag_312:\n        /* \"#utility.yul\":8208:8374   */\n      pop\n        /* \"#utility.yul\":8459:8463   */\n      0x40\n        /* \"#utility.yul\":8452:8457   */\n      dup4\n        /* \"#utility.yul\":8448:8464   */\n      add\n        /* \"#utility.yul\":8442:8465   */\n      mload\n        /* \"#utility.yul\":8512:8515   */\n      dup5\n        /* \"#utility.yul\":8506:8510   */\n      dup3\n        /* \"#utility.yul\":8502:8516   */\n      sub\n        /* \"#utility.yul\":8495:8499   */\n      0x40\n        /* \"#utility.yul\":8490:8493   */\n      dup7\n        /* \"#utility.yul\":8486:8500   */\n      add\n        /* \"#utility.yul\":8479:8517   */\n      mstore\n        /* \"#utility.yul\":8538:8611   */\n      tag_313\n        /* \"#utility.yul\":8606:8610   */\n      dup3\n        /* \"#utility.yul\":8592:8604   */\n      dup3\n        /* \"#utility.yul\":8538:8611   */\n      tag_182\n      jump\t// in\n    tag_313:\n        /* \"#utility.yul\":8530:8611   */\n      swap2\n      pop\n        /* \"#utility.yul\":8384:8622   */\n      pop\n        /* \"#utility.yul\":8709:8713   */\n      0x60\n        /* \"#utility.yul\":8702:8707   */\n      dup4\n        /* \"#utility.yul\":8698:8714   */\n      add\n        /* \"#utility.yul\":8692:8715   */\n      mload\n        /* \"#utility.yul\":8728:8791   */\n      tag_314\n        /* \"#utility.yul\":8785:8789   */\n      0x60\n        /* \"#utility.yul\":8780:8783   */\n      dup7\n        /* \"#utility.yul\":8776:8790   */\n      add\n        /* \"#utility.yul\":8762:8774   */\n      dup3\n        /* \"#utility.yul\":8728:8791   */\n      tag_179\n      jump\t// in\n    tag_314:\n        /* \"#utility.yul\":8632:8801   */\n      pop\n        /* \"#utility.yul\":8884:8888   */\n      0x80\n        /* \"#utility.yul\":8877:8882   */\n      dup4\n        /* \"#utility.yul\":8873:8889   */\n      add\n        /* \"#utility.yul\":8867:8890   */\n      mload\n        /* \"#utility.yul\":8903:8966   */\n      tag_315\n        /* \"#utility.yul\":8960:8964   */\n      0x80\n        /* \"#utility.yul\":8955:8958   */\n      dup7\n        /* \"#utility.yul\":8951:8965   */\n      add\n        /* \"#utility.yul\":8937:8949   */\n      dup3\n        /* \"#utility.yul\":8903:8966   */\n      tag_179\n      jump\t// in\n    tag_315:\n        /* \"#utility.yul\":8811:8976   */\n      pop\n        /* \"#utility.yul\":8993:8997   */\n      dup1\n        /* \"#utility.yul\":8986:8997   */\n      swap2\n      pop\n        /* \"#utility.yul\":7990:9003   */\n      pop\n        /* \"#utility.yul\":7884:9003   */\n      swap3\n      swap2\n      pop\n      pop\n      jump\t// out\n        /* \"#utility.yul\":9009:9249   */\n    tag_184:\n        /* \"#utility.yul\":9120:9130   */\n      0x00\n        /* \"#utility.yul\":9155:9243   */\n      tag_317\n        /* \"#utility.yul\":9239:9242   */\n      dup4\n        /* \"#utility.yul\":9231:9237   */\n      dup4\n        /* \"#utility.yul\":9155:9243   */\n      tag_183\n      jump\t// in\n    tag_317:\n        /* \"#utility.yul\":9141:9243   */\n      swap1\n      pop\n        /* \"#utility.yul\":9009:9249   */\n      swap3\n      swap2\n      pop\n      pop\n      jump\t// out\n        /* \"#utility.yul\":9255:9389   */\n    tag_185:\n        /* \"#utility.yul\":9346:9350   */\n      0x00\n        /* \"#utility.yul\":9378:9382   */\n      0x20\n        /* \"#utility.yul\":9373:9376   */\n      dup3\n        /* \"#utility.yul\":9369:9383   */\n      add\n        /* \"#utility.yul\":9361:9383   */\n      swap1\n      pop\n        /* \"#utility.yul\":9255:9389   */\n      swap2\n      swap1\n      pop\n      jump\t// out\n        /* \"#utility.yul\":9451:10530   */\n    tag_186:\n        /* \"#utility.yul\":9612:9615   */\n      0x00\n        /* \"#utility.yul\":9641:9716   */\n      tag_320\n        /* \"#utility.yul\":9710:9715   */\n      dup3\n        /* \"#utility.yul\":9641:9716   */\n      tag_176\n      jump\t// in\n    tag_320:\n        /* \"#utility.yul\":9732:9839   */\n      tag_321\n        /* \"#utility.yul\":9832:9838   */\n      dup2\n        /* \"#utility.yul\":9827:9830   */\n      dup6\n        /* \"#utility.yul\":9732:9839   */\n      tag_177\n      jump\t// in\n    tag_321:\n        /* \"#utility.yul\":9725:9839   */\n      swap4\n      pop\n        /* \"#utility.yul\":9865:9868   */\n      dup4\n        /* \"#utility.yul\":9910:9914   */\n      0x20\n        /* \"#utility.yul\":9902:9908   */\n      dup3\n        /* \"#utility.yul\":9898:9915   */\n      mul\n        /* \"#utility.yul\":9893:9896   */\n      dup6\n        /* \"#utility.yul\":9889:9916   */\n      add\n        /* \"#utility.yul\":9940:10017   */\n      tag_322\n        /* \"#utility.yul\":10011:10016   */\n      dup6\n        /* \"#utility.yul\":9940:10017   */\n      tag_178\n      jump\t// in\n    tag_322:\n        /* \"#utility.yul\":10040:10047   */\n      dup1\n        /* \"#utility.yul\":10071:10072   */\n      0x00\n        /* \"#utility.yul\":10056:10485   */\n    tag_323:\n        /* \"#utility.yul\":10081:10087   */\n      dup6\n        /* \"#utility.yul\":10078:10079   */\n      dup2\n        /* \"#utility.yul\":10075:10088   */\n      lt\n        /* \"#utility.yul\":10056:10485   */\n      iszero\n      tag_325\n      jumpi\n        /* \"#utility.yul\":10152:10161   */\n      dup5\n        /* \"#utility.yul\":10146:10150   */\n      dup5\n        /* \"#utility.yul\":10142:10162   */\n      sub\n        /* \"#utility.yul\":10137:10140   */\n      dup10\n        /* \"#utility.yul\":10130:10163   */\n      mstore\n        /* \"#utility.yul\":10203:10209   */\n      dup2\n        /* \"#utility.yul\":10197:10210   */\n      mload\n        /* \"#utility.yul\":10231:10337   */\n      tag_326\n        /* \"#utility.yul\":10332:10336   */\n      dup6\n        /* \"#utility.yul\":10317:10330   */\n      dup3\n        /* \"#utility.yul\":10231:10337   */\n      tag_184\n      jump\t// in\n    tag_326:\n        /* \"#utility.yul\":10223:10337   */\n      swap5\n      pop\n        /* \"#utility.yul\":10360:10441   */\n      tag_327\n        /* \"#utility.yul\":10434:10440   */\n      dup4\n        /* \"#utility.yul\":10360:10441   */\n      tag_185\n      jump\t// in\n    tag_327:\n        /* \"#utility.yul\":10350:10441   */\n      swap3\n      pop\n        /* \"#utility.yul\":10470:10474   */\n      0x20\n        /* \"#utility.yul\":10465:10468   */\n      dup11\n        /* \"#utility.yul\":10461:10475   */\n      add\n        /* \"#utility.yul\":10454:10475   */\n      swap10\n      pop\n        /* \"#utility.yul\":10116:10485   */\n      pop\n        /* \"#utility.yul\":10103:10104   */\n      0x01\n        /* \"#utility.yul\":10100:10101   */\n      dup2\n        /* \"#utility.yul\":10096:10105   */\n      add\n        /* \"#utility.yul\":10091:10105   */\n      swap1\n      pop\n        /* \"#utility.yul\":10056:10485   */\n      jump(tag_323)\n    tag_325:\n        /* \"#utility.yul\":10060:10074   */\n      pop\n        /* \"#utility.yul\":10501:10505   */\n      dup3\n        /* \"#utility.yul\":10494:10505   */\n      swap8\n      pop\n        /* \"#utility.yul\":10521:10524   */\n      dup8\n        /* \"#utility.yul\":10514:10524   */\n      swap6\n      pop\n        /* \"#utility.yul\":9617:10530   */\n      pop\n      pop\n      pop\n      pop\n      pop\n        /* \"#utility.yul\":9451:10530   */\n      swap3\n      swap2\n      pop\n      pop\n      jump\t// out\n        /* \"#utility.yul\":10536:10993   */\n    tag_29:\n        /* \"#utility.yul\":10721:10725   */\n      0x00\n        /* \"#utility.yul\":10759:10761   */\n      0x20\n        /* \"#utility.yul\":10748:10757   */\n      dup3\n        /* \"#utility.yul\":10744:10762   */\n      add\n        /* \"#utility.yul\":10736:10762   */\n      swap1\n      pop\n        /* \"#utility.yul\":10808:10817   */\n      dup2\n        /* \"#utility.yul\":10802:10806   */\n      dup2\n        /* \"#utility.yul\":10798:10818   */\n      sub\n        /* \"#utility.yul\":10794:10795   */\n      0x00\n        /* \"#utility.yul\":10783:10792   */\n      dup4\n        /* \"#utility.yul\":10779:10796   */\n      add\n        /* \"#utility.yul\":10772:10819   */\n      mstore\n        /* \"#utility.yul\":10836:10986   */\n      tag_329\n        /* \"#utility.yul\":10981:10985   */\n      dup2\n        /* \"#utility.yul\":10972:10978   */\n      dup5\n        /* \"#utility.yul\":10836:10986   */\n      tag_186\n      jump\t// in\n    tag_329:\n        /* \"#utility.yul\":10828:10986   */\n      swap1\n      pop\n        /* \"#utility.yul\":10536:10993   */\n      swap3\n      swap2\n      pop\n      pop\n      jump\t// out\n        /* \"#utility.yul\":10999:11088   */\n    tag_187:\n        /* \"#utility.yul\":11035:11042   */\n      0x00\n        /* \"#utility.yul\":11075:11081   */\n      0xffff\n        /* \"#utility.yul\":11068:11073   */\n      dup3\n        /* \"#utility.yul\":11064:11082   */\n      and\n        /* \"#utility.yul\":11053:11082   */\n      swap1\n      pop\n        /* \"#utility.yul\":10999:11088   */\n      swap2\n      swap1\n      pop\n      jump\t// out\n        /* \"#utility.yul\":11094:11214   */\n    tag_188:\n        /* \"#utility.yul\":11166:11189   */\n      tag_332\n        /* \"#utility.yul\":11183:11188   */\n      dup2\n        /* \"#utility.yul\":11166:11189   */\n      tag_187\n      jump\t// in\n    tag_332:\n        /* \"#utility.yul\":11159:11164   */\n      dup2\n        /* \"#utility.yul\":11156:11190   */\n      eq\n        /* \"#utility.yul\":11146:11208   */\n      tag_333\n      jumpi\n        /* \"#utility.yul\":11204:11205   */\n      0x00\n        /* \"#utility.yul\":11201:11202   */\n      dup1\n        /* \"#utility.yul\":11194:11206   */\n      revert\n        /* \"#utility.yul\":11146:11208   */\n    tag_333:\n        /* \"#utility.yul\":11094:11214   */\n      pop\n      jump\t// out\n        /* \"#utility.yul\":11220:11357   */\n    tag_189:\n        /* \"#utility.yul\":11265:11270   */\n      0x00\n        /* \"#utility.yul\":11303:11309   */\n      dup2\n        /* \"#utility.yul\":11290:11310   */\n      calldataload\n        /* \"#utility.yul\":11281:11310   */\n      swap1\n      pop\n        /* \"#utility.yul\":11319:11351   */\n      tag_335\n        /* \"#utility.yul\":11345:11350   */\n      dup2\n        /* \"#utility.yul\":11319:11351   */\n      tag_188\n      jump\t// in\n    tag_335:\n        /* \"#utility.yul\":11220:11357   */\n      swap3\n      swap2\n      pop\n      pop\n      jump\t// out\n        /* \"#utility.yul\":11363:11690   */\n    tag_35:\n        /* \"#utility.yul\":11421:11427   */\n      0x00\n        /* \"#utility.yul\":11470:11472   */\n      0x20\n        /* \"#utility.yul\":11458:11467   */\n      dup3\n        /* \"#utility.yul\":11449:11456   */\n      dup5\n        /* \"#utility.yul\":11445:11468   */\n      sub\n        /* \"#utility.yul\":11441:11473   */\n      slt\n        /* \"#utility.yul\":11438:11557   */\n      iszero\n      tag_337\n      jumpi\n        /* \"#utility.yul\":11476:11555   */\n      tag_338\n      tag_151\n      jump\t// in\n    tag_338:\n        /* \"#utility.yul\":11438:11557   */\n    tag_337:\n        /* \"#utility.yul\":11596:11597   */\n      0x00\n        /* \"#utility.yul\":11621:11673   */\n      tag_339\n        /* \"#utility.yul\":11665:11672   */\n      dup5\n        /* \"#utility.yul\":11656:11662   */\n      dup3\n        /* \"#utility.yul\":11645:11654   */\n      dup6\n        /* \"#utility.yul\":11641:11663   */\n      add\n        /* \"#utility.yul\":11621:11673   */\n      tag_189\n      jump\t// in\n    tag_339:\n        /* \"#utility.yul\":11611:11673   */\n      swap2\n      pop\n        /* \"#utility.yul\":11567:11683   */\n      pop\n        /* \"#utility.yul\":11363:11690   */\n      swap3\n      swap2\n      pop\n      pop\n      jump\t// out\n        /* \"#utility.yul\":11696:11789   */\n    tag_190:\n        /* \"#utility.yul\":11732:11739   */\n      0x00\n        /* \"#utility.yul\":11772:11782   */\n      0xffffffff\n        /* \"#utility.yul\":11765:11770   */\n      dup3\n        /* \"#utility.yul\":11761:11783   */\n      and\n        /* \"#utility.yul\":11750:11783   */\n      swap1\n      pop\n        /* \"#utility.yul\":11696:11789   */\n      swap2\n      swap1\n      pop\n      jump\t// out\n        /* \"#utility.yul\":11795:11910   */\n    tag_191:\n        /* \"#utility.yul\":11880:11903   */\n      tag_342\n        /* \"#utility.yul\":11897:11902   */\n      dup2\n        /* \"#utility.yul\":11880:11903   */\n      tag_190\n      jump\t// in\n    tag_342:\n        /* \"#utility.yul\":11875:11878   */\n      dup3\n        /* \"#utility.yul\":11868:11904   */\n      mstore\n        /* \"#utility.yul\":11795:11910   */\n      pop\n      pop\n      jump\t// out\n        /* \"#utility.yul\":11916:12134   */\n    tag_43:\n        /* \"#utility.yul\":12007:12011   */\n      0x00\n        /* \"#utility.yul\":12045:12047   */\n      0x20\n        /* \"#utility.yul\":12034:12043   */\n      dup3\n        /* \"#utility.yul\":12030:12048   */\n      add\n        /* \"#utility.yul\":12022:12048   */\n      swap1\n      pop\n        /* \"#utility.yul\":12058:12127   */\n      tag_344\n        /* \"#utility.yul\":12124:12125   */\n      0x00\n        /* \"#utility.yul\":12113:12122   */\n      dup4\n        /* \"#utility.yul\":12109:12126   */\n      add\n        /* \"#utility.yul\":12100:12106   */\n      dup5\n        /* \"#utility.yul\":12058:12127   */\n      tag_191\n      jump\t// in\n    tag_344:\n        /* \"#utility.yul\":11916:12134   */\n      swap3\n      swap2\n      pop\n      pop\n      jump\t// out\n        /* \"#utility.yul\":12140:12362   */\n    tag_47:\n        /* \"#utility.yul\":12233:12237   */\n      0x00\n        /* \"#utility.yul\":12271:12273   */\n      0x20\n        /* \"#utility.yul\":12260:12269   */\n      dup3\n        /* \"#utility.yul\":12256:12274   */\n      add\n        /* \"#utility.yul\":12248:12274   */\n      swap1\n      pop\n        /* \"#utility.yul\":12284:12355   */\n      tag_346\n        /* \"#utility.yul\":12352:12353   */\n      0x00\n        /* \"#utility.yul\":12341:12350   */\n      dup4\n        /* \"#utility.yul\":12337:12354   */\n      add\n        /* \"#utility.yul\":12328:12334   */\n      dup5\n        /* \"#utility.yul\":12284:12355   */\n      tag_161\n      jump\t// in\n    tag_346:\n        /* \"#utility.yul\":12140:12362   */\n      swap3\n      swap2\n      pop\n      pop\n      jump\t// out\n        /* \"#utility.yul\":12368:12697   */\n    tag_50:\n        /* \"#utility.yul\":12427:12433   */\n      0x00\n        /* \"#utility.yul\":12476:12478   */\n      0x20\n        /* \"#utility.yul\":12464:12473   */\n      dup3\n        /* \"#utility.yul\":12455:12462   */\n      dup5\n        /* \"#utility.yul\":12451:12474   */\n      sub\n        /* \"#utility.yul\":12447:12479   */\n      slt\n        /* \"#utility.yul\":12444:12563   */\n      iszero\n      tag_348\n      jumpi\n        /* \"#utility.yul\":12482:12561   */\n      tag_349\n      tag_151\n      jump\t// in\n    tag_349:\n        /* \"#utility.yul\":12444:12563   */\n    tag_348:\n        /* \"#utility.yul\":12602:12603   */\n      0x00\n        /* \"#utility.yul\":12627:12680   */\n      tag_350\n        /* \"#utility.yul\":12672:12679   */\n      dup5\n        /* \"#utility.yul\":12663:12669   */\n      dup3\n        /* \"#utility.yul\":12652:12661   */\n      dup6\n        /* \"#utility.yul\":12648:12670   */\n      add\n        /* \"#utility.yul\":12627:12680   */\n      tag_159\n      jump\t// in\n    tag_350:\n        /* \"#utility.yul\":12617:12680   */\n      swap2\n      pop\n        /* \"#utility.yul\":12573:12690   */\n      pop\n        /* \"#utility.yul\":12368:12697   */\n      swap3\n      swap2\n      pop\n      pop\n      jump\t// out\n        /* \"#utility.yul\":12755:13884   */\n    tag_192:\n        /* \"#utility.yul\":12866:12869   */\n      0x00\n        /* \"#utility.yul\":12902:12906   */\n      0xa0\n        /* \"#utility.yul\":12897:12900   */\n      dup4\n        /* \"#utility.yul\":12893:12907   */\n      add\n        /* \"#utility.yul\":12987:12991   */\n      0x00\n        /* \"#utility.yul\":12980:12985   */\n      dup4\n        /* \"#utility.yul\":12976:12992   */\n      add\n        /* \"#utility.yul\":12970:12993   */\n      mload\n        /* \"#utility.yul\":13006:13069   */\n      tag_352\n        /* \"#utility.yul\":13063:13067   */\n      0x00\n        /* \"#utility.yul\":13058:13061   */\n      dup7\n        /* \"#utility.yul\":13054:13068   */\n      add\n        /* \"#utility.yul\":13040:13052   */\n      dup3\n        /* \"#utility.yul\":13006:13069   */\n      tag_179\n      jump\t// in\n    tag_352:\n        /* \"#utility.yul\":12917:13079   */\n      pop\n        /* \"#utility.yul\":13163:13167   */\n      0x20\n        /* \"#utility.yul\":13156:13161   */\n      dup4\n        /* \"#utility.yul\":13152:13168   */\n      add\n        /* \"#utility.yul\":13146:13169   */\n      mload\n        /* \"#utility.yul\":13182:13245   */\n      tag_353\n        /* \"#utility.yul\":13239:13243   */\n      0x20\n        /* \"#utility.yul\":13234:13237   */\n      dup7\n        /* \"#utility.yul\":13230:13244   */\n      add\n        /* \"#utility.yul\":13216:13228   */\n      dup3\n        /* \"#utility.yul\":13182:13245   */\n      tag_180\n      jump\t// in\n    tag_353:\n        /* \"#utility.yul\":13089:13255   */\n      pop\n        /* \"#utility.yul\":13340:13344   */\n      0x40\n        /* \"#utility.yul\":13333:13338   */\n      dup4\n        /* \"#utility.yul\":13329:13345   */\n      add\n        /* \"#utility.yul\":13323:13346   */\n      mload\n        /* \"#utility.yul\":13393:13396   */\n      dup5\n        /* \"#utility.yul\":13387:13391   */\n      dup3\n        /* \"#utility.yul\":13383:13397   */\n      sub\n        /* \"#utility.yul\":13376:13380   */\n      0x40\n        /* \"#utility.yul\":13371:13374   */\n      dup7\n        /* \"#utility.yul\":13367:13381   */\n      add\n        /* \"#utility.yul\":13360:13398   */\n      mstore\n        /* \"#utility.yul\":13419:13492   */\n      tag_354\n        /* \"#utility.yul\":13487:13491   */\n      dup3\n        /* \"#utility.yul\":13473:13485   */\n      dup3\n        /* \"#utility.yul\":13419:13492   */\n      tag_182\n      jump\t// in\n    tag_354:\n        /* \"#utility.yul\":13411:13492   */\n      swap2\n      pop\n        /* \"#utility.yul\":13265:13503   */\n      pop\n        /* \"#utility.yul\":13590:13594   */\n      0x60\n        /* \"#utility.yul\":13583:13588   */\n      dup4\n        /* \"#utility.yul\":13579:13595   */\n      add\n        /* \"#utility.yul\":13573:13596   */\n      mload\n        /* \"#utility.yul\":13609:13672   */\n      tag_355\n        /* \"#utility.yul\":13666:13670   */\n      0x60\n        /* \"#utility.yul\":13661:13664   */\n      dup7\n        /* \"#utility.yul\":13657:13671   */\n      add\n        /* \"#utility.yul\":13643:13655   */\n      dup3\n        /* \"#utility.yul\":13609:13672   */\n      tag_179\n      jump\t// in\n    tag_355:\n        /* \"#utility.yul\":13513:13682   */\n      pop\n        /* \"#utility.yul\":13765:13769   */\n      0x80\n        /* \"#utility.yul\":13758:13763   */\n      dup4\n        /* \"#utility.yul\":13754:13770   */\n      add\n        /* \"#utility.yul\":13748:13771   */\n      mload\n        /* \"#utility.yul\":13784:13847   */\n      tag_356\n        /* \"#utility.yul\":13841:13845   */\n      0x80\n        /* \"#utility.yul\":13836:13839   */\n      dup7\n        /* \"#utility.yul\":13832:13846   */\n      add\n        /* \"#utility.yul\":13818:13830   */\n      dup3\n        /* \"#utility.yul\":13784:13847   */\n      tag_179\n      jump\t// in\n    tag_356:\n        /* \"#utility.yul\":13692:13857   */\n      pop\n        /* \"#utility.yul\":13874:13878   */\n      dup1\n        /* \"#utility.yul\":13867:13878   */\n      swap2\n      pop\n        /* \"#utility.yul\":12871:13884   */\n      pop\n        /* \"#utility.yul\":12755:13884   */\n      swap3\n      swap2\n      pop\n      pop\n      jump\t// out\n        /* \"#utility.yul\":13890:14247   */\n    tag_53:\n        /* \"#utility.yul\":14025:14029   */\n      0x00\n        /* \"#utility.yul\":14063:14065   */\n      0x20\n        /* \"#utility.yul\":14052:14061   */\n      dup3\n        /* \"#utility.yul\":14048:14066   */\n      add\n        /* \"#utility.yul\":14040:14066   */\n      swap1\n      pop\n        /* \"#utility.yul\":14112:14121   */\n      dup2\n        /* \"#utility.yul\":14106:14110   */\n      dup2\n        /* \"#utility.yul\":14102:14122   */\n      sub\n        /* \"#utility.yul\":14098:14099   */\n      0x00\n        /* \"#utility.yul\":14087:14096   */\n      dup4\n        /* \"#utility.yul\":14083:14100   */\n      add\n        /* \"#utility.yul\":14076:14123   */\n      mstore\n        /* \"#utility.yul\":14140:14240   */\n      tag_358\n        /* \"#utility.yul\":14235:14239   */\n      dup2\n        /* \"#utility.yul\":14226:14232   */\n      dup5\n        /* \"#utility.yul\":14140:14240   */\n      tag_192\n      jump\t// in\n    tag_358:\n        /* \"#utility.yul\":14132:14240   */\n      swap1\n      pop\n        /* \"#utility.yul\":13890:14247   */\n      swap3\n      swap2\n      pop\n      pop\n      jump\t// out\n        /* \"#utility.yul\":14253:14475   */\n    tag_58:\n        /* \"#utility.yul\":14346:14350   */\n      0x00\n        /* \"#utility.yul\":14384:14386   */\n      0x20\n        /* \"#utility.yul\":14373:14382   */\n      dup3\n        /* \"#utility.yul\":14369:14387   */\n      add\n        /* \"#utility.yul\":14361:14387   */\n      swap1\n      pop\n        /* \"#utility.yul\":14397:14468   */\n      tag_360\n        /* \"#utility.yul\":14465:14466   */\n      0x00\n        /* \"#utility.yul\":14454:14463   */\n      dup4\n        /* \"#utility.yul\":14450:14467   */\n      add\n        /* \"#utility.yul\":14441:14447   */\n      dup5\n        /* \"#utility.yul\":14397:14468   */\n      tag_160\n      jump\t// in\n    tag_360:\n        /* \"#utility.yul\":14253:14475   */\n      swap3\n      swap2\n      pop\n      pop\n      jump\t// out\n        /* \"#utility.yul\":14481:14661   */\n    tag_193:\n        /* \"#utility.yul\":14529:14606   */\n      0x4e487b7100000000000000000000000000000000000000000000000000000000\n        /* \"#utility.yul\":14526:14527   */\n      0x00\n        /* \"#utility.yul\":14519:14607   */\n      mstore\n        /* \"#utility.yul\":14626:14630   */\n      0x22\n        /* \"#utility.yul\":14623:14624   */\n      0x04\n        /* \"#utility.yul\":14616:14631   */\n      mstore\n        /* \"#utility.yul\":14650:14654   */\n      0x24\n        /* \"#utility.yul\":14647:14648   */\n      0x00\n        /* \"#utility.yul\":14640:14655   */\n      revert\n        /* \"#utility.yul\":14667:14987   */\n    tag_62:\n        /* \"#utility.yul\":14711:14717   */\n      0x00\n        /* \"#utility.yul\":14748:14749   */\n      0x02\n        /* \"#utility.yul\":14742:14746   */\n      dup3\n        /* \"#utility.yul\":14738:14750   */\n      div\n        /* \"#utility.yul\":14728:14750   */\n      swap1\n      pop\n        /* \"#utility.yul\":14795:14796   */\n      0x01\n        /* \"#utility.yul\":14789:14793   */\n      dup3\n        /* \"#utility.yul\":14785:14797   */\n      and\n        /* \"#utility.yul\":14816:14834   */\n      dup1\n        /* \"#utility.yul\":14806:14887   */\n      tag_363\n      jumpi\n        /* \"#utility.yul\":14872:14876   */\n      0x7f\n        /* \"#utility.yul\":14864:14870   */\n      dup3\n        /* \"#utility.yul\":14860:14877   */\n      and\n        /* \"#utility.yul\":14850:14877   */\n      swap2\n      pop\n        /* \"#utility.yul\":14806:14887   */\n    tag_363:\n        /* \"#utility.yul\":14934:14936   */\n      0x20\n        /* \"#utility.yul\":14926:14932   */\n      dup3\n        /* \"#utility.yul\":14923:14937   */\n      lt\n        /* \"#utility.yul\":14903:14921   */\n      dup2\n        /* \"#utility.yul\":14900:14938   */\n      sub\n        /* \"#utility.yul\":14897:14981   */\n      tag_364\n      jumpi\n        /* \"#utility.yul\":14953:14971   */\n      tag_365\n      tag_193\n      jump\t// in\n    tag_365:\n        /* \"#utility.yul\":14897:14981   */\n    tag_364:\n        /* \"#utility.yul\":14718:14987   */\n      pop\n        /* \"#utility.yul\":14667:14987   */\n      swap2\n      swap1\n      pop\n      jump\t// out\n        /* \"#utility.yul\":14993:15160   */\n    tag_194:\n        /* \"#utility.yul\":15133:15152   */\n      0x547765657420697320746f6f206c6f6e67000000000000000000000000000000\n        /* \"#utility.yul\":15129:15130   */\n      0x00\n        /* \"#utility.yul\":15121:15127   */\n      dup3\n        /* \"#utility.yul\":15117:15131   */\n      add\n        /* \"#utility.yul\":15110:15153   */\n      mstore\n        /* \"#utility.yul\":14993:15160   */\n      pop\n      jump\t// out\n        /* \"#utility.yul\":15166:15532   */\n    tag_195:\n        /* \"#utility.yul\":15308:15311   */\n      0x00\n        /* \"#utility.yul\":15329:15396   */\n      tag_368\n        /* \"#utility.yul\":15393:15395   */\n      0x11\n        /* \"#utility.yul\":15388:15391   */\n      dup4\n        /* \"#utility.yul\":15329:15396   */\n      tag_163\n      jump\t// in\n    tag_368:\n        /* \"#utility.yul\":15322:15396   */\n      swap2\n      pop\n        /* \"#utility.yul\":15405:15498   */\n      tag_369\n        /* \"#utility.yul\":15494:15497   */\n      dup3\n        /* \"#utility.yul\":15405:15498   */\n      tag_194\n      jump\t// in\n    tag_369:\n        /* \"#utility.yul\":15523:15525   */\n      0x20\n        /* \"#utility.yul\":15518:15521   */\n      dup3\n        /* \"#utility.yul\":15514:15526   */\n      add\n        /* \"#utility.yul\":15507:15526   */\n      swap1\n      pop\n        /* \"#utility.yul\":15166:15532   */\n      swap2\n      swap1\n      pop\n      jump\t// out\n        /* \"#utility.yul\":15538:15957   */\n    tag_70:\n        /* \"#utility.yul\":15704:15708   */\n      0x00\n        /* \"#utility.yul\":15742:15744   */\n      0x20\n        /* \"#utility.yul\":15731:15740   */\n      dup3\n        /* \"#utility.yul\":15727:15745   */\n      add\n        /* \"#utility.yul\":15719:15745   */\n      swap1\n      pop\n        /* \"#utility.yul\":15791:15800   */\n      dup2\n        /* \"#utility.yul\":15785:15789   */\n      dup2\n        /* \"#utility.yul\":15781:15801   */\n      sub\n        /* \"#utility.yul\":15777:15778   */\n      0x00\n        /* \"#utility.yul\":15766:15775   */\n      dup4\n        /* \"#utility.yul\":15762:15779   */\n      add\n        /* \"#utility.yul\":15755:15802   */\n      mstore\n        /* \"#utility.yul\":15819:15950   */\n      tag_371\n        /* \"#utility.yul\":15945:15949   */\n      dup2\n        /* \"#utility.yul\":15819:15950   */\n      tag_195\n      jump\t// in\n    tag_371:\n        /* \"#utility.yul\":15811:15950   */\n      swap1\n      pop\n        /* \"#utility.yul\":15538:15957   */\n      swap2\n      swap1\n      pop\n      jump\t// out\n        /* \"#utility.yul\":15963:16104   */\n    tag_196:\n        /* \"#utility.yul\":16012:16016   */\n      0x00\n        /* \"#utility.yul\":16035:16038   */\n      dup2\n        /* \"#utility.yul\":16027:16038   */\n      swap1\n      pop\n        /* \"#utility.yul\":16058:16061   */\n      dup2\n        /* \"#utility.yul\":16055:16056   */\n      0x00\n        /* \"#utility.yul\":16048:16062   */\n      mstore\n        /* \"#utility.yul\":16092:16096   */\n      0x20\n        /* \"#utility.yul\":16089:16090   */\n      0x00\n        /* \"#utility.yul\":16079:16097   */\n      keccak256\n        /* \"#utility.yul\":16071:16097   */\n      swap1\n      pop\n        /* \"#utility.yul\":15963:16104   */\n      swap2\n      swap1\n      pop\n      jump\t// out\n        /* \"#utility.yul\":16110:16203   */\n    tag_197:\n        /* \"#utility.yul\":16147:16153   */\n      0x00\n        /* \"#utility.yul\":16194:16196   */\n      0x20\n        /* \"#utility.yul\":16189:16191   */\n      0x1f\n        /* \"#utility.yul\":16182:16187   */\n      dup4\n        /* \"#utility.yul\":16178:16192   */\n      add\n        /* \"#utility.yul\":16174:16197   */\n      div\n        /* \"#utility.yul\":16164:16197   */\n      swap1\n      pop\n        /* \"#utility.yul\":16110:16203   */\n      swap2\n      swap1\n      pop\n      jump\t// out\n        /* \"#utility.yul\":16209:16316   */\n    tag_198:\n        /* \"#utility.yul\":16253:16261   */\n      0x00\n        /* \"#utility.yul\":16303:16308   */\n      dup3\n        /* \"#utility.yul\":16297:16301   */\n      dup3\n        /* \"#utility.yul\":16293:16309   */\n      shl\n        /* \"#utility.yul\":16272:16309   */\n      swap1\n      pop\n        /* \"#utility.yul\":16209:16316   */\n      swap3\n      swap2\n      pop\n      pop\n      jump\t// out\n        /* \"#utility.yul\":16322:16715   */\n    tag_199:\n        /* \"#utility.yul\":16391:16397   */\n      0x00\n        /* \"#utility.yul\":16441:16442   */\n      0x08\n        /* \"#utility.yul\":16429:16439   */\n      dup4\n        /* \"#utility.yul\":16425:16443   */\n      mul\n        /* \"#utility.yul\":16464:16561   */\n      tag_376\n        /* \"#utility.yul\":16494:16560   */\n      0xffffffffffffffffffffffffffffffffffffffffffffffffffffffffffffffff\n        /* \"#utility.yul\":16483:16492   */\n      dup3\n        /* \"#utility.yul\":16464:16561   */\n      tag_198\n      jump\t// in\n    tag_376:\n        /* \"#utility.yul\":16582:16621   */\n      tag_377\n        /* \"#utility.yul\":16612:16620   */\n      dup7\n        /* \"#utility.yul\":16601:16610   */\n      dup4\n        /* \"#utility.yul\":16582:16621   */\n      tag_198\n      jump\t// in\n    tag_377:\n        /* \"#utility.yul\":16570:16621   */\n      swap6\n      pop\n        /* \"#utility.yul\":16654:16658   */\n      dup1\n        /* \"#utility.yul\":16650:16659   */\n      not\n        /* \"#utility.yul\":16643:16648   */\n      dup5\n        /* \"#utility.yul\":16639:16660   */\n      and\n        /* \"#utility.yul\":16630:16660   */\n      swap4\n      pop\n        /* \"#utility.yul\":16703:16707   */\n      dup1\n        /* \"#utility.yul\":16693:16701   */\n      dup7\n        /* \"#utility.yul\":16689:16708   */\n      and\n        /* \"#utility.yul\":16682:16687   */\n      dup5\n        /* \"#utility.yul\":16679:16709   */\n      or\n        /* \"#utility.yul\":16669:16709   */\n      swap3\n      pop\n        /* \"#utility.yul\":16398:16715   */\n      pop\n      pop\n        /* \"#utility.yul\":16322:16715   */\n      swap4\n      swap3\n      pop\n      pop\n      pop\n      jump\t// out\n        /* \"#utility.yul\":16721:16781   */\n    tag_200:\n        /* \"#utility.yul\":16749:16752   */\n      0x00\n        /* \"#utility.yul\":16770:16775   */\n      dup2\n        /* \"#utility.yul\":16763:16775   */\n      swap1\n      pop\n        /* \"#utility.yul\":16721:16781   */\n      swap2\n      swap1\n      pop\n      jump\t// out\n        /* \"#utility.yul\":16787:16929   */\n    tag_201:\n        /* \"#utility.yul\":16837:16846   */\n      0x00\n        /* \"#utility.yul\":16870:16923   */\n      tag_380\n        /* \"#utility.yul\":16888:16922   */\n      tag_381\n        /* \"#utility.yul\":16897:16921   */\n      tag_382\n        /* \"#utility.yul\":16915:16920   */\n      dup5\n        /* \"#utility.yul\":16897:16921   */\n      tag_157\n      jump\t// in\n    tag_382:\n        /* \"#utility.yul\":16888:16922   */\n      tag_200\n      jump\t// in\n    tag_381:\n        /* \"#utility.yul\":16870:16923   */\n      tag_157\n      jump\t// in\n    tag_380:\n        /* \"#utility.yul\":16857:16923   */\n      swap1\n      pop\n        /* \"#utility.yul\":16787:16929   */\n      swap2\n      swap1\n      pop\n      jump\t// out\n        /* \"#utility.yul\":16935:17010   */\n    tag_202:\n        /* \"#utility.yul\":16978:16981   */\n      0x00\n        /* \"#utility.yul\":16999:17004   */\n      dup2\n        /* \"#utility.yul\":16992:17004   */\n      swap1\n      pop\n        /* \"#utility.yul\":16935:17010   */\n      swap2\n      swap1\n      pop\n      jump\t// out\n        /* \"#utility.yul\":17016:17285   */\n    tag_203:\n        /* \"#utility.yul\":17126:17165   */\n      tag_385\n        /* \"#utility.yul\":17157:17164   */\n      dup4\n        /* \"#utility.yul\":17126:17165   */\n      tag_201\n      jump\t// in\n    tag_385:\n        /* \"#utility.yul\":17187:17278   */\n      tag_386\n        /* \"#utility.yul\":17236:17277   */\n      tag_387\n        /* \"#utility.yul\":17260:17276   */\n      dup3\n        /* \"#utility.yul\":17236:17277   */\n      tag_202\n      jump\t// in\n    tag_387:\n        /* \"#utility.yul\":17228:17234   */\n      dup5\n        /* \"#utility.yul\":17221:17225   */\n      dup5\n        /* \"#utility.yul\":17215:17226   */\n      sload\n        /* \"#utility.yul\":17187:17278   */\n      tag_199\n      jump\t// in\n    tag_386:\n        /* \"#utility.yul\":17181:17185   */\n      dup3\n        /* \"#utility.yul\":17174:17279   */\n      sstore\n        /* \"#utility.yul\":17092:17285   */\n      pop\n        /* \"#utility.yul\":17016:17285   */\n      pop\n      pop\n      pop\n      jump\t// out\n        /* \"#utility.yul\":17291:17364   */\n    tag_204:\n        /* \"#utility.yul\":17336:17339   */\n      0x00\n        /* \"#utility.yul\":17291:17364   */\n      swap1\n      jump\t// out\n        /* \"#utility.yul\":17370:17559   */\n    tag_205:\n        /* \"#utility.yul\":17447:17479   */\n      tag_390\n      tag_204\n      jump\t// in\n    tag_390:\n        /* \"#utility.yul\":17488:17553   */\n      tag_391\n        /* \"#utility.yul\":17546:17552   */\n      dup2\n        /* \"#utility.yul\":17538:17544   */\n      dup5\n        /* \"#utility.yul\":17532:17536   */\n      dup5\n        /* \"#utility.yul\":17488:17553   */\n      tag_203\n      jump\t// in\n    tag_391:\n        /* \"#utility.yul\":17423:17559   */\n      pop\n        /* \"#utility.yul\":17370:17559   */\n      pop\n      pop\n      jump\t// out\n        /* \"#utility.yul\":17565:17751   */\n    tag_206:\n        /* \"#utility.yul\":17625:17745   */\n    tag_393:\n        /* \"#utility.yul\":17642:17645   */\n      dup2\n        /* \"#utility.yul\":17635:17640   */\n      dup2\n        /* \"#utility.yul\":17632:17646   */\n      lt\n        /* \"#utility.yul\":17625:17745   */\n      iszero\n      tag_395\n      jumpi\n        /* \"#utility.yul\":17696:17735   */\n      tag_396\n        /* \"#utility.yul\":17733:17734   */\n      0x00\n        /* \"#utility.yul\":17726:17731   */\n      dup3\n        /* \"#utility.yul\":17696:17735   */\n      tag_205\n      jump\t// in\n    tag_396:\n        /* \"#utility.yul\":17669:17670   */\n      0x01\n        /* \"#utility.yul\":17662:17667   */\n      dup2\n        /* \"#utility.yul\":17658:17671   */\n      add\n        /* \"#utility.yul\":17649:17671   */\n      swap1\n      pop\n        /* \"#utility.yul\":17625:17745   */\n      jump(tag_393)\n    tag_395:\n        /* \"#utility.yul\":17565:17751   */\n      pop\n      pop\n      jump\t// out\n        /* \"#utility.yul\":17757:18300   */\n    tag_207:\n        /* \"#utility.yul\":17858:17860   */\n      0x1f\n        /* \"#utility.yul\":17853:17856   */\n      dup3\n        /* \"#utility.yul\":17850:17861   */\n      gt\n        /* \"#utility.yul\":17847:18293   */\n      iszero\n      tag_398\n      jumpi\n        /* \"#utility.yul\":17892:17930   */\n      tag_399\n        /* \"#utility.yul\":17924:17929   */\n      dup2\n        /* \"#utility.yul\":17892:17930   */\n      tag_196\n      jump\t// in\n    tag_399:\n        /* \"#utility.yul\":17976:18005   */\n      tag_400\n        /* \"#utility.yul\":17994:18004   */\n      dup5\n        /* \"#utility.yul\":17976:18005   */\n      tag_197\n      jump\t// in\n    tag_400:\n        /* \"#utility.yul\":17966:17974   */\n      dup2\n        /* \"#utility.yul\":17962:18006   */\n      add\n        /* \"#utility.yul\":18159:18161   */\n      0x20\n        /* \"#utility.yul\":18147:18157   */\n      dup6\n        /* \"#utility.yul\":18144:18162   */\n      lt\n        /* \"#utility.yul\":18141:18190   */\n      iszero\n      tag_401\n      jumpi\n        /* \"#utility.yul\":18180:18188   */\n      dup2\n        /* \"#utility.yul\":18165:18188   */\n      swap1\n      pop\n        /* \"#utility.yul\":18141:18190   */\n    tag_401:\n        /* \"#utility.yul\":18203:18283   */\n      tag_402\n        /* \"#utility.yul\":18259:18281   */\n      tag_403\n        /* \"#utility.yul\":18277:18280   */\n      dup6\n        /* \"#utility.yul\":18259:18281   */\n      tag_197\n      jump\t// in\n    tag_403:\n        /* \"#utility.yul\":18249:18257   */\n      dup4\n        /* \"#utility.yul\":18245:18282   */\n      add\n        /* \"#utility.yul\":18232:18243   */\n      dup3\n        /* \"#utility.yul\":18203:18283   */\n      tag_206\n      jump\t// in\n    tag_402:\n        /* \"#utility.yul\":17862:18293   */\n      pop\n      pop\n        /* \"#utility.yul\":17847:18293   */\n    tag_398:\n        /* \"#utility.yul\":17757:18300   */\n      pop\n      pop\n      pop\n      jump\t// out\n        /* \"#utility.yul\":18306:18423   */\n    tag_208:\n        /* \"#utility.yul\":18360:18368   */\n      0x00\n        /* \"#utility.yul\":18410:18415   */\n      dup3\n        /* \"#utility.yul\":18404:18408   */\n      dup3\n        /* \"#utility.yul\":18400:18416   */\n      shr\n        /* \"#utility.yul\":18379:18416   */\n      swap1\n      pop\n        /* \"#utility.yul\":18306:18423   */\n      swap3\n      swap2\n      pop\n      pop\n      jump\t// out\n        /* \"#utility.yul\":18429:18598   */\n    tag_209:\n        /* \"#utility.yul\":18473:18479   */\n      0x00\n        /* \"#utility.yul\":18506:18557   */\n      tag_406\n        /* \"#utility.yul\":18554:18555   */\n      0x00\n        /* \"#utility.yul\":18550:18556   */\n      not\n        /* \"#utility.yul\":18542:18547   */\n      dup5\n        /* \"#utility.yul\":18539:18540   */\n      0x08\n        /* \"#utility.yul\":18535:18548   */\n      mul\n        /* \"#utility.yul\":18506:18557   */\n      tag_208\n      jump\t// in\n    tag_406:\n        /* \"#utility.yul\":18502:18558   */\n      not\n        /* \"#utility.yul\":18587:18591   */\n      dup1\n        /* \"#utility.yul\":18581:18585   */\n      dup4\n        /* \"#utility.yul\":18577:18592   */\n      and\n        /* \"#utility.yul\":18567:18592   */\n      swap2\n      pop\n        /* \"#utility.yul\":18480:18598   */\n      pop\n        /* \"#utility.yul\":18429:18598   */\n      swap3\n      swap2\n      pop\n      pop\n      jump\t// out\n        /* \"#utility.yul\":18603:18898   */\n    tag_210:\n        /* \"#utility.yul\":18679:18683   */\n      0x00\n        /* \"#utility.yul\":18825:18854   */\n      tag_408\n        /* \"#utility.yul\":18850:18853   */\n      dup4\n        /* \"#utility.yul\":18844:18848   */\n      dup4\n        /* \"#utility.yul\":18825:18854   */\n      tag_209\n      jump\t// in\n    tag_408:\n        /* \"#utility.yul\":18817:18854   */\n      swap2\n      pop\n        /* \"#utility.yul\":18887:18890   */\n      dup3\n        /* \"#utility.yul\":18884:18885   */\n      0x02\n        /* \"#utility.yul\":18880:18891   */\n      mul\n        /* \"#utility.yul\":18874:18878   */\n      dup3\n        /* \"#utility.yul\":18871:18892   */\n      or\n        /* \"#utility.yul\":18863:18892   */\n      swap1\n      pop\n        /* \"#utility.yul\":18603:18898   */\n      swap3\n      swap2\n      pop\n      pop\n      jump\t// out\n        /* \"#utility.yul\":18903:20298   */\n    tag_73:\n        /* \"#utility.yul\":19020:19057   */\n      tag_410\n        /* \"#utility.yul\":19053:19056   */\n      dup3\n        /* \"#utility.yul\":19020:19057   */\n      tag_162\n      jump\t// in\n    tag_410:\n        /* \"#utility.yul\":19122:19140   */\n      0xffffffffffffffff\n        /* \"#utility.yul\":19114:19120   */\n      dup2\n        /* \"#utility.yul\":19111:19141   */\n      gt\n        /* \"#utility.yul\":19108:19164   */\n      iszero\n      tag_411\n      jumpi\n        /* \"#utility.yul\":19144:19162   */\n      tag_412\n      tag_169\n      jump\t// in\n    tag_412:\n        /* \"#utility.yul\":19108:19164   */\n    tag_411:\n        /* \"#utility.yul\":19188:19226   */\n      tag_413\n        /* \"#utility.yul\":19220:19224   */\n      dup3\n        /* \"#utility.yul\":19214:19225   */\n      sload\n        /* \"#utility.yul\":19188:19226   */\n      tag_62\n      jump\t// in\n    tag_413:\n        /* \"#utility.yul\":19273:19340   */\n      tag_414\n        /* \"#utility.yul\":19333:19339   */\n      dup3\n        /* \"#utility.yul\":19325:19331   */\n      dup3\n        /* \"#utility.yul\":19319:19323   */\n      dup6\n        /* \"#utility.yul\":19273:19340   */\n      tag_207\n      jump\t// in\n    tag_414:\n        /* \"#utility.yul\":19367:19368   */\n      0x00\n        /* \"#utility.yul\":19391:19395   */\n      0x20\n        /* \"#utility.yul\":19378:19395   */\n      swap1\n      pop\n        /* \"#utility.yul\":19423:19425   */\n      0x1f\n        /* \"#utility.yul\":19415:19421   */\n      dup4\n        /* \"#utility.yul\":19412:19426   */\n      gt\n        /* \"#utility.yul\":19440:19441   */\n      0x01\n        /* \"#utility.yul\":19435:20053   */\n      dup2\n      eq\n      tag_416\n      jumpi\n        /* \"#utility.yul\":20097:20098   */\n      0x00\n        /* \"#utility.yul\":20114:20120   */\n      dup5\n        /* \"#utility.yul\":20111:20188   */\n      iszero\n      tag_417\n      jumpi\n        /* \"#utility.yul\":20163:20172   */\n      dup3\n        /* \"#utility.yul\":20158:20161   */\n      dup8\n        /* \"#utility.yul\":20154:20173   */\n      add\n        /* \"#utility.yul\":20148:20174   */\n      mload\n        /* \"#utility.yul\":20139:20174   */\n      swap1\n      pop\n        /* \"#utility.yul\":20111:20188   */\n    tag_417:\n        /* \"#utility.yul\":20214:20281   */\n      tag_418\n        /* \"#utility.yul\":20274:20280   */\n      dup6\n        /* \"#utility.yul\":20267:20272   */\n      dup3\n        /* \"#utility.yul\":20214:20281   */\n      tag_210\n      jump\t// in\n    tag_418:\n        /* \"#utility.yul\":20208:20212   */\n      dup7\n        /* \"#utility.yul\":20201:20282   */\n      sstore\n        /* \"#utility.yul\":20070:20292   */\n      pop\n        /* \"#utility.yul\":19405:20292   */\n      jump(tag_415)\n        /* \"#utility.yul\":19435:20053   */\n    tag_416:\n        /* \"#utility.yul\":19487:19491   */\n      0x1f\n        /* \"#utility.yul\":19483:19492   */\n      not\n        /* \"#utility.yul\":19475:19481   */\n      dup5\n        /* \"#utility.yul\":19471:19493   */\n      and\n        /* \"#utility.yul\":19521:19558   */\n      tag_419\n        /* \"#utility.yul\":19553:19557   */\n      dup7\n        /* \"#utility.yul\":19521:19558   */\n      tag_196\n      jump\t// in\n    tag_419:\n        /* \"#utility.yul\":19580:19581   */\n      0x00\n        /* \"#utility.yul\":19594:19802   */\n    tag_420:\n        /* \"#utility.yul\":19608:19615   */\n      dup3\n        /* \"#utility.yul\":19605:19606   */\n      dup2\n        /* \"#utility.yul\":19602:19616   */\n      lt\n        /* \"#utility.yul\":19594:19802   */\n      iszero\n      tag_422\n      jumpi\n        /* \"#utility.yul\":19687:19696   */\n      dup5\n        /* \"#utility.yul\":19682:19685   */\n      dup10\n        /* \"#utility.yul\":19678:19697   */\n      add\n        /* \"#utility.yul\":19672:19698   */\n      mload\n        /* \"#utility.yul\":19664:19670   */\n      dup3\n        /* \"#utility.yul\":19657:19699   */\n      sstore\n        /* \"#utility.yul\":19738:19739   */\n      0x01\n        /* \"#utility.yul\":19730:19736   */\n      dup3\n        /* \"#utility.yul\":19726:19740   */\n      add\n        /* \"#utility.yul\":19716:19740   */\n      swap2\n      pop\n        /* \"#utility.yul\":19785:19787   */\n      0x20\n        /* \"#utility.yul\":19774:19783   */\n      dup6\n        /* \"#utility.yul\":19770:19788   */\n      add\n        /* \"#utility.yul\":19757:19788   */\n      swap5\n      pop\n        /* \"#utility.yul\":19631:19635   */\n      0x20\n        /* \"#utility.yul\":19628:19629   */\n      dup2\n        /* \"#utility.yul\":19624:19636   */\n      add\n        /* \"#utility.yul\":19619:19636   */\n      swap1\n      pop\n        /* \"#utility.yul\":19594:19802   */\n      jump(tag_420)\n    tag_422:\n        /* \"#utility.yul\":19830:19836   */\n      dup7\n        /* \"#utility.yul\":19821:19828   */\n      dup4\n        /* \"#utility.yul\":19818:19837   */\n      lt\n        /* \"#utility.yul\":19815:19994   */\n      iszero\n      tag_423\n      jumpi\n        /* \"#utility.yul\":19888:19897   */\n      dup5\n        /* \"#utility.yul\":19883:19886   */\n      dup10\n        /* \"#utility.yul\":19879:19898   */\n      add\n        /* \"#utility.yul\":19873:19899   */\n      mload\n        /* \"#utility.yul\":19931:19979   */\n      tag_424\n        /* \"#utility.yul\":19973:19977   */\n      0x1f\n        /* \"#utility.yul\":19965:19971   */\n      dup10\n        /* \"#utility.yul\":19961:19978   */\n      and\n        /* \"#utility.yul\":19950:19959   */\n      dup3\n        /* \"#utility.yul\":19931:19979   */\n      tag_209\n      jump\t// in\n    tag_424:\n        /* \"#utility.yul\":19923:19929   */\n      dup4\n        /* \"#utility.yul\":19916:19980   */\n      sstore\n        /* \"#utility.yul\":19838:19994   */\n      pop\n        /* \"#utility.yul\":19815:19994   */\n    tag_423:\n        /* \"#utility.yul\":20040:20041   */\n      0x01\n        /* \"#utility.yul\":20036:20037   */\n      0x02\n        /* \"#utility.yul\":20028:20034   */\n      dup9\n        /* \"#utility.yul\":20024:20038   */\n      mul\n        /* \"#utility.yul\":20020:20042   */\n      add\n        /* \"#utility.yul\":20014:20018   */\n      dup9\n        /* \"#utility.yul\":20007:20043   */\n      sstore\n        /* \"#utility.yul\":19442:20053   */\n      pop\n      pop\n      pop\n        /* \"#utility.yul\":19405:20292   */\n    tag_415:\n      pop\n        /* \"#utility.yul\":18995:20298   */\n      pop\n      pop\n      pop\n        /* \"#utility.yul\":18903:20298   */\n      pop\n      pop\n      jump\t// out\n        /* \"#utility.yul\":20304:20948   */\n    tag_75:\n        /* \"#utility.yul\":20501:20505   */\n      0x00\n        /* \"#utility.yul\":20539:20542   */\n      0x80\n        /* \"#utility.yul\":20528:20537   */\n      dup3\n        /* \"#utility.yul\":20524:20543   */\n      add\n        /* \"#utility.yul\":20516:20543   */\n      swap1\n      pop\n        /* \"#utility.yul\":20553:20624   */\n      tag_426\n        /* \"#utility.yul\":20621:20622   */\n      0x00\n        /* \"#utility.yul\":20610:20619   */\n      dup4\n        /* \"#utility.yul\":20606:20623   */\n      add\n        /* \"#utility.yul\":20597:20603   */\n      dup8\n        /* \"#utility.yul\":20553:20624   */\n      tag_160\n      jump\t// in\n    tag_426:\n        /* \"#utility.yul\":20634:20706   */\n      tag_427\n        /* \"#utility.yul\":20702:20704   */\n      0x20\n        /* \"#utility.yul\":20691:20700   */\n      dup4\n        /* \"#utility.yul\":20687:20705   */\n      add\n        /* \"#utility.yul\":20678:20684   */\n      dup7\n        /* \"#utility.yul\":20634:20706   */\n      tag_161\n      jump\t// in\n    tag_427:\n        /* \"#utility.yul\":20753:20762   */\n      dup2\n        /* \"#utility.yul\":20747:20751   */\n      dup2\n        /* \"#utility.yul\":20743:20763   */\n      sub\n        /* \"#utility.yul\":20738:20740   */\n      0x40\n        /* \"#utility.yul\":20727:20736   */\n      dup4\n        /* \"#utility.yul\":20723:20741   */\n      add\n        /* \"#utility.yul\":20716:20764   */\n      mstore\n        /* \"#utility.yul\":20781:20859   */\n      tag_428\n        /* \"#utility.yul\":20854:20858   */\n      dup2\n        /* \"#utility.yul\":20845:20851   */\n      dup6\n        /* \"#utility.yul\":20781:20859   */\n      tag_166\n      jump\t// in\n    tag_428:\n        /* \"#utility.yul\":20773:20859   */\n      swap1\n      pop\n        /* \"#utility.yul\":20869:20941   */\n      tag_429\n        /* \"#utility.yul\":20937:20939   */\n      0x60\n        /* \"#utility.yul\":20926:20935   */\n      dup4\n        /* \"#utility.yul\":20922:20940   */\n      add\n        /* \"#utility.yul\":20913:20919   */\n      dup5\n        /* \"#utility.yul\":20869:20941   */\n      tag_160\n      jump\t// in\n    tag_429:\n        /* \"#utility.yul\":20304:20948   */\n      swap6\n      swap5\n      pop\n      pop\n      pop\n      pop\n      pop\n      jump\t// out\n        /* \"#utility.yul\":20954:21134   */\n    tag_88:\n        /* \"#utility.yul\":21002:21079   */\n      0x4e487b7100000000000000000000000000000000000000000000000000000000\n        /* \"#utility.yul\":20999:21000   */\n      0x00\n        /* \"#utility.yul\":20992:21080   */\n      mstore\n        /* \"#utility.yul\":21099:21103   */\n      0x32\n        /* \"#utility.yul\":21096:21097   */\n      0x04\n        /* \"#utility.yul\":21089:21104   */\n      mstore\n        /* \"#utility.yul\":21123:21127   */\n      0x24\n        /* \"#utility.yul\":21120:21121   */\n      0x00\n        /* \"#utility.yul\":21113:21128   */\n      revert\n        /* \"#utility.yul\":21140:21364   */\n    tag_211:\n        /* \"#utility.yul\":21280:21314   */\n      0x5468657265206973206e6f207477656574732065786973742077697468207468\n        /* \"#utility.yul\":21276:21277   */\n      0x00\n        /* \"#utility.yul\":21268:21274   */\n      dup3\n        /* \"#utility.yul\":21264:21278   */\n      add\n        /* \"#utility.yul\":21257:21315   */\n      mstore\n        /* \"#utility.yul\":21349:21356   */\n      0x6973206964000000000000000000000000000000000000000000000000000000\n        /* \"#utility.yul\":21344:21346   */\n      0x20\n        /* \"#utility.yul\":21336:21342   */\n      dup3\n        /* \"#utility.yul\":21332:21347   */\n      add\n        /* \"#utility.yul\":21325:21357   */\n      mstore\n        /* \"#utility.yul\":21140:21364   */\n      pop\n      jump\t// out\n        /* \"#utility.yul\":21370:21736   */\n    tag_212:\n        /* \"#utility.yul\":21512:21515   */\n      0x00\n        /* \"#utility.yul\":21533:21600   */\n      tag_433\n        /* \"#utility.yul\":21597:21599   */\n      0x25\n        /* \"#utility.yul\":21592:21595   */\n      dup4\n        /* \"#utility.yul\":21533:21600   */\n      tag_163\n      jump\t// in\n    tag_433:\n        /* \"#utility.yul\":21526:21600   */\n      swap2\n      pop\n        /* \"#utility.yul\":21609:21702   */\n      tag_434\n        /* \"#utility.yul\":21698:21701   */\n      dup3\n        /* \"#utility.yul\":21609:21702   */\n      tag_211\n      jump\t// in\n    tag_434:\n        /* \"#utility.yul\":21727:21729   */\n      0x40\n        /* \"#utility.yul\":21722:21725   */\n      dup3\n        /* \"#utility.yul\":21718:21730   */\n      add\n        /* \"#utility.yul\":21711:21730   */\n      swap1\n      pop\n        /* \"#utility.yul\":21370:21736   */\n      swap2\n      swap1\n      pop\n      jump\t// out\n        /* \"#utility.yul\":21742:22161   */\n    tag_92:\n        /* \"#utility.yul\":21908:21912   */\n      0x00\n        /* \"#utility.yul\":21946:21948   */\n      0x20\n        /* \"#utility.yul\":21935:21944   */\n      dup3\n        /* \"#utility.yul\":21931:21949   */\n      add\n        /* \"#utility.yul\":21923:21949   */\n      swap1\n      pop\n        /* \"#utility.yul\":21995:22004   */\n      dup2\n        /* \"#utility.yul\":21989:21993   */\n      dup2\n        /* \"#utility.yul\":21985:22005   */\n      sub\n        /* \"#utility.yul\":21981:21982   */\n      0x00\n        /* \"#utility.yul\":21970:21979   */\n      dup4\n        /* \"#utility.yul\":21966:21983   */\n      add\n        /* \"#utility.yul\":21959:22006   */\n      mstore\n        /* \"#utility.yul\":22023:22154   */\n      tag_436\n        /* \"#utility.yul\":22149:22153   */\n      dup2\n        /* \"#utility.yul\":22023:22154   */\n      tag_212\n      jump\t// in\n    tag_436:\n        /* \"#utility.yul\":22015:22154   */\n      swap1\n      pop\n        /* \"#utility.yul\":21742:22161   */\n      swap2\n      swap1\n      pop\n      jump\t// out\n        /* \"#utility.yul\":22167:22339   */\n    tag_213:\n        /* \"#utility.yul\":22307:22331   */\n      0x5468697320706f737420686173206e6f206c696b657300000000000000000000\n        /* \"#utility.yul\":22303:22304   */\n      0x00\n        /* \"#utility.yul\":22295:22301   */\n      dup3\n        /* \"#utility.yul\":22291:22305   */\n      add\n        /* \"#utility.yul\":22284:22332   */\n      mstore\n        /* \"#utility.yul\":22167:22339   */\n      pop\n      jump\t// out\n        /* \"#utility.yul\":22345:22711   */\n    tag_214:\n        /* \"#utility.yul\":22487:22490   */\n      0x00\n        /* \"#utility.yul\":22508:22575   */\n      tag_439\n        /* \"#utility.yul\":22572:22574   */\n      0x16\n        /* \"#utility.yul\":22567:22570   */\n      dup4\n        /* \"#utility.yul\":22508:22575   */\n      tag_163\n      jump\t// in\n    tag_439:\n        /* \"#utility.yul\":22501:22575   */\n      swap2\n      pop\n        /* \"#utility.yul\":22584:22677   */\n      tag_440\n        /* \"#utility.yul\":22673:22676   */\n      dup3\n        /* \"#utility.yul\":22584:22677   */\n      tag_213\n      jump\t// in\n    tag_440:\n        /* \"#utility.yul\":22702:22704   */\n      0x20\n        /* \"#utility.yul\":22697:22700   */\n      dup3\n        /* \"#utility.yul\":22693:22705   */\n      add\n        /* \"#utility.yul\":22686:22705   */\n      swap1\n      pop\n        /* \"#utility.yul\":22345:22711   */\n      swap2\n      swap1\n      pop\n      jump\t// out\n        /* \"#utility.yul\":22717:23136   */\n    tag_98:\n        /* \"#utility.yul\":22883:22887   */\n      0x00\n        /* \"#utility.yul\":22921:22923   */\n      0x20\n        /* \"#utility.yul\":22910:22919   */\n      dup3\n        /* \"#utility.yul\":22906:22924   */\n      add\n        /* \"#utility.yul\":22898:22924   */\n      swap1\n      pop\n        /* \"#utility.yul\":22970:22979   */\n      dup2\n        /* \"#utility.yul\":22964:22968   */\n      dup2\n        /* \"#utility.yul\":22960:22980   */\n      sub\n        /* \"#utility.yul\":22956:22957   */\n      0x00\n        /* \"#utility.yul\":22945:22954   */\n      dup4\n        /* \"#utility.yul\":22941:22958   */\n      add\n        /* \"#utility.yul\":22934:22981   */\n      mstore\n        /* \"#utility.yul\":22998:23129   */\n      tag_442\n        /* \"#utility.yul\":23124:23128   */\n      dup2\n        /* \"#utility.yul\":22998:23129   */\n      tag_214\n      jump\t// in\n    tag_442:\n        /* \"#utility.yul\":22990:23129   */\n      swap1\n      pop\n        /* \"#utility.yul\":22717:23136   */\n      swap2\n      swap1\n      pop\n      jump\t// out\n        /* \"#utility.yul\":23142:23322   */\n    tag_215:\n        /* \"#utility.yul\":23190:23267   */\n      0x4e487b7100000000000000000000000000000000000000000000000000000000\n        /* \"#utility.yul\":23187:23188   */\n      0x00\n        /* \"#utility.yul\":23180:23268   */\n      mstore\n        /* \"#utility.yul\":23287:23291   */\n      0x11\n        /* \"#utility.yul\":23284:23285   */\n      0x04\n        /* \"#utility.yul\":23277:23292   */\n      mstore\n        /* \"#utility.yul\":23311:23315   */\n      0x24\n        /* \"#utility.yul\":23308:23309   */\n      0x00\n        /* \"#utility.yul\":23301:23316   */\n      revert\n        /* \"#utility.yul\":23328:23499   */\n    tag_103:\n        /* \"#utility.yul\":23367:23370   */\n      0x00\n        /* \"#utility.yul\":23390:23414   */\n      tag_445\n        /* \"#utility.yul\":23408:23413   */\n      dup3\n        /* \"#utility.yul\":23390:23414   */\n      tag_157\n      jump\t// in\n    tag_445:\n        /* \"#utility.yul\":23381:23414   */\n      swap2\n      pop\n        /* \"#utility.yul\":23436:23440   */\n      0x00\n        /* \"#utility.yul\":23429:23434   */\n      dup3\n        /* \"#utility.yul\":23426:23441   */\n      sub\n        /* \"#utility.yul\":23423:23464   */\n      tag_446\n      jumpi\n        /* \"#utility.yul\":23444:23462   */\n      tag_447\n      tag_215\n      jump\t// in\n    tag_447:\n        /* \"#utility.yul\":23423:23464   */\n    tag_446:\n        /* \"#utility.yul\":23491:23492   */\n      0x01\n        /* \"#utility.yul\":23484:23489   */\n      dup3\n        /* \"#utility.yul\":23480:23493   */\n      sub\n        /* \"#utility.yul\":23473:23493   */\n      swap1\n      pop\n        /* \"#utility.yul\":23328:23499   */\n      swap2\n      swap1\n      pop\n      jump\t// out\n        /* \"#utility.yul\":23505:24058   */\n    tag_108:\n        /* \"#utility.yul\":23682:23686   */\n      0x00\n        /* \"#utility.yul\":23720:23723   */\n      0x80\n        /* \"#utility.yul\":23709:23718   */\n      dup3\n        /* \"#utility.yul\":23705:23724   */\n      add\n        /* \"#utility.yul\":23697:23724   */\n      swap1\n      pop\n        /* \"#utility.yul\":23734:23805   */\n      tag_449\n        /* \"#utility.yul\":23802:23803   */\n      0x00\n        /* \"#utility.yul\":23791:23800   */\n      dup4\n        /* \"#utility.yul\":23787:23804   */\n      add\n        /* \"#utility.yul\":23778:23784   */\n      dup8\n        /* \"#utility.yul\":23734:23805   */\n      tag_161\n      jump\t// in\n    tag_449:\n        /* \"#utility.yul\":23815:23887   */\n      tag_450\n        /* \"#utility.yul\":23883:23885   */\n      0x20\n        /* \"#utility.yul\":23872:23881   */\n      dup4\n        /* \"#utility.yul\":23868:23886   */\n      add\n        /* \"#utility.yul\":23859:23865   */\n      dup7\n        /* \"#utility.yul\":23815:23887   */\n      tag_161\n      jump\t// in\n    tag_450:\n        /* \"#utility.yul\":23897:23969   */\n      tag_451\n        /* \"#utility.yul\":23965:23967   */\n      0x40\n        /* \"#utility.yul\":23954:23963   */\n      dup4\n        /* \"#utility.yul\":23950:23968   */\n      add\n        /* \"#utility.yul\":23941:23947   */\n      dup6\n        /* \"#utility.yul\":23897:23969   */\n      tag_160\n      jump\t// in\n    tag_451:\n        /* \"#utility.yul\":23979:24051   */\n      tag_452\n        /* \"#utility.yul\":24047:24049   */\n      0x60\n        /* \"#utility.yul\":24036:24045   */\n      dup4\n        /* \"#utility.yul\":24032:24050   */\n      add\n        /* \"#utility.yul\":24023:24029   */\n      dup5\n        /* \"#utility.yul\":23979:24051   */\n      tag_160\n      jump\t// in\n    tag_452:\n        /* \"#utility.yul\":23505:24058   */\n      swap6\n      swap5\n      pop\n      pop\n      pop\n      pop\n      pop\n      jump\t// out\n        /* \"#utility.yul\":24064:24235   */\n    tag_216:\n        /* \"#utility.yul\":24204:24227   */\n      0x596f7520617265206e6f7420746865206f776e65720000000000000000000000\n        /* \"#utility.yul\":24200:24201   */\n      0x00\n        /* \"#utility.yul\":24192:24198   */\n      dup3\n        /* \"#utility.yul\":24188:24202   */\n      add\n        /* \"#utility.yul\":24181:24228   */\n      mstore\n        /* \"#utility.yul\":24064:24235   */\n      pop\n      jump\t// out\n        /* \"#utility.yul\":24241:24607   */\n    tag_217:\n        /* \"#utility.yul\":24383:24386   */\n      0x00\n        /* \"#utility.yul\":24404:24471   */\n      tag_455\n        /* \"#utility.yul\":24468:24470   */\n      0x15\n        /* \"#utility.yul\":24463:24466   */\n      dup4\n        /* \"#utility.yul\":24404:24471   */\n      tag_163\n      jump\t// in\n    tag_455:\n        /* \"#utility.yul\":24397:24471   */\n      swap2\n      pop\n        /* \"#utility.yul\":24480:24573   */\n      tag_456\n        /* \"#utility.yul\":24569:24572   */\n      dup3\n        /* \"#utility.yul\":24480:24573   */\n      tag_216\n      jump\t// in\n    tag_456:\n        /* \"#utility.yul\":24598:24600   */\n      0x20\n        /* \"#utility.yul\":24593:24596   */\n      dup3\n        /* \"#utility.yul\":24589:24601   */\n      add\n        /* \"#utility.yul\":24582:24601   */\n      swap1\n      pop\n        /* \"#utility.yul\":24241:24607   */\n      swap2\n      swap1\n      pop\n      jump\t// out\n        /* \"#utility.yul\":24613:25032   */\n    tag_112:\n        /* \"#utility.yul\":24779:24783   */\n      0x00\n        /* \"#utility.yul\":24817:24819   */\n      0x20\n        /* \"#utility.yul\":24806:24815   */\n      dup3\n        /* \"#utility.yul\":24802:24820   */\n      add\n        /* \"#utility.yul\":24794:24820   */\n      swap1\n      pop\n        /* \"#utility.yul\":24866:24875   */\n      dup2\n        /* \"#utility.yul\":24860:24864   */\n      dup2\n        /* \"#utility.yul\":24856:24876   */\n      sub\n        /* \"#utility.yul\":24852:24853   */\n      0x00\n        /* \"#utility.yul\":24841:24850   */\n      dup4\n        /* \"#utility.yul\":24837:24854   */\n      add\n        /* \"#utility.yul\":24830:24877   */\n      mstore\n        /* \"#utility.yul\":24894:25025   */\n      tag_458\n        /* \"#utility.yul\":25020:25024   */\n      dup2\n        /* \"#utility.yul\":24894:25025   */\n      tag_217\n      jump\t// in\n    tag_458:\n        /* \"#utility.yul\":24886:25025   */\n      swap1\n      pop\n        /* \"#utility.yul\":24613:25032   */\n      swap2\n      swap1\n      pop\n      jump\t// out\n        /* \"#utility.yul\":25038:25261   */\n    tag_218:\n        /* \"#utility.yul\":25178:25212   */\n      0x5468657265206973206e6f207477656574206578697374207769746820746869\n        /* \"#utility.yul\":25174:25175   */\n      0x00\n        /* \"#utility.yul\":25166:25172   */\n      dup3\n        /* \"#utility.yul\":25162:25176   */\n      add\n        /* \"#utility.yul\":25155:25213   */\n      mstore\n        /* \"#utility.yul\":25247:25253   */\n      0x7320696400000000000000000000000000000000000000000000000000000000\n        /* \"#utility.yul\":25242:25244   */\n      0x20\n        /* \"#utility.yul\":25234:25240   */\n      dup3\n        /* \"#utility.yul\":25230:25245   */\n      add\n        /* \"#utility.yul\":25223:25254   */\n      mstore\n        /* \"#utility.yul\":25038:25261   */\n      pop\n      jump\t// out\n        /* \"#utility.yul\":25267:25633   */\n    tag_219:\n        /* \"#utility.yul\":25409:25412   */\n      0x00\n        /* \"#utility.yul\":25430:25497   */\n      tag_461\n        /* \"#utility.yul\":25494:25496   */\n      0x24\n        /* \"#utility.yul\":25489:25492   */\n      dup4\n        /* \"#utility.yul\":25430:25497   */\n      tag_163\n      jump\t// in\n    tag_461:\n        /* \"#utility.yul\":25423:25497   */\n      swap2\n      pop\n        /* \"#utility.yul\":25506:25599   */\n      tag_462\n        /* \"#utility.yul\":25595:25598   */\n      dup3\n        /* \"#utility.yul\":25506:25599   */\n      tag_218\n      jump\t// in\n    tag_462:\n        /* \"#utility.yul\":25624:25626   */\n      0x40\n        /* \"#utility.yul\":25619:25622   */\n      dup3\n        /* \"#utility.yul\":25615:25627   */\n      add\n        /* \"#utility.yul\":25608:25627   */\n      swap1\n      pop\n        /* \"#utility.yul\":25267:25633   */\n      swap2\n      swap1\n      pop\n      jump\t// out\n        /* \"#utility.yul\":25639:26058   */\n    tag_120:\n        /* \"#utility.yul\":25805:25809   */\n      0x00\n        /* \"#utility.yul\":25843:25845   */\n      0x20\n        /* \"#utility.yul\":25832:25841   */\n      dup3\n        /* \"#utility.yul\":25828:25846   */\n      add\n        /* \"#utility.yul\":25820:25846   */\n      swap1\n      pop\n        /* \"#utility.yul\":25892:25901   */\n      dup2\n        /* \"#utility.yul\":25886:25890   */\n      dup2\n        /* \"#utility.yul\":25882:25902   */\n      sub\n        /* \"#utility.yul\":25878:25879   */\n      0x00\n        /* \"#utility.yul\":25867:25876   */\n      dup4\n        /* \"#utility.yul\":25863:25880   */\n      add\n        /* \"#utility.yul\":25856:25903   */\n      mstore\n        /* \"#utility.yul\":25920:26051   */\n      tag_464\n        /* \"#utility.yul\":26046:26050   */\n      dup2\n        /* \"#utility.yul\":25920:26051   */\n      tag_219\n      jump\t// in\n    tag_464:\n        /* \"#utility.yul\":25912:26051   */\n      swap1\n      pop\n        /* \"#utility.yul\":25639:26058   */\n      swap2\n      swap1\n      pop\n      jump\t// out\n        /* \"#utility.yul\":26064:26297   */\n    tag_125:\n        /* \"#utility.yul\":26103:26106   */\n      0x00\n        /* \"#utility.yul\":26126:26150   */\n      tag_466\n        /* \"#utility.yul\":26144:26149   */\n      dup3\n        /* \"#utility.yul\":26126:26150   */\n      tag_157\n      jump\t// in\n    tag_466:\n        /* \"#utility.yul\":26117:26150   */\n      swap2\n      pop\n        /* \"#utility.yul\":26172:26238   */\n      0xffffffffffffffffffffffffffffffffffffffffffffffffffffffffffffffff\n        /* \"#utility.yul\":26165:26170   */\n      dup3\n        /* \"#utility.yul\":26162:26239   */\n      sub\n        /* \"#utility.yul\":26159:26262   */\n      tag_467\n      jumpi\n        /* \"#utility.yul\":26242:26260   */\n      tag_468\n      tag_215\n      jump\t// in\n    tag_468:\n        /* \"#utility.yul\":26159:26262   */\n    tag_467:\n        /* \"#utility.yul\":26289:26290   */\n      0x01\n        /* \"#utility.yul\":26282:26287   */\n      dup3\n        /* \"#utility.yul\":26278:26291   */\n      add\n        /* \"#utility.yul\":26271:26291   */\n      swap1\n      pop\n        /* \"#utility.yul\":26064:26297   */\n      swap2\n      swap1\n      pop\n      jump\t// out\n        /* \"#utility.yul\":26303:26494   */\n    tag_149:\n        /* \"#utility.yul\":26343:26346   */\n      0x00\n        /* \"#utility.yul\":26362:26382   */\n      tag_470\n        /* \"#utility.yul\":26380:26381   */\n      dup3\n        /* \"#utility.yul\":26362:26382   */\n      tag_157\n      jump\t// in\n    tag_470:\n        /* \"#utility.yul\":26357:26382   */\n      swap2\n      pop\n        /* \"#utility.yul\":26396:26416   */\n      tag_471\n        /* \"#utility.yul\":26414:26415   */\n      dup4\n        /* \"#utility.yul\":26396:26416   */\n      tag_157\n      jump\t// in\n    tag_471:\n        /* \"#utility.yul\":26391:26416   */\n      swap3\n      pop\n        /* \"#utility.yul\":26439:26440   */\n      dup3\n        /* \"#utility.yul\":26436:26437   */\n      dup3\n        /* \"#utility.yul\":26432:26441   */\n      add\n        /* \"#utility.yul\":26425:26441   */\n      swap1\n      pop\n        /* \"#utility.yul\":26460:26463   */\n      dup1\n        /* \"#utility.yul\":26457:26458   */\n      dup3\n        /* \"#utility.yul\":26454:26464   */\n      gt\n        /* \"#utility.yul\":26451:26487   */\n      iszero\n      tag_472\n      jumpi\n        /* \"#utility.yul\":26467:26485   */\n      tag_473\n      tag_215\n      jump\t// in\n    tag_473:\n        /* \"#utility.yul\":26451:26487   */\n    tag_472:\n        /* \"#utility.yul\":26303:26494   */\n      swap3\n      swap2\n      pop\n      pop\n      jump\t// out\n\n    auxdata: 0xa26469706673582212209ad3cfc6b942e7f69b985ebffaa98bbca9b31d6e07015cd9533cab07635b244264736f6c634300081a0033\n}\n",
				"bytecode": {
					"linkReferences": {},
					"object": "608060405261017c5f806101000a81548163ffffffff021916908363ffffffff160217905550348015602f575f80fd5b503360025f6101000a81548173ffffffffffffffffffffffffffffffffffffffff021916908373ffffffffffffffffffffffffffffffffffffffff160217905550611b948061007d5f395ff3fe608060405234801561000f575f80fd5b506004361061009c575f3560e01c8063633782161161006457806363378216146101585780636eb10797146101745780638da5cb5b14610192578063c3ad5ecb146101b0578063e1549d85146101e05761009c565b806305a1b4a9146100a05780630a7aa8a1146100d457806312e7ee1c146100f05780633d9b569f1461012057806358bfa4ab1461013c575b5f80fd5b6100ba60048036038101906100b59190610eba565b610210565b6040516100cb959493929190610f86565b60405180910390f35b6100ee60048036038101906100e9919061110a565b610301565b005b61010a60048036038101906101059190611151565b610508565b6040516101179190611310565b60405180910390f35b61013a60048036038101906101359190610eba565b6106a3565b005b61015660048036038101906101519190611367565b6108f4565b005b610172600480360381019061016d9190610eba565b6109a9565b005b61017c610b5a565b60405161018991906113b0565b60405180910390f35b61019a610b6d565b6040516101a791906113c9565b60405180910390f35b6101ca60048036038101906101c591906113e2565b610b92565b6040516101d79190611480565b60405180910390f35b6101fa60048036038101906101f59190611151565b610d09565b60405161020791906114a0565b60405180910390f35b6001602052815f5260405f208181548110610229575f80fd5b905f5260205f2090600502015f9150915050805f015490806001015f9054906101000a900473ffffffffffffffffffffffffffffffffffffffff1690806002018054610274906114e6565b80601f01602080910402602001604051908101604052809291908181526020018280546102a0906114e6565b80156102eb5780601f106102c2576101008083540402835291602001916102eb565b820191905f5260205f20905b8154815290600101906020018083116102ce57829003601f168201915b5050505050908060030154908060040154905085565b5f8054906101000a900463ffffffff1663ffffffff168151111561035a576040517f08c379a000000000000000000000000000000000000000000000000000000000815260040161035190611560565b60405180910390fd5b5f6040518060a0016040528060015f3373ffffffffffffffffffffffffffffffffffffffff1673ffffffffffffffffffffffffffffffffffffffff1681526020019081526020015f208054905081526020013373ffffffffffffffffffffffffffffffffffffffff1681526020018381526020014281526020015f815250905060015f3373ffffffffffffffffffffffffffffffffffffffff1673ffffffffffffffffffffffffffffffffffffffff1681526020019081526020015f2081908060018154018082558091505060019003905f5260205f2090600502015f909190919091505f820151815f01556020820151816001015f6101000a81548173ffffffffffffffffffffffffffffffffffffffff021916908373ffffffffffffffffffffffffffffffffffffffff16021790555060408201518160020190816104a1919061171b565b50606082015181600301556080820151816004015550507f16fd3c13e9d46923e0a8bce11c7b473ec508a72e6c96cd2404b29ce972afc29e815f01518260200151836040015184606001516040516104fc94939291906117ea565b60405180910390a15050565b606060015f8373ffffffffffffffffffffffffffffffffffffffff1673ffffffffffffffffffffffffffffffffffffffff1681526020019081526020015f20805480602002602001604051908101604052809291908181526020015f905b82821015610698578382905f5260205f2090600502016040518060a00160405290815f8201548152602001600182015f9054906101000a900473ffffffffffffffffffffffffffffffffffffffff1673ffffffffffffffffffffffffffffffffffffffff1673ffffffffffffffffffffffffffffffffffffffff1681526020016002820180546105f5906114e6565b80601f0160208091040260200160405190810160405280929190818152602001828054610621906114e6565b801561066c5780601f106106435761010080835404028352916020019161066c565b820191905f5260205f20905b81548152906001019060200180831161064f57829003601f168201915b505050505081526020016003820154815260200160048201548152505081526020019060010190610566565b505050509050919050565b8060015f8473ffffffffffffffffffffffffffffffffffffffff1673ffffffffffffffffffffffffffffffffffffffff1681526020019081526020015f2082815481106106f3576106f2611834565b5b905f5260205f2090600502015f015414610742576040517f08c379a0000000000000000000000000000000000000000000000000000000008152600401610739906118d1565b60405180910390fd5b5f60015f8473ffffffffffffffffffffffffffffffffffffffff1673ffffffffffffffffffffffffffffffffffffffff1681526020019081526020015f20828154811061079257610791611834565b5b905f5260205f20906005020160040154116107e2576040517f08c379a00000000000000000000000000000000000000000000000000000000081526004016107d990611939565b60405180910390fd5b60015f8373ffffffffffffffffffffffffffffffffffffffff1673ffffffffffffffffffffffffffffffffffffffff1681526020019081526020015f20818154811061083157610830611834565b5b905f5260205f2090600502016004015f81548092919061085090611984565b91905055507f762c2616349603ac16eba0de8e6141b79129a07ab63bd99e0a80b3a47171694333838360015f8773ffffffffffffffffffffffffffffffffffffffff1673ffffffffffffffffffffffffffffffffffffffff1681526020019081526020015f2085815481106108c8576108c7611834565b5b905f5260205f209060050201600401546040516108e894939291906119ab565b60405180910390a15050565b3373ffffffffffffffffffffffffffffffffffffffff1660025f9054906101000a900473ffffffffffffffffffffffffffffffffffffffff1673ffffffffffffffffffffffffffffffffffffffff1614610983576040517f08c379a000000000000000000000000000000000000000000000000000000000815260040161097a90611a38565b60405180910390fd5b8061ffff165f806101000a81548163ffffffff021916908363ffffffff16021790555050565b8060015f8473ffffffffffffffffffffffffffffffffffffffff1673ffffffffffffffffffffffffffffffffffffffff1681526020019081526020015f2082815481106109f9576109f8611834565b5b905f5260205f2090600502015f015414610a48576040517f08c379a0000000000000000000000000000000000000000000000000000000008152600401610a3f90611ac6565b60405180910390fd5b60015f8373ffffffffffffffffffffffffffffffffffffffff1673ffffffffffffffffffffffffffffffffffffffff1681526020019081526020015f208181548110610a9757610a96611834565b5b905f5260205f2090600502016004015f815480929190610ab690611ae4565b91905055507fe8a76fc0f16d11a00d1e93b689b63d76cf60af914dd3d915375dc41d01a0c3c833838360015f8773ffffffffffffffffffffffffffffffffffffffff1673ffffffffffffffffffffffffffffffffffffffff1681526020019081526020015f208581548110610b2e57610b2d611834565b5b905f5260205f20906005020160040154604051610b4e94939291906119ab565b60405180910390a15050565b5f8054906101000a900463ffffffff1681565b60025f9054906101000a900473ffffffffffffffffffffffffffffffffffffffff1681565b610b9a610ddb565b60015f3373ffffffffffffffffffffffffffffffffffffffff1673ffffffffffffffffffffffffffffffffffffffff1681526020019081526020015f208281548110610be957610be8611834565b5b905f5260205f2090600502016040518060a00160405290815f8201548152602001600182015f9054906101000a900473ffffffffffffffffffffffffffffffffffffffff1673ffffffffffffffffffffffffffffffffffffffff1673ffffffffffffffffffffffffffffffffffffffff168152602001600282018054610c6e906114e6565b80601f0160208091040260200160405190810160405280929190818152602001828054610c9a906114e6565b8015610ce55780601f10610cbc57610100808354040283529160200191610ce5565b820191905f5260205f20905b815481529060010190602001808311610cc857829003601f168201915b50505050508152602001600382015481526020016004820154815250509050919050565b5f805f90505f5b60015f8573ffffffffffffffffffffffffffffffffffffffff1673ffffffffffffffffffffffffffffffffffffffff1681526020019081526020015f2080549050811015610dd15760015f8573ffffffffffffffffffffffffffffffffffffffff1673ffffffffffffffffffffffffffffffffffffffff1681526020019081526020015f208181548110610da757610da6611834565b5b905f5260205f2090600502016004015482610dc29190611b2b565b91508080600101915050610d10565b5080915050919050565b6040518060a001604052805f81526020015f73ffffffffffffffffffffffffffffffffffffffff168152602001606081526020015f81526020015f81525090565b5f604051905090565b5f80fd5b5f80fd5b5f73ffffffffffffffffffffffffffffffffffffffff82169050919050565b5f610e5682610e2d565b9050919050565b610e6681610e4c565b8114610e70575f80fd5b50565b5f81359050610e8181610e5d565b92915050565b5f819050919050565b610e9981610e87565b8114610ea3575f80fd5b50565b5f81359050610eb481610e90565b92915050565b5f8060408385031215610ed057610ecf610e25565b5b5f610edd85828601610e73565b9250506020610eee85828601610ea6565b9150509250929050565b610f0181610e87565b82525050565b610f1081610e4c565b82525050565b5f81519050919050565b5f82825260208201905092915050565b8281835e5f83830152505050565b5f601f19601f8301169050919050565b5f610f5882610f16565b610f628185610f20565b9350610f72818560208601610f30565b610f7b81610f3e565b840191505092915050565b5f60a082019050610f995f830188610ef8565b610fa66020830187610f07565b8181036040830152610fb88186610f4e565b9050610fc76060830185610ef8565b610fd46080830184610ef8565b9695505050505050565b5f80fd5b5f80fd5b7f4e487b71000000000000000000000000000000000000000000000000000000005f52604160045260245ffd5b61101c82610f3e565b810181811067ffffffffffffffff8211171561103b5761103a610fe6565b5b80604052505050565b5f61104d610e1c565b90506110598282611013565b919050565b5f67ffffffffffffffff82111561107857611077610fe6565b5b61108182610f3e565b9050602081019050919050565b828183375f83830152505050565b5f6110ae6110a98461105e565b611044565b9050828152602081018484840111156110ca576110c9610fe2565b5b6110d584828561108e565b509392505050565b5f82601f8301126110f1576110f0610fde565b5b813561110184826020860161109c565b91505092915050565b5f6020828403121561111f5761111e610e25565b5b5f82013567ffffffffffffffff81111561113c5761113b610e29565b5b611148848285016110dd565b91505092915050565b5f6020828403121561116657611165610e25565b5b5f61117384828501610e73565b91505092915050565b5f81519050919050565b5f82825260208201905092915050565b5f819050602082019050919050565b6111ae81610e87565b82525050565b6111bd81610e4c565b82525050565b5f82825260208201905092915050565b5f6111dd82610f16565b6111e781856111c3565b93506111f7818560208601610f30565b61120081610f3e565b840191505092915050565b5f60a083015f8301516112205f8601826111a5565b50602083015161123360208601826111b4565b506040830151848203604086015261124b82826111d3565b915050606083015161126060608601826111a5565b50608083015161127360808601826111a5565b508091505092915050565b5f611289838361120b565b905092915050565b5f602082019050919050565b5f6112a78261117c565b6112b18185611186565b9350836020820285016112c385611196565b805f5b858110156112fe57848403895281516112df858261127e565b94506112ea83611291565b925060208a019950506001810190506112c6565b50829750879550505050505092915050565b5f6020820190508181035f830152611328818461129d565b905092915050565b5f61ffff82169050919050565b61134681611330565b8114611350575f80fd5b50565b5f813590506113618161133d565b92915050565b5f6020828403121561137c5761137b610e25565b5b5f61138984828501611353565b91505092915050565b5f63ffffffff82169050919050565b6113aa81611392565b82525050565b5f6020820190506113c35f8301846113a1565b92915050565b5f6020820190506113dc5f830184610f07565b92915050565b5f602082840312156113f7576113f6610e25565b5b5f61140484828501610ea6565b91505092915050565b5f60a083015f8301516114225f8601826111a5565b50602083015161143560208601826111b4565b506040830151848203604086015261144d82826111d3565b915050606083015161146260608601826111a5565b50608083015161147560808601826111a5565b508091505092915050565b5f6020820190508181035f830152611498818461140d565b905092915050565b5f6020820190506114b35f830184610ef8565b92915050565b7f4e487b71000000000000000000000000000000000000000000000000000000005f52602260045260245ffd5b5f60028204905060018216806114fd57607f821691505b6020821081036115105761150f6114b9565b5b50919050565b7f547765657420697320746f6f206c6f6e670000000000000000000000000000005f82015250565b5f61154a601183610f20565b915061155582611516565b602082019050919050565b5f6020820190508181035f8301526115778161153e565b9050919050565b5f819050815f5260205f209050919050565b5f6020601f8301049050919050565b5f82821b905092915050565b5f600883026115da7fffffffffffffffffffffffffffffffffffffffffffffffffffffffffffffffff8261159f565b6115e4868361159f565b95508019841693508086168417925050509392505050565b5f819050919050565b5f61161f61161a61161584610e87565b6115fc565b610e87565b9050919050565b5f819050919050565b61163883611605565b61164c61164482611626565b8484546115ab565b825550505050565b5f90565b611660611654565b61166b81848461162f565b505050565b5b8181101561168e576116835f82611658565b600181019050611671565b5050565b601f8211156116d3576116a48161157e565b6116ad84611590565b810160208510156116bc578190505b6116d06116c885611590565b830182611670565b50505b505050565b5f82821c905092915050565b5f6116f35f19846008026116d8565b1980831691505092915050565b5f61170b83836116e4565b9150826002028217905092915050565b61172482610f16565b67ffffffffffffffff81111561173d5761173c610fe6565b5b61174782546114e6565b611752828285611692565b5f60209050601f831160018114611783575f8415611771578287015190505b61177b8582611700565b8655506117e2565b601f1984166117918661157e565b5f5b828110156117b857848901518255600182019150602085019450602081019050611793565b868310156117d557848901516117d1601f8916826116e4565b8355505b6001600288020188555050505b505050505050565b5f6080820190506117fd5f830187610ef8565b61180a6020830186610f07565b818103604083015261181c8185610f4e565b905061182b6060830184610ef8565b95945050505050565b7f4e487b71000000000000000000000000000000000000000000000000000000005f52603260045260245ffd5b7f5468657265206973206e6f2074776565747320657869737420776974682074685f8201527f6973206964000000000000000000000000000000000000000000000000000000602082015250565b5f6118bb602583610f20565b91506118c682611861565b604082019050919050565b5f6020820190508181035f8301526118e8816118af565b9050919050565b7f5468697320706f737420686173206e6f206c696b6573000000000000000000005f82015250565b5f611923601683610f20565b915061192e826118ef565b602082019050919050565b5f6020820190508181035f83015261195081611917565b9050919050565b7f4e487b71000000000000000000000000000000000000000000000000000000005f52601160045260245ffd5b5f61198e82610e87565b91505f82036119a05761199f611957565b5b600182039050919050565b5f6080820190506119be5f830187610f07565b6119cb6020830186610f07565b6119d86040830185610ef8565b6119e56060830184610ef8565b95945050505050565b7f596f7520617265206e6f7420746865206f776e657200000000000000000000005f82015250565b5f611a22601583610f20565b9150611a2d826119ee565b602082019050919050565b5f6020820190508181035f830152611a4f81611a16565b9050919050565b7f5468657265206973206e6f2074776565742065786973742077697468207468695f8201527f7320696400000000000000000000000000000000000000000000000000000000602082015250565b5f611ab0602483610f20565b9150611abb82611a56565b604082019050919050565b5f6020820190508181035f830152611add81611aa4565b9050919050565b5f611aee82610e87565b91507fffffffffffffffffffffffffffffffffffffffffffffffffffffffffffffffff8203611b2057611b1f611957565b5b600182019050919050565b5f611b3582610e87565b9150611b4083610e87565b9250828201905080821115611b5857611b57611957565b5b9291505056fea26469706673582212209ad3cfc6b942e7f69b985ebffaa98bbca9b31d6e07015cd9533cab07635b244264736f6c634300081a0033",
					"opcodes": "PUSH1 0x80 PUSH1 0x40 MSTORE PUSH2 0x17C PUSH0 DUP1 PUSH2 0x100 EXP DUP2 SLOAD DUP2 PUSH4 0xFFFFFFFF MUL NOT AND SWAP1 DUP4 PUSH4 0xFFFFFFFF AND MUL OR SWAP1 SSTORE POP CALLVALUE DUP1 ISZERO PUSH1 0x2F JUMPI PUSH0 DUP1 REVERT JUMPDEST POP CALLER PUSH1 0x2 PUSH0 PUSH2 0x100 EXP DUP2 SLOAD DUP2 PUSH20 0xFFFFFFFFFFFFFFFFFFFFFFFFFFFFFFFFFFFFFFFF MUL NOT AND SWAP1 DUP4 PUSH20 0xFFFFFFFFFFFFFFFFFFFFFFFFFFFFFFFFFFFFFFFF AND MUL OR SWAP1 SSTORE POP PUSH2 0x1B94 DUP1 PUSH2 0x7D PUSH0 CODECOPY PUSH0 RETURN INVALID PUSH1 0x80 PUSH1 0x40 MSTORE CALLVALUE DUP1 ISZERO PUSH2 0xF JUMPI PUSH0 DUP1 REVERT JUMPDEST POP PUSH1 0x4 CALLDATASIZE LT PUSH2 0x9C JUMPI PUSH0 CALLDATALOAD PUSH1 0xE0 SHR DUP1 PUSH4 0x63378216 GT PUSH2 0x64 JUMPI DUP1 PUSH4 0x63378216 EQ PUSH2 0x158 JUMPI DUP1 PUSH4 0x6EB10797 EQ PUSH2 0x174 JUMPI DUP1 PUSH4 0x8DA5CB5B EQ PUSH2 0x192 JUMPI DUP1 PUSH4 0xC3AD5ECB EQ PUSH2 0x1B0 JUMPI DUP1 PUSH4 0xE1549D85 EQ PUSH2 0x1E0 JUMPI PUSH2 0x9C JUMP JUMPDEST DUP1 PUSH4 0x5A1B4A9 EQ PUSH2 0xA0 JUMPI DUP1 PUSH4 0xA7AA8A1 EQ PUSH2 0xD4 JUMPI DUP1 PUSH4 0x12E7EE1C EQ PUSH2 0xF0 JUMPI DUP1 PUSH4 0x3D9B569F EQ PUSH2 0x120 JUMPI DUP1 PUSH4 0x58BFA4AB EQ PUSH2 0x13C JUMPI JUMPDEST PUSH0 DUP1 REVERT JUMPDEST PUSH2 0xBA PUSH1 0x4 DUP1 CALLDATASIZE SUB DUP2 ADD SWAP1 PUSH2 0xB5 SWAP2 SWAP1 PUSH2 0xEBA JUMP JUMPDEST PUSH2 0x210 JUMP JUMPDEST PUSH1 0x40 MLOAD PUSH2 0xCB SWAP6 SWAP5 SWAP4 SWAP3 SWAP2 SWAP1 PUSH2 0xF86 JUMP JUMPDEST PUSH1 0x40 MLOAD DUP1 SWAP2 SUB SWAP1 RETURN JUMPDEST PUSH2 0xEE PUSH1 0x4 DUP1 CALLDATASIZE SUB DUP2 ADD SWAP1 PUSH2 0xE9 SWAP2 SWAP1 PUSH2 0x110A JUMP JUMPDEST PUSH2 0x301 JUMP JUMPDEST STOP JUMPDEST PUSH2 0x10A PUSH1 0x4 DUP1 CALLDATASIZE SUB DUP2 ADD SWAP1 PUSH2 0x105 SWAP2 SWAP1 PUSH2 0x1151 JUMP JUMPDEST PUSH2 0x508 JUMP JUMPDEST PUSH1 0x40 MLOAD PUSH2 0x117 SWAP2 SWAP1 PUSH2 0x1310 JUMP JUMPDEST PUSH1 0x40 MLOAD DUP1 SWAP2 SUB SWAP1 RETURN JUMPDEST PUSH2 0x13A PUSH1 0x4 DUP1 CALLDATASIZE SUB DUP2 ADD SWAP1 PUSH2 0x135 SWAP2 SWAP1 PUSH2 0xEBA JUMP JUMPDEST PUSH2 0x6A3 JUMP JUMPDEST STOP JUMPDEST PUSH2 0x156 PUSH1 0x4 DUP1 CALLDATASIZE SUB DUP2 ADD SWAP1 PUSH2 0x151 SWAP2 SWAP1 PUSH2 0x1367 JUMP JUMPDEST PUSH2 0x8F4 JUMP JUMPDEST STOP JUMPDEST PUSH2 0x172 PUSH1 0x4 DUP1 CALLDATASIZE SUB DUP2 ADD SWAP1 PUSH2 0x16D SWAP2 SWAP1 PUSH2 0xEBA JUMP JUMPDEST PUSH2 0x9A9 JUMP JUMPDEST STOP JUMPDEST PUSH2 0x17C PUSH2 0xB5A JUMP JUMPDEST PUSH1 0x40 MLOAD PUSH2 0x189 SWAP2 SWAP1 PUSH2 0x13B0 JUMP JUMPDEST PUSH1 0x40 MLOAD DUP1 SWAP2 SUB SWAP1 RETURN JUMPDEST PUSH2 0x19A PUSH2 0xB6D JUMP JUMPDEST PUSH1 0x40 MLOAD PUSH2 0x1A7 SWAP2 SWAP1 PUSH2 0x13C9 JUMP JUMPDEST PUSH1 0x40 MLOAD DUP1 SWAP2 SUB SWAP1 RETURN JUMPDEST PUSH2 0x1CA PUSH1 0x4 DUP1 CALLDATASIZE SUB DUP2 ADD SWAP1 PUSH2 0x1C5 SWAP2 SWAP1 PUSH2 0x13E2 JUMP JUMPDEST PUSH2 0xB92 JUMP JUMPDEST PUSH1 0x40 MLOAD PUSH2 0x1D7 SWAP2 SWAP1 PUSH2 0x1480 JUMP JUMPDEST PUSH1 0x40 MLOAD DUP1 SWAP2 SUB SWAP1 RETURN JUMPDEST PUSH2 0x1FA PUSH1 0x4 DUP1 CALLDATASIZE SUB DUP2 ADD SWAP1 PUSH2 0x1F5 SWAP2 SWAP1 PUSH2 0x1151 JUMP JUMPDEST PUSH2 0xD09 JUMP JUMPDEST PUSH1 0x40 MLOAD PUSH2 0x207 SWAP2 SWAP1 PUSH2 0x14A0 JUMP JUMPDEST PUSH1 0x40 MLOAD DUP1 SWAP2 SUB SWAP1 RETURN JUMPDEST PUSH1 0x1 PUSH1 0x20 MSTORE DUP2 PUSH0 MSTORE PUSH1 0x40 PUSH0 KECCAK256 DUP2 DUP2 SLOAD DUP2 LT PUSH2 0x229 JUMPI PUSH0 DUP1 REVERT JUMPDEST SWAP1 PUSH0 MSTORE PUSH1 0x20 PUSH0 KECCAK256 SWAP1 PUSH1 0x5 MUL ADD PUSH0 SWAP2 POP SWAP2 POP POP DUP1 PUSH0 ADD SLOAD SWAP1 DUP1 PUSH1 0x1 ADD PUSH0 SWAP1 SLOAD SWAP1 PUSH2 0x100 EXP SWAP1 DIV PUSH20 0xFFFFFFFFFFFFFFFFFFFFFFFFFFFFFFFFFFFFFFFF AND SWAP1 DUP1 PUSH1 0x2 ADD DUP1 SLOAD PUSH2 0x274 SWAP1 PUSH2 0x14E6 JUMP JUMPDEST DUP1 PUSH1 0x1F ADD PUSH1 0x20 DUP1 SWAP2 DIV MUL PUSH1 0x20 ADD PUSH1 0x40 MLOAD SWAP1 DUP2 ADD PUSH1 0x40 MSTORE DUP1 SWAP3 SWAP2 SWAP1 DUP2 DUP2 MSTORE PUSH1 0x20 ADD DUP3 DUP1 SLOAD PUSH2 0x2A0 SWAP1 PUSH2 0x14E6 JUMP JUMPDEST DUP1 ISZERO PUSH2 0x2EB JUMPI DUP1 PUSH1 0x1F LT PUSH2 0x2C2 JUMPI PUSH2 0x100 DUP1 DUP4 SLOAD DIV MUL DUP4 MSTORE SWAP2 PUSH1 0x20 ADD SWAP2 PUSH2 0x2EB JUMP JUMPDEST DUP3 ADD SWAP2 SWAP1 PUSH0 MSTORE PUSH1 0x20 PUSH0 KECCAK256 SWAP1 JUMPDEST DUP2 SLOAD DUP2 MSTORE SWAP1 PUSH1 0x1 ADD SWAP1 PUSH1 0x20 ADD DUP1 DUP4 GT PUSH2 0x2CE JUMPI DUP3 SWAP1 SUB PUSH1 0x1F AND DUP3 ADD SWAP2 JUMPDEST POP POP POP POP POP SWAP1 DUP1 PUSH1 0x3 ADD SLOAD SWAP1 DUP1 PUSH1 0x4 ADD SLOAD SWAP1 POP DUP6 JUMP JUMPDEST PUSH0 DUP1 SLOAD SWAP1 PUSH2 0x100 EXP SWAP1 DIV PUSH4 0xFFFFFFFF AND PUSH4 0xFFFFFFFF AND DUP2 MLOAD GT ISZERO PUSH2 0x35A JUMPI PUSH1 0x40 MLOAD PUSH32 0x8C379A000000000000000000000000000000000000000000000000000000000 DUP2 MSTORE PUSH1 0x4 ADD PUSH2 0x351 SWAP1 PUSH2 0x1560 JUMP JUMPDEST PUSH1 0x40 MLOAD DUP1 SWAP2 SUB SWAP1 REVERT JUMPDEST PUSH0 PUSH1 0x40 MLOAD DUP1 PUSH1 0xA0 ADD PUSH1 0x40 MSTORE DUP1 PUSH1 0x1 PUSH0 CALLER PUSH20 0xFFFFFFFFFFFFFFFFFFFFFFFFFFFFFFFFFFFFFFFF AND PUSH20 0xFFFFFFFFFFFFFFFFFFFFFFFFFFFFFFFFFFFFFFFF AND DUP2 MSTORE PUSH1 0x20 ADD SWAP1 DUP2 MSTORE PUSH1 0x20 ADD PUSH0 KECCAK256 DUP1 SLOAD SWAP1 POP DUP2 MSTORE PUSH1 0x20 ADD CALLER PUSH20 0xFFFFFFFFFFFFFFFFFFFFFFFFFFFFFFFFFFFFFFFF AND DUP2 MSTORE PUSH1 0x20 ADD DUP4 DUP2 MSTORE PUSH1 0x20 ADD TIMESTAMP DUP2 MSTORE PUSH1 0x20 ADD PUSH0 DUP2 MSTORE POP SWAP1 POP PUSH1 0x1 PUSH0 CALLER PUSH20 0xFFFFFFFFFFFFFFFFFFFFFFFFFFFFFFFFFFFFFFFF AND PUSH20 0xFFFFFFFFFFFFFFFFFFFFFFFFFFFFFFFFFFFFFFFF AND DUP2 MSTORE PUSH1 0x20 ADD SWAP1 DUP2 MSTORE PUSH1 0x20 ADD PUSH0 KECCAK256 DUP2 SWAP1 DUP1 PUSH1 0x1 DUP2 SLOAD ADD DUP1 DUP3 SSTORE DUP1 SWAP2 POP POP PUSH1 0x1 SWAP1 SUB SWAP1 PUSH0 MSTORE PUSH1 0x20 PUSH0 KECCAK256 SWAP1 PUSH1 0x5 MUL ADD PUSH0 SWAP1 SWAP2 SWAP1 SWAP2 SWAP1 SWAP2 POP PUSH0 DUP3 ADD MLOAD DUP2 PUSH0 ADD SSTORE PUSH1 0x20 DUP3 ADD MLOAD DUP2 PUSH1 0x1 ADD PUSH0 PUSH2 0x100 EXP DUP2 SLOAD DUP2 PUSH20 0xFFFFFFFFFFFFFFFFFFFFFFFFFFFFFFFFFFFFFFFF MUL NOT AND SWAP1 DUP4 PUSH20 0xFFFFFFFFFFFFFFFFFFFFFFFFFFFFFFFFFFFFFFFF AND MUL OR SWAP1 SSTORE POP PUSH1 0x40 DUP3 ADD MLOAD DUP2 PUSH1 0x2 ADD SWAP1 DUP2 PUSH2 0x4A1 SWAP2 SWAP1 PUSH2 0x171B JUMP JUMPDEST POP PUSH1 0x60 DUP3 ADD MLOAD DUP2 PUSH1 0x3 ADD SSTORE PUSH1 0x80 DUP3 ADD MLOAD DUP2 PUSH1 0x4 ADD SSTORE POP POP PUSH32 0x16FD3C13E9D46923E0A8BCE11C7B473EC508A72E6C96CD2404B29CE972AFC29E DUP2 PUSH0 ADD MLOAD DUP3 PUSH1 0x20 ADD MLOAD DUP4 PUSH1 0x40 ADD MLOAD DUP5 PUSH1 0x60 ADD MLOAD PUSH1 0x40 MLOAD PUSH2 0x4FC SWAP5 SWAP4 SWAP3 SWAP2 SWAP1 PUSH2 0x17EA JUMP JUMPDEST PUSH1 0x40 MLOAD DUP1 SWAP2 SUB SWAP1 LOG1 POP POP JUMP JUMPDEST PUSH1 0x60 PUSH1 0x1 PUSH0 DUP4 PUSH20 0xFFFFFFFFFFFFFFFFFFFFFFFFFFFFFFFFFFFFFFFF AND PUSH20 0xFFFFFFFFFFFFFFFFFFFFFFFFFFFFFFFFFFFFFFFF AND DUP2 MSTORE PUSH1 0x20 ADD SWAP1 DUP2 MSTORE PUSH1 0x20 ADD PUSH0 KECCAK256 DUP1 SLOAD DUP1 PUSH1 0x20 MUL PUSH1 0x20 ADD PUSH1 0x40 MLOAD SWAP1 DUP2 ADD PUSH1 0x40 MSTORE DUP1 SWAP3 SWAP2 SWAP1 DUP2 DUP2 MSTORE PUSH1 0x20 ADD PUSH0 SWAP1 JUMPDEST DUP3 DUP3 LT ISZERO PUSH2 0x698 JUMPI DUP4 DUP3 SWAP1 PUSH0 MSTORE PUSH1 0x20 PUSH0 KECCAK256 SWAP1 PUSH1 0x5 MUL ADD PUSH1 0x40 MLOAD DUP1 PUSH1 0xA0 ADD PUSH1 0x40 MSTORE SWAP1 DUP2 PUSH0 DUP3 ADD SLOAD DUP2 MSTORE PUSH1 0x20 ADD PUSH1 0x1 DUP3 ADD PUSH0 SWAP1 SLOAD SWAP1 PUSH2 0x100 EXP SWAP1 DIV PUSH20 0xFFFFFFFFFFFFFFFFFFFFFFFFFFFFFFFFFFFFFFFF AND PUSH20 0xFFFFFFFFFFFFFFFFFFFFFFFFFFFFFFFFFFFFFFFF AND PUSH20 0xFFFFFFFFFFFFFFFFFFFFFFFFFFFFFFFFFFFFFFFF AND DUP2 MSTORE PUSH1 0x20 ADD PUSH1 0x2 DUP3 ADD DUP1 SLOAD PUSH2 0x5F5 SWAP1 PUSH2 0x14E6 JUMP JUMPDEST DUP1 PUSH1 0x1F ADD PUSH1 0x20 DUP1 SWAP2 DIV MUL PUSH1 0x20 ADD PUSH1 0x40 MLOAD SWAP1 DUP2 ADD PUSH1 0x40 MSTORE DUP1 SWAP3 SWAP2 SWAP1 DUP2 DUP2 MSTORE PUSH1 0x20 ADD DUP3 DUP1 SLOAD PUSH2 0x621 SWAP1 PUSH2 0x14E6 JUMP JUMPDEST DUP1 ISZERO PUSH2 0x66C JUMPI DUP1 PUSH1 0x1F LT PUSH2 0x643 JUMPI PUSH2 0x100 DUP1 DUP4 SLOAD DIV MUL DUP4 MSTORE SWAP2 PUSH1 0x20 ADD SWAP2 PUSH2 0x66C JUMP JUMPDEST DUP3 ADD SWAP2 SWAP1 PUSH0 MSTORE PUSH1 0x20 PUSH0 KECCAK256 SWAP1 JUMPDEST DUP2 SLOAD DUP2 MSTORE SWAP1 PUSH1 0x1 ADD SWAP1 PUSH1 0x20 ADD DUP1 DUP4 GT PUSH2 0x64F JUMPI DUP3 SWAP1 SUB PUSH1 0x1F AND DUP3 ADD SWAP2 JUMPDEST POP POP POP POP POP DUP2 MSTORE PUSH1 0x20 ADD PUSH1 0x3 DUP3 ADD SLOAD DUP2 MSTORE PUSH1 0x20 ADD PUSH1 0x4 DUP3 ADD SLOAD DUP2 MSTORE POP POP DUP2 MSTORE PUSH1 0x20 ADD SWAP1 PUSH1 0x1 ADD SWAP1 PUSH2 0x566 JUMP JUMPDEST POP POP POP POP SWAP1 POP SWAP2 SWAP1 POP JUMP JUMPDEST DUP1 PUSH1 0x1 PUSH0 DUP5 PUSH20 0xFFFFFFFFFFFFFFFFFFFFFFFFFFFFFFFFFFFFFFFF AND PUSH20 0xFFFFFFFFFFFFFFFFFFFFFFFFFFFFFFFFFFFFFFFF AND DUP2 MSTORE PUSH1 0x20 ADD SWAP1 DUP2 MSTORE PUSH1 0x20 ADD PUSH0 KECCAK256 DUP3 DUP2 SLOAD DUP2 LT PUSH2 0x6F3 JUMPI PUSH2 0x6F2 PUSH2 0x1834 JUMP JUMPDEST JUMPDEST SWAP1 PUSH0 MSTORE PUSH1 0x20 PUSH0 KECCAK256 SWAP1 PUSH1 0x5 MUL ADD PUSH0 ADD SLOAD EQ PUSH2 0x742 JUMPI PUSH1 0x40 MLOAD PUSH32 0x8C379A000000000000000000000000000000000000000000000000000000000 DUP2 MSTORE PUSH1 0x4 ADD PUSH2 0x739 SWAP1 PUSH2 0x18D1 JUMP JUMPDEST PUSH1 0x40 MLOAD DUP1 SWAP2 SUB SWAP1 REVERT JUMPDEST PUSH0 PUSH1 0x1 PUSH0 DUP5 PUSH20 0xFFFFFFFFFFFFFFFFFFFFFFFFFFFFFFFFFFFFFFFF AND PUSH20 0xFFFFFFFFFFFFFFFFFFFFFFFFFFFFFFFFFFFFFFFF AND DUP2 MSTORE PUSH1 0x20 ADD SWAP1 DUP2 MSTORE PUSH1 0x20 ADD PUSH0 KECCAK256 DUP3 DUP2 SLOAD DUP2 LT PUSH2 0x792 JUMPI PUSH2 0x791 PUSH2 0x1834 JUMP JUMPDEST JUMPDEST SWAP1 PUSH0 MSTORE PUSH1 0x20 PUSH0 KECCAK256 SWAP1 PUSH1 0x5 MUL ADD PUSH1 0x4 ADD SLOAD GT PUSH2 0x7E2 JUMPI PUSH1 0x40 MLOAD PUSH32 0x8C379A000000000000000000000000000000000000000000000000000000000 DUP2 MSTORE PUSH1 0x4 ADD PUSH2 0x7D9 SWAP1 PUSH2 0x1939 JUMP JUMPDEST PUSH1 0x40 MLOAD DUP1 SWAP2 SUB SWAP1 REVERT JUMPDEST PUSH1 0x1 PUSH0 DUP4 PUSH20 0xFFFFFFFFFFFFFFFFFFFFFFFFFFFFFFFFFFFFFFFF AND PUSH20 0xFFFFFFFFFFFFFFFFFFFFFFFFFFFFFFFFFFFFFFFF AND DUP2 MSTORE PUSH1 0x20 ADD SWAP1 DUP2 MSTORE PUSH1 0x20 ADD PUSH0 KECCAK256 DUP2 DUP2 SLOAD DUP2 LT PUSH2 0x831 JUMPI PUSH2 0x830 PUSH2 0x1834 JUMP JUMPDEST JUMPDEST SWAP1 PUSH0 MSTORE PUSH1 0x20 PUSH0 KECCAK256 SWAP1 PUSH1 0x5 MUL ADD PUSH1 0x4 ADD PUSH0 DUP2 SLOAD DUP1 SWAP3 SWAP2 SWAP1 PUSH2 0x850 SWAP1 PUSH2 0x1984 JUMP JUMPDEST SWAP2 SWAP1 POP SSTORE POP PUSH32 0x762C2616349603AC16EBA0DE8E6141B79129A07AB63BD99E0A80B3A471716943 CALLER DUP4 DUP4 PUSH1 0x1 PUSH0 DUP8 PUSH20 0xFFFFFFFFFFFFFFFFFFFFFFFFFFFFFFFFFFFFFFFF AND PUSH20 0xFFFFFFFFFFFFFFFFFFFFFFFFFFFFFFFFFFFFFFFF AND DUP2 MSTORE PUSH1 0x20 ADD SWAP1 DUP2 MSTORE PUSH1 0x20 ADD PUSH0 KECCAK256 DUP6 DUP2 SLOAD DUP2 LT PUSH2 0x8C8 JUMPI PUSH2 0x8C7 PUSH2 0x1834 JUMP JUMPDEST JUMPDEST SWAP1 PUSH0 MSTORE PUSH1 0x20 PUSH0 KECCAK256 SWAP1 PUSH1 0x5 MUL ADD PUSH1 0x4 ADD SLOAD PUSH1 0x40 MLOAD PUSH2 0x8E8 SWAP5 SWAP4 SWAP3 SWAP2 SWAP1 PUSH2 0x19AB JUMP JUMPDEST PUSH1 0x40 MLOAD DUP1 SWAP2 SUB SWAP1 LOG1 POP POP JUMP JUMPDEST CALLER PUSH20 0xFFFFFFFFFFFFFFFFFFFFFFFFFFFFFFFFFFFFFFFF AND PUSH1 0x2 PUSH0 SWAP1 SLOAD SWAP1 PUSH2 0x100 EXP SWAP1 DIV PUSH20 0xFFFFFFFFFFFFFFFFFFFFFFFFFFFFFFFFFFFFFFFF AND PUSH20 0xFFFFFFFFFFFFFFFFFFFFFFFFFFFFFFFFFFFFFFFF AND EQ PUSH2 0x983 JUMPI PUSH1 0x40 MLOAD PUSH32 0x8C379A000000000000000000000000000000000000000000000000000000000 DUP2 MSTORE PUSH1 0x4 ADD PUSH2 0x97A SWAP1 PUSH2 0x1A38 JUMP JUMPDEST PUSH1 0x40 MLOAD DUP1 SWAP2 SUB SWAP1 REVERT JUMPDEST DUP1 PUSH2 0xFFFF AND PUSH0 DUP1 PUSH2 0x100 EXP DUP2 SLOAD DUP2 PUSH4 0xFFFFFFFF MUL NOT AND SWAP1 DUP4 PUSH4 0xFFFFFFFF AND MUL OR SWAP1 SSTORE POP POP JUMP JUMPDEST DUP1 PUSH1 0x1 PUSH0 DUP5 PUSH20 0xFFFFFFFFFFFFFFFFFFFFFFFFFFFFFFFFFFFFFFFF AND PUSH20 0xFFFFFFFFFFFFFFFFFFFFFFFFFFFFFFFFFFFFFFFF AND DUP2 MSTORE PUSH1 0x20 ADD SWAP1 DUP2 MSTORE PUSH1 0x20 ADD PUSH0 KECCAK256 DUP3 DUP2 SLOAD DUP2 LT PUSH2 0x9F9 JUMPI PUSH2 0x9F8 PUSH2 0x1834 JUMP JUMPDEST JUMPDEST SWAP1 PUSH0 MSTORE PUSH1 0x20 PUSH0 KECCAK256 SWAP1 PUSH1 0x5 MUL ADD PUSH0 ADD SLOAD EQ PUSH2 0xA48 JUMPI PUSH1 0x40 MLOAD PUSH32 0x8C379A000000000000000000000000000000000000000000000000000000000 DUP2 MSTORE PUSH1 0x4 ADD PUSH2 0xA3F SWAP1 PUSH2 0x1AC6 JUMP JUMPDEST PUSH1 0x40 MLOAD DUP1 SWAP2 SUB SWAP1 REVERT JUMPDEST PUSH1 0x1 PUSH0 DUP4 PUSH20 0xFFFFFFFFFFFFFFFFFFFFFFFFFFFFFFFFFFFFFFFF AND PUSH20 0xFFFFFFFFFFFFFFFFFFFFFFFFFFFFFFFFFFFFFFFF AND DUP2 MSTORE PUSH1 0x20 ADD SWAP1 DUP2 MSTORE PUSH1 0x20 ADD PUSH0 KECCAK256 DUP2 DUP2 SLOAD DUP2 LT PUSH2 0xA97 JUMPI PUSH2 0xA96 PUSH2 0x1834 JUMP JUMPDEST JUMPDEST SWAP1 PUSH0 MSTORE PUSH1 0x20 PUSH0 KECCAK256 SWAP1 PUSH1 0x5 MUL ADD PUSH1 0x4 ADD PUSH0 DUP2 SLOAD DUP1 SWAP3 SWAP2 SWAP1 PUSH2 0xAB6 SWAP1 PUSH2 0x1AE4 JUMP JUMPDEST SWAP2 SWAP1 POP SSTORE POP PUSH32 0xE8A76FC0F16D11A00D1E93B689B63D76CF60AF914DD3D915375DC41D01A0C3C8 CALLER DUP4 DUP4 PUSH1 0x1 PUSH0 DUP8 PUSH20 0xFFFFFFFFFFFFFFFFFFFFFFFFFFFFFFFFFFFFFFFF AND PUSH20 0xFFFFFFFFFFFFFFFFFFFFFFFFFFFFFFFFFFFFFFFF AND DUP2 MSTORE PUSH1 0x20 ADD SWAP1 DUP2 MSTORE PUSH1 0x20 ADD PUSH0 KECCAK256 DUP6 DUP2 SLOAD DUP2 LT PUSH2 0xB2E JUMPI PUSH2 0xB2D PUSH2 0x1834 JUMP JUMPDEST JUMPDEST SWAP1 PUSH0 MSTORE PUSH1 0x20 PUSH0 KECCAK256 SWAP1 PUSH1 0x5 MUL ADD PUSH1 0x4 ADD SLOAD PUSH1 0x40 MLOAD PUSH2 0xB4E SWAP5 SWAP4 SWAP3 SWAP2 SWAP1 PUSH2 0x19AB JUMP JUMPDEST PUSH1 0x40 MLOAD DUP1 SWAP2 SUB SWAP1 LOG1 POP POP JUMP JUMPDEST PUSH0 DUP1 SLOAD SWAP1 PUSH2 0x100 EXP SWAP1 DIV PUSH4 0xFFFFFFFF AND DUP2 JUMP JUMPDEST PUSH1 0x2 PUSH0 SWAP1 SLOAD SWAP1 PUSH2 0x100 EXP SWAP1 DIV PUSH20 0xFFFFFFFFFFFFFFFFFFFFFFFFFFFFFFFFFFFFFFFF AND DUP2 JUMP JUMPDEST PUSH2 0xB9A PUSH2 0xDDB JUMP JUMPDEST PUSH1 0x1 PUSH0 CALLER PUSH20 0xFFFFFFFFFFFFFFFFFFFFFFFFFFFFFFFFFFFFFFFF AND PUSH20 0xFFFFFFFFFFFFFFFFFFFFFFFFFFFFFFFFFFFFFFFF AND DUP2 MSTORE PUSH1 0x20 ADD SWAP1 DUP2 MSTORE PUSH1 0x20 ADD PUSH0 KECCAK256 DUP3 DUP2 SLOAD DUP2 LT PUSH2 0xBE9 JUMPI PUSH2 0xBE8 PUSH2 0x1834 JUMP JUMPDEST JUMPDEST SWAP1 PUSH0 MSTORE PUSH1 0x20 PUSH0 KECCAK256 SWAP1 PUSH1 0x5 MUL ADD PUSH1 0x40 MLOAD DUP1 PUSH1 0xA0 ADD PUSH1 0x40 MSTORE SWAP1 DUP2 PUSH0 DUP3 ADD SLOAD DUP2 MSTORE PUSH1 0x20 ADD PUSH1 0x1 DUP3 ADD PUSH0 SWAP1 SLOAD SWAP1 PUSH2 0x100 EXP SWAP1 DIV PUSH20 0xFFFFFFFFFFFFFFFFFFFFFFFFFFFFFFFFFFFFFFFF AND PUSH20 0xFFFFFFFFFFFFFFFFFFFFFFFFFFFFFFFFFFFFFFFF AND PUSH20 0xFFFFFFFFFFFFFFFFFFFFFFFFFFFFFFFFFFFFFFFF AND DUP2 MSTORE PUSH1 0x20 ADD PUSH1 0x2 DUP3 ADD DUP1 SLOAD PUSH2 0xC6E SWAP1 PUSH2 0x14E6 JUMP JUMPDEST DUP1 PUSH1 0x1F ADD PUSH1 0x20 DUP1 SWAP2 DIV MUL PUSH1 0x20 ADD PUSH1 0x40 MLOAD SWAP1 DUP2 ADD PUSH1 0x40 MSTORE DUP1 SWAP3 SWAP2 SWAP1 DUP2 DUP2 MSTORE PUSH1 0x20 ADD DUP3 DUP1 SLOAD PUSH2 0xC9A SWAP1 PUSH2 0x14E6 JUMP JUMPDEST DUP1 ISZERO PUSH2 0xCE5 JUMPI DUP1 PUSH1 0x1F LT PUSH2 0xCBC JUMPI PUSH2 0x100 DUP1 DUP4 SLOAD DIV MUL DUP4 MSTORE SWAP2 PUSH1 0x20 ADD SWAP2 PUSH2 0xCE5 JUMP JUMPDEST DUP3 ADD SWAP2 SWAP1 PUSH0 MSTORE PUSH1 0x20 PUSH0 KECCAK256 SWAP1 JUMPDEST DUP2 SLOAD DUP2 MSTORE SWAP1 PUSH1 0x1 ADD SWAP1 PUSH1 0x20 ADD DUP1 DUP4 GT PUSH2 0xCC8 JUMPI DUP3 SWAP1 SUB PUSH1 0x1F AND DUP3 ADD SWAP2 JUMPDEST POP POP POP POP POP DUP2 MSTORE PUSH1 0x20 ADD PUSH1 0x3 DUP3 ADD SLOAD DUP2 MSTORE PUSH1 0x20 ADD PUSH1 0x4 DUP3 ADD SLOAD DUP2 MSTORE POP POP SWAP1 POP SWAP2 SWAP1 POP JUMP JUMPDEST PUSH0 DUP1 PUSH0 SWAP1 POP PUSH0 JUMPDEST PUSH1 0x1 PUSH0 DUP6 PUSH20 0xFFFFFFFFFFFFFFFFFFFFFFFFFFFFFFFFFFFFFFFF AND PUSH20 0xFFFFFFFFFFFFFFFFFFFFFFFFFFFFFFFFFFFFFFFF AND DUP2 MSTORE PUSH1 0x20 ADD SWAP1 DUP2 MSTORE PUSH1 0x20 ADD PUSH0 KECCAK256 DUP1 SLOAD SWAP1 POP DUP2 LT ISZERO PUSH2 0xDD1 JUMPI PUSH1 0x1 PUSH0 DUP6 PUSH20 0xFFFFFFFFFFFFFFFFFFFFFFFFFFFFFFFFFFFFFFFF AND PUSH20 0xFFFFFFFFFFFFFFFFFFFFFFFFFFFFFFFFFFFFFFFF AND DUP2 MSTORE PUSH1 0x20 ADD SWAP1 DUP2 MSTORE PUSH1 0x20 ADD PUSH0 KECCAK256 DUP2 DUP2 SLOAD DUP2 LT PUSH2 0xDA7 JUMPI PUSH2 0xDA6 PUSH2 0x1834 JUMP JUMPDEST JUMPDEST SWAP1 PUSH0 MSTORE PUSH1 0x20 PUSH0 KECCAK256 SWAP1 PUSH1 0x5 MUL ADD PUSH1 0x4 ADD SLOAD DUP3 PUSH2 0xDC2 SWAP2 SWAP1 PUSH2 0x1B2B JUMP JUMPDEST SWAP2 POP DUP1 DUP1 PUSH1 0x1 ADD SWAP2 POP POP PUSH2 0xD10 JUMP JUMPDEST POP DUP1 SWAP2 POP POP SWAP2 SWAP1 POP JUMP JUMPDEST PUSH1 0x40 MLOAD DUP1 PUSH1 0xA0 ADD PUSH1 0x40 MSTORE DUP1 PUSH0 DUP2 MSTORE PUSH1 0x20 ADD PUSH0 PUSH20 0xFFFFFFFFFFFFFFFFFFFFFFFFFFFFFFFFFFFFFFFF AND DUP2 MSTORE PUSH1 0x20 ADD PUSH1 0x60 DUP2 MSTORE PUSH1 0x20 ADD PUSH0 DUP2 MSTORE PUSH1 0x20 ADD PUSH0 DUP2 MSTORE POP SWAP1 JUMP JUMPDEST PUSH0 PUSH1 0x40 MLOAD SWAP1 POP SWAP1 JUMP JUMPDEST PUSH0 DUP1 REVERT JUMPDEST PUSH0 DUP1 REVERT JUMPDEST PUSH0 PUSH20 0xFFFFFFFFFFFFFFFFFFFFFFFFFFFFFFFFFFFFFFFF DUP3 AND SWAP1 POP SWAP2 SWAP1 POP JUMP JUMPDEST PUSH0 PUSH2 0xE56 DUP3 PUSH2 0xE2D JUMP JUMPDEST SWAP1 POP SWAP2 SWAP1 POP JUMP JUMPDEST PUSH2 0xE66 DUP2 PUSH2 0xE4C JUMP JUMPDEST DUP2 EQ PUSH2 0xE70 JUMPI PUSH0 DUP1 REVERT JUMPDEST POP JUMP JUMPDEST PUSH0 DUP2 CALLDATALOAD SWAP1 POP PUSH2 0xE81 DUP2 PUSH2 0xE5D JUMP JUMPDEST SWAP3 SWAP2 POP POP JUMP JUMPDEST PUSH0 DUP2 SWAP1 POP SWAP2 SWAP1 POP JUMP JUMPDEST PUSH2 0xE99 DUP2 PUSH2 0xE87 JUMP JUMPDEST DUP2 EQ PUSH2 0xEA3 JUMPI PUSH0 DUP1 REVERT JUMPDEST POP JUMP JUMPDEST PUSH0 DUP2 CALLDATALOAD SWAP1 POP PUSH2 0xEB4 DUP2 PUSH2 0xE90 JUMP JUMPDEST SWAP3 SWAP2 POP POP JUMP JUMPDEST PUSH0 DUP1 PUSH1 0x40 DUP4 DUP6 SUB SLT ISZERO PUSH2 0xED0 JUMPI PUSH2 0xECF PUSH2 0xE25 JUMP JUMPDEST JUMPDEST PUSH0 PUSH2 0xEDD DUP6 DUP3 DUP7 ADD PUSH2 0xE73 JUMP JUMPDEST SWAP3 POP POP PUSH1 0x20 PUSH2 0xEEE DUP6 DUP3 DUP7 ADD PUSH2 0xEA6 JUMP JUMPDEST SWAP2 POP POP SWAP3 POP SWAP3 SWAP1 POP JUMP JUMPDEST PUSH2 0xF01 DUP2 PUSH2 0xE87 JUMP JUMPDEST DUP3 MSTORE POP POP JUMP JUMPDEST PUSH2 0xF10 DUP2 PUSH2 0xE4C JUMP JUMPDEST DUP3 MSTORE POP POP JUMP JUMPDEST PUSH0 DUP2 MLOAD SWAP1 POP SWAP2 SWAP1 POP JUMP JUMPDEST PUSH0 DUP3 DUP3 MSTORE PUSH1 0x20 DUP3 ADD SWAP1 POP SWAP3 SWAP2 POP POP JUMP JUMPDEST DUP3 DUP2 DUP4 MCOPY PUSH0 DUP4 DUP4 ADD MSTORE POP POP POP JUMP JUMPDEST PUSH0 PUSH1 0x1F NOT PUSH1 0x1F DUP4 ADD AND SWAP1 POP SWAP2 SWAP1 POP JUMP JUMPDEST PUSH0 PUSH2 0xF58 DUP3 PUSH2 0xF16 JUMP JUMPDEST PUSH2 0xF62 DUP2 DUP6 PUSH2 0xF20 JUMP JUMPDEST SWAP4 POP PUSH2 0xF72 DUP2 DUP6 PUSH1 0x20 DUP7 ADD PUSH2 0xF30 JUMP JUMPDEST PUSH2 0xF7B DUP2 PUSH2 0xF3E JUMP JUMPDEST DUP5 ADD SWAP2 POP POP SWAP3 SWAP2 POP POP JUMP JUMPDEST PUSH0 PUSH1 0xA0 DUP3 ADD SWAP1 POP PUSH2 0xF99 PUSH0 DUP4 ADD DUP9 PUSH2 0xEF8 JUMP JUMPDEST PUSH2 0xFA6 PUSH1 0x20 DUP4 ADD DUP8 PUSH2 0xF07 JUMP JUMPDEST DUP2 DUP2 SUB PUSH1 0x40 DUP4 ADD MSTORE PUSH2 0xFB8 DUP2 DUP7 PUSH2 0xF4E JUMP JUMPDEST SWAP1 POP PUSH2 0xFC7 PUSH1 0x60 DUP4 ADD DUP6 PUSH2 0xEF8 JUMP JUMPDEST PUSH2 0xFD4 PUSH1 0x80 DUP4 ADD DUP5 PUSH2 0xEF8 JUMP JUMPDEST SWAP7 SWAP6 POP POP POP POP POP POP JUMP JUMPDEST PUSH0 DUP1 REVERT JUMPDEST PUSH0 DUP1 REVERT JUMPDEST PUSH32 0x4E487B7100000000000000000000000000000000000000000000000000000000 PUSH0 MSTORE PUSH1 0x41 PUSH1 0x4 MSTORE PUSH1 0x24 PUSH0 REVERT JUMPDEST PUSH2 0x101C DUP3 PUSH2 0xF3E JUMP JUMPDEST DUP2 ADD DUP2 DUP2 LT PUSH8 0xFFFFFFFFFFFFFFFF DUP3 GT OR ISZERO PUSH2 0x103B JUMPI PUSH2 0x103A PUSH2 0xFE6 JUMP JUMPDEST JUMPDEST DUP1 PUSH1 0x40 MSTORE POP POP POP JUMP JUMPDEST PUSH0 PUSH2 0x104D PUSH2 0xE1C JUMP JUMPDEST SWAP1 POP PUSH2 0x1059 DUP3 DUP3 PUSH2 0x1013 JUMP JUMPDEST SWAP2 SWAP1 POP JUMP JUMPDEST PUSH0 PUSH8 0xFFFFFFFFFFFFFFFF DUP3 GT ISZERO PUSH2 0x1078 JUMPI PUSH2 0x1077 PUSH2 0xFE6 JUMP JUMPDEST JUMPDEST PUSH2 0x1081 DUP3 PUSH2 0xF3E JUMP JUMPDEST SWAP1 POP PUSH1 0x20 DUP2 ADD SWAP1 POP SWAP2 SWAP1 POP JUMP JUMPDEST DUP3 DUP2 DUP4 CALLDATACOPY PUSH0 DUP4 DUP4 ADD MSTORE POP POP POP JUMP JUMPDEST PUSH0 PUSH2 0x10AE PUSH2 0x10A9 DUP5 PUSH2 0x105E JUMP JUMPDEST PUSH2 0x1044 JUMP JUMPDEST SWAP1 POP DUP3 DUP2 MSTORE PUSH1 0x20 DUP2 ADD DUP5 DUP5 DUP5 ADD GT ISZERO PUSH2 0x10CA JUMPI PUSH2 0x10C9 PUSH2 0xFE2 JUMP JUMPDEST JUMPDEST PUSH2 0x10D5 DUP5 DUP3 DUP6 PUSH2 0x108E JUMP JUMPDEST POP SWAP4 SWAP3 POP POP POP JUMP JUMPDEST PUSH0 DUP3 PUSH1 0x1F DUP4 ADD SLT PUSH2 0x10F1 JUMPI PUSH2 0x10F0 PUSH2 0xFDE JUMP JUMPDEST JUMPDEST DUP2 CALLDATALOAD PUSH2 0x1101 DUP5 DUP3 PUSH1 0x20 DUP7 ADD PUSH2 0x109C JUMP JUMPDEST SWAP2 POP POP SWAP3 SWAP2 POP POP JUMP JUMPDEST PUSH0 PUSH1 0x20 DUP3 DUP5 SUB SLT ISZERO PUSH2 0x111F JUMPI PUSH2 0x111E PUSH2 0xE25 JUMP JUMPDEST JUMPDEST PUSH0 DUP3 ADD CALLDATALOAD PUSH8 0xFFFFFFFFFFFFFFFF DUP2 GT ISZERO PUSH2 0x113C JUMPI PUSH2 0x113B PUSH2 0xE29 JUMP JUMPDEST JUMPDEST PUSH2 0x1148 DUP5 DUP3 DUP6 ADD PUSH2 0x10DD JUMP JUMPDEST SWAP2 POP POP SWAP3 SWAP2 POP POP JUMP JUMPDEST PUSH0 PUSH1 0x20 DUP3 DUP5 SUB SLT ISZERO PUSH2 0x1166 JUMPI PUSH2 0x1165 PUSH2 0xE25 JUMP JUMPDEST JUMPDEST PUSH0 PUSH2 0x1173 DUP5 DUP3 DUP6 ADD PUSH2 0xE73 JUMP JUMPDEST SWAP2 POP POP SWAP3 SWAP2 POP POP JUMP JUMPDEST PUSH0 DUP2 MLOAD SWAP1 POP SWAP2 SWAP1 POP JUMP JUMPDEST PUSH0 DUP3 DUP3 MSTORE PUSH1 0x20 DUP3 ADD SWAP1 POP SWAP3 SWAP2 POP POP JUMP JUMPDEST PUSH0 DUP2 SWAP1 POP PUSH1 0x20 DUP3 ADD SWAP1 POP SWAP2 SWAP1 POP JUMP JUMPDEST PUSH2 0x11AE DUP2 PUSH2 0xE87 JUMP JUMPDEST DUP3 MSTORE POP POP JUMP JUMPDEST PUSH2 0x11BD DUP2 PUSH2 0xE4C JUMP JUMPDEST DUP3 MSTORE POP POP JUMP JUMPDEST PUSH0 DUP3 DUP3 MSTORE PUSH1 0x20 DUP3 ADD SWAP1 POP SWAP3 SWAP2 POP POP JUMP JUMPDEST PUSH0 PUSH2 0x11DD DUP3 PUSH2 0xF16 JUMP JUMPDEST PUSH2 0x11E7 DUP2 DUP6 PUSH2 0x11C3 JUMP JUMPDEST SWAP4 POP PUSH2 0x11F7 DUP2 DUP6 PUSH1 0x20 DUP7 ADD PUSH2 0xF30 JUMP JUMPDEST PUSH2 0x1200 DUP2 PUSH2 0xF3E JUMP JUMPDEST DUP5 ADD SWAP2 POP POP SWAP3 SWAP2 POP POP JUMP JUMPDEST PUSH0 PUSH1 0xA0 DUP4 ADD PUSH0 DUP4 ADD MLOAD PUSH2 0x1220 PUSH0 DUP7 ADD DUP3 PUSH2 0x11A5 JUMP JUMPDEST POP PUSH1 0x20 DUP4 ADD MLOAD PUSH2 0x1233 PUSH1 0x20 DUP7 ADD DUP3 PUSH2 0x11B4 JUMP JUMPDEST POP PUSH1 0x40 DUP4 ADD MLOAD DUP5 DUP3 SUB PUSH1 0x40 DUP7 ADD MSTORE PUSH2 0x124B DUP3 DUP3 PUSH2 0x11D3 JUMP JUMPDEST SWAP2 POP POP PUSH1 0x60 DUP4 ADD MLOAD PUSH2 0x1260 PUSH1 0x60 DUP7 ADD DUP3 PUSH2 0x11A5 JUMP JUMPDEST POP PUSH1 0x80 DUP4 ADD MLOAD PUSH2 0x1273 PUSH1 0x80 DUP7 ADD DUP3 PUSH2 0x11A5 JUMP JUMPDEST POP DUP1 SWAP2 POP POP SWAP3 SWAP2 POP POP JUMP JUMPDEST PUSH0 PUSH2 0x1289 DUP4 DUP4 PUSH2 0x120B JUMP JUMPDEST SWAP1 POP SWAP3 SWAP2 POP POP JUMP JUMPDEST PUSH0 PUSH1 0x20 DUP3 ADD SWAP1 POP SWAP2 SWAP1 POP JUMP JUMPDEST PUSH0 PUSH2 0x12A7 DUP3 PUSH2 0x117C JUMP JUMPDEST PUSH2 0x12B1 DUP2 DUP6 PUSH2 0x1186 JUMP JUMPDEST SWAP4 POP DUP4 PUSH1 0x20 DUP3 MUL DUP6 ADD PUSH2 0x12C3 DUP6 PUSH2 0x1196 JUMP JUMPDEST DUP1 PUSH0 JUMPDEST DUP6 DUP2 LT ISZERO PUSH2 0x12FE JUMPI DUP5 DUP5 SUB DUP10 MSTORE DUP2 MLOAD PUSH2 0x12DF DUP6 DUP3 PUSH2 0x127E JUMP JUMPDEST SWAP5 POP PUSH2 0x12EA DUP4 PUSH2 0x1291 JUMP JUMPDEST SWAP3 POP PUSH1 0x20 DUP11 ADD SWAP10 POP POP PUSH1 0x1 DUP2 ADD SWAP1 POP PUSH2 0x12C6 JUMP JUMPDEST POP DUP3 SWAP8 POP DUP8 SWAP6 POP POP POP POP POP POP SWAP3 SWAP2 POP POP JUMP JUMPDEST PUSH0 PUSH1 0x20 DUP3 ADD SWAP1 POP DUP2 DUP2 SUB PUSH0 DUP4 ADD MSTORE PUSH2 0x1328 DUP2 DUP5 PUSH2 0x129D JUMP JUMPDEST SWAP1 POP SWAP3 SWAP2 POP POP JUMP JUMPDEST PUSH0 PUSH2 0xFFFF DUP3 AND SWAP1 POP SWAP2 SWAP1 POP JUMP JUMPDEST PUSH2 0x1346 DUP2 PUSH2 0x1330 JUMP JUMPDEST DUP2 EQ PUSH2 0x1350 JUMPI PUSH0 DUP1 REVERT JUMPDEST POP JUMP JUMPDEST PUSH0 DUP2 CALLDATALOAD SWAP1 POP PUSH2 0x1361 DUP2 PUSH2 0x133D JUMP JUMPDEST SWAP3 SWAP2 POP POP JUMP JUMPDEST PUSH0 PUSH1 0x20 DUP3 DUP5 SUB SLT ISZERO PUSH2 0x137C JUMPI PUSH2 0x137B PUSH2 0xE25 JUMP JUMPDEST JUMPDEST PUSH0 PUSH2 0x1389 DUP5 DUP3 DUP6 ADD PUSH2 0x1353 JUMP JUMPDEST SWAP2 POP POP SWAP3 SWAP2 POP POP JUMP JUMPDEST PUSH0 PUSH4 0xFFFFFFFF DUP3 AND SWAP1 POP SWAP2 SWAP1 POP JUMP JUMPDEST PUSH2 0x13AA DUP2 PUSH2 0x1392 JUMP JUMPDEST DUP3 MSTORE POP POP JUMP JUMPDEST PUSH0 PUSH1 0x20 DUP3 ADD SWAP1 POP PUSH2 0x13C3 PUSH0 DUP4 ADD DUP5 PUSH2 0x13A1 JUMP JUMPDEST SWAP3 SWAP2 POP POP JUMP JUMPDEST PUSH0 PUSH1 0x20 DUP3 ADD SWAP1 POP PUSH2 0x13DC PUSH0 DUP4 ADD DUP5 PUSH2 0xF07 JUMP JUMPDEST SWAP3 SWAP2 POP POP JUMP JUMPDEST PUSH0 PUSH1 0x20 DUP3 DUP5 SUB SLT ISZERO PUSH2 0x13F7 JUMPI PUSH2 0x13F6 PUSH2 0xE25 JUMP JUMPDEST JUMPDEST PUSH0 PUSH2 0x1404 DUP5 DUP3 DUP6 ADD PUSH2 0xEA6 JUMP JUMPDEST SWAP2 POP POP SWAP3 SWAP2 POP POP JUMP JUMPDEST PUSH0 PUSH1 0xA0 DUP4 ADD PUSH0 DUP4 ADD MLOAD PUSH2 0x1422 PUSH0 DUP7 ADD DUP3 PUSH2 0x11A5 JUMP JUMPDEST POP PUSH1 0x20 DUP4 ADD MLOAD PUSH2 0x1435 PUSH1 0x20 DUP7 ADD DUP3 PUSH2 0x11B4 JUMP JUMPDEST POP PUSH1 0x40 DUP4 ADD MLOAD DUP5 DUP3 SUB PUSH1 0x40 DUP7 ADD MSTORE PUSH2 0x144D DUP3 DUP3 PUSH2 0x11D3 JUMP JUMPDEST SWAP2 POP POP PUSH1 0x60 DUP4 ADD MLOAD PUSH2 0x1462 PUSH1 0x60 DUP7 ADD DUP3 PUSH2 0x11A5 JUMP JUMPDEST POP PUSH1 0x80 DUP4 ADD MLOAD PUSH2 0x1475 PUSH1 0x80 DUP7 ADD DUP3 PUSH2 0x11A5 JUMP JUMPDEST POP DUP1 SWAP2 POP POP SWAP3 SWAP2 POP POP JUMP JUMPDEST PUSH0 PUSH1 0x20 DUP3 ADD SWAP1 POP DUP2 DUP2 SUB PUSH0 DUP4 ADD MSTORE PUSH2 0x1498 DUP2 DUP5 PUSH2 0x140D JUMP JUMPDEST SWAP1 POP SWAP3 SWAP2 POP POP JUMP JUMPDEST PUSH0 PUSH1 0x20 DUP3 ADD SWAP1 POP PUSH2 0x14B3 PUSH0 DUP4 ADD DUP5 PUSH2 0xEF8 JUMP JUMPDEST SWAP3 SWAP2 POP POP JUMP JUMPDEST PUSH32 0x4E487B7100000000000000000000000000000000000000000000000000000000 PUSH0 MSTORE PUSH1 0x22 PUSH1 0x4 MSTORE PUSH1 0x24 PUSH0 REVERT JUMPDEST PUSH0 PUSH1 0x2 DUP3 DIV SWAP1 POP PUSH1 0x1 DUP3 AND DUP1 PUSH2 0x14FD JUMPI PUSH1 0x7F DUP3 AND SWAP2 POP JUMPDEST PUSH1 0x20 DUP3 LT DUP2 SUB PUSH2 0x1510 JUMPI PUSH2 0x150F PUSH2 0x14B9 JUMP JUMPDEST JUMPDEST POP SWAP2 SWAP1 POP JUMP JUMPDEST PUSH32 0x547765657420697320746F6F206C6F6E67000000000000000000000000000000 PUSH0 DUP3 ADD MSTORE POP JUMP JUMPDEST PUSH0 PUSH2 0x154A PUSH1 0x11 DUP4 PUSH2 0xF20 JUMP JUMPDEST SWAP2 POP PUSH2 0x1555 DUP3 PUSH2 0x1516 JUMP JUMPDEST PUSH1 0x20 DUP3 ADD SWAP1 POP SWAP2 SWAP1 POP JUMP JUMPDEST PUSH0 PUSH1 0x20 DUP3 ADD SWAP1 POP DUP2 DUP2 SUB PUSH0 DUP4 ADD MSTORE PUSH2 0x1577 DUP2 PUSH2 0x153E JUMP JUMPDEST SWAP1 POP SWAP2 SWAP1 POP JUMP JUMPDEST PUSH0 DUP2 SWAP1 POP DUP2 PUSH0 MSTORE PUSH1 0x20 PUSH0 KECCAK256 SWAP1 POP SWAP2 SWAP1 POP JUMP JUMPDEST PUSH0 PUSH1 0x20 PUSH1 0x1F DUP4 ADD DIV SWAP1 POP SWAP2 SWAP1 POP JUMP JUMPDEST PUSH0 DUP3 DUP3 SHL SWAP1 POP SWAP3 SWAP2 POP POP JUMP JUMPDEST PUSH0 PUSH1 0x8 DUP4 MUL PUSH2 0x15DA PUSH32 0xFFFFFFFFFFFFFFFFFFFFFFFFFFFFFFFFFFFFFFFFFFFFFFFFFFFFFFFFFFFFFFFF DUP3 PUSH2 0x159F JUMP JUMPDEST PUSH2 0x15E4 DUP7 DUP4 PUSH2 0x159F JUMP JUMPDEST SWAP6 POP DUP1 NOT DUP5 AND SWAP4 POP DUP1 DUP7 AND DUP5 OR SWAP3 POP POP POP SWAP4 SWAP3 POP POP POP JUMP JUMPDEST PUSH0 DUP2 SWAP1 POP SWAP2 SWAP1 POP JUMP JUMPDEST PUSH0 PUSH2 0x161F PUSH2 0x161A PUSH2 0x1615 DUP5 PUSH2 0xE87 JUMP JUMPDEST PUSH2 0x15FC JUMP JUMPDEST PUSH2 0xE87 JUMP JUMPDEST SWAP1 POP SWAP2 SWAP1 POP JUMP JUMPDEST PUSH0 DUP2 SWAP1 POP SWAP2 SWAP1 POP JUMP JUMPDEST PUSH2 0x1638 DUP4 PUSH2 0x1605 JUMP JUMPDEST PUSH2 0x164C PUSH2 0x1644 DUP3 PUSH2 0x1626 JUMP JUMPDEST DUP5 DUP5 SLOAD PUSH2 0x15AB JUMP JUMPDEST DUP3 SSTORE POP POP POP POP JUMP JUMPDEST PUSH0 SWAP1 JUMP JUMPDEST PUSH2 0x1660 PUSH2 0x1654 JUMP JUMPDEST PUSH2 0x166B DUP2 DUP5 DUP5 PUSH2 0x162F JUMP JUMPDEST POP POP POP JUMP JUMPDEST JUMPDEST DUP2 DUP2 LT ISZERO PUSH2 0x168E JUMPI PUSH2 0x1683 PUSH0 DUP3 PUSH2 0x1658 JUMP JUMPDEST PUSH1 0x1 DUP2 ADD SWAP1 POP PUSH2 0x1671 JUMP JUMPDEST POP POP JUMP JUMPDEST PUSH1 0x1F DUP3 GT ISZERO PUSH2 0x16D3 JUMPI PUSH2 0x16A4 DUP2 PUSH2 0x157E JUMP JUMPDEST PUSH2 0x16AD DUP5 PUSH2 0x1590 JUMP JUMPDEST DUP2 ADD PUSH1 0x20 DUP6 LT ISZERO PUSH2 0x16BC JUMPI DUP2 SWAP1 POP JUMPDEST PUSH2 0x16D0 PUSH2 0x16C8 DUP6 PUSH2 0x1590 JUMP JUMPDEST DUP4 ADD DUP3 PUSH2 0x1670 JUMP JUMPDEST POP POP JUMPDEST POP POP POP JUMP JUMPDEST PUSH0 DUP3 DUP3 SHR SWAP1 POP SWAP3 SWAP2 POP POP JUMP JUMPDEST PUSH0 PUSH2 0x16F3 PUSH0 NOT DUP5 PUSH1 0x8 MUL PUSH2 0x16D8 JUMP JUMPDEST NOT DUP1 DUP4 AND SWAP2 POP POP SWAP3 SWAP2 POP POP JUMP JUMPDEST PUSH0 PUSH2 0x170B DUP4 DUP4 PUSH2 0x16E4 JUMP JUMPDEST SWAP2 POP DUP3 PUSH1 0x2 MUL DUP3 OR SWAP1 POP SWAP3 SWAP2 POP POP JUMP JUMPDEST PUSH2 0x1724 DUP3 PUSH2 0xF16 JUMP JUMPDEST PUSH8 0xFFFFFFFFFFFFFFFF DUP2 GT ISZERO PUSH2 0x173D JUMPI PUSH2 0x173C PUSH2 0xFE6 JUMP JUMPDEST JUMPDEST PUSH2 0x1747 DUP3 SLOAD PUSH2 0x14E6 JUMP JUMPDEST PUSH2 0x1752 DUP3 DUP3 DUP6 PUSH2 0x1692 JUMP JUMPDEST PUSH0 PUSH1 0x20 SWAP1 POP PUSH1 0x1F DUP4 GT PUSH1 0x1 DUP2 EQ PUSH2 0x1783 JUMPI PUSH0 DUP5 ISZERO PUSH2 0x1771 JUMPI DUP3 DUP8 ADD MLOAD SWAP1 POP JUMPDEST PUSH2 0x177B DUP6 DUP3 PUSH2 0x1700 JUMP JUMPDEST DUP7 SSTORE POP PUSH2 0x17E2 JUMP JUMPDEST PUSH1 0x1F NOT DUP5 AND PUSH2 0x1791 DUP7 PUSH2 0x157E JUMP JUMPDEST PUSH0 JUMPDEST DUP3 DUP2 LT ISZERO PUSH2 0x17B8 JUMPI DUP5 DUP10 ADD MLOAD DUP3 SSTORE PUSH1 0x1 DUP3 ADD SWAP2 POP PUSH1 0x20 DUP6 ADD SWAP5 POP PUSH1 0x20 DUP2 ADD SWAP1 POP PUSH2 0x1793 JUMP JUMPDEST DUP7 DUP4 LT ISZERO PUSH2 0x17D5 JUMPI DUP5 DUP10 ADD MLOAD PUSH2 0x17D1 PUSH1 0x1F DUP10 AND DUP3 PUSH2 0x16E4 JUMP JUMPDEST DUP4 SSTORE POP JUMPDEST PUSH1 0x1 PUSH1 0x2 DUP9 MUL ADD DUP9 SSTORE POP POP POP JUMPDEST POP POP POP POP POP POP JUMP JUMPDEST PUSH0 PUSH1 0x80 DUP3 ADD SWAP1 POP PUSH2 0x17FD PUSH0 DUP4 ADD DUP8 PUSH2 0xEF8 JUMP JUMPDEST PUSH2 0x180A PUSH1 0x20 DUP4 ADD DUP7 PUSH2 0xF07 JUMP JUMPDEST DUP2 DUP2 SUB PUSH1 0x40 DUP4 ADD MSTORE PUSH2 0x181C DUP2 DUP6 PUSH2 0xF4E JUMP JUMPDEST SWAP1 POP PUSH2 0x182B PUSH1 0x60 DUP4 ADD DUP5 PUSH2 0xEF8 JUMP JUMPDEST SWAP6 SWAP5 POP POP POP POP POP JUMP JUMPDEST PUSH32 0x4E487B7100000000000000000000000000000000000000000000000000000000 PUSH0 MSTORE PUSH1 0x32 PUSH1 0x4 MSTORE PUSH1 0x24 PUSH0 REVERT JUMPDEST PUSH32 0x5468657265206973206E6F207477656574732065786973742077697468207468 PUSH0 DUP3 ADD MSTORE PUSH32 0x6973206964000000000000000000000000000000000000000000000000000000 PUSH1 0x20 DUP3 ADD MSTORE POP JUMP JUMPDEST PUSH0 PUSH2 0x18BB PUSH1 0x25 DUP4 PUSH2 0xF20 JUMP JUMPDEST SWAP2 POP PUSH2 0x18C6 DUP3 PUSH2 0x1861 JUMP JUMPDEST PUSH1 0x40 DUP3 ADD SWAP1 POP SWAP2 SWAP1 POP JUMP JUMPDEST PUSH0 PUSH1 0x20 DUP3 ADD SWAP1 POP DUP2 DUP2 SUB PUSH0 DUP4 ADD MSTORE PUSH2 0x18E8 DUP2 PUSH2 0x18AF JUMP JUMPDEST SWAP1 POP SWAP2 SWAP1 POP JUMP JUMPDEST PUSH32 0x5468697320706F737420686173206E6F206C696B657300000000000000000000 PUSH0 DUP3 ADD MSTORE POP JUMP JUMPDEST PUSH0 PUSH2 0x1923 PUSH1 0x16 DUP4 PUSH2 0xF20 JUMP JUMPDEST SWAP2 POP PUSH2 0x192E DUP3 PUSH2 0x18EF JUMP JUMPDEST PUSH1 0x20 DUP3 ADD SWAP1 POP SWAP2 SWAP1 POP JUMP JUMPDEST PUSH0 PUSH1 0x20 DUP3 ADD SWAP1 POP DUP2 DUP2 SUB PUSH0 DUP4 ADD MSTORE PUSH2 0x1950 DUP2 PUSH2 0x1917 JUMP JUMPDEST SWAP1 POP SWAP2 SWAP1 POP JUMP JUMPDEST PUSH32 0x4E487B7100000000000000000000000000000000000000000000000000000000 PUSH0 MSTORE PUSH1 0x11 PUSH1 0x4 MSTORE PUSH1 0x24 PUSH0 REVERT JUMPDEST PUSH0 PUSH2 0x198E DUP3 PUSH2 0xE87 JUMP JUMPDEST SWAP2 POP PUSH0 DUP3 SUB PUSH2 0x19A0 JUMPI PUSH2 0x199F PUSH2 0x1957 JUMP JUMPDEST JUMPDEST PUSH1 0x1 DUP3 SUB SWAP1 POP SWAP2 SWAP1 POP JUMP JUMPDEST PUSH0 PUSH1 0x80 DUP3 ADD SWAP1 POP PUSH2 0x19BE PUSH0 DUP4 ADD DUP8 PUSH2 0xF07 JUMP JUMPDEST PUSH2 0x19CB PUSH1 0x20 DUP4 ADD DUP7 PUSH2 0xF07 JUMP JUMPDEST PUSH2 0x19D8 PUSH1 0x40 DUP4 ADD DUP6 PUSH2 0xEF8 JUMP JUMPDEST PUSH2 0x19E5 PUSH1 0x60 DUP4 ADD DUP5 PUSH2 0xEF8 JUMP JUMPDEST SWAP6 SWAP5 POP POP POP POP POP JUMP JUMPDEST PUSH32 0x596F7520617265206E6F7420746865206F776E65720000000000000000000000 PUSH0 DUP3 ADD MSTORE POP JUMP JUMPDEST PUSH0 PUSH2 0x1A22 PUSH1 0x15 DUP4 PUSH2 0xF20 JUMP JUMPDEST SWAP2 POP PUSH2 0x1A2D DUP3 PUSH2 0x19EE JUMP JUMPDEST PUSH1 0x20 DUP3 ADD SWAP1 POP SWAP2 SWAP1 POP JUMP JUMPDEST PUSH0 PUSH1 0x20 DUP3 ADD SWAP1 POP DUP2 DUP2 SUB PUSH0 DUP4 ADD MSTORE PUSH2 0x1A4F DUP2 PUSH2 0x1A16 JUMP JUMPDEST SWAP1 POP SWAP2 SWAP1 POP JUMP JUMPDEST PUSH32 0x5468657265206973206E6F207477656574206578697374207769746820746869 PUSH0 DUP3 ADD MSTORE PUSH32 0x7320696400000000000000000000000000000000000000000000000000000000 PUSH1 0x20 DUP3 ADD MSTORE POP JUMP JUMPDEST PUSH0 PUSH2 0x1AB0 PUSH1 0x24 DUP4 PUSH2 0xF20 JUMP JUMPDEST SWAP2 POP PUSH2 0x1ABB DUP3 PUSH2 0x1A56 JUMP JUMPDEST PUSH1 0x40 DUP3 ADD SWAP1 POP SWAP2 SWAP1 POP JUMP JUMPDEST PUSH0 PUSH1 0x20 DUP3 ADD SWAP1 POP DUP2 DUP2 SUB PUSH0 DUP4 ADD MSTORE PUSH2 0x1ADD DUP2 PUSH2 0x1AA4 JUMP JUMPDEST SWAP1 POP SWAP2 SWAP1 POP JUMP JUMPDEST PUSH0 PUSH2 0x1AEE DUP3 PUSH2 0xE87 JUMP JUMPDEST SWAP2 POP PUSH32 0xFFFFFFFFFFFFFFFFFFFFFFFFFFFFFFFFFFFFFFFFFFFFFFFFFFFFFFFFFFFFFFFF DUP3 SUB PUSH2 0x1B20 JUMPI PUSH2 0x1B1F PUSH2 0x1957 JUMP JUMPDEST JUMPDEST PUSH1 0x1 DUP3 ADD SWAP1 POP SWAP2 SWAP1 POP JUMP JUMPDEST PUSH0 PUSH2 0x1B35 DUP3 PUSH2 0xE87 JUMP JUMPDEST SWAP2 POP PUSH2 0x1B40 DUP4 PUSH2 0xE87 JUMP JUMPDEST SWAP3 POP DUP3 DUP3 ADD SWAP1 POP DUP1 DUP3 GT ISZERO PUSH2 0x1B58 JUMPI PUSH2 0x1B57 PUSH2 0x1957 JUMP JUMPDEST JUMPDEST SWAP3 SWAP2 POP POP JUMP INVALID LOG2 PUSH5 0x6970667358 0x22 SLT KECCAK256 SWAP11 0xD3 0xCF 0xC6 0xB9 TIMESTAMP 0xE7 0xF6 SWAP12 SWAP9 MCOPY 0xBF STATICCALL 0xA9 DUP12 0xBC 0xA9 0xB3 SAR PUSH15 0x7015CD9533CAB07635B244264736F PUSH13 0x634300081A0033000000000000 "
				},
				"gasEstimates": {
					"creation": {
						"codeDepositCost": "1412000",
						"executionCost": "50001",
						"totalCost": "1462001"
					},
					"external": {
						"MAX_TWEET_LENGTH()": "2485",
						"changeTweetLength(uint16)": "26937",
						"createTweets(string)": "infinite",
						"getAllLikes(address)": "infinite",
						"getAllTweets(address)": "infinite",
						"getTweet(uint256)": "infinite",
						"likeTweet(address,uint256)": "infinite",
						"owner()": "2552",
						"tweets(address,uint256)": "infinite",
						"unlikeTweet(address,uint256)": "infinite"
					}
				},
				"methodIdentifiers": {
					"MAX_TWEET_LENGTH()": "6eb10797",
					"changeTweetLength(uint16)": "58bfa4ab",
					"createTweets(string)": "0a7aa8a1",
					"getAllLikes(address)": "e1549d85",
					"getAllTweets(address)": "12e7ee1c",
					"getTweet(uint256)": "c3ad5ecb",
					"likeTweet(address,uint256)": "63378216",
					"owner()": "8da5cb5b",
					"tweets(address,uint256)": "05a1b4a9",
					"unlikeTweet(address,uint256)": "3d9b569f"
				}
			},
			"storageLayout": {
				"storage": [
					{
						"astId": 15,
						"contract": "contracts/Twitter.sol:Twitter",
						"label": "MAX_TWEET_LENGTH",
						"offset": 0,
						"slot": "0",
						"type": "t_uint32"
					},
					{
						"astId": 21,
						"contract": "contracts/Twitter.sol:Twitter",
						"label": "tweets",
						"offset": 0,
						"slot": "1",
						"type": "t_mapping(t_address,t_array(t_struct(Tweet)12_storage)dyn_storage)"
					},
					{
						"astId": 23,
						"contract": "contracts/Twitter.sol:Twitter",
						"label": "owner",
						"offset": 0,
						"slot": "2",
						"type": "t_address"
					}
				],
				"types": {
					"t_address": {
						"encoding": "inplace",
						"label": "address",
						"numberOfBytes": "20"
					},
					"t_array(t_struct(Tweet)12_storage)dyn_storage": {
						"base": "t_struct(Tweet)12_storage",
						"encoding": "dynamic_array",
						"label": "struct Twitter.Tweet[]",
						"numberOfBytes": "32"
					},
					"t_mapping(t_address,t_array(t_struct(Tweet)12_storage)dyn_storage)": {
						"encoding": "mapping",
						"key": "t_address",
						"label": "mapping(address => struct Twitter.Tweet[])",
						"numberOfBytes": "32",
						"value": "t_array(t_struct(Tweet)12_storage)dyn_storage"
					},
					"t_string_storage": {
						"encoding": "bytes",
						"label": "string",
						"numberOfBytes": "32"
					},
					"t_struct(Tweet)12_storage": {
						"encoding": "inplace",
						"label": "struct Twitter.Tweet",
						"members": [
							{
								"astId": 3,
								"contract": "contracts/Twitter.sol:Twitter",
								"label": "id",
								"offset": 0,
								"slot": "0",
								"type": "t_uint256"
							},
							{
								"astId": 5,
								"contract": "contracts/Twitter.sol:Twitter",
								"label": "author",
								"offset": 0,
								"slot": "1",
								"type": "t_address"
							},
							{
								"astId": 7,
								"contract": "contracts/Twitter.sol:Twitter",
								"label": "content",
								"offset": 0,
								"slot": "2",
								"type": "t_string_storage"
							},
							{
								"astId": 9,
								"contract": "contracts/Twitter.sol:Twitter",
								"label": "timestamp",
								"offset": 0,
								"slot": "3",
								"type": "t_uint256"
							},
							{
								"astId": 11,
								"contract": "contracts/Twitter.sol:Twitter",
								"label": "likes",
								"offset": 0,
								"slot": "4",
								"type": "t_uint256"
							}
						],
						"numberOfBytes": "160"
					},
					"t_uint256": {
						"encoding": "inplace",
						"label": "uint256",
						"numberOfBytes": "32"
					},
					"t_uint32": {
						"encoding": "inplace",
						"label": "uint32",
						"numberOfBytes": "4"
					}
				}
			},
			"userdoc": {
				"kind": "user",
				"methods": {},
				"version": 1
			}
		}
	}
}